:020000040800F2
:10000000F84F0020DD0100087D040008A703000868
:100010007904000851020008810B0008000000006C
:100020000000000000000000000000004501000882
:10003000550200080000000089010008ED0A0008D0
:10004000F7010008F7010008F7010008F7010008B0
:10005000F7010008F7010008F7010008F7010008A0
:10006000F7010008F7010008F7010008F701000890
:10007000F7010008F7010008F7010008F701000880
:10008000F7010008F7010008F7010008F701000870
:10009000F7010008F7010008F7010008F701000860
:1000A000F7010008F7010008F7010008F701000850
:1000B000F7010008F7010008F7010008F701000840
:1000C000F7010008F7010008F7010008F701000830
:1000D000F7010008F7010008F7010008F701000820
:1000E000F7010008F7010008F7010008F701000810
:1000F000F7010008F7010008F7010008F701000800
:10010000F7010008F7010008F7010008F7010008EF
:10011000F7010008F7010008F7010008F7010008DF
:10012000F7010008F7010008F7010008F7010008CF
:10013000DFF80CD000F07AF8004800478F0D000877
:10014000F84F0020224B19680868B0E8F00F80F3E0
:100150000988BFF36F8F4FF0000080F311884EF0D5
:100160000D0E70470000000006480068006880F32C
:10017000088862B661B6BFF34F8FBFF36F8F00DFA1
:1001800000BF00BF08ED00E0EFF30980BFF36F8F01
:100190000F4B1A6820E9F00F106008B54FF05000BF
:1001A00080F31188BFF34F8FBFF36F8F01F05CFCBA
:1001B0004FF0000080F31188BDE808401968086816
:1001C000B0E8F00F80F30988BFF36F8F704700BF6E
:1001D00014000020EFF305807047000006488047B8
:1001E00006480047FEE7FEE7FEE7FEE7FEE7FEE71C
:1001F000FEE7FEE7FEE7FEE7210B000831010008FD
:1002000030B50B46014600202022012409E021FAE6
:1002100002F59D4205D303FA02F5491B04FA02F5E3
:100220002844151EA2F10102F1DC30BD064C074D39
:1002300006E0E06840F0010394E8070098471034B6
:10024000AC42F6D3FFF778FF403E0008603E00085E
:1002500000BFFEE7704700001CB5064801210023DF
:100260008022CDE9001004A1064801F0F7FC01F05E
:1002700099FB1CBD8000002073746172745F74610F
:10028000736B00005D1400082DE9F0410246002563
:100290000026002000230024002791F803C00CF062
:1002A0000F0591F803C00CF0100CBCF1000F03D047
:1002B00091F802C04CEA050591F800C0BCF1000FAE
:1002C00031D0146800202BE04FF0010C0CFA00F341
:1002D000B1F800C00CEA03069E4220D183004FF023
:1002E0000F0C0CFA03F7BC4305FA03FC4CEA0404B8
:1002F00091F803C0BCF1280F06D14FF0010C0CFAA5
:1003000000FCC2F814C00AE091F803C0BCF1480F29
:1003100005D14FF0010C0CFA00FCC2F810C0401CD3
:100320000828D1D31460B1F800C0BCF1FF0F34DD50
:10033000546800202EE000F1080C4FF0010808FA84
:100340000CF3B1F800C00CEA03069E4221D18300F1
:100350004FF00F0C0CFA03F7BC4305FA03FC4CEA10
:10036000040491F803C0BCF1280F05D100F1080C7A
:1003700008FA0CF8C2F8148091F803C0BCF1480FD9
:1003800007D100F1080C4FF0010808FA0CF8C2F888
:100390001080401C0828CED35460BDE8F081416134
:1003A00070470161704700BFFEE7000010B50221F1
:1003B0000A48FFF7F6FF01210848FFF7F2FF00F0B7
:1003C00037F802210548FFF7EAFF00F031F8012174
:1003D0000248FFF7E4FF00F02BF810BD00080140D1
:1003E00010B502210648FFF7DAFF01210448FFF7A4
:1003F000D8FF00F01DF802210148FFF7D2FF10BD21
:100400000008014010B502210848FFF7CAFF00F0BC
:100410000FF801210548FFF7C4FF00F009F801219A
:100420000248FFF7BCFF00F003F810BD00080140D0
:10043000032000BF011EA0F10102D0B2FAD1704723
:1004400008B50121102000F0A7FA4FF40050ADF8D4
:10045000000010208DF8030003208DF8020069468B
:100460000448FFF711FF4FF400510248FFF799FFCE
:1004700008BD00000010014000BFFEE7704700000B
:1004800070B500240CE0002506E00020074901EBD0
:10049000C5010855681CC5B2802DF6DB601CC4B2CE
:1004A000082CF0DB00F008F970BD00007447002054
:1004B00010B504461CB90021A62000F051FA012C09
:1004C00003D10021A72000F04BFA10BD10B504465F
:1004D0003CB90021C82000F043FA0021A12000F01F
:1004E0003FFA012C07D10021C02000F039FA002189
:1004F000A02000F035FA10BDF0B514460B46CF171A
:1005000001EB5777C7F3C702CF1701EB5777FF10FF
:10051000A1EBC707FEB20123B340DDB24CB1134BD0
:1005200003EBC0039B5C2B43104F07EBC007BB548E
:100530001AE00E4B03EBC0039B5CDB430B4F07EB56
:10054000C007BB54094B03EBC0039B5C2B43074F15
:1005500007EBC007BB54054B03EBC0039B5CDB43BD
:10056000024F07EBC007BB54F0BD000074470020EA
:1005700038B54F4C0121042000F00EFA0320ADF8ED
:10058000000014208DF8030003208DF80200694656
:100590004848FFF779FE03214648FFF702FF042091
:1005A000ADF8000010208DF8030003208DF8020044
:1005B00069464048FFF768FE04213E48FFF7F1FE18
:1005C00004213C48FFF7EBFE00BF201EA4F101040C
:1005D000FBD104213748FFF7E4FE0021AE2000F0F4
:1005E000BFF90021084600F0BBF90021102000F0FF
:1005F000B7F90021402000F0B3F90021812000F07C
:10060000AFF90021CF2000F0ABF90021A12000F0CC
:10061000A7F90021C82000F0A3F90021A62000F0CE
:100620009FF90021A82000F09BF900213F2000F055
:1006300097F90021D32000F093F90021084600F03B
:100640008FF90021D52000F08BF90021802000F0E7
:1006500087F90021D92000F083F90021F12000F072
:100660007FF90021DA2000F07BF90021122000F050
:1006700077F90021DB2000F073F90021302000F031
:100680006FF90021202000F06BF90021022000F01A
:1006900067F900218D2000F063F90021142000F09B
:1006A0005FF9FFF7EDFE0021AF2000F059F938BDEA
:1006B000400D03000008014070B500242BE004F158
:1006C000B001C8B2002100F04BF90021084600F04B
:1006D00047F90021102000F043F9FFF767FE78206A
:1006E00000F06AF9FFF78EFE402000F065F9FFF791
:1006F00089FE002509E0094901EBC501085D00F00C
:100700005BF9FFF77FFE681CC5B2802DF3DBFFF7B6
:1007100067FE601CC4B2082CD1DB70BD744700209A
:100720002DE9FE4F0746884692461C460197CDF8B4
:100730000080082C02D14FF006091FE02046E31785
:1007400004EB5373DB1021464FEAE47C04EB5C7C42
:100750004FEAEC0CA4EBCC0CBCF1000F02D04FF034
:10076000010C01E04FF0000C6344224604EBD27C04
:100770004FEA6C0C03FB0CF303F0FF09AAF1200015
:10078000C6B200255EE0082C07D106EB46002F49D3
:1007900001EB400010F805B01DE00C2C07D106EB72
:1007A00046002B4901EB800010F805B013E0102C37
:1007B00005D1284800EB061010F805B00BE0182C06
:1007C00007D106EBC600244901EB800010F805B004
:1007D00001E0BDE8FE8F002002901CE00BF001005C
:1007E00028B1414638460C9AFFF786FE09E00C987E
:1007F00008B9012000E00020024641463846FFF7D4
:100800007BFE4FEA6B0B08F1010000F0FF08029835
:10081000401CC0B2029002980828DFDB781CC7B2E7
:10082000082C0BD004EBD4714A100199791A8A4232
:1008300004D1019F00980830C0B20090DDF800801C
:10084000681CC5B24D459EDB00BFC2E730200008E2
:1008500058220008CC260008BC2C00082DE9FC4FCB
:100860000746884616461C46BB46CDF804802046FF
:10087000E21704EB5272D2102146E31704EB5373D4
:10088000DB10A4EBC3030BB1012300E000231A44E7
:10089000624392B20092002555E0102C05D12C48FD
:1008A00000EB461010F805A01BE0182C07D106EB52
:1008B000C600284901EBC00010F805A011E0202C6B
:1008C00005D1254800EBC61010F805A009E0402C22
:1008D00005D1224800EB462010F805A001E0BDE854
:1008E000FC8F4FF000091CE00AF0010028B14146DE
:1008F00038460B9AFFF700FE09E00B9808B9012073
:1009000000E00020024641463846FFF7F5FD4FEA79
:100910006A0A08F1010000F0FF0809F1010000F087
:10092000FF09B9F1080FDFDB781CC7B2A7EB0B009A
:10093000A04204D15F4601980830C0B20190DDF8B2
:100940000480681C85B200988542A6DB00BFC6E71C
:10095000183A0008783B0008C03B0008403C0008FB
:1009600070B505460C46FFF721FD782000F024F80D
:10097000FFF748FD1CB1402000F01EF802E0002007
:1009800000F01AF8FFF73EFD284600F015F8FFF7D3
:1009900039FDFFF725FD70BD29B1064A9269024372
:1009A000044B9A6104E0034A92698243014B9A61C5
:1009B000704700000010024070B5044600251BE09F
:1009C00004F0800020B102210D48FFF7EAFC03E0AB
:1009D00002210B48FFF7E3FCFFF72AFD012108483D
:1009E000FFF7DFFCFFF724FD01210548FFF7D7FCE7
:1009F0006006040E681CC5B2082DE1DB70BD000066
:100A00000008014010B500F001F810BD0CB5002041
:100A1000019000903348006840F48030314908600C
:100A200000BF3048006800F4003000900198401C7E
:100A30000190009818B90198B0F5A06FF1D129483C
:100A4000006800F4003010B10120009001E00020A7
:100A500000900098012843D12348006840F010001E
:100A6000214908600846006820F003000860084635
:100A7000006840F0020008601A4840681949486060
:100A80000846406848600846406840F48060486016
:100A90000846406820F47C1048600846406840F4EE
:100AA000E81048600846006840F08070086000BFA9
:100AB0000C48006800F000700028F9D00948406830
:100AC00020F00300074948600846406840F00200F3
:100AD000486000BF0348406800F00C000828F9D1C6
:100AE0000CBD0000001002400020024010B500BF05
:100AF000502080F31188BFF34F8FBFF36F8F00BF7B
:100B000001F0DCF818B14FF080500449086000BFD4
:100B1000002080F3118800BF10BD000004ED00E04C
:100B200010B51348006840F00100114908600846FC
:100B30004068104908400E494860084600680E4960
:100B400008400B4908600846006820F480200860CF
:100B50000846406820F4FE0048604FF41F0088609B
:100B6000FFF750FF4FF000600449086010BD00001F
:100B7000001002400000FFF8FFFFF6FE08ED00E065
:100B800000BFFEE70FB4054B10B503A9044A029855
:100B900000F018F810BC5DF814FB00007D0D000893
:100BA0008C00002002E008C8121F08C1002AFAD1F8
:100BB00070477047002001E001C1121F002AFBD1DD
:100BC000704700002DE9FF4F8BB09A460F4605464F
:100BD000002606E025280BD052460D9990476D1C43
:100BE000761C28780028F5D10FB03046BDE8F08F8C
:100BF0000024A0460122604900E0044315F8013FAB
:100C0000203B02FA03F00842F7D128782E2817D1AA
:100C100015F8010F44F004042A280ED06FF02F02BB
:100C20002878A0F1300109290AD808EB880102EBE5
:100C3000410100EB01086D1CF2E757F8048B6D1CB5
:100C4000287869283ED006DC0028CDD063280BD058
:100C5000642804D136E0732810D075284BD0524652
:100C60000D999047761C85E017F8040B8DF800006D
:100C700000208DF80100E946012003E057F8049BAD
:100C80004FF0FF3061074FF0000401D40AE0641C0C
:100C900044450DDA8442FADB19F804100029F6D134
:100CA00006E0641C8442FCDB19F804100029F8D12A
:100CB000264404E019F8010B52460D999047641E32
:100CC000F8D257E001CF4FF00A0B002802DA404279
:100CD0002D2102E0210504D52B218DF824100121BE
:100CE00003E0E10705D02021F7E70DF12009089185
:100CF0000CE00021F9E701CF4FF00A0BF9E7594664
:100D0000FFF77EFA01F1300209F8012D0028F6D133
:100D1000ADEB090000F1200B600701D44FF0010892
:100D2000D84502DDA8EB0B0000E00020804600243F
:100D300006E009A85246005D0D999047641C761C98
:100D400008988442F5DB04E0302052460D99904724
:100D5000761CB8F10001A8F10108F5DC05E019F8EE
:100D6000010B52460D999047761CBBF10001ABF187
:100D7000010BF4DC6D1C34E70928010038B504468A
:100D80008DF8000069460320ABBE204638BDFFF752
:100D900057FBFFF7EDFB0020FFF78AFB0020FFF772
:100DA00095FBFFF789FCFFF76BFBFFF755FA00BFD8
:100DB000FEE700002DE9F04105460E46264807688B
:100DC00026480068001D00F0DCFB50B9234800688D
:100DD00090F82C100120884021490968814320485F
:100DE0000160681CD8B9D6B11E4948681B4909681A
:100DF00088601A4982680968CA6018490968091D2B
:100E00008268516015490968091D8160154A1349B6
:100E100009684A6111460968491C11601AE07C1989
:100E20000E4800684460BC4207D20C480168091DA6
:100E30000D48006800F0C9FB0CE008480168091D76
:100E40000A48006800F0C1FB09480068844201D2EA
:100E500007480460BDE8F08128000020140000204D
:100E60002C000020600300201C000020180000203F
:100E70004400002010B5044600F0CEFB2F48006867
:100E8000401C2E4908602E48006840B92C48046078
:100E90000846006801280DD100F052F90AE02948FF
:100EA000006838B926480068C06AE16A884201D8FB
:100EB0002348046024480068401C2349086094F8D3
:100EC0002C10012088402149096808431F49086007
:100ED000E16A01EB81011E4A02EB81014868A060D2
:100EE0008268E260211D826851608160E16A01EBE5
:100EF0008101174A02EB81026261E16A01EB810123
:100F0000134A52F82110491CE26A02EB8202104B8C
:100F100043F8221000F0C6FB0A48006868B1084890
:100F20000068C06AE16A884207D24FF080500949E0
:100F30000860BFF34F8FBFF36F8F10BD24000020F8
:100F40001400002030000020400000202C00002071
:100F50009000002004ED00E010B516E000F05CFB0E
:100F60000C48C068C468201D00F00BFB0A480068EC
:100F7000401E0949086009480068401E074908608A
:100F800000F090FB204600F00BF8044800680028B1
:100F9000E4D110BD4C0300202400002020000020DC
:100FA00010B50446206B00F0B7FB204600F0B4FB00
:100FB00010BD000030B54FF48843174800F0070417
:100FC0002CB1C01D20F00700134C041B1B1B024654
:100FD000124C22600024114D6C60D018083820F0AB
:100FE00007000F4C206000240D4D2D686C600C4DE7
:100FF0002D682C601146441A4C60094C24680C6022
:10100000084D4C682C60084D4C682C604FF0004433
:10101000064D2C6030BD00007403002060000020ED
:1010200068000020700000206C0000207C00002080
:1010300000BFFFF791FF064800680128F9D94FF07B
:10104000805004490860BFF34F8FBFF36F8FF0E704
:101050009000002004ED00E02DE9FF5F81460E4680
:101060009246DDE90E7B109CAAF10100216B01EB99
:10107000800828F0070808F0070008B9012000E000
:10108000002028B940F26A3222A129A0FFF77AFD98
:1010900086B1002507E0715D04F134004155705DB3
:1010A00000B902E06D1C102DF5D300BF00214320D4
:1010B000015502E0002084F83400202F01D20120E5
:1010C00000E0002028B940F2A13212A118A0FFF7D9
:1010D00059FD202F00D31F27E762201D00F072FA70
:1010E00004F1180000F06EFA2461C7F12000A0613D
:1010F00064620020606484F8480049464046039AD0
:1011000000F09AF92060BBF1000F01D0CBF800404D
:10111000BDE8FF9F2E2E5C557365725C4672656557
:1011200052544F535C7461736B732E630000000064
:101130004572726F723A2025732C2025640D0A00C7
:1011400010B5002407E004EB84010F4A02EB810094
:1011500000F02BFA641C202CF5D30C4800F025FA83
:101160000B4800F022FA0B4800F01FFA0A4800F082
:101170001CFA0A4800F019FA0448094908600448B2
:101180000849086010BD00009000002010030020F6
:1011900024030020380300204C03002060030020BB
:1011A000180000201C00002010B50146164800E081
:1011B000006803688B42FBD30246436813448B42AA
:1011C00004D143684C682344436001460A464B6897
:1011D00013440468A34211D10C4C03682468A34251
:1011E00008D04B680468646823444B6003681B683C
:1011F0000B6005E0054B1B680B6001E003680B60AA
:10120000884200D0016010BD60000020680000200E
:1012100009480068006808B9012000E0002020B1FA
:101220004FF0FF300549086005E003480068C068DA
:101230000068024908607047180000204400002040
:101240000B480068401C08B9012000E0002020B9CC
:10125000CE2208A113A0FFF795FC00BF502080F319
:101260001188BFF34F8FBFF36F8F00BF00BFFEE742
:10127000540000202E2E5C557365725C46726565C5
:1012800052544F535C706F727461626C655C52565D
:1012900044535C41524D5F434D335C706F72742E0A
:1012A000630000004572726F723A2025732C20256E
:1012B000640D0A002DE9F04104464FF0000800F0EB
:1012C000CBFB4848006808B9FFF774FE4648006841
:1012D0002040002874D1002C22D004F10800A04244
:1012E0001ED9083404F00700D8B104F00700C0F19B
:1012F00008002044A04211D904F00700C0F1080002
:10130000044404F0070008B9012000E0002040B9BF
:101310009C2236A140A0FFF735FC02E0002400E04B
:101320000024002C4CD040480068844248D83F4EEE
:101330003046056801E02E462D686868A04202D25A
:1013400028680028F7D127480068854238D03068DF
:1013500000F10808286830606868001B102813D95D
:101360002F1907F0070008B9012000E0002020B97C
:10137000CF221EA128A0FFF705FC6868001B78603B
:101380006C603846FFF710FF274968680968081A3B
:10139000254908600846006825490968884203D243
:1013A00021480068224908600F49686809680843B5
:1013B0006860002028601F480068401C1D490860C4
:1013C00000F06AFD08F0070008B9012000E00020E5
:1013D00028B94FF4887205A10FA0FFF7D3FB404650
:1013E000BDE8F081680000207C0000202E2E5C55B6
:1013F0007365725C4672656552544F535C706F72D0
:101400007461626C655C4D656D4D616E675C6865AD
:1014100061705F342E6300004572726F723A20254E
:10142000732C2025640D0A006C0000206000002051
:101430007000002074000020001F4FF080730360D4
:10144000001F21F001030360001F034B03601438E9
:101450000260203870470000411200081CB50446A5
:1014600000F0DAF80C48022100238022CDE90010B8
:101470000AA10C4800F0F2FB0B4802210023CA012C
:10148000CDE9001009A10B4800F0E8FB002000F0B6
:10149000FBF900F007F91CBD840000207461736B38
:1014A00031000000B9140008880000207461736BDB
:1014B00032000000E514000800BF4FF40051084856
:1014C000FEF76FFF4FF4FA7000F0A0F94FF40051EF
:1014D0000348FEF764FF4FF4FA7000F097F9ECE769
:1014E0000010014008B5202400BF01201023002275
:1014F000114600901046FFF7B1F901201023024673
:10150000002100901220FFF7A9F9012010230222E8
:10151000002100902420FFF7A1F9012010230322CD
:10152000002100903620FFF799F9012010230422B2
:10153000002100904820FFF791F901201023052297
:10154000002100905A20FFF789F90120102306227C
:10155000002100906C20FFF781F901201023224622
:10156000302100900846FFF7DBF87E2C00DD2024B8
:10157000FFF7A2F84FF4FA7000F048F9601CC4B20B
:10158000B3E701460A69D1E901309860D1E9010366
:1015900058605068884201D1886850600020086116
:1015A0001068401E10601068704700F1080141602B
:1015B0004FF0FF31816000F10801C160016100213D
:1015C0000160704700210161704710B502460B6849
:1015D0005C1C0CB9106907E002F1080000E04068EB
:1015E000446824689C42FAD944684C604C68A16005
:1015F000886041600A611468641C146010BD426810
:101600004A6093688B6093685960916008610368D1
:101610005B1C03607047000010B500BF502080F3D2
:101620001188BFF34F8FBFF36F8F00BF0B48006867
:10163000401C0A4908600846006801280DD1084886
:101640000068C0B208B9012000E0002028B940F2CB
:10165000731204A10FA0FFF795FA10BD54000020EB
:1016600004ED00E02E2E5C557365725C4672656574
:1016700052544F535C706F727461626C655C525669
:1016800044535C41524D5F434D335C706F72742E16
:10169000630000004572726F723A2025732C20257A
:1016A000640D0A0010B50B48006828B94FF4BD72EC
:1016B00009A115A0FFF766FA06480068401E054913
:1016C00008600846006820B9002080F3118800BF38
:1016D00000BF10BD540000202E2E5C557365725C57
:1016E0004672656552544F535C706F727461626CE0
:1016F000655C525644535C41524D5F434D335C70C0
:101700006F72742E630000004572726F723A20256A
:10171000732C2025640D0A0070B506463546002E50
:101720003AD0083D2C461D4960680968084008B158
:10173000012000E0002028B94FF4927218A123A0E4
:10174000FFF720FA206808B9012000E0002028B93E
:1017500040F2251212A11DA0FFF714FA0F4960688C
:1017600009680840C0B12068B0B90C4960680968D0
:101770008843606000F070F918496068096808449F
:10178000164908602046FFF70FFD15480068401C09
:101790001349086000F080FB70BD00007C00002051
:1017A0002E2E5C557365725C4672656552544F53BC
:1017B0005C706F727461626C655C4D656D4D616EDD
:1017C000675C686561705F342E6300004572726FFC
:1017D000723A2025732C2025640D0A006C0000202D
:1017E0007800002000204FF0E02108618861064861
:1017F00000684FF47A71B0FBF1F0401E4FF0E02129
:1018000048610720086170470000002070B5044659
:101810000025ACB10F48006808B9012000E00020A5
:1018200028B940F253520CA112A0FFF7ABF900F017
:1018300013F900212046FFF7BDFA00F02DFB054605
:101840003DB94FF080500F490860BFF34F8FBFF391
:101850006F8F70BD500000202E2E5C557365725C3A
:101860004672656552544F535C7461736B732E639B
:10187000000000004572726F723A2025732C2025FB
:10188000640D0A0004ED00E070B50546FFF7C4FEE4
:1018900015B92F48006800E028460446201DFFF7D0
:1018A00070FE78B9E06A00EB80002A4951F8200008
:1018B00040B994F82C1001208840274909688143D9
:1018C00025480160A06A18B104F11800FFF759FE1D
:1018D00022480068401C214908601D480068844275
:1018E00009D1211D1E48FFF78AFE1E480068401CD2
:1018F0001C49086006E01C480068401E1A49086040
:10190000FFF786FCFFF7CEFE11480068844202D044
:101910002046FFF745FB15480068C0B10C48006839
:10192000844214D11248006808B9012000E0002068
:1019300028B940F2E6420FA115A0FFF723F94FF0B6
:10194000805017490860BFF34F8FBFF36F8F70BD92
:1019500014000020900000202C00002040000020F7
:101960004C03002020000020240000203000002034
:10197000500000202E2E5C557365725C46726565C2
:1019800052544F535C7461736B732E6300000000FC
:101990004572726F723A2025732C2025640D0A005F
:1019A00004ED00E01CB5194800210B468022CDE96A
:1019B000001017A1184800F051F90446012C15D168
:1019C00000BF502080F31188BFF34F8FBFF36F8F9C
:1019D00000BF4FF0FF301149086001201049086036
:1019E00000201049086000F097F80BE0601C08B177
:1019F000012000E0002028B940F64A020AA111A007
:101A0000FFF7C0F8134800681CBD00004800002024
:101A100049444C45000000003110000844000020FB
:101A200030000020280000202E2E5C557365725C6B
:101A30004672656552544F535C7461736B732E63C9
:101A4000000000004572726F723A2025732C202529
:101A5000640D0A004C00002002480068401C014947
:101A6000086070475000002010B51B48006818B18E
:101A700001201A4908602DE0002018490860184824
:101A80000068B0FA80F0C0F11F0404EB840015492F
:101A900051F8200008B1012000E0002028B940F6EC
:101AA0000C4211A117A0FFF76DF804EB84010D4A59
:101AB00002EB810041684968416000F10801426819
:101AC0008A4202D14168496841604168C968114A47
:101AD000116000BF10BD0000500000203800002041
:101AE0002C000020900000202E2E5C557365725C47
:101AF0004672656552544F535C7461736B732E6309
:101B0000000000004572726F723A2025732C202568
:101B1000640D0A00140000201CB53B4C20460078E0
:101B20000190FF20214608700846007800909DF83B
:101B3000000000F0F0009DF80010884201D1012063
:101B400000E0002028B940F21F1230A13BA0FFF7AF
:101B500019F89DF8000000F050003C49087007207B
:101B60003B49086009E03A480068401E384908606F
:101B70009DF800004006000E00909DF8000000F067
:101B800080008028EFD032480068C0F107000428A8
:101B900001D1012000E0002028B940F233121BA13E
:101BA00026A0FEF7EFFF2A480068C0F107000428CE
:101BB00001D1012000E0002028B94FF49E7213A14A
:101BC0001EA0FEF7DFFF22480068000220490860DF
:101BD0000846008800F4E06008600B49019808702E
:101BE0001C48006840F470001A4908600846006804
:101BF00040F070400860FFF7F5FD002016490860CE
:101C0000FEF7B2FA00201CBD00E400E02E2E5C5569
:101C10007365725C4672656552544F535C706F72A7
:101C20007461626C655C525644535C41524D5F4333
:101C30004D335C706F72742E630000004572726FDA
:101C4000723A2025732C2025640D0A0058000020CC
:101C50005C00002020ED00E0540000202DE9FF4F43
:101C600085B0804689461746DDE912ABB800FFF71C
:101C700021FB064656B14C20FFF71CFB04460CB175
:101C8000266304E03046FFF747FD00E000247CB106
:101C90000020CDE900ABCDE902403A464946404636
:101CA000089BFFF7D9F92046FFF7E4F8012501E08A
:101CB0004FF0FF35284609B0BDE8F08F2DE9F0411F
:101CC0004FF000085E48006800287DD15D4800683C
:101CD000451C5C480560EDB95B480068006808B9C0
:101CE000012000E0002028B940F6D12257A15EA0D3
:101CF000FEF748FF544807685F480068524908608B
:101D00005D4807605D480068401C5C490860FFF75B
:101D10007FFA00BF5A480068854277D300BF4A481F
:101D20000068006808B9012000E0002020B14FF0F1
:101D3000FF305349086068E043480068C068C468E1
:101D40006668B54202D24E4806605EE06069D4E93A
:101D500002128A60D4E902214A60211D42688A4247
:101D600001D1E1684160002262610168491E0160A1
:101D7000A06A98B1A06AD4E907128A60D4E9072161
:101D80004A6004F1180142688A4201D1216A416027
:101D90000022A2620168491E016000BF94F82C1065
:101DA0000120884037490968084336490860E16ADC
:101DB00001EB8101344A02EB81014868A06082682E
:101DC000E260211D826800E032E051608160E16ADA
:101DD00001EB81012C4A02EB81026261E16A01EBB5
:101DE0008101294A52F82110491CE26A02EB820261
:101DF000254B43F822102549E06A0968C96A8842E0
:101E00008DD34FF001088AE700E000BF1F4800684B
:101E1000C06A00EB80001C4951F82000012801D95C
:101E20004FF001081A48006808B14FF0010804E0BB
:101E300018480068401C174908604046BDE8F0811A
:101E40005000002028000020180000202E2E5C5595
:101E50007365725C4672656552544F535C7461736E
:101E60006B732E63000000004572726F723A20257A
:101E7000732C2025640D0A001C0000203C0000206B
:101E8000440000202C0000209000002014000020BE
:101E9000380000203400002070B50024002650488F
:101EA000006828B940F6BD024EA155A0FEF76AFEB3
:101EB000FFF7B2FB4A480068401E494908600846DF
:101EC000006800287ED15248006800287AD05BE084
:101ED0005048C068C468A06AD4E907128A60D4E98F
:101EE00007214A6004F1180142688A4201D1216A3F
:101EF00041600022A2620168491E01606069D4E964
:101F000002128A60D4E902214A60211D42688A4295
:101F100001D1E1684160002262610168491E0160EF
:101F200094F82C10012088403B49096808433A493D
:101F30000860E16A01EB8101384A02EB81014868DF
:101F4000A0608268E260211D826851608160E16A60
:101F500001EB8101314A02EB81026261E16A01EB2E
:101F600081012E4A52F82110491CE26A02EB8202DA
:101F70002A4B43F822102A49E06A0968C96A884254
:101F800002D30120274908602248006808B90120CF
:101F900000E0002000289BD00CB1FFF739F922485F
:101FA000056865B100BFFFF789FE10B101201D492A
:101FB00008606D1E002DF6D100201B4908601948ED
:101FC000006800E008E038B10126300717490860D2
:101FD000BFF34F8FBFF36F8FFFF764FB304670BDC9
:101FE000500000202E2E5C557365725C467265654C
:101FF00052544F535C7461736B732E630000000086
:102000004572726F723A2025732C2025640D0A00E8
:1020100024000020380300202C0000209000002025
:1020200014000020380000203400002004ED00E0FF
:102030000000000000000000002F0000000007006A
:10204000070000147F147F1400242A7F2A120062E4
:102050006408132300364955225000000503000090
:1020600000001C224100000041221C000014083E18
:1020700008140008083E0808000000A060000008DE
:102080000808080800006060000000201008040232
:10209000003E5149453E0000427F400000426151F0
:1020A0004946002141454B31001814127F1000278A
:1020B00045454539003C4A4949300001710905034D
:1020C00000364949493600064949291E000036367E
:1020D00000000000563600000008142241000014E1
:1020E00014141414000041221408000201510906BE
:1020F00000324959513E007C1211127C007F49493F
:102100004936003E41414122007F4141221C007F6F
:1021100049494941007F09090901003E4149497A7D
:10212000007F0808087F0000417F410000204041F7
:102130003F01007F08142241007F40404040007F63
:10214000020C027F007F0408107F003E4141413EA7
:10215000007F09090906003E4151215E007F0919EF
:1021600029460046494949310001017F0101003FEC
:102170004040403F001F2040201F003F4038403F6C
:1021800000631408146300070870080700615149D0
:10219000454300007F41410000552A552A55000063
:1021A00041417F00000402010204004040404040E1
:1021B000000001020400002054545478007F484479
:1021C000443800384444442000384444487F0038B0
:1021D0005454541800087E0901020018A4A4A47CD9
:1021E000007F080404780000447D400000408084A3
:1021F0007D00007F102844000000417F4000007CEB
:1022000004180478007C08040478003844444438F6
:1022100000FC242424180018242418FC007C080442
:10222000040800485454542000043F444020003C1B
:102230004040207C001C2040201C003C4030403CA2
:10224000004428102844001CA0A0A07C0044645432
:102250004C44141414141414000000000000000076
:10226000000000000000FC00000000000200000070
:10227000000C020C020000000000000090D0BCD056
:10228000BC900003000300001824FE448C000302ED
:10229000070201001824D8B04C800003000102019D
:1022A000C038E438E0000102020102020806000022
:1022B0000000000000000000000000F80402000020
:1022C00000010204000204F8000000040201000002
:1022D0009060F86090000000010000002020FC20C9
:1022E00020000000010000000000000000000806BF
:1022F000000000002020202020000000000000003E
:102300000000000000000002000000000080601CCF
:102310000200040300000000F8040404F8000102B5
:10232000020201000008FC0000000002030200009D
:102330001884442418000302020202000804242422
:10234000D80001020202010040B088FC80000000B9
:10235000000302003C242424C40001020202010004
:10236000F824242CC0000102020201000C04E41C29
:102370000400000003000000D8242424D800010237
:102380000202010038444444F80000030202010044
:10239000000010000000000002000000000020000B
:1023A0000000000006000000002050880402000029
:1023B000000001029090909090000000000000004A
:1023C0000002048850200002010000001804C42408
:1023D0001800000002000000F804E494F800010274
:1023E0000202020000E09CF08000020300000302F1
:1023F00004FC2424D800020302020100F8040404AF
:102400000C0001020202010004FC0404F8000203B3
:102410000202010004FC24740C0002030202030007
:1024200004FC24740C00020302000000F0080444C1
:10243000CC4000010202010004FC2020FC04020345
:10244000000003020404FC04040002020302020070
:10245000000404FC040406040403000004FC24D06B
:102460000C0402030200030204FC04000000020347
:1024700002020203FC3CC03CFC000300030003001A
:1024800004FC30C4FC04020302000300F80404044A
:10249000F80001020202010004FC242418000203D7
:1024A00002000000F8848404F8000102020705001D
:1024B00004FC24649800020302000302182424444C
:1024C0008C000302020201000C04FC040C00000258
:1024D0000302000004FC0000FC04000102020100F1
:1024E000047C80E01C040000030000001CE03CE0D1
:1024F0001C00000300030000049C609C0400020315
:1025000000030200041CE01C04000002030200009F
:102510000C84641C04000203020203000000FE029B
:102520000200000007040400000E30C0000000009C
:1025300000010200000202FE000000040407000087
:102540000004020400000000000000000000000081
:102550000000080808080808000002000000000049
:10256000000000000040A0A0C00000010202030221
:1025700004FC2020C00000030202010000C0202053
:10258000600000010202020000C02024FC000001E3
:102590000202030200C0A0A0C0000001020202006B
:1025A0000020F82424040002030202000040A0A03E
:1025B000602000070A0A0A0404FC2020C00002036D
:1025C000020003020020E4000000000203020000F9
:1025D000000020E4000008080807000004FC80E078
:1025E00020200203020003020404FC000000020297
:1025F00003020200E020E020C0000300030003000B
:1026000020E02020C00002030200030200C02020BE
:10261000C00000010202010020E02020C000080FDD
:102620000A02010000C02020E0000001020A0F0899
:1026300020E0402020000203020000000060A0A073
:1026400020000002020203000020F8200000000029
:102650000102020020E00020E0000001020203026B
:1026600020E0208060200000030100006080E08006
:10267000600000030003000020608060200002036F
:102680000003020020E0208060200808070100000D
:102690000020A0602000000203020200000020DEF3
:1026A0000200000000070400000000FF000000001E
:1026B000000F00000002DE20000000040700000000
:1026C00002010204040200000000000000000000FB
:1026D000000000000000000000000000000000F802
:1026E00000000000000000333000000000100C0665
:1026F000100C0600000000000000000040C0784000
:10270000C0784000043F04043F040400007088FCCB
:1027100008300000001820FF211E0000F008F00023
:10272000E018000000211C031E211E0000F0088894
:10273000700000001E2123241927211010160E00FE
:10274000000000000000000000000000000000E0A9
:1027500018040200000000071820400000020418BE
:10276000E00000000040201807000000404080F01A
:10277000804040000202010F01020200000000F050
:10278000000000000101011F010101000000000024
:102790000000000080B07000000000000000000099
:1027A0000000000000010101010101010000000022
:1027B00000000000003030000000000000000000B9
:1027C00080601804006018060100000000E0100896
:1027D0000810E000000F102020100F00001010F86B
:1027E000000000000020203F2020000000700808AA
:1027F000088870000030282422213000003008882A
:10280000884830000018202020110E000000C02051
:1028100010F8000000070424243F240000F8088872
:10282000880808000019212020110E0000E01088FF
:1028300088180000000F112020110E000038080831
:10284000C83808000000003F000000000070880841
:1028500008887000001C222121221C0000E01008C2
:102860000810E0000000312222110F00000000C01B
:10287000C0000000000000303000000000000080B8
:1028800000000000000080600000000000008040A8
:1028900020100800000102040810200040404040C1
:1028A0004040400004040404040404000008102014
:1028B0004080000000201008040201000070480859
:1028C0000808F0000000003036010000C030C828C1
:1028D000E810E0000718272423140B000000C0387C
:1028E000E0000000203C23020227382008F88888F6
:1028F00088700000203F202020110E00C030080802
:1029000008083800071820202010080008F80808D8
:102910000810E000203F202020100F0008F88888D1
:10292000E8081000203F20202320180008F888889D
:10293000E8081000203F200003000000C030080815
:102940000838000007182020221E020008F808009E
:102950000008F808203F210101213F20000808F865
:10296000080800000020203F202000000000080888
:10297000F8080800C08080807F00000008F888C048
:1029800028180800203F20012638200008F80800F9
:1029900000000000203F20202020300008F8F80030
:1029A000F8F80800203F003F003F200008F830C042
:1029B0000008F808203F200007183F00E010080832
:1029C0000810E0000F10202020100F0008F8080861
:1029D0000808F000203F210101010000E010080874
:1029E0000810E0000F18242438504F0008F8888899
:1029F00088887000203F2000030C30200070880879
:102A0000080838000038202121221C00180808F886
:102A1000080818000000203F2000000008F8080007
:102A20000008F808001F202020201F0008788800D8
:102A300000C83808000007380E010000F80800F848
:102A40000008F800033C0700073C030008186880F2
:102A50008068180820302C03032C30200838C80068
:102A6000C83808000000203F2000000010080808B7
:102A7000C83808002038262120201800000000FE59
:102A8000020202000000007F40404000000C30C005
:102A900000000000000000010638C0000002020231
:102AA000FE000000004040407F00000000000402E3
:102AB000020204000000000000000000000000000E
:102AC00000000000808080808080808000020204FE
:102AD00000000000000000000000000000008080F6
:102AE000808000000019242222223F2008F8008064
:102AF00080000000003F112020110E000000008027
:102B000080800000000E11202020110000000080B5
:102B10008088F800000E112020103F2000008080E7
:102B200080800000001F222222221300008080F0FB
:102B3000888888180020203F202000000000808026
:102B400080808000006B94949493600008F800806B
:102B500080800000203F210000203F2000809898C6
:102B6000000000000020203F202000000000008026
:102B70009898000000C08080807F000008F8000066
:102B800080808000203F24022D302000000808F8BB
:102B9000000000000020203F202000008080808076
:102BA00080808000203F20003F20003F8080008008
:102BB00080800000203F210000203F200000808016
:102BC00080800000001F202020201F0080800080C7
:102BD0008000000080FFA12020110E000000008076
:102BE00080808000000E112020A0FF808080800067
:102BF0008080800020203F21200001000000808094
:102C0000808080000033242424241900008080E088
:102C1000808000000000001F202000008080000055
:102C200000808000001F202020103F208080800036
:102C30000080808000010E30080601008080008046
:102C4000008080800F300C030C300F00008080006B
:102C5000808080000020312E0E3120008080800096
:102C60000080808080818E70180601000080808046
:102C7000808080000021302C2221300000000000E4
:102C8000807C020200000000003F40400000000085
:102C9000FF00000000000000FF0000000002027CB6
:102CA000800000000040403F0000000000060101DD
:102CB0000202040400000000000000000000000008
:102CC0000000000000000000000000000000000004
:102CD00000000000000000000000000000000000F4
:102CE0000000000000F0F0F0000000000000000014
:102CF00000017F010000000000000000001C1C1CFF
:102D00000000000000008060301C8C60301C0C0053
:102D100000000000000000000000000000000000B3
:102D20000000000000000000000000E000000000C3
:102D300000E000000086E69F86868686E69F860085
:102D400000011F01010101011F010100000080C0FD
:102D50006020F820E0C00000000003070C18FF709E
:102D6000E18100000000070F10107F100F07000026
:102D70008060206080000000E02000000F302030E4
:102D80009F70DC371030C0000000100E03000718E1
:102D9000101807000000C02020E0C0000000000064
:102DA00080E01F38E88703C43C040000070F1810B8
:102DB000100B070D1010080000808C4C380000002C
:102DC0000000000000000000000000000000000003
:102DD00000000000000000000000000000000000F3
:102DE000000080E0300804000000000000FEFF0149
:102DF00000000000000000000000030F1820400049
:102E000000040830E0800000000000000000000026
:102E100001FFFE0000000000004020180F0300002A
:102E200000000000000000000000C00000000000E2
:102E3000004266663C18FF183C66664200000000CF
:102E400000000300000000000000000000008000FF
:102E500000000000001010101010FF1010101010D3
:102E6000000000000000030000000000000000005F
:102E70000000000000000000000000000000000052
:102E80000000000000808C4C3800000000000000B2
:102E90000000000000000000000000000010101002
:102EA00010101010101010000000000000000000B2
:102EB0000000000000000000000000000000000012
:102EC00000000000000000000000000000001C1CCA
:102ED0001C000000000000000000000000000000D6
:102EE000E0380C000000000080701C0300000000AF
:102EF0000060380E0100000000000000000080C0EB
:102F000060202060C080000000FEFF010000000083
:102F100001FFFE000001070E181010180E07010037
:102F20000000808080C0E000000000000000000081
:102F300000FFFF000000000000001010101F1F1015
:102F4000101000000080402020202060C080000081
:102F500000030300804020381F070000001C1A19DE
:102F600018181818181F00000080C020202060C00A
:102F700080000000000303001010182FE7800000FD
:102F800000070F10101010180F07000000000000BD
:102F90000000C0E0F000000000C0B088868180FF23
:102FA000FF808000000000000010101F1F101000A4
:102FB0000000E060606060606060000000003F1042
:102FC00008080818F0E0000000070B101010101C93
:102FD0000F030000000080C040202020E0C000005F
:102FE00000FCFF211008080818F0E0000001070CA1
:102FF00018101010080F03000000C0E0606060604F
:1030000060E06000000003000000E018070000001E
:1030100000000000001F1F00000000000080C060D2
:103020002020202060C080000087EF2C181830304E
:1030300068CF830000070F0810101010180F07004A
:103040000000C0C020202020C0800000001F3F6082
:103050004040402010FFFE0000000C1C1010100823
:103060000F0300000000000000000000000000004E
:1030700000000000000E0E0E000000000000000026
:10308000001C1C1C000000000000000000000000EC
:103090000000000000000000000C0C000000000018
:1030A0000000000000583800000000000000000090
:1030B0000000008040201000000010284482010021
:1030C00000000000000000000000010204081000E1
:1030D0000000000000000000000000000084848464
:1030E0008484848484848400000000000000000044
:1030F00000000000000010204080000000000000E0
:1031000000000000000001824428100000001008A8
:10311000040201000000000000C020201010101068
:1031200030E0C0000003030000F010080C070300AB
:10313000000000001C1C1C0000000000000000C07B
:10314000406020202040C00000FCFF01F00E03C1C1
:10315000FE03807F0001070E0811111011090402FF
:103160000000000080E0E000000000000000807C23
:103170004340477FF880000010181F100000000037
:10318000131F1C1020E0E02020202060C0800000E1
:1031900000FFFF10101010182FE78000101F1F10E5
:1031A00010101010180F0700000080C040202020D1
:1031B0002060E00000FCFF010000000000000100B2
:1031C0000001070E181010100804030020E0E02092
:1031D00020202040C080000000FFFF000000000011
:1031E00001FFFE00101F1F10101018080E0701002D
:1031F00020E0E020202020202060800000FFFF1041
:103200001010107C00000000101F1F101010101074
:103210001018060020E0E0202020202060608000C0
:1032200000FFFF101010107C00000100101F1F1085
:103230000000000000000000000080C0602020208E
:1032400040E0000000FCFF0100004040C0C14040E1
:103250000001070E181010100F0F000020E0E020F2
:103260000000000020E0E02000FFFF101010101010
:1032700010FFFF00101F1F1000000000101F1F1084
:103280000000202020E0E0202020000000000000BE
:1032900000FFFF000000000000001010101F1F10B2
:1032A0001010000000000000202020E0E02020207E
:1032B00000000000000000FFFF0000000060E08050
:1032C0008080C07F3F00000020E0E020000020A0C0
:1032D0006020200000FFFF30187CE3C000000000E9
:1032E000101F1F10000001131F1C181020E0E02009
:1032F000000000000000000000FFFF0000000000D0
:1033000000000000101F1F101010101010180600F1
:1033100020E0E0E000000000E0E0E02000FF013FEE
:10332000FEC0E01E01FFFF00101F1000031F03007E
:10333000101F1F1020E0E0C0000000000020E0206F
:1033400000FF0003071C78E08000FF00101F100042
:1033500000000000030F1F00000080C060202060FC
:10336000C080000000FEFF010000000000FFFE0022
:103370000001070E181010180C07010020E0E020D3
:103380002020202060C0800000FFFF20202020207F
:10339000301F0F00101F1F10000000000000000071
:1033A000000080C060202060C080000000FEFF019F
:1033B0000000000000FFFE000001070E1111133C89
:1033C0007C67210020E0E0202020202060C08000D9
:1033D00000FFFF101030F0D0080F0700101F1F1063
:1033E000000000030F1C10100080C060202020206F
:1033F0004040E00000070F0C1818303060E08100FA
:10340000001F0C0810101010180F070080602020FB
:1034100020E0E020202060800100000000FFFF008D
:103420000000000100000000101F1F10000000003D
:1034300020E0E020000000000020E02000FFFF006E
:10344000000000000000FF0000070F18101010100F
:10345000100807002060E0E02000000020E060206D
:103460000000077FF88000807C030000000000005F
:10347000071F1C070000000020E0E02000E0E02023
:103480000020E0200007FFF8E01FFFFCE01F000025
:103490000000031F0300011F03000000002060E084
:1034A000A0000020E0602000000000038F7CF8C630
:1034B000010000000010181E130001171F18100053
:1034C0002060E0E02000000020E060200000010714
:1034D0003EF8E0180700000000000010101F1F1049
:1034E0001000000000806020202020A0E0E02000EC
:1034F00000000000C0F03E0F0300000000101C1F81
:1035000017101010101806000000000000FC040442
:10351000040404000000000000FF000000000000A0
:1035200000000000007F404040404000000010E0EC
:10353000000000000000000000000000031C60808C
:103540000000000000000000000000030C7080007C
:1035500000000404040404FC00000000000000005B
:10356000000000FF00000000000040404040407F9D
:103570000000000000000010080C040C08100000FF
:10358000000000000000000000000000000000003B
:10359000000000000000000000000000000000002B
:1035A000000000000000000000000000000000001B
:1035B0008080808080808080808080800000000407
:1035C00004080800000000000000000000000000E7
:1035D00000000000000000000000000000000000EB
:1035E000000000000000000000000000000098D86B
:1035F00044642424FCF80000000F1F181010100869
:103600001F1F10180020E0F0000000000000000064
:103610000000FFFF180804040CF8F00000001F0F62
:1036200018101010180F0300000000000000000028
:103630000000000000E0F8180404043C380000001A
:1036400000030F0C1010101008060000000000000E
:1036500000000020E0F0000000E0F81C0404040872
:10366000FFFF000000030F18101010081F0F0800C4
:103670000000000000000000000000000000E0F872
:10368000484444444C7870000000030F0C1810109C
:10369000100804000000000080C0602020E0C0008E
:1036A00000040404FFFF04040404000000001010E0
:1036B0001F1F10101000000000000000000000009C
:1036C00000000000000070F88C04048CF874040CF6
:1036D000007076CF8D8D8D89C87870000020E0F065
:1036E00000000000000000000000FFFF08040404C8
:1036F000FCF8000000101F1F100000101F1F10001A
:1037000000000000006060000000000000000404F1
:1037100004FCFC000000000000001010101F1F102F
:1037200010100000000000000000006060000000B9
:1037300000000000040404FCFC0000000000C0C005
:103740008080C07F3F0000000020E0F0000000000B
:10375000000000000000FFFF80C0F41C0404000013
:1037600000101F1F1100031F1C101000000020205C
:1037700020E0F000000000000000000000FFFF005B
:103780000000000000001010101F1F10101000009B
:1037900000000000000000000000000004FCFC0825
:1037A00004FCFC0804FCFC00101F1F10001F1F106D
:1037B000001F1F10000000000000000000000000BB
:1037C0000004FCFC08080404FCF8000000101F1FA3
:1037D000100000101F1F100000000000000000007B
:1037E0000000000000E0F0180C04040C18F0E000E9
:1037F00000030F0C101010100C0F0300000000004D
:1038000000000000000000000004FCFC08040404A8
:103810000CF8F0000080FFFF889010101C0F0300D0
:1038200000000000000000000000000000E0F81CA4
:1038300004040408F8FC000000030F18101090881E
:10384000FFFF8000000000000000000000000000FA
:10385000040404FCFC100804040C0C001010101FDD
:103860001F10101000000000000000000000000009
:103870000000000000003078CCC48484840C1C005C
:1038800000001E1810101011190F06000000000093
:1038900000C000000000000000040404FFFF040456
:1038A00004000000000000000F1F1010100C0000AA
:1038B0000000000000000000000000000004FCFE0A
:1038C00000000004FCFE000000000F1F181010088C
:1038D0001F0F0800000000000000000000000000B2
:1038E00000040C3CFCC40000C43C0C0400000000BC
:1038F000010F1E0E0100000000000000000000008B
:1039000000000000043CFCC400E47CFC84807C04D7
:103910000000071F070000071F070000000000004D
:1039200000000000000000000004041C7CE4C0341F
:103930001C0404000010101C1601131F1C1810009A
:1039400000000000000000000000000000040C3C2B
:10395000FCC400C43C0404000000C080C1370E0158
:103960000000000000000000000000000000000057
:1039700000001C0404C4F47C1C0400000000101CA3
:103980001F17111010180E0000000000000000F8B2
:103990000C04000000000000001028EF00000000F0
:1039A000000000000000003F604000000000000038
:1039B0000000FF0000000000000000000000FF0009
:1039C00000000000000000000000FF0000000000F8
:1039D0000000040CF80000000000000000000000DF
:1039E000EF28100000000000000040603F000000D1
:1039F0000000000000180602020408102020300811
:103A000000000000000000000000000000000000B6
:103A100000000000000000000000F010101010FF77
:103A200010101010F000000000000F04040404FF48
:103A3000040404040F0000004040405F55555575D4
:103A40005555555F404040000040200F0949897995
:103A50000909090F2040000000FE02424ACA4A4AF2
:103A6000CA4A4A4202FE000000FF40504C43404018
:103A70004F50505C40FF00000000F888888888FFA5
:103A800088888888F800000000001F080808087F60
:103A9000888888889F80F00080828282828282E289
:103AA000A2928A8682808000000000000040807F11
:103AB0000000000000000000101010FF10900888A7
:103AC0008888FF88888808000444827F01808040BD
:103AD000432C1028468180000010101010D030FFB9
:103AE00030D0121C1010000010080402010000FF6A
:103AF000000001020408100004040484E43C2724AC
:103B0000242424E40404040004020100FF09090938
:103B10000949897F0000000000FE225A8600FE92BB
:103B200092929292FE00000000FF04080700FF40FE
:103B300020030C1422414000008040201806800021
:103B40000718204080000000010020702826212056
:103B5000202438600001010000101292929292928B
:103B600092121202FE0000000000003F1010101020
:103B70003F0040807F000000000000C08080808007
:103B8000808080FC84808080808080C0C0000000B5
:103B9000000000FF7F404040404040FF4040404028
:103BA000404040FF7F0000000000000000000000D7
:103BB0000000007F70000000000000000000000016
:103BC000000000000000000000000000000000FCF9
:103BD000F8000000000000000000000000000000ED
:103BE00000000000FFFE020202020202020202FFC7
:103BF000FF020202020202020202FF0300000000B2
:103C0000000000001F1F040404040404040404FF53
:103C1000FF0404040404040404041F000000000062
:103C20000000000000000000000000000000007F15
:103C30003F00000000000000000000000000000045
:103C40000000000000000000000000000000000074
:103C500000000000000000000000000000F8F8F084
:103C6000F0702000000000000000000000000000D4
:103C70000000000000000000000000000000000044
:103C800000000000000000008000000000000000B4
:103C900000000000000000000000000000FFFFFF27
:103CA000FF00000000000000000000000000000015
:103CB0000000000080800000000000000000000004
:103CC000000000000000000000FFFFFE06060606E0
:103CD00006060606060606060606060606FFFFFF99
:103CE000FF0606060606060606060606060606067B
:103CF000060606FFFFFFFF070200000000000000AD
:103D0000000000000000000000FFFFFF00000000B6
:103D100000000000000000000000000000FFFFFFA6
:103D2000FF00000000000000000000000000000094
:103D3000000000FFFFFFFF00000000000000000087
:103D4000000000000000000000FFFFFF1818181816
:103D500018181818181818181818181818FFFFFF2E
:103D6000FF181818181818181818181818181818EC
:103D7000181818FFFFFFFF000000000000000000FF
:103D8000000000000000000002010100000000002F
:103D900000000000000000000000000000FFFFFF26
:103DA000FF00000000000000000000000000000014
:103DB0000000000101000000000000000000000001
:103DC00000000000000000000000000000000000F3
:103DD00000000000000000000000000000FFFFFFE6
:103DE000FF000000000000000000000000000000D4
:103DF00000000000000000000000000000000000C3
:103E000000000000000000000000000000000000B2
:103E1000000000000000000000000000001F1F0F55
:103E20000F00000000000000000000000000000083
:103E30000000000000000000000000000000000082
:103E4000603E00080000002090000000A40B000865
:103E5000F03E000890000020684F0000B40B0008FE
:103E600000A24A0400000000000000000102030458
:103E70000607080900000000000000000000000024
:103E80000000000000000000000000000000000032
:103E90000000000000000000000000000000000022
:103EA0000000000000000000000000001F000000F3
:103EB00000000000AAAAAAAA00000000000000005A
:103EC00000000000000000000000000000000000F2
:103ED00000000000000000000000000000000000E2
:103EE00000000000000000000000000000000000D2
:0400000508000131BD
:00000001FF
