:020000040800F2
:10000000684B0020DD010008BD0300087B030008E9
:10001000B9030008250200085D0500080000000083
:100020000000000000000000000000004501000882
:10003000290200080000000089010008C904000826
:10004000F7010008F7010008F7010008F7010008B0
:10005000F7010008F7010008F7010008F7010008A0
:10006000F7010008F7010008F7010008F701000890
:10007000F7010008F7010008F7010008F701000880
:10008000F7010008F7010008F7010008F701000870
:10009000F7010008F7010008F7010008F701000860
:1000A000F7010008F7010008F7010008F701000850
:1000B000F7010008F7010008F7010008F701000840
:1000C000F7010008F7010008F7010008F701000830
:1000D000F7010008F7010008F7010008F701000820
:1000E000F7010008F7010008F7010008F701000810
:1000F000F7010008F7010008F7010008F701000800
:10010000F7010008F7010008F7010008F7010008EF
:10011000F7010008F7010008F7010008F7010008DF
:10012000F7010008F7010008F7010008F7010008CF
:10013000DFF80CD000F064F8004800477F050008A5
:10014000684B0020224B19680868B0E8F00F80F374
:100150000988BFF36F8F4FF0000080F311884EF0D5
:100160000D0E70470000000006480068006880F32C
:10017000088862B661B6BFF34F8FBFF36F8F00DFA1
:1001800000BF00BF08ED00E0EFF30980BFF36F8F01
:100190000F4B1A6820E9F00F106008B54FF05000BF
:1001A00080F31188BFF34F8FBFF36F8F00F058FEBD
:1001B0004FF0000080F31188BDE808401968086816
:1001C000B0E8F00F80F30988BFF36F8F704700BF6E
:1001D00014000020EFF305807047000006488047B8
:1001E00006480047FEE7FEE7FEE7FEE7FEE7FEE71C
:1001F000FEE7FEE7FEE7FEE7FD0400083101000828
:10020000064C074D06E0E06840F0010394E8070063
:1002100098471034AC42F6D3FFF78EFF4012000827
:100220006012000800BFFEE7704700001CB50648DA
:10023000012100238022CDE9001004A1064800F02E
:1002400059FE00F0CFFD1CBD780000207374617270
:10025000745F7461736B0000F50A00082DE9F041CA
:10026000024600250026002000230024002791F8E4
:1002700003C00CF00F0591F803C00CF0100CBCF19A
:10028000000F03D091F802C04CEA050591F800C0B8
:10029000BCF1000F31D0146800202BE04FF0010CAE
:1002A0000CFA00F3B1F800C00CEA03069E4220D11C
:1002B00083004FF00F0C0CFA03F7BC4305FA03FC64
:1002C0004CEA040491F803C0BCF1280F06D14FF0AA
:1002D000010C0CFA00FCC2F814C00AE091F803C04B
:1002E000BCF1480F05D14FF0010C0CFA00FCC2F82C
:1002F00010C0401C0828D1D31460B1F800C0BCF174
:10030000FF0F34DD546800202EE000F1080C4FF0A0
:10031000010808FA0CF3B1F800C00CEA03069E428B
:1003200021D183004FF00F0C0CFA03F7BC4305FA00
:1003300003FC4CEA040491F803C0BCF1280F05D17A
:1003400000F1080C08FA0CF8C2F8148091F803C008
:10035000BCF1480F07D100F1080C4FF0010808FA72
:100360000CF8C2F81080401C0828CED35460BDE8B9
:10037000F081416170470161704700BFFEE70000F6
:1003800008B50121102000F01BF84FF40050ADF823
:10039000000010208DF8030003208DF8020069464C
:1003A0000448FFF75BFF4FF400510248FFF7E3FFFB
:1003B00008BD00000010014000BFFEE77047704715
:1003C00029B1064A92690243044B9A6104E0034A48
:1003D00092698243014B9A6170470000001002400D
:1003E00010B500F001F810BD0CB500200190009090
:1003F0003348006840F480303149086000BF30481D
:10040000006800F4003000900198401C01900098B2
:1004100018B90198B0F5A06FF1D12948006800F42F
:10042000003010B10120009001E000200090009801
:10043000012843D12348006840F01000214908609A
:100440000846006820F0030008600846006840F095
:10045000020008601A484068194948600846406828
:1004600048600846406840F480604860084640683C
:1004700020F47C1048600846406840F4E81048606A
:100480000846006840F08070086000BF0C480068B3
:1004900000F000700028F9D00948406820F00300FF
:1004A000074948600846406840F00200486000BFC5
:1004B0000348406800F00C000828F9D10CBD00008A
:1004C000001002400020024010B500BF502080F311
:1004D0001188BFF34F8FBFF36F8F00BF00F03AFD5D
:1004E00018B14FF080500449086000BF002080F32D
:1004F000118800BF10BD000004ED00E010B51348E6
:10050000006840F001001149086008464068104941
:1005100008400E494860084600680E4908400B49EB
:1005200008600846006820F480200860084640689B
:1005300020F4FE0048604FF41F008860FFF750FF72
:100540004FF000600449086010BD00000010024038
:100550000000FFF8FFFFF6FE08ED00E000BFFEE739
:1005600002E008C8121F08C1002AFAD1704770477C
:10057000002001E001C1121F002AFBD17047FFF7E4
:10058000FFFEFFF753FE00BFFEE700002DE9F0413C
:1005900005460E462648076826480068001D00F0FC
:1005A000F1FA50B92348006890F82C1001208840D7
:1005B00021490968814320480160681CD8B9D6B137
:1005C0001E4948681B49096888601A498268096899
:1005D000CA6018490968091D82685160154909688F
:1005E000091D8160154A134909684A611146096865
:1005F000491C11601AE07C190E4800684460BC4236
:1006000007D20C480168091D0D48006800F0DEFAA9
:100610000CE008480168091D0A48006800F0D6FA95
:1006200009480068844201D207480460BDE8F081AF
:1006300028000020140000202C000020540300207B
:100640001C000020180000204400002010B50446C3
:1006500000F0E2FA2F480068401C2E4908602E483E
:10066000006840B92C4804600846006801280DD194
:1006700000F024F90AE02948006838B926480068E3
:10068000C06AE16A884201D82348046024480068AF
:10069000401C2349086094F82C100120884021490F
:1006A000096808431F490860E16A01EB81011E4A9D
:1006B00002EB81014868A0608268E260211D8268C7
:1006C00051608160E16A01EB8101174A02EB81020E
:1006D0006261E16A01EB8101134A52F82110491C61
:1006E000E26A02EB8202104B43F8221000F0A6FAF5
:1006F0000A48006868B108480068C06AE16A884230
:1007000007D24FF0805009490860BFF34F8FBFF305
:100710006F8F10BD24000020140000203000002046
:10072000400000202C0000208400002004ED00E0A8
:1007300010B516E000F070FA0C48C068C468201DBF
:1007400000F020FA0A480068401E0949086009487C
:100750000068401E0749086000F070FA204600F06B
:100760000BF8044800680028E4D110BD40030020C5
:10077000240000202000002010B50446206B00F06B
:100780006DFA204600F06AFA10BD000030B54FF453
:100790008843174800F007042CB1C01D20F0070063
:1007A000134C041B1B1B0246124C22600024114DEB
:1007B0006C60D018083820F007000F4C206000242F
:1007C0000D4D2D686C600C4D2D682C601146441A3F
:1007D0004C60094C24680C60084D4C682C60084D36
:1007E0004C682C604FF00044064D2C6030BD00007A
:1007F00068030020580000206000002068000020EE
:10080000640000207400002000BFFFF791FF06483D
:1008100000680128F9D94FF0805004490860BFF3FF
:100820004F8FBFF36F8FF0E78400002004ED00E0EE
:100830002DE9FF5F80460E469146DDE90E7A109C59
:10084000A9F10100216B01EB800B2BF0070B86B1A6
:10085000002507E0715D04F134004155705D00B979
:1008600002E06D1C102DF5D300BF0021432001557F
:1008700002E0002084F83400202F00D31F27E76215
:10088000201D00F0A0F904F1180000F09CF924618B
:10089000C7F12000A06164620020606484F8480011
:1008A00041465846039A00F013F92060BAF1000F50
:1008B00001D0CAF80040BDE8FF9F000010B5002439
:1008C00007E004EB84010F4A02EB810000F06EF9AF
:1008D000641C202CF5D30C4800F068F90B4800F09C
:1008E00065F90B4800F062F90A4800F05FF90A4820
:1008F00000F05CF9044809490860044808490860A8
:1009000010BD000084000020040300201803002014
:100910002C03002040030020540300201800002076
:100920001C00002010B50146164800E0006803686E
:100930008B42FBD30246436813448B4204D1436885
:100940004C682344436001460A464B6813440468DC
:10095000A34211D10C4C03682468A34208D04B6811
:100960000468646823444B6003681B680B6005E0FF
:10097000054B1B680B6001E003680B60884200D0E8
:10098000016010BD58000020600000200948006888
:10099000006808B9012000E0002020B14FF0FF30CE
:1009A0000549086005E003480068C068006802491E
:1009B00008607047180000204400002000BF50204D
:1009C00080F31188BFF34F8FBFF36F8F00BF00BF5D
:1009D000FEE700002DE9F04104464FF0000800F06A
:1009E00037FA3548006808B9FFF7D0FE3348006889
:1009F000204000285BD1B4B104F10800A04212D914
:100A0000083404F0070078B104F00700C0F10800D2
:100A10002044A04205D904F00700C0F108000444B6
:100A200002E0002400E00024002C40D024480068AC
:100A300084423CD8234E3046056801E02E462D689E
:100A40006868A04202D228680028F7D11A480068D6
:100A500085422CD0306800F108082868306068684A
:100A6000001B102807D92F196868001B78606C607C
:100A70003846FFF757FF124968680968081A104995
:100A800008600846006810490968884203D20C488B
:100A900000680D490860094968680968084368608A
:100AA0000020286009480068401C0849086000F0E0
:100AB00019FB4046BDE8F081600000207400002072
:100AC0006400002058000020680000206C00002016
:100AD000001F4FF080730360001F21F001030360CB
:100AE000001F034B03601438026020387047000079
:100AF000BD0900081CB5044600F08EF80C48022120
:100B000000238022CDE900100AA10C4800F0F2F980
:100B10000B4802210023CA01CDE9001009A10B48AE
:100B200000F0E8F9002000F0F3F800F087F81CBDB1
:100B30007C0000207461736B31000000510B0008D1
:100B4000800000207461736B320000007D0B000890
:100B500000BF4FF400510848FFF70DFC4FF4FA7046
:100B600000F0BCF84FF400510348FFF702FC4FF4CB
:100B7000FA7000F0B3F8ECE70010014000BFFFF797
:100B80001EFCFCE701460A69D1E901309860D1E911
:100B9000010358605068884201D188685060002085
:100BA00008611068401E10601068704700F108016D
:100BB00041604FF0FF31816000F10801C1600161C7
:100BC00000210160704700210161704710B50246A5
:100BD0000B685C1C0CB9106907E002F1080000E02A
:100BE0004068446824689C42FAD944684C604C6868
:100BF000A160886041600A611468641C146010BDC3
:100C000042684A6093688B6093685960916008619C
:100C100003685B1C0360704700BF502080F311889D
:100C2000BFF34F8FBFF36F8F00BF03480068401CB6
:100C30000149086070470000540000200648006821
:100C4000401E054908600846006820B9002080F36E
:100C5000118800BF00BF70475400002070B50646E1
:100C60003546FEB1083D2C460F49606809680840CA
:100C7000C0B12068B0B90C496068096888436060F9
:100C800000F0E6F809496068096808440749086007
:100C90002046FFF747FE06480068401C04490860EC
:100CA00000F020FA70BD00007400002064000020F5
:100CB0007000002000204FF0E021086188610648A4
:100CC00000684FF47A71B0FBF1F0401E4FF0E02164
:100CD00048610720086170470000002070B5044695
:100CE000002544B100F0B4F800212046FFF74EFC87
:100CF00000F0F8F905463DB94FF08050034908600F
:100D0000BFF34F8FBFF36F8F70BD000004ED00E0A5
:100D100070B50546FFF780FF15B92948006800E067
:100D200028460446201DFFF72DFF78B9E06A00EB46
:100D30008000244951F8200040B994F82C1001207B
:100D400088402149096881431F480160A06A18B1A1
:100D500004F11800FFF716FF1C480068401C1B49EF
:100D6000086017480068844209D1211D1848FFF720
:100D700047FF18480068401C1649086006E01648FE
:100D80000068401E14490860FFF700FEFFF756FF99
:100D90000B480068844202D02046FFF7EDFC0F4864
:100DA000006858B106480068844207D14FF080506F
:100DB0000B490860BFF34F8FBFF36F8F70BD00000A
:100DC00014000020840000202C000020400000209F
:100DD00040030020200000202400002030000020DC
:100DE00004ED00E01CB5124800210B468022CDE93D
:100DF000001010A1114800F07DF80446012C14D118
:100E000000BF502080F31188BFF34F8FBFF36F8F67
:100E100000BF4FF0FF300A4908600120094908600F
:100E200000200949086000F04BF8084800681CBD24
:100E30004800002049444C45000000000908000813
:100E40004400002030000020280000204C0000203A
:100E500002480068401C01490860704750000020AB
:100E60001248006818B10120114908601DE00020F7
:100E70000F4908600F480068B0FA80F0C0F11F0108
:100E800001EB81020C4B03EB820042685268426026
:100E900000F108024368934202D1426852684260FE
:100EA0004268D268054B1A6000BF704750000020AE
:100EB000380000202C0000208400002014000020B6
:100EC00010B50A48006840F47000084908600846F8
:100ED000006840F070400860FFF7ECFE0020044915
:100EE0000860FFF741F9002010BD000020ED00E090
:100EF000540000202DE9FF4F85B0804689461746F3
:100F0000DDE912ABB800FFF765FD064656B14C208F
:100F1000FFF760FD04460CB1266304E03046FFF79E
:100F20009DFE00E000247CB10020CDE900ABCDE9BE
:100F300002403A4649464046089BFFF779FC204666
:100F4000FFF784FB012501E04FF0FF35284609B08B
:100F5000BDE8F08F2DE9F0410027574800680028D0
:100F60007ED156480068451C544805608DB95448E8
:100F7000D0F8008053480068514908605148C0F8D3
:100F8000008051480068401C4F490860FFF7FEFC94
:100F900000BF4E480068854276D300BF48480068CD
:100FA000006808B9012000E0002020B14FF0FF30B8
:100FB0004649086067E042480068C068C4686668DF
:100FC000B54202D2414806605DE06069D4E9021290
:100FD0008A60D4E902214A60211D42688A4201D117
:100FE000E1684160002262610168491E0160A06AF7
:100FF00098B1A06AD4E907128A60D4E907214A604F
:1010000004F1180142688A4201D1216A416000223C
:10101000A2620168491E016000BF94F82C100120F3
:1010200088402B490968084329490860E16A01EBB7
:101030008101284A02EB81014868A0608268E26071
:10104000211D826851608160E16A01EB8101214AC2
:1010500002EB81026261E16A01EB81011D4A00E05D
:1010600022E052F82110491CE26A02EB8202194B7D
:1010700043F822101849E06A0968C96A88428DD38A
:1010800001278BE700E000BF13480068C06A00EB4F
:101090008000104951F82000012800D901270F488D
:1010A000006800B1012704E00D480068401C0C49AD
:1010B00008603846BDE8F08150000020280000207C
:1010C000180000201C0000203C00002044000020EC
:1010D0002C00002084000020140000203800002094
:1010E0003400002070B500240026FFF795FD4B4822
:1010F0000068401E494908600846006800287DD104
:1011000047480068002879D05BE04648C068C4685A
:10111000A06AD4E907128A60D4E907214A6004F181
:10112000180142688A4201D1216A41600022A2620C
:101130000168491E01606069D4E902128A60D4E93D
:1011400002214A60211D42688A4201D1E168416062
:10115000002262610168491E016094F82C10012090
:1011600088403149096808432F490860E16A01EB6A
:1011700081012E4A02EB81014868A0608268E2602A
:10118000211D826851608160E16A01EB8101274A7B
:1011900002EB81026261E16A01EB8101234A52F8AC
:1011A0002110491CE26A02EB8202204B43F8221014
:1011B0001F49E06A0968C96A884202D301201D49B3
:1011C00008601848006808B9012000E000200028E5
:1011D0009BD00CB1FFF7DAFB1748056865B100BF7B
:1011E000FFF7B8FE10B10120124908606D1E002DF6
:1011F000F6D10020104908600E4800E009E00068C0
:1012000038B1012630070D490860BFF34F8FBFF397
:101210006F8FFFF713FD304670BD000050000020B7
:10122000240000202C0300202C000020840000203B
:1012300014000020380000203400002004ED00E0FD
:101240006012000800000020840000006005000813
:10125000E412000884000020E44A00007005000841
:1012600000A24A0400000000000000000102030484
:101270000607080900000000000000000000000050
:10128000000000000000000000000000000000005E
:10129000000000000000000000000000000000004E
:1012A0000000000000000000000000001F0000001F
:1012B00000000000AAAAAAAA000000000000000086
:1012C000000000000000000000000000000000001E
:1012D000000000000000000000000000000000000E
:0412E000000000000A
:0400000508000131BD
:00000001FF
