:020000040800F2
:10000000680A0020890100080B0500085B0400084D
:1000100009050008D302000851080008000000008C
:100020000000000000000000000000004107000880
:10003000D50200080000000071050008FF07000855
:10004000A3010008A3010008A3010008A301000800
:10005000A3010008A3010008A3010008A3010008F0
:10006000A3010008A3010008A3010008A3010008E0
:10007000A3010008A3010008A3010008A3010008D0
:10008000A3010008A3010008A3010008A3010008C0
:10009000A3010008A3010008A3010008A3010008B0
:1000A000A3010008A3010008A3010008A3010008A0
:1000B000A3010008A3010008A3010008A301000890
:1000C000A3010008A3010008A3010008A301000880
:1000D000A3010008A3010008A3010008A301000870
:1000E000A3010008A3010008A301000800F002F822
:1000F00000F03AF80AA090E8000C82448344AAF188
:100100000107DA4501D100F02FF8AFF2090EBAE885
:100110000F0013F0010F18BFFB1A43F0010318473B
:100120000442000024420000103A24BF78C878C17D
:10013000FAD8520724BF30C830C144BF04680C60ED
:10014000704700000023002400250026103A28BF35
:1001500078C1FBD8520728BF30C148BF0B60704739
:100160001FB51FBD10B510BD00F07AF81146FFF79E
:10017000F7FF00F05DFC00F098F803B4FFF7F2FF22
:1001800003BC00F09FF80000094880470948004779
:10019000FEE7FEE7FEE7FEE7FEE7FEE7FEE7FEE737
:1001A000FEE7FEE704480549054A064B7047000094
:1001B00001080008ED00000868040020680A00201B
:1001C00068060020680600204FF000020429C0F0F5
:1001D000128010F0030C00F01B80CCF1040CBCF179
:1001E000020F18BF00F8012BA8BF20F8022BA1EBCB
:1001F0000C0100F00DB85FEAC17C24BF00F8012BB0
:1002000000F8012B48BF00F8012B70474FF00002A7
:1002100000B5134694469646203922BFA0E80C50FC
:10022000A0E80C50B1F12001BFF4F7AF090728BFD7
:10023000A0E80C5048BF0CC05DF804EB890028BF53
:1002400040F8042B08BF704748BF20F8022B11F07C
:10025000804F18BF00F8012B7047704770477047F8
:10026000754600F02BF8AE4605006946534620F06F
:100270000700854618B020B5FFF794FFBDE8204081
:100280004FF000064FF000074FF000084FF0000B52
:1002900021F00701AC46ACE8C009ACE8C009ACE805
:1002A000C009ACE8C0098D46704710B50446AFF3ED
:1002B00000802046BDE81040FFF75FBF0048704750
:1002C0000804002001491820ABBEFEE7260002000A
:1002D0007047FEE7704742F2283148434FF0E02173
:1002E00048610020886101220A610A69D30701D0B0
:1002F000D203FAD508618861704700EBC0014FF066
:10030000E020416100218161012202610269D3077D
:1003100001D0D203FAD501618161704704490A68AE
:1003200022F010020A600A6802430A607047000067
:1003300000200240034A116801F0380101431160B6
:100340007047000000200240F0B5CA78002502F096
:100350000F03D20601D58A7813430A784FF00F0EA7
:1003600012F0FF0F4FF001021CD004680F8802FA50
:1003700005F63740B74211D14FEA850C0EFA0CF75B
:1003800024EA070703FA0CF43C43CF78282F02D065
:10039000482F02D002E0466100E006616D1C082D86
:1003A000E4D304600C88FF2C1ED944685FF000067B
:1003B00006F1080702FA07F50F882F40AF420FD168
:1003C0004FEA860C0EFA0CF7BC4303FA0CF73C43D9
:1003D000CF78282F00D14561CF78482F00D1056113
:1003E000761C082EE4D34460F0BD0000F0B5144C38
:1003F000002801DAE36900E06368420D120185B26A
:10040000C0F301579540C0F30346032F05D0C20245
:100410000AD50322B240934307E023F07062636879
:1004200023F07063636002E0AB4343F0706201B19C
:100430002A43002801DAE261F0BD6260F0BD0000ED
:100440000000014002460020D2680A4200D001208C
:1004500070474161704701617047FEE74FF400410A
:100460000148FFF7F8BF0000000801404FF40041C9
:100470000148FFF7EEBF0000000801404FF4805133
:100480000148FFF7E8BF0000000801404FF4805129
:100490000148FFF7DEBF00000008014070B5094DBC
:1004A0004FF4005421462846FFF7CCFF0028214690
:1004B000284603D0BDE87040FFF7CBBFBDE87040D1
:1004C000FFF7C9BF001001404FF400510148FFF78A
:1004D000C2BF00000010014008B50121102000F04B
:1004E00049F84FF40050ADF8000003208DF80200E9
:1004F00010208DF8030069460248FFF725FFFFF73B
:10050000E3FF08BD00100140FEE77047F8B500208A
:1005100000900121042000F02DF80121042000F0BA
:1005200029F80121084600F025F801210E48FFF7BF
:100530005DFF4FF48050ADF8000010240B4E8DF895
:10054000034003258DF8025069463046FFF7FCFE54
:10055000E002ADF800008DF803408DF802506946C6
:100560003046FFF7F1FEF8BD000230000008014000
:1005700070470000044A0029916901D0014300E05E
:100580008143916170470000001002400C480168EF
:1005900041F00101016041680A4A1140416001686F
:1005A000094A11400160016821F48021016041681D
:1005B00021F4FE0141604FF41F018160704700008B
:1005C000001002400000FFF8FFFFF6FE0246002088
:1005D00053090949012B0BD0022B0BD0D1F8241061
:1005E00002F01F02012393400B4200D0012070470C
:1005F0000968F5E7096AF3E700100240024840681D
:1006000000F00C007047000000100240034A5168DF
:1006100021F0F001014351607047000000100240DA
:100620000B490A6822F480320A600A6822F48022A8
:100630000A60B0F5803F07D0B0F5802F03D108687D
:1006400040F4A02008607047086840F48030F9E763
:100650000010024010B5FFF799FF4FF48034204698
:10066000FFF7DEFF00F056F8012823D10020FFF746
:10067000CDFFA01100F020F8002000F027F80220A4
:10068000FFF758FE1020FFF749FE4FF4E011204617
:1006900000F02CF8012000F023F83920FFF796FF36
:1006A0000028FAD0022000F02BF800BFFFF7A6FFC9
:1006B0000828FBD110BD0000034A516821F4E06115
:1006C00001435160704700000010024003494A682E
:1006D00022F4605242EAC0004860704700100240B5
:1006E000014908667047000000004242034A53680F
:1006F000084323F47C1318435060704700100240F5
:10070000034A516821F00301014351607047000022
:100710000010024018B500204FF4A0640090312072
:10072000FFF754FF0099491C0091A14201D0002815
:10073000F5D03120FFF74AFF002800D0012018BD76
:10074000704700000CB50021264801910091026815
:1007500042F4803202604FF4A063026802F4003277
:100760000092019A521C0192009A12B9019A9A427F
:10077000F3D10268920333D5012100911A490A6826
:1007800042F010020A600A6822F003020A600A6856
:1007900042F002020A60416841604168416041687C
:1007A00041F480614160416821F47C1141604168FD
:1007B00041F4E8114160016841F080710160016815
:1007C0008901FCD5416821F003014160416841F095
:1007D000020141604168C1F381010229FAD10CBDD7
:1007E00000910CBD001002400020024010B5FFF740
:1007F00031FFFFF771FEBDE81040FFF787BE70477D
:100800000F4810B5016841F00101016041680D4ACF
:100810001140416001680C4A11400160016821F4F7
:1008200080210160416821F4FE0141604FF41F0105
:100830008160FFF787FF05494FF00060086010BD39
:10084000001002400000FFF8FFFFF6FE08ED00E098
:10085000FEE7000010B5044600F026F9012120460D
:1008600000F070FA0021204600F069FA2B4920467A
:1008700000F055FA2AA314220021204600F020FAA5
:100880000121204600F05BFA2649204600F047FA95
:1008900025A308221521204600F012FA0021204647
:1008A00000F04DFA1D49204600F039FA1FA31E2220
:1008B0003321204600F004FA1DA31E2243212046C6
:1008C00000F0FEF92F2323220221204600F02CF90C
:1008D0002F2324220321204600F026F90C23202276
:1008E0002D21204600F0F4F90C2321222E21204650
:1008F00000F0EEF90F49204600F011FA0EA336225F
:100900000121204600F0DCF9204600F0FFF9BDE8A7
:1009100010404FF47A70FFF7DEBC0000231C000883
:1009200055000000983E00083800000067000000F5
:10093000B2000000501900086769746875622E6380
:100940006F6D2F6F6C696B726175732F75386732BD
:100950000000000000224C2100F0DABF00224D21EF
:1009600000F0D6BF01684A7B2D2100F0D1BF10B541
:10097000044601224C2100F0CBFF2046BDE8104088
:10098000FFF7F0BF01224D2100F0C2BF10B50446B1
:1009900011B1FFF7F7FF01E0FFF7E0FF2046FFF797
:1009A000E1FF2046FFF7E3FF2046BDE81040FFF7D8
:1009B000D1BF70B50C46054601F08001FFF7E6FF98
:1009C00004F040012846FFF7E1FF04F0200128462B
:1009D000FFF7DCFF04F010012846FFF7D7FF04F013
:1009E00008012846FFF7D2FF04F004012846FFF76C
:1009F000CDFF04F002012846FFF7C8FF04F0010113
:100A00002846FFF7C3FF2846FFF7BCFF2846FFF73D
:100A1000A9FF2846FFF7ABFF2846FFF7B3FF28469C
:100A2000FFF7A0FF2846BDE87040FFF793BF000026
:100A3000A6B0FFF7DBFE194B194A1A4901A800F0CE
:100A4000BDF901A800F031FD002101A800F03DFD35
:100A500001A800F029F84FF47A752846FFF73BFC0F
:100A60003F2400227F23114601A8009400F0B8F82B
:100A700000231A467F2101A8009400F0B1F801A8D4
:100A800000F044F901A800F00FF801A8FFF7E2FE1A
:100A9000FFF704FD2846FFF71EFCF9E76312000884
:100AA0006D150008C041000801680A7C90F83810F4
:100AB000406B5143C900FFF787BB2DE9F041044665
:100AC00090F870001F4615460E4630B1012809D037
:100AD00002280CD0032815D10FE0E16D204688478D
:100AE000284408E0E16D20468847301A09E0E16DAE
:100AF00020468847281A85B204E0E16D20468847E1
:100B0000304486B239460027204600F04DFBA4F859
:100B100064600100A4F8665003D0204600F074FA27
:100B200087B23846BDE8F08138B50024009400F063
:100B300001F838BD3FB581B0044690F88C000899A3
:100B400000283AD0BDF81000002836D0012811D96D
:100B5000022902D0032907D00CE0BDF80820101AA2
:100B6000401CADF8080005E0BDF80C20101A401C30
:100B7000ADF80C0011F0010521D0B4F84810BDF813
:100B80000800814219D8B4F84A10814215D9B4F846
:100B90004E30B4F84C2004A90DF10C0000F0A6F979
:100BA00000280AD00095206BBDF81030BDF80C204D
:100BB0008568BDF808102046A84705B030BDB4F8D8
:100BC0004C10BDF80C008142F7D8B4F84E108142A9
:100BD000F3D9B4F84A30B4F8482004A902A8DDE7F4
:100BE0002DE9FF5F1C460E984FF00009A14201D984
:100BF0000B1B00E0631A9DB2824201D9131A00E078
:100C0000831A9EB2AE420AD92B4635461E460B4683
:100C100011461A46234604464FF001091846A142E0
:100C200005D90B4621461C461346024618464FEA94
:100C30005508904201D9012001E04FF0FF30824673
:100C4000A4F57F409346FF3801D1641EA4B20F463D
:100C500018E000BFB9F1000F18D03A465946009885
:100C600000F017F8A8EB060000B25FEA000807D50D
:100C70000BEB0A001FFA80FB08EB05000FFA80F867
:100C80007F1CBFB2A742E5D9BDE8FF9F5A4639464F
:100C9000E5E708B5B0F84C30934210D8B0F84E30C4
:100CA00093420CD9B0F848308B4208D8B0F84A309B
:100CB0008B4204D9002300930123FFF73BFF08BDBB
:100CC00030B4024C446030BC00F03DB9311500082E
:100CD00038B501240094FFF72DFF38BD70B50D46DF
:100CE0001E460446B0F84E10B0F84C00049B00F0CD
:100CF000E0FA002809D0B4F84A10B4F848003346A6
:100D00002A46BDE8704000F0D4BA70BD10B5044664
:100D100000F05FFB2046BDE8104000F0CEBB10B5F0
:100D20000446806D884209D004F17400A16500F08A
:100D30001BFB2046BDE8104000F05CB810BD80F8F9
:100D40007010704780F86D10704700000149C16550
:100D500070470000BD0F00080021A0F85010A0F857
:100D600054104FF6FF71A0F85210A0F85610016B06
:100D70004968084770B5044600250498A565E362F4
:100D8000616384F8382084F8395084F86D5084F811
:100D9000915084F88D50012184F8921084F89310BA
:100DA00020630168204688472046FFF7D5FF20468C
:100DB000FFF7CCFF84F8705070BD00007CB50C4686
:100DC000009313460546084A084900F086FB01A82F
:100DD00000F0C4FA0146064B00949DF80420284612
:100DE000FFF7C8FF7CBD0000E116000809180008E5
:100DF000CD12000810B5816D00291AD090F981300C
:100E000080F88E3090F9822080F88F2090F88D1035
:100E100000290ED001290DD090F97E4090F9801064
:100E20000C449C4201DD80F88E408A4201DD80F84E
:100E30008F1010BD90F983108B4201DA80F88E106C
:100E400090F98410F1E72BB1012B05D0022B06D0CD
:100E5000104402E0084400E0801A80B27047401A53
:100E6000FBE72BB1012B05D0022B06D0401A02E084
:100E7000104400E0084480B27047801AFBE738B5A0
:100E80000446B0F856000090B4F85230B4F854203C
:100E9000B4F850102046FFF721FF18B3012084F862
:100EA0008C00B4F84810B4F85000814201D2A4F884
:100EB0004800B4F84A10B4F85200814201D9A4F8AD
:100EC0004A00B4F84C10B4F85400814201D2A4F89E
:100ED0004C00B4F84E10B4F85600814201D9A4F881
:100EE0004E0038BD002084F88C0038BD30B5048831
:100EF0000D882544ADB2AC4205D99C4202D25D1E9C
:100F0000ADB200E014469C4201D2954201D80020C7
:100F100030BD944200D214469D4200D91D46048043
:100F2000281B0880012030BD38B5C58F049C009473
:100F3000521BC46A92B2A04738BD38B5049C0094D5
:100F4000FFF7F2FF38BD2DE9F0471C469146884671
:100F5000064600F0F9FC00254FF6FF77726821780D
:100F6000304690470346B84225D0641CA3F57F4025
:100F7000FE38F3D04A4641463046FFF79EFD96F8CC
:100F8000701031B1012907D0022908D003290FD1EF
:100F90000AE008EB000104E009EB000106E0A8EB21
:100FA00000011FFA81F803E0A9EB00011FFA81F9A3
:100FB000284485B2D2E72846BDE8F0870020704774
:100FC00010B50C4600F006F80122641EA240801AFB
:100FD00040B210BD30B50568047B2A78E240631842
:100FE000DBB2082B09D36D1C05602D78C4F1080411
:100FF000A5401543083BEAB2DBB201248C40641ED5
:1010000014400373204630BD2DE9F843054600F136
:10101000600400F00CF915F96B6F2046E97BFFF7CF
:10102000CFFF8146297C2046FFF7CAFF0746697C2F
:1010300020466B3DFFF7C4FF804694F90A00002864
:1010400057DDF019404247B2237CA0883A46494612
:10105000FFF7F9FEA080237C3A46E0884946FFF777
:1010600000FFE080A188277C02460B4637B1012FA4
:101070000AD0022F40D0032F0FD146E094F90A7016
:1010800030443B449BB207E0891B491C94F90A7029
:101090005B1C89B29BB2384480B200902846FFF7AF
:1010A0001DFE30B30020207284F8090095F87610F8
:1010B0002046FFF78FFF814695F877102046FFF70F
:1010C00089FF074600224946284600F027F80122FA
:1010D0003946284600F022F801212046FFF77AFF22
:1010E0000028EFD194F90900B042DFDBA07B85F83E
:1010F00092004046BDE8F88394F90A705B1CC91B56
:10110000491C89B29BB2921B04E094F90A703344E3
:101110009BB2D21B521C92B2401CBDE72DE9F74F87
:1011200084B00D46049C94F8687094F8698060342B
:10113000A07AC01BC6B20196B54200D201954FFA03
:1011400088F279B2A088B4F806B0237C924689462A
:10115000FFF779FE0290237C524649465846FFF736
:1011600080FE0246069808B1A17B02E0607B50B980
:10117000E17B049880F89210207C0090DDE9013139
:101180000498FFF7D7FCB54207D3A81BC5B208F1F6
:101190000100002700F0FF08CAE77819207284F8E0
:1011A000098007B0BDE8F08F70B50D460146806D2F
:1011B0001730FF2D10D8612D02D3B1F8881003E04D
:1011C000412D02D3B1F886100844417819B3027852
:1011D000AA42F9D1801C70BDB1F88A100C182646BD
:1011E0000021304600F019F804440221304600F096
:1011F00014F8361DA842F3D34FF6FF72207802EAA6
:1012000000216078084306D0A84201D1E01C70BDDF
:10121000A0780444F2E7002070BD08444FF6FF7246
:101220000178407802EA0121084480B2704730B565
:10123000054600F1600401660020207315F8781F50
:101240002046FFF7C7FEA07269782046FFF7C2FE6E
:10125000E072A87EA07310B10020E07330BD0120C1
:10126000FBE710B510462B2912D004DC292908D041
:101270002A2904D108E04C290CD04D2911D0002096
:1012800010BDFFF728F812E00A20FFF736F80EE04D
:1012900000BF0CE012B1FFF7E1F808E0FFF7E6F855
:1012A00005E012B1FFF7EAF801E0FFF7EFF80120DF
:1012B00010BD8A4205D2834201D89A4203D9012047
:1012C00070478342F9D8002070470000F0B502F063
:1012D00007060124B440002590F892E0E7B2DDF85B
:1012E00014C02C46BEF1010F01D83D4600D03C464B
:1012F000076822F00702BCF1000F3F7C07FB02F7F2
:10130000BAB2476B3A44114409D108785B1E2843AE
:1013100060401B0401F8010B1B0CF6D1F0BD0A78EC
:10132000761C2A436240A3F101030A7016F00706F7
:101330009BB206D06A06150E6206140E002BEED183
:10134000F0BD428F114490F89220012A03D800BFCB
:101350004FF00105F2D04FF00104EFE708210170D2
:10136000004870470800002070B5054608782870CE
:10137000487868708878A870C878E870087928710B
:101380004879687188790C46A871E079E871207A0B
:101390002872607A6872A07AA872E07AE872207B7C
:1013A0002873607B6873A07BA873E07BE873207C64
:1013B000287411212046FFF730FF68821321204650
:1013C000FFF72BFFA88215212046FFF726FFE882B2
:1013D00070BD2DE9F843064690F8387090F8395002
:1013E000006800244FF6FF7890F81190316830467D
:1013F0002A460B7C716B04FB03FC1FFA8CFC08EA89
:10140000CC0C61440091002100F040F8641C6D1C7C
:10141000E4B2EDB2BC4201D24D45E7D3BDE8F8835A
:10142000F0B590F838204FF6FF75036805EAC20161
:101430008187197C05EAC101418790F8394005EAA6
:10144000C401C1875E7CA718B74201D9321B92B292
:1014500005EAC20220F8401F11444180998A818028
:10146000D98AC180F0BDFFF7DBBF0021A0F848108A
:10147000B0F84410A0F84A10B0F84010A0F84C1092
:10148000B0F84210A0F84E10FFF7F9BC1CB58DF86B
:1014900005108DF80620049C8DF80430009401227C
:1014A00084686B460F21A0471CBD30B484680023BC
:1014B000A44630BC1A460A21604730B48468002331
:1014C000A44630BC1A461021604730B4846800231B
:1014D000A4460A4630BC0B2160472DE9F041154671
:1014E0000E460446069F00F009F86761A660C4E94D
:1014F00003532046BDE8F04100F012B8002140F847
:10150000081B064A026042608260C260C176817731
:101510000161FF21017780F8201070470D19000844
:1015200030B484680023A44630BC1A4609216047C1
:10153000080001D00A2801D14FF6FF70704730B47F
:1015400004690023A44630BC1A461921604713B52C
:101550000122046901AB1721A0471CBD30B4046906
:101560000023A44630BC1A461821604770B51646C1
:101570000446182924D004DC142914D0172904D1D6
:1015800005E019293DD020294CD0002070BD1D4612
:1015900006E029782046FFF70CFA761EF6B26D1C9D
:1015A000002EF6D13EE001224C2100F0B1F90122DB
:1015B0004D21204600F0ACF92046FFF7D3F931E089
:1015C00094F8250040B12046FFF7DCF92046FFF7EC
:1015D000C9F92046FFF7CBF92046FFF7D3F920469B
:1015E000FFF7BCF92046FFF7BDF92046FFF7B2F937
:1015F000012184F82510204694F82410FFF7D9F92A
:1016000010E0FFF7ABF92046FFF7ACF92046FFF7F3
:10161000AEF92046FFF7B6F92046FFF7A3F9002000
:1016200084F82500012070BD30B4C4680023A446AE
:1016300030BC1A461921604730B4C4680023A44660
:101640000A4630BC1621604730B4C4680023A44663
:101650000A4630BC1521604730B4C4681346A4461E
:101660000A4630BC17216047F8B50C464FEA000522
:1016700014F8011B182924D00EDC152919D01629BD
:1016800017D0172923D120788DF800006A46012150
:101690002846FFF7E1FF0AE0192912D0FE2916D1EA
:1016A00022788DF800202921284600F031F9641CA9
:1016B000DEE722788DF80020EE6800232846B04748
:1016C000F5E70023EE681A462846B047D0E7F8BD94
:1016D00030B4C4680023A44630BC1A4618216047C1
:1016E0002DE9F041DFF8B08014460646A1F114025E
:1016F000002798F800001D46062A4AD2DFE802F0CB
:101700002F03161B3E4310B13046FFF718FF30463B
:10171000FFF724FF00213046FFF719FF214630462E
:10172000FFF715FF012088F8000029E02146304628
:10173000FFF70DFF24E050B13046FFF700FF06E051
:101740001821304600F0EAF8183CE4B21835182C9D
:101750002A46F5D82146304600F0E0F80EE096F82B
:101760002400FF2802D1782086F8240037692B4610
:1017700022463046BC46BDE8F041604788F800701C
:101780000120BDE8F0810028F8D03046FFF7D7FEF1
:10179000F4E70020F5E700000000002070B500230A
:1017A000456904461A462821A8470023E5681A46D9
:1017B00014212046A84701224B21204600F0A8F81A
:1017C000206829210279204600F0A2F800224B214E
:1017D000204600F09DF8206829210279204600F07B
:1017E00097F801224B21204600F092F82068292129
:1017F00042792046BDE8704000F08AB80160897CDB
:1018000080F822107047000070B50C46054600F0C5
:1018100019F888B9092C0BD00A2C01D0002070BD12
:101820002846FFF7BBFF05492846FFF71DFF03E0E9
:1018300003492846FFF7E2FF012070BDF24100088E
:10184000F44200082DE9F0411E46144605460B29D6
:1018500008D00D290ED00E291ED00F2927D0002028
:10186000BDE8F0811AB12849FFF7FEFE4AE026499B
:10187000491FF9E74AB124490C31FFF7F5FE286802
:1018800090F8130085F822003CE01F49491DFFF73E
:10189000EBFE2868807CF5E7FFF71AFF81212846D8
:1018A000FFF7D2FE21462846FFF7C6FE27E0FFF7E6
:1018B0000FFF707995F8221001EBC000C7B24021EC
:1018C0002846FFF7C1FE102040EA17112846FFF70F
:1018D000BBFE07F00F012846FFF7AEFEB07940F0DF
:1018E000B0012846FFF7A8FE30793268C006010E25
:1018F0002846FFF7B1FE641E14F0FF04F4D1284619
:10190000FFF792FE0120ABE7D141000800207047AD
:1019100030B444690023A44630BC60472DE9F0414F
:1019200015460E460446FFF719FE40212046FFF7F4
:101930000EFE27692B46324617212046B84720461F
:10194000BDE8F041FFF7FBBD002180F8261070478D
:101950005F0002020303020404040600FF05FF0502
:10196000FF00E901D302B6200580CD002106E9C8B9
:10197000AC00220693CB2415230AACC8A434541A15
:101980002A012409B3C7A5A1474A002508ABC864AA
:10199000D446012609ACC8C514AB98022705D1CBA3
:1019A000082807F2C7A966002908B2C7C45429004D
:1019B0002A07ABC8A46A352B08ABC8C5B462022C91
:1019C0000692C729002D058BCA0C2E05C9C8042F05
:1019D00007ABC85665043008ABC8554355003107FE
:1019E000ABC825590D3207ABC835531A3308ABC8FD
:1019F000CC9417003408ABC8243562013508ABC855
:101A00008CA817003607ABC84DD5023708ABC8CC39
:101A10005446003807ABC8ADD6023907ABC8B5E4A9
:101A2000023A06E1C8C4003B07AAC765A8003C0704
:101A3000ABC8A6BA003D069BC9EC013E07ABC8E4A3
:101A4000AA043F08ABC8E89461024006ABC82D5B0E
:101A50004108ABC85543A9004208ABC8A8B4D2029C
:101A60004308ABC8553255004408ABC8A8642D00E4
:101A70004508ABC88CA8E2004608ABC88CA8620435
:101A80004708ABC8CDA492004808ABC82435940AD7
:101A90004907ABC8AC580D4A07ABC896AA024B0819
:101AA000ABC824B5920A4C07ABC8C4E6004D08ABDE
:101AB000C8A431940A4E08ABC8AAA124004F07ABB2
:101AC000C85556055008ABC8A8B462045107B3C73F
:101AD00055561D5208ABC8A8B4920A5307ABC8EDBF
:101AE000BC005407ABC8ACD8025507ABC824D70814
:101AF0005608ABC8246BA4045708ABC82435860A23
:101B00005808ABC824D552015908ABC82455560013
:101B10005A07ABC8CC540E5B06EAC8AC4A5C07ABAC
:101B2000C8C45C065D06AAC8A86A5E0593CB355F8B
:101B3000058BC70C6006D2CBC4006107A3C82D95E6
:101B4000046208ABC84495D4026306A3C8CD2C64D4
:101B500008ABC8A6A592006506A3C855536608AB96
:101B6000C8A6B462026708ABC7AD2417006808AB0B
:101B7000C84495AC006908ABC86524D3006A08B3B3
:101B8000C766582E006B08ABC8C4B4920A6C07AB8A
:101B9000C8C8D6006D08A3C8A4A154006E07A3C886
:101BA000A864056F07A3C855AA027008ABC7A8B4FC
:101BB00062047108ABC72D9564007208A3C8A41510
:101BC00023007307A3C88DBC007408ABC8A51573A8
:101BD000007507A3C8242B097607A3C824AB027796
:101BE00008A3C8243554007807A3C8A4321579087F
:101BF000ABC72495E4027A07A3C8CC94067B08B34C
:101C0000C7A624EB007C06E9C80C017D09B3C7E434
:101C1000A8628A007E0794CB25950000000004FF8F
:101C2000FF0000BF0205040506010406152600F9A1
:101C300018FA19F904E10AAE2258200BD51CF587D1
:101C4000FFFF7F17002119D51CF587532316588BEA
:101C5000F417879CFB0011689E0D920F2F00222421
:101C6000D51CF58743A2884506516410450651648A
:101C700010450651641045065164104506F9F0FF01
:101C800013002343D51CF587EB838C3506596390ED
:101C9000350659638C45C6380F8CF1C018171A8366
:101CA000AC31C81A83AC31C62263A007C478608CFB
:101CB00007C61964AC31C81A83AC31061B632C32D9
:101CC000C622637C78243BD51CF5875B2412689A76
:101CD000520C91900C114488430411011141560992
:101CE00084654D6B892546425944904504318110E5
:101CF00041CA182490F240302EAD5622F5611400EE
:101D00002541D51CF587DBE410720A298810A2044E
:101D1000294490500A112410E3100A049D40161122
:101D20000412582015956AA81D344821810C524888
:101D300020831022C820848C4448398598F2E136EB
:101D4000002641D51CF587EBC621A654114411424B
:101D500012212411421221631141186AC799861A6F
:101D60000984884206114590420219A42042CC21E0
:101D7000E494428C3145A4F280286990634AF8705B
:101D80001B002710D51CF5875B4292487F1FFE7F02
:101D900006002823D51CF5877B2396675C79354898
:101DA000450A92487F9244124B24B18A241A6862F1
:101DB00089448A02002925D51CF587BD210BB46210
:101DC00015492C9148122949227D90440A12582025
:101DD000058BB35E8143860F0E002A29D51CF5873B
:101DE0009F2591B6C6204398128628E40161DC2A1B
:101DF000D038C488208A0C920A218898A1C2111F69
:101E00007E14002B18D51CF5875F2091BEF580202D
:101E10000F08F2805024D2F7E177012C15D51CF57C
:101E200087FFFF9D110B34CFC012499C22896301AB
:101E30002D0ED51CF587FFCD67BE0FFF97002E1125
:101E4000D51CF587FFFF2281E659907CB805002F4D
:101E500029D51CF58783818E484112491C91C411F4
:101E600029482281241248228124124822812412E6
:101E7000482281448E0FDB003043D51CF587FBC51B
:101E8000A5B592092591420E31C510530C29A61013
:101E9000630A29231042C8108490310621648C41C2
:101EA000081183506114428E21A518628A21A61858
:101EB000724821C80493D64AAE7C783116D51CF5F9
:101EC0008717C8330D2DC548202C1012E9FFBF0F0E
:101ED0000F3221D51CF587F3C625C55211E61043F4
:101EE000904024D2208904D25E05E92249C1FC3EFB
:101EF0009C063328D51CF587F3C525C55211260944
:101F000053220D9276186AA8A558451A0A889C6132
:101F1000C831C220A654331F5E00342FD51CF5876C
:101F2000474624B07AC65D6D04C248206C08B2C62C
:101F3000206B0CA206218910924621E881501E08D0
:101F4000E581E048A4F7E13A003525D51CF587D3B3
:101F5000EE788744BAB8144B0D9152CE384492486B
:101F600067C621861C624E38A7A5D5CC87073635B3
:101F7000D51CF587FBC5A5B59209059522128923C5
:101F800052C1A8861A32A39C52C8A10C39C49043EE
:101F90000C39C4904319724821A98892D64AAE7C64
:101FA0007801003721D51CF587D3EE7871441247AC
:101FB000A4E288248E48C511A938220549A42089A5
:101FC000E4C323003839D51CF587F3A629C552117F
:101FD0000591520E31E410430E3104114252116446
:101FE000298618094511421031141A8620520822F8
:101FF0008520528A21C708839852CD7C783935D5FF
:102000001CF587F3C5A5B592092591420E31E45020
:10201000861C62C821861C624A29A70C731C6ACAE6
:102020000412A9382249A2905482416CA5663E3C14
:1020300001003A16D51CF587FF1A81E659907C7885
:102040008940F32C483EDC023B1CD51CF587FF1A67
:1020500081E659907C7869C402CD33B04412A74818
:10206000E29881013C1BD51CF5879F0A72C0E20EE5
:10207000BBE70A34F08206DE6089648A0F0F023DF6
:102080001BD51CF587BFFD80200F08F280F830F8C3
:1020900080200F08F280F8F02F023E19D51CF5873A
:1020A0002F073A6481E8E17B5633EDB03B671E8928
:1020B000E2C3073F25D51CF58753A529C59011E636
:1020C000104390400405442205092CAF8254A43EDD
:1020D000240934CF82E4C3034043D51CF587FBA613
:1020E00029C59011E55085A45186416410350659E3
:1020F000630C23C818A210328620858C21482163E6
:102100000842CA18A304338860648C45C82881102B
:10211000224B3C8224A6163B1FAE034138D51CF54A
:102120008717C21C728A051668DC08C38D301A092D
:10213000848D31D818449141D4284331D4903BE365
:1021400010430E3123114212214491311611649132
:102150000F9701423AD51CF587CB4B35E40E21C7CA
:1021600090530A41A410440A41A490430C21C7B8DB
:10217000D3D033E494421029241142122124114275
:102180001221049142CA29CFB8C33E9C07432AD5E5
:102190001CF587FBA6A9D4CE11C614434A418490EE
:1021A000240C8124D24F92486241E21443CC11E6C0
:1021B00034A59AF9701E00443ED51CF587CB4B35EB
:1021C000E40E21C710530C39A510440A41A49044D1
:1021D00008498490440849849044084984904408FC
:1021E00049A310440A41A490430C31C510624E43E8
:1021F0002CA90F2F004522D51CF587CB0F84F24068
:10220000280F8442227DD11DEF9048BFF840280F4F
:1022100084F240F8701A004616D51CF587D3CF7C9F
:102220008644FA62431D2291FEFBF00C004732D532
:102230001CF587FBC525D58E19E55085A061480A98
:1022400067447A05115210210511920821891482E0
:1022500048218818728839C21C97143B1FCE034846
:1022600046D51CF587CB04914210290491421029D0
:102270000491421029049142102904914210290F1F
:1022800084F240280F8442102904914210290491BD
:1022900042102904914210290491421029049142CC
:1022A00010F9701A004913D51CF587D30D758D44AC
:1022B000FAFFC71AEA3E1C074A1CD51CF587EB2C0F
:1022C000718D44FAFF5430240D52501145AD955C88
:1022D000F9F006004B40D51CF587C30415421029C0
:1022E000E410431D5208228424328822A22812CAF4
:1022F0004A0CB5C41223822C328822A324424822DD
:10230000852052CA21A618728821A714820A218921
:102310007C380D004C11D51CF587CB24D2FFFFC5AE
:1023200067BE0FB7014D4ED51CF587C3630D421232
:10233000212411524E21E514628A21A61872C62169
:10234000671C42C2140821610A84105104214414FC
:10235000410819631042C618841012089508218993
:102360001092082189109208218910920821897CF5
:10237000380D004E4DD51CF587CB0491421029E550
:1023800090520E29C690720A29A790820829240C1F
:10239000420A09649042C418A4104115328620856F
:1023A0000C124821640452084185945388318518E1
:1023B00053C829859C520822852052481A1F4E0373
:1023C0004F3BD51CF587F3A629C59011E610432194
:1023D0005208228428328822832832882283283295
:1023E00088228328328822832842861A8520520830
:1023F00022863A4618C4946AE6C3035029D51CF5D0
:1024000087CB2C35E40E29C690530A41A410440A08
:1024100041A410440A39A59062CC33EEB04422FDA9
:10242000FBF00E005143D51CF587F3A629C590118A
:10243000E610530A41A41044CA5064104506516482
:10244000104506516410450651641045065164104C
:10245000450841A410440C3115298829D50E1C9239
:10246000C4D4903B1F3800523ED51CF587CB2C3589
:10247000E40E21C790530A41A410440A41A4104419
:102480000A39C490628C3B0DB14408498490440AD7
:1024900041A410440C39C414430E31E49442102971
:1024A00004950F97015330D51CF587FBA6A9D4904E
:1024B00011C614330E41E29048248906A287DE81BA
:1024C00027124922314191221429039172C4310EFD
:1024D00031763E9C075416D51CF587C30F08F28051
:1024E000200F884522FDFFDF8717005542D51CF5D8
:1024F00087CB2411421221241142122124114212AD
:1025000021241142122124114212212411421221AC
:1025100024114212212411421221241142122104B9
:1025200095420E316698D3D262E7C37900563BD507
:102530001CF587C34491411419448D42102904119C
:1025400033D038E48C430C41C38C44CA48841035E2
:10255000C858648C450461438C46C268C899674179
:1025600012891C527C7802005752D51CF587BB8417
:102570008D31D818A38832C628838C41C8342832BC
:1025800006354619A38851C6286294218C18850403
:10259000234621615648106284618C18411C23CC6B
:1025A00031A39C42CA29A49C420A1A66A461461A15
:1025B00066A4614612487C380E005839D51CF58750
:1025C000C32491421031D4216624424822642C2233
:1025D000C8228134E4CC3390C0028D430D3122C82F
:1025E00022822842482284206228440A41841045DD
:1025F0003E5C065929D51CF587C344914112290434
:1026000091420E65C8218524424822642C22C822AA
:102610006234D4CE33AF44FAEFC30B005A2ED51C2C
:10262000F587CB0F84F240280F0448228154249070
:10263000C411092491402A1248E288049238582093
:102640000F08F280200F880F97015B14D51CF587C7
:102650003B2C718944FAFFFF224BDC870A005C2B7C
:10266000D51CF587BD1189249148128924914812FF
:1026700089249148128924914812891C92C82149C1
:1026800024924422870C1F0E015D12D51CF5872B66
:102690000D7591FEFF7FA8F72103005E20D51CF584
:1026A000871784249140E3501B813022C81A642884
:1026B00042082266A870C287FF87015F13D51CF508
:1026C00087FFFF671F18E381311E181F1A00601A69
:1026D000D51CF5873B818A29E690249258C112893E
:1026E0009CE690E2C3FF4100612AD51CF5877FE19B
:1026F000B0951A2AC2A48048A4123BCE3C530C29A0
:102700000491424E29C498620432EFB85406F9701D
:102710001A006233D51CF5872324D24F14D5903B81
:102720004718530C754A218814824821881482481E
:102730002188148248218798628831C318774648D7
:10274000688CF2E1016321D51CF5877FC234A5189E
:1027500032C2986228240C89F42489E50874444123
:102760002DA9663E9C076435D51CF5878324D2A726
:102770008A20A81D678C3886985208228520520826
:102780002285205208228520520822A51C62882911
:10279000C688731C6AAA08F2E13400652CD51CF5C2
:1027A000877FC134A5582AC21C62C8198814824880
:1027B000792094074279201412492C91A0908C30F2
:1027C000A7A5D5CC87F300661CD51CF58763A62981
:1027D000C552110511231289546BA86324D2FFFB43
:1027E000F006006736D51CF587BF5FC838AF3C10D0
:1027F0000A21E510331031E410430E29051551125A
:10280000534AA54562810EB9F30A418490440849B0
:10281000849C61CC3B6CA10E006836D51CF5872BDF
:1028200024D26F94440242EEA0508E29C414431D5A
:1028300062C821861C62C821861C62C821861C626F
:10284000C821861C62C821861C62C8211F4E0369EC
:1028500019D51CF587534312582289E3838C1A1625
:10286000E9FF1A4BDC87E3006A1FD51CF587732349
:102870001658C5F181554B8BF4FF53C190244A4142
:102880004594B45672E6036B35D51CF5872324D2E4
:10289000EF94424C31A49443484164944404592435
:1028A0001096B112C8228328324A22A42052CA218B
:1028B000861C628A21A71482CA87CB006C12D51CA1
:1028C000F5872B896591FEFFC7DCF13EDC066D1DA7
:1028D000D51CF5873F4D0219A43C20C803639460C2
:1028E0004219F4FFFFFFFFDF87CB006E35D51CF5E3
:1028F00087BF4D46492420E40E0AE598424C31D466
:1029000021861C62C821861C62C821861C62C821DF
:10291000861C62C821861C62C821861CF2E1360032
:102920006F30D51CF5877FC1B4B41832C19C528A70
:102930002187149208218910920821891092082178
:102940008914728829861C134C622AB9F2E10500A9
:102950007034D51CF587BF4D44510DB9738431C512
:1029600050A7148248218814824821881482482163
:1029700088147288298698238C71A721228A229133
:10298000DE0705007132D51CF587BF5F0441ED38C5
:1029900063C431C494421029049142102904914225
:1029A00010290491421031E410434C31469CE3500D
:1029B000534590485F06721CD51CF587BF4E4649AB
:1029C00024A4F34C0AE418234E81059248FF7D7835
:1029D00005007328D51CF5877FE1B095DA31E21840
:1029E00072C62128A012CF530E41138B11899881F2
:1029F0004839C21C87D8421FCE03741DD51CF587E9
:102A000057492471C8A9B9E32D12E9BF229409647A
:102A1000AD959AF9701C007535D51CF587BF4D0E24
:102A200031E410430E31E410430E31E410430E3113
:102A3000E410430E31E410430E31E410430E31A58F
:102A40009463C2390E355504F9701B007630D51CDD
:102A5000F5873F5DD228248D421031038D43CE3857
:102A6000C41044CA48A40C35C858648C4504612479
:102A70008C869C79E69548E2F8F004007743D51CF3
:102A8000F587BF4C16196391318A20640C42066D9C
:102A90000C420619A38C51C428431831CA10468C25
:102AA000428208438C428210230C63843946985337
:102AB00086398594534841849034CCF8701C007852
:102AC0002FD51CF587BF4D1029C590430A498410A6
:102AD0004504592490769E790516681C6244104579
:102AE00006518410440C315521887C380D00793909
:102AF000D51CF587BF4D12210491421031E41043DB
:102B0000CE40C31044CA508310450651640C46029F
:102B100061240C37C270E715582089D40A84AC218F
:102B2000CA4A0CBDF2C1007A1DD51CF5873FFECC08
:102B300007E9607915A4C1F2CA7B20940742792085
:102B40007C380D007B21D51CF587270E4B4B29F3D4
:102B500048A40F12775C812616392489F48B059ED0
:102B6000A7586A28037C0ED51CF5875324D2FFFF93
:102B7000FFE7017D1FD51CF587D3C725A6609124EB
:102B8000D227493CCF72E591487FB038B3D44A0C84
:102B90007D007E17D51CF5877FF314515628E3017D
:102BA000510641AE7CF87F0200A00BD51CF587FFD3
:102BB000FF7F1700A118D51CF58753049A6783E49B
:102BC0000334E414E91FAC17C7872700A240D51CC3
:102BD000F58737482471C8018B4BAA9D1290298232
:102BE0008461C818231842C6088690A108198A90E3
:102BF000A1C8208A0CA2C8188C8841C229610C8106
:102C00005028A8A5C58E1B72F6610100A32BD51C08
:102C1000F587FBC5A5B592092495121489144C2C8F
:102C200073449248174724F098605618E501418A8A
:102C30005025A0F2E13800A429D51CF5878F8B24FC
:102C4000CE3B2DAD540649E30C34CE40E30C440A90
:102C5000492594D4CE334314314E50E2C3BF09000A
:102C6000A52FD51CF587C344114210290411431D1B
:102C7000624622842442C6228230124643CE3C035E
:102C80000973C7632412E68EC748A43EBC0000A6A1
:102C900011D51CF5875324D2FFF7012791FE9F071A
:102CA000A73AD51CF5874BA629C55211E61033105B
:102CB00031229158A281A82935C4418498430C3906
:102CC000C4906308414CA986A0892512240E39C3FB
:102CD000147344414DA9663EE401A818D51CF5873C
:102CE000C541862AA2A4224A2AA2A841C687FFFF7C
:102CF0001500A948D51CF5875F284E2986482986E6
:102D000004130821010532465061881108196188B1
:102D10001146196284498D30A9112635C20884886C
:102D200031C2105418630415C618020542C6208229
:102D30009462C8694A35F3E13C00AA25D51CF587A1
:102D4000F3C621A698208385421A5A4AAD44084901
:102D5000A3904446494C2D96BA3BDE87BF0E00AB8C
:102D60002ED51CF587FF5A30810D325411241541A0
:102D700012192491411219441551541145155154F9
:102D800011451541D6208305133E7C0800AC10D5B3
:102D90001CF587FF4BEE7891DE873F0400AD0ED522
:102DA0001CF587FFCD67BE0FFF9700AE47D51CF51A
:102DB000875F284E298648294609424648810C21CA
:102DC000C61862464618621A448C30441A230C9185
:102DD000C608432032C210131981843186186384D7
:102DE000318618E390430822C50C739A52CD7C3883
:102DF0000F00AF0ED51CF587E34B6D1FFEFF47009C
:102E0000B01CD51CF587F3A625A654112511421236
:102E1000212415519462C8950FFF1F04B120D51CC1
:102E2000F5876F91486F3D20C803823C201489F4D8
:102E3000FBC03E20C803823C203E5C06B21ED51C6F
:102E4000F5874BC5A5B51419448D32E48804925713
:102E50003D02096489FBF0BF0A00B321D51CF58748
:102E60004BC5A5B5D620430E779C794712399430CF
:102E7000231142D25AC9950FFFCB00B414D51CF5CB
:102E80008789304924B0402A8E293EFCFFEB00B5EB
:102E90003BD51CF5873F4D0E31E410430E31E41055
:102EA000430E31E410430E31E410430E31E410437D
:102EB0000E31E410430E31A51421C4094B3C40C42B
:102EC000124650641012E97D6000B64CD51CF5879F
:102ED0004B0BB5E38C12A32C31CA12A32C31CA12AE
:102EE000A32C318C12C328314E120321319411834B
:102EF00011311811831131181183113118118311F7
:102F000031181183113118118311311811831131C6
:102F10001811E3431900B711D51CF587FF0D02CD39
:102F2000B320F9F0BF0C00B813D51CF587FFFFF7ED
:102F3000C524B1B031064BAE2000B913D51CF587BE
:102F40005B031677B930869CFF3EFC2F03BA2AD567
:102F50001CF587FBC521A6D620241142D230230DB3
:102F600033D230230D33D2282411429462E8910FDA
:102F7000843BDE87BF0E00BB2ED51CF587FF523089
:102F8000810D3216116511511619649141161924DB
:102F9000155150110515515011251151D42083059B
:102FA000133E7C0C00BC4ED51CF587BD81C2296840
:102FB00010830609629C81C61968188286196914F3
:102FC0009246196A10A206196B0C1247247144121A
:102FD000472464A841482284A4414A1A438481C6F4
:102FE0001861A021A643823243A842D040210D3966
:102FF0003EA401BD4DD51CF587BD81C22968107363
:103000000809629C81862168989186196994A14675
:10301000196A10A206196B0C124724714412472436
:10302000A2A8214E1A6108728610649C81861968D4
:103030009CE99042D028049132942889A50F610020
:10304000BE4FD51CF587B9F25019458C51861A84AC
:103050001C43C831832C228809658871C42081985B
:10306000240642812832462471441247247190A1DB
:1030700008196A1092C828690C83C81061A03184AD
:1030800018680855C65065A081041A727C4803BFB1
:1030900028D51CF5874B049A6741F20127918204D9
:1030A000965741020B2491420111241031E498708B
:1030B0001053AA950F2F00C03ED51C3517B23C0403
:1030C000CB141F9C30879C6281051A37C270238CF9
:1030D000460261630C360651641035CA500C35E463
:1030E000CE38C49043CC488490440851648C450445
:1030F00059E4C36500C13FD51CF5074140D35033A7
:10310000507CB0C21C728A051668DC08C38D301A68
:1031100009848D31D818449141D4284331D4903B4F
:10312000E310430E312311421221449131161164F0
:10313000910F9701C243D51C750A7344D3D22AA1BB
:103140002832C80A46C030879C6281051A37C2708F
:10315000238C460261630C360651641035CA500C4C
:1031600035E4CE38C49043CC488490440851648CF4
:10317000450459E4C36500C342D51CB5210F8971CC
:10318000DC2101A940CA073ACC21A7586081C68D2D
:1031900030DC08A39140D818838D411419448D3236
:1031A00014430DB9330E31E41033122124114214AB
:1031B0001963114116F9701900C43FD51C751E64BE
:1031C000A8224A2AA2A4228A1A647C50C494248980
:1031D00024966739D486186D08B288206B90B106A2
:1031E0002189A586DA21861CCA0C440A49A30C450C
:1031F00006516490453E5C06C543D51C351AB1BCEA
:10320000218413433831841B61BC12879CC5020B97
:10321000346E84E146186E04C2C6186C0CA2C82035
:103220006A94A1186AC89D718821871882481989F3
:1032300010A206218A8CB1C887CB00C639D51CF5EF
:1032400087F32C31D4D071A7A1360269231046022E
:1032500061431036443244243346326310450651EC
:103260005B62891092462188148248516218258633
:10327000511F2E03C731D51CF587FBC525D5CE11AF
:10328000C614434A418490240C8124D24F92486250
:1032900041E21443CC11E634A59A89629258D818B9
:1032A0008325573A00C826D51CB521D1C003090D86
:1032B000FF81501E08E5815048A42FBAE31D12E992
:1032C000171F08E581501E081F1E04C926D51CB50E
:1032D00022EF30E4C807F781501E08E5815048A46A
:1032E0002FBAE31D12E9171F08E581501E081F1EA3
:1032F00004CA2DD51CB50A9240E3D02A82AC41C63F
:103300000A27A4074279209407422191BEE88E77CC
:1033100048A45F7C2094074279207C380D00CB2D97
:10332000D51C751E65A4320A2AA3A0324A1A65F478
:10333000074279209407422191BEE88E7748A45F26
:103340007C2094074279207C380D00CC1BD51CF5DD
:10335000099344034F1C347C101AEA1A89F4FF8F36
:1033600035D47D380E00CD18D51CF51AEFB4E3C85E
:1033700007B8A1AE9148FFFF5843DD872701CE1E55
:10338000D51C75129240D3D22A822842C60A27A899
:1033900086BA4622FDFF630D751F8E03CF1ED51C16
:1033A000751E65A4320A2AA3A0324A1A65F886BAA5
:1033B0004622FDFF630D751F8E03D03BD51CF5879C
:1033C000D36AB1D41019E790520E31C590430C392D
:1033D000C410440A4164A442462A64A4422152080B
:1033E0002285A061C821861C62A8434A396418D48A
:1033F000D052EAC303D157D51CB521F088811A22D7
:10340000E1A840CA079320520822A51C52CA21C530
:1034100018524E21E5145210218584414821810C17
:10342000528818831422A842C610A490410229840D
:103430008C400A21A890720A31A610630A39A5901F
:10344000530A41A410440A49E3C36900D241D51C80
:103450003517B2C003CB141F14D39462C808738805
:10346000A1102904114214194491411419449141A5
:10347000141944914114194491411421438D42106F
:10348000290411431D230C624A35F3E101D342D5CF
:103490001CF50761C0E28E2B507C904C538A21238F
:1034A000CC218642A4104408516410450651641092
:1034B00045065164104506516410450651840C358B
:1034C0000A41A410440C758C308829D5CC8707D4C8
:1034D00044D51C75129240E3922AA2A841C614CD8D
:1034E00034A51832C21C6228440A41841045065192
:1034F0006410450651641045065164104506516438
:103500001045C850A310440A41C450C708839852BC
:10351000CD7C78D544D51CB52924A414C6716888FF
:1035200003C907D834A51832C21C6228440A418452
:10353000104506516410450651641045065164104B
:10354000450651641045C850A310440A41C450C7F1
:1035500008839852CD7C78D647D51C751964A8226B
:103560004A2AA2A4228A1A647C804D538A2123CC41
:10357000218642A410440851641045065164104548
:10358000065164104506516410450651840C350AF5
:1035900041A410440C758C308829D5CC8707D729D5
:1035A000D51CF587DF0C731C8188218890928828B0
:1035B0002BB5F3CA330EB112882AA2A0420A1A868A
:1035C000A480C487BF0400D84DD51CF587F13049CD
:1035D0003262A076DA31C21C6228630A3186103367
:1035E000C220C408410629439041C8181419831AFF
:1035F000839041C6206410310A19448C420609C3E5
:103600008C720A29C610530A394698D321224A22BD
:10361000537C1807D948D51CF5097444034F1C3452
:103620007C92082189109208218910920821891022
:1036300092082189109208218910920821891092FC
:103640000821891092082189109208218910824A44
:1036500021871833CC6969B1F3E13C00DA48D51C05
:10366000F51AEFB4E3880C1F109208218910920814
:10367000218910920821891092082189109208212D
:1036800089109208218910920821891092082189B5
:10369000109208218910824A21871833CC6969B1B8
:1036A000F3E15100DB4CD51C751AB1BCD3922AA2B0
:1036B000A851C60C882442482284244248228424EB
:1036C00042482284244248228424424822842442BC
:1036D00048228424424822842442482284244248A6
:1036E0002284A052C821C60C735A5AEC7C380F00B1
:1036F000DC4DD51C759952190595515019258D32FF
:103700003E9024114212212411421221241142120E
:10371000212411421221241142122124114212218A
:103720002411421221241142122124114212210497
:1037300095420E316698D3D262E7C37900DD30D569
:103740001C350B923CD3CE23317C408822832452FB
:103750000822851CCA90430A49849044C858449062
:1037600045C468A89D675E89F4DF871700DE29D508
:103770001CF587CB24D2C586DC7986986208228521
:10378000205208228520520822851C629E71A721A2
:1037900012E97D780700DF46D51CF5874BC5A5B536
:1037A00092110591520C39C490430C39C410530C3A
:1037B00029E5107110110711910C31A610440A412E
:1037C000859044084984904408498410440A114271
:1037D0009842823224A44384F9701E00E034D51C40
:1037E000F5877E9823964824894412193E3087AD88
:1037F000D450112605442295D871E6996248218853
:1038000014724A21C614239079C7A532C887D30001
:10381000E133D51CF5870931472CAF402A92193E78
:103820003887ADD450112605442295D871E69962A7
:1038300048218814724A21C614239079C7A532C83A
:1038400087D300E239D51CF5870521472CEFB81145
:103850000823812C32080B457C300E5BA9A1224C39
:103860000A88442AB1E3CC33C590421029E494423B
:103870008C294620F38E4B65900FA701E334D51CAD
:10388000F587C9F29018C7A1218E0AA47CA81DB69D
:10389000524345981410895462C799678A2185203C
:1038A00052C8298518538C40E61D97CA201F4E0325
:1038B000E437D51CF5873BA38C5446416514544628
:1038C00049A38C0FEE614A3554844901914825760D
:1038D0009C79A618520822859C528831C50864DE5E
:1038E00071A90CF2E13400E537D51CF587FE80E6BE
:1038F00009319C18C209319C89E3837DD84A0D1592
:103900006152402452891D679E298614824821A74E
:1039100014624C310299775C2A837C380D00E63CB6
:10392000D51CF5873F4F08392898F2802024A03015
:103930004A28840C45C850848CF240200F88F1C07E
:103940001065904408498490444821611471C4185A
:103950000F0C72C431A5900FA701E72AD51CF5877B
:103960007FC234A5DA31E294728621481812E949FF
:1039700012CB11E888825A5AEC4031492C4D10C1C3
:1039800092331C00E836D51CF5877E982396482490
:10399000894412193E30A629C55211E61043CE4083
:1039A000A41044CA03A13C10CA03A1904862890430
:1039B000856484392DAD663E9C07E935D51CF587B5
:1039C0008940472CAF402A12293E38A629C55211FA
:1039D000E61043CE40A41044CA03A13C10CA03A180
:1039E0009048628904856484392DAD663E9C07EA5F
:1039F0003AD51CF587BE982396771A6A43904506F8
:103A00005982880F88694AB1548439C49033102987
:103A10000491F240280F84F2402824925822412138
:103A200019614E4BAB990FE701EB38D51CF5873B7D
:103A3000A38C5446416514544649A38C0FAE694A81
:103A4000B1544639E44C691492467920940742797E
:103A500020141289249120818C30A729D5CC87F39A
:103A600000EC1CD51CF58790882456914812C70C91
:103A70001F14D4B048FFD758E23E3C0900ED1BD5D7
:103A80001CF58798902412486081248E0F326A5862
:103A9000A4FF6B2C711F9E04EE20D51CF5877E9829
:103AA0004312681C622410360661A1880F026A580E
:103AB000A4FF6B2C711F8E03EF1FD51CF5873B8372
:103AC0000C5544494594544451838C0F2A6A58A498
:103AD000FF6B2C711F8E03F039D51CF587C9010FC0
:103AE000094CB184D6526B0C22094B8AA1768C30DA
:103AF000A62AE41442122124114212212411421256
:103B0000212491420E31C5906382494CA9663E3C06
:103B1000F140D51CF587C5F2CE10A82112500AA598
:103B20007C289151120908B9834239A610530C75AB
:103B300088218718728821871872882187187288CF
:103B40002187187288218718728821877CB80D0018
:103B5000F239D51CF587BC902356914812890C1F69
:103B60001CD3D262C804734A29861C52482284247A
:103B70004248228424424822842452C821A6187232
:103B80004C3089A9E4CA871700F339D51CF587059D
:103B900031472C90820592193E40A6A5C59009E6B2
:103BA00094520C39A4904408498490440849849064
:103BB000440849A490434C31E498601253C9950FCE
:103BC0002F00F43FD51CF587BE90239677DC088440
:103BD000914016198485223E20A6A5C59009E69439
:103BE000520C39A490440849849044084984904474
:103BF0000849A490434C31E498601253C9950F2FA3
:103C000000F539D51CF587C5F29010C89D31CE2B33
:103C10001F72A6A5C59009E694520C39A4904408D9
:103C20004984904408498490440849A490434C3105
:103C3000E498601253C9950F2F00F63DD51CF58707
:103C400033A38C5446416514544649A38C0FB06984
:103C50006931648239A514430E29241142122124AA
:103C6000114212212411421229E410530C392698D2
:103C7000C45472E5C30B00F71AD51CF5871F1692C2
:103C80004422C507F799EF434E481289141F7E1747
:103C900000F83FD51CF587DF1693ACA45662C80424
:103CA00073CA38869011462164084208198210327E
:103CB000C620840832082162102A1042CA088310E4
:103CC0006348392698C4D052239445A4F8300E0096
:103CD000F93FD51CF58792882512492291448A190B
:103CE0003E10E410430E31E410430E31E410430E55
:103CF00031E410430E31E410430E31E410430E3131
:103D0000E410534A39269CE3505345900F2F02FA92
:103D10003CD51CF587969804164893E3834B0E31E7
:103D2000E410430E31E410430E31E410430E31E44D
:103D300010430E31E410430E31E410430E31A594CC
:103D400063C2390E355504F9F02200FB43D51CF54A
:103D500087BE90041668DC08841131D81884851257
:103D60003E39C490430C39C490430C39C490430C81
:103D700039C490430C39C490430C39C490430C3976
:103D8000C494528E09E738D45411E4C36D00FC4248
:103D9000D51CF58733A38C5446416514544649A37A
:103DA0008C0F2639C490430C39C490430C39C4900D
:103DB000430C39C490430C39C490430C39C490432C
:103DC0000C39C494528E09E738D45411E4C36D0001
:103DD000FD43D51CF58798902412486081248E0FEE
:103DE0002E498410440A41C490430C39030D4310FA
:103DF00029430D4214194491311809849130DC088B
:103E0000C39D57608124522B10B286282B31F4CAEF
:103E1000071800FE35D51CF5872324D24F14D59002
:103E20003B4718530C754A21881482482188148214
:103E3000482188148248218798628839C218771AE5
:103E400022A22812E97D5000FF48D51CF5873B834C
:103E50000C5544494594544451838C0F2649A31072
:103E6000440C39C49033D0300491421029430D42A0
:103E70001419648D311809A48D30DC08C39D576076
:103E800089438E489620838D505662E8950F060030
:103E900000000004FFFF00001202050405060104F3
:103EA00006182700F81EF81EF700000000030A207D
:103EB0000BF80CF887FFFFFFCF002A31F80CF887CA
:103EC0000F964928D582216D10524431828C421EB2
:103ED00028E481729C331141F48820AD88B20A290C
:103EE000A998828A2969A0F1E19F032B1BF80CF89D
:103EF0008777CBAC6F3D50C803853C50C803859590
:103F0000597F1FFE49002C18F80CF887FFFF6B64DF
:103F10001A79E225CD2C935032293A6C70002D1677
:103F2000F80CF887FFFA03C33C30CC03C33C303EA7
:103F3000FCFF2D002E12F80CF887FFFF7383167913
:103F4000E2250B1D1F1E2F2FF80C781C95CC32C9B3
:103F5000AC64994596596499459659269965925944
:103F600026996592592699952CB3C8328B2CB34C5F
:103F700062C5876700304DF80CF807DAC4D4D872F0
:103F8000CA08938A29A89872CA31A61C63C839A5A1
:103F900098444A21A190528628A410220A29838C91
:103FA00042CA18A412A314520229852453CA39A55F
:103FB00098538C39B5634A496698E4167329960F6D
:103FC000DF033119F80CF8079C480391538CB512A4
:103FD0004A13A4CCFAFFFF3E7C0F00322FF80CF8F6
:103FE00007DA40C59A7AA990732A34524921955923
:103FF0009B641659A489562CB2DE24B3C80786796F
:104000006098078679607CF812003336F80CF80760
:10401000DA40C55C7A2024528C12A7D032CB24B36C
:1040200044D3944B4FB925CF2CB4CC5A0AA9209134
:104030000A1AA7A042CE792024C7D63B1FBE07008C
:104040003435F80CF8079FCC4A9A7841F49223A1B2
:1040500038124A23A230320A23A32C428A22A528EE
:10406000524A22A6A0070A79A090070A79A0BC327A
:10407000EBF7E163003538F80CF807F501711E1015
:10408000E701711E10A7CCBAC998532F3D1090219B
:10409000069163524885125A660D0545CE48C5946F
:1040A00063CC21063D10925BEB9D0FDF033642F897
:1040B0000CF807DC40C59A7AE81092CA11A9CC32F4
:1040C000C92CC2AC971E08E80171D030C79C620AA7
:1040D0002AA624624A2AA5A4524A2AA5A4624822F2
:1040E000A73AC6146486514EB5A6A0F9F039003738
:1040F0002DF80CF807F481611E18E681611E18B2D4
:10410000CC22CB2CB2CC32C9AC6499659259C9325D
:10411000CB24B3926556B2CCEAC337013840F80CD1
:10412000F807DB40C59A7AC90C938A29A73E540C3C
:1041300049A514654461CB25B758112795525039CC
:10414000E590444C49A594544A49A594548A39C6EB
:104150009862CE032139B6DEF9F039003941F80C06
:10416000F807DA40D5D872C910838A29A7A0620A55
:104170002AA624624A22A624624A2AA61C630C416B
:10418000E701711E102985B28C20949A550AA8A4C3
:10419000614C22C424A71A5BD07CF820003A1AF89C
:1041A0000CF8873F3D6891275EB2D0F1E1DB8316C2
:1041B00079E2250B1D1F1E00000004FFFF00000018
:1041C000671400086B1400083B0F00081815AF199E
:1041D000FF1815AE19FF1815A115C819FF1815A05D
:1041E00015C019FF1815A115C019FF1815A015C87D
:1041F00019FF1815AE15D5168015A8163F15D3163C
:10420000001540158D16141520160015A115C8159A
:10421000DA1612158116CF15D916F115DB164015D1
:104220002E15A415A619FF1815AE15D5168015A8BC
:10423000163F15D316001540158D161415201600BF
:1042400015A115C815DA1612158116EF15D916A184
:1042500015DB1600152E15A415A619FF1815AE1599
:10426000D5168015A8163F15D316001540158D16C6
:10427000141520160015A115C815DA160215811699
:10428000CF15D916F115DB1640152E15A415A61954
:10429000FF1815AE15A415D5165015A8163F15D341
:1042A0001600154015AD168B15D9162215DB1635DF
:1042B0001532158116FF15A615DA161219FF1815F5
:1042C000AE15D5168015A8163F15D3160015401546
:1042D0008D16141520160015A115C015DA16121525
:1042E0008116CF15D916F115DB1640152E15A4151C
:1042F000A619FF000001140A6464323200127A0029
:104300000004289610080000800040000001140AF4
:104310006464323200093D0000042896100802024D
:104320008000400044430008000000200800000016
:10433000280100084C43000808000020600A000023
:0C43400044010008000000000000000024
:04000005080000ED02
:00000001FF
