:020000040800F2
:1000000048070020CD010008E1030008A103000813
:10001000DD0300087D020008630600080000000000
:1000200000000000000000000000000005040008BF
:100030008102000800000000E30300081905000821
:10004000E7010008E7010008E7010008E7010008F0
:10005000E7010008E7010008E7010008E7010008E0
:10006000E7010008E7010008E7010008E7010008D0
:10007000E7010008E7010008E7010008E7010008C0
:10008000E7010008E7010008E7010008E7010008B0
:10009000E7010008E7010008E7010008E7010008A0
:1000A000E7010008E7010008E7010008E701000890
:1000B000E7010008E7010008E7010008E701000880
:1000C000E7010008E7010008E7010008E701000870
:1000D000E70100087D050008E7010008E7010008C6
:1000E000E7010008E7010008E7010008E701000850
:1000F000E7010008E7010008E7010008E701000840
:10010000E7010008E7010008E7010008E70100082F
:10011000E7010008E7010008E7010008E70100081F
:10012000E7010008E7010008E7010008E70100080F
:1001300000F002F800F03AF80AA090E8000C8244BF
:100140008344AAF10107DA4501D100F02FF8AFF29C
:10015000090EBAE80F0013F0010F18BFFB1A43F0A5
:1001600001031847FC0900001C0A0000103A24BFD4
:1001700078C878C1FAD8520724BF30C830C144BF0C
:1001800004680C607047000000230024002500264E
:10019000103A28BF78C1FBD8520728BF30C148BFEA
:1001A0000B6070471FB51FBD10B510BD00F033F8D0
:1001B0001146FFF7F7FF00F0B1FC00F051F803B46F
:1001C000FFF7F2FF03BC00F04EFA00000948804739
:1001D00009480047FEE7FEE7FEE7FEE7FEE7FEE729
:1001E000FEE7FEE7FEE7FEE704480549054A064B41
:1001F000704700001D05000831010008480100207B
:10020000480700204803002048030020704770473B
:10021000704770477047754600F02CF8AE460500F1
:100220006946534620F00700854618B020B5FFF711
:10023000DBFFBDE820404FF000064FF000074FF015
:1002400000084FF0000B21F00701AC46ACE8C009F4
:10025000ACE8C009ACE8C009ACE8C0098D467047FD
:1002600010B50446AFF300802046BDE81040FFF70C
:10027000A6BF000000487047E800002000BFFEE76E
:1002800070472DE9F041024600250026002000239A
:100290000024002791F803C00CF00F0591F803C06B
:1002A0000CF0100CBCF1000F03D091F802C04CEA26
:1002B000050591F800C0BCF1000F31D01468002092
:1002C0002BE04FF0010C0CFA00F3B1F800C00CEA7F
:1002D00003069E4220D183004FF00F0C0CFA03F767
:1002E000BC4305FA03FC4CEA040491F803C0BCF1DA
:1002F000280F06D14FF0010C0CFA00FCC2F814C014
:100300000AE091F803C0BCF1480F05D14FF0010C91
:100310000CFA00FCC2F810C0401C0828D1D31460AD
:10032000B1F800C0BCF1FF0F34DD546800202EE0AE
:1003300000F1080C4FF0010808FA0CF3B1F800C006
:100340000CEA03069E4221D183004FF00F0C0CFAF9
:1003500003F7BC4305FA03FC4CEA040491F803C01C
:10036000BCF1280F05D100F1080C08FA0CF8C2F80E
:10037000148091F803C0BCF1480F07D100F1080CBC
:100380004FF0010808FA0CF8C2F81080401C082849
:10039000CED35460BDE8F081416170470161704780
:1003A00000BFFEE708B50121102000F01BF84FF454
:1003B0000050ADF8000010208DF8030003208DF8E8
:1003C000020069460448FFF75CFF4FF40051024801
:1003D000FFF7E4FF08BD00000010014000BFFEE78A
:1003E0007047704729B1064A92690243044B9A61EB
:1003F00004E0034A92698243014B9A61704700000E
:1004000000100240704710B500F002F810BD000067
:100410000CB50020019000903348006840F4803013
:100420003149086000BF3048006800F40030009097
:100430000198401C0190009818B90198B0F5A06F80
:10044000F1D12948006800F4003010B1012000907B
:1004500001E0002000900098012843D12348006863
:1004600040F01000214908600846006820F00300B1
:1004700008600846006840F0020008601A484068BA
:10048000194948600846406848600846406840F49A
:10049000806048600846406820F47C104860084648
:1004A000406840F4E81048600846006840F08070FA
:1004B000086000BF0C48006800F000700028F9D008
:1004C0000948406820F00300074948600846406832
:1004D00040F00200486000BF0348406800F00C0094
:1004E0000828F9D10CBD0000001002400020024095
:1004F000042808D14FF0E021096941F004014FF0D0
:10050000E022116107E04FF0E021096921F00401C8
:100510004FF0E022116170477047000010B513489A
:10052000006840F001001149086008464068104921
:1005300008400E494860084600680E4908400B49CB
:1005400008600846006820F480200860084640687B
:1005500020F4FE0048604FF41F008860FFF753FF4F
:100560004FF000600449086010BD00000010024018
:100570000000FFF8FFFFF6FE08ED00E010B540F2C6
:1005800025511D4800F03EF810B31B4800F064F8F8
:10059000C4B21A48008800F40040C8B9174800885F
:1005A00000F4804060B10A2C03D000201349088079
:1005B00020E01248008840F400401049088019E00B
:1005C0000D2C06D10D48008840F480400B4908806E
:1005D00010E00A480088C0F30D0009490C54074890
:1005E0000088401C0549088008460088C72801DDAE
:1005F0000020088010BD0000003801401C000020D1
:100600002000002070B502460024002300250020B1
:1006100040F66A16B14200D100BFC1F3421501F0A5
:100620001F03012606FA03F3012D02D196893340F8
:1006300006E0022D02D1168A334001E0968A33404B
:100640000C12012606FA04F41688344013B10CB1DA
:10065000012000E0002070BD01468888C0F308003A
:10066000704700BFFEE700BF7047000010B56FF095
:100670000400FFF73DFF0A4800680A49B0FBF1F0AB
:10068000094908700846007800EB4001C1EBC01032
:100690004FF6FF7101EAC0000449088010BD000058
:1006A0000000002000127A00140000201600002034
:1006B0000146114A12884A434FF0E0235A61002252
:1006C0009A611A46126942F001021A6100BF4FF0A6
:1006D000E022106900F001021AB100F48032002A11
:1006E000F5D04FF0E022126922F001024FF0E02332
:1006F0001A6100229A617047160000200146114AD3
:1007000012784A434FF0E0235A6100229A611A4658
:10071000126942F001021A6100BF4FF0E022106935
:1007200000F001021AB100F48032002AF5D04FF037
:10073000E022126922F001024FF0E0231A61002248
:100740009A6170471400002008B500200090012134
:100750000420FFF747FE2020ADF8000010208DF8A0
:10076000030003208DF8020069463248FFF789FD37
:100770002020ADF8000010208DF8030003208DF834
:10078000020069462B48FFF77CFD1020ADF8000001
:100790008DF8030003208DF8020069462548FFF715
:1007A00070FD0820ADF8000010208DF80300032034
:1007B0008DF8020069461F48FFF763FD0420ADF87D
:1007C000000010208DF8030003208DF80200694618
:1007D0001848FFF756FD0220ADF8000010208DF8F4
:1007E000030003208DF8020069461248FFF749FD17
:1007F0000120ADF8000010208DF8030003208DF8D3
:10080000020069460B48FFF73CFD012000F0F6F8B6
:10081000022000F0F3F8282000F0F0F80C2000F09F
:10082000EDF8062000F0EAF8012000F0E7F800F00B
:100830004CF808BD000801402DE9F04104460F4680
:1008400016460025012F01DC0F2C01DDBDE8F081EB
:10085000012F1CDA17E0C4F11000A84206DD05F1F3
:1008600080012144C8B200F0C9F806E005F1C001DA
:1008700021441039C8B200F0C1F8307800F006F910
:10088000761C681CC5B230780028E4D11BE017E064
:10089000C4F11000A84206DD05F1C0012144C8B230
:1008A00000F0ACF806E005F1800121441039C8B22F
:1008B00000F0A4F8307800F0E9F8761C681CC5B2A6
:1008C00030780028E4D100BFC0E710B5402000F028
:1008D00095F8002000F0DAF8412000F08FF80420AD
:1008E00000F0D4F8422000F089F80E2000F0CEF895
:1008F000432000F083F80E2000F0C8F8442000F0F8
:100900007DF80E2000F0C2F8452000F077F81F2097
:1009100000F0BCF8462000F071F8042000F0B6F8B2
:10092000472000F06BF8002000F0B0F8482000F0FD
:1009300065F8032000F0AAF8492000F05FF80320D2
:1009400000F0A4F84A2000F059F8002000F09EF8CA
:100950004B2000F053F8002000F098F84C2000F0F5
:100960004DF8002000F092F84D2000F047F80020EC
:1009700000F08CF84E2000F041F8002000F086F8DE
:100980004F2000F03BF8002000F080F810BD000080
:1009900010B5044604F0100020B108211648FFF7F6
:1009A000FDFC03E008211448FFF7F6FC04F02000EA
:1009B00020B104211048FFF7F1FC03E004210E48A8
:1009C000FFF7EAFC04F0400020B102210A48FFF7DB
:1009D000E5FC03E002210848FFF7DEFC04F080009C
:1009E00020B101210448FFF7D9FC03E001210248AE
:1009F000FFF7D2FC10BD00000008014010B504460E
:100A000000BF20212048FFF7C7FC00BF0120FFF7EF
:100A10004FFE00BF00BF00BF10211B48FFF7BCFC0A
:100A200000BF2046FFF7B4FF0A20FFF767FE00BFB4
:100A300010211548FFF7B2FC00BF0120FFF738FE78
:100A400000BF10211048FFF7A7FC00BF0120FFF7EF
:100A50002FFE2107080EFFF79BFF0A20FFF74EFE2F
:100A600000BF10210848FFF799FC00BF0120FFF7E5
:100A70001FFE00BF10210448FFF78EFC00BF0120BD
:100A8000FFF716FE10BD00000008014010B5044637
:100A900000BF20212048FFF781FC00BF0120FFF7A5
:100AA00007FE00BF00BF00BF10211B48FFF774FC0A
:100AB00000BF2046FFF76CFF0A20FFF71FFE00BFB4
:100AC00010211548FFF76AFC00BF0120FFF7F0FD79
:100AD00000BF10211048FFF75FFC00BF0120FFF7A7
:100AE000E7FD2107080EFFF753FF0A20FFF706FE78
:100AF00000BF10210848FFF751FC00BF0120FFF79D
:100B0000D7FD00BF10210448FFF746FC00BF0120BD
:100B1000FFF7CEFD10BD000000080140FFF7A6FD65
:100B2000FFF712FEFFF73EFC13E0002009490860C2
:100B30004FF49670FFF7BCFD01200749C1F8B401DE
:100B40004FF49670FFF7B4FD04A200210846FFF7AA
:100B500073FEEAE7B40122420000224245525200ED
:100B6000800B000800000020200000006C0100083D
:100B7000A00B0008200000202807000088010008C2
:100B800000A24A040000000000000000010203046B
:100B90000607080900000000000000000000000037
:04000005080001CD21
:00000001FF
