:020000040800F2
:1000000060070020D501000831090008290900080F
:100010002D0900087D070008A30E0008000000005D
:10002000000000000000000000000000B10A00080D
:100030008107000800000000B9090008C50B00088E
:10004000EF010008EF010008EF010008EF010008D0
:10005000EF010008EF010008EF010008EF010008C0
:10006000EF010008EF010008EF010008EF010008B0
:10007000EF010008EF010008EF010008EF010008A0
:10008000EF010008EF010008EF010008EF01000890
:10009000EF010008EF010008EF010008EF01000880
:1000A000EF010008EF010008EF010008EF01000870
:1000B000EF010008EF010008EF010008EF01000860
:1000C000EF010008EF010008EF010008EF01000850
:1000D000EF010008810C0008EF010008EF010008A3
:1000E000EF010008EF010008EF010008EF01000830
:1000F000EF010008EF010008EF010008EF01000820
:10010000EF010008EF010008EF010008EF0100080F
:10011000EF010008EF010008EF010008EF010008FF
:10012000EF010008EF010008EF010008EF010008EF
:1001300000F002F800F03FF80AA090E8000C8244BA
:100140008344AAF10107DA4501D100F034F8AFF297
:10015000090EBAE80F0013F0010F18BFFB1A43F0A5
:100160000103184780100000A0100000103A24BFBF
:1001700078C878C1FAD8520724BF30C830C144BF0C
:1001800004680C607047000000230024002500264E
:10019000103A28BF78C1FBD8520728BF30C148BFEA
:1001A0000B607047642900F07780002070471FB50E
:1001B0001FBD10B510BD00F061F91146FFF7F7FF44
:1001C00000F0F0FE00F07FF903B4FFF7F2FF03BC8C
:1001D00000F069FE0948804709480047FEE7FEE74E
:1001E000FEE7FEE7FEE7FEE7FEE7FEE7FEE7FEE7E7
:1001F00004480549054A064B70470000210C0008D9
:100200003101000860010020600700206003002029
:1002100060030020704700000FB4044910B503AA22
:10022000029800F0F9F810BC5DF814FB2C000020D7
:100230002DE9F0410E460446002020622046E16888
:10024000884730B3252805D0D4E901219047206A9A
:10025000401CF2E7E168204600278847050018D0D7
:10026000A5F14100192802D820354FF40067324625
:10027000294620462760FFF795FF40B1012804D0AA
:10028000F61D26F007060836D8E7361DD6E72846BD
:10029000DAE7206ABDE8F0812DE9F0410646002446
:1002A00010687529314616A510D0AFF300800028DC
:1002B00002DA404213A507E031688A0701D512A58A
:1002C00002E0490704D511A5012401E0AFF3008045
:1002D00000210A2206F1240709E0B0FBF2FCB0FB82
:1002E000F2F302FB1C00303078541846491C0028F9
:1002F000F3D123462A463046BDE8F04100F033B83A
:10030000000000002D0000002B0000002000000075
:100310004FF0000200B5134694469646203922BF9E
:10032000A0E80C50A0E80C50B1F12001BFF4F7AFE9
:10033000090728BFA0E80C5048BF0CC05DF804EBCB
:10034000890028BF40F8042B08BF704748BF20F839
:10035000022B11F0804F18BF00F8012B7047704737
:100360007047704770472DE9F0470D469946924611
:10037000044600F124080168880604D5E06921F0EC
:100380001001216000E00120A84201DD471B00E0D0
:100390000027A1697A1902EB0900081AA0612078E8
:1003A000C00602D42046AFF30080002608E0D4E95E
:1003B00001211AF806009047206A401C761C206232
:1003C0004E45F4DB2078C0060AD52046AFF3008006
:1003D00006E0D4E9012130209047206A401C2062C9
:1003E000381EA7F10107F4DC07E0D4E9012118F871
:1003F00005009047206A401C2062281EA5F10105D7
:10040000F3DC2046AFF300802078000602D50220FE
:10041000BDE8F0870120FBE7074B70B50D467B4434
:1004200000F015F80446284600F024F810B14FF00B
:10043000FF3070BD204670BD670B0000004870475C
:10044000FC00002001694A1C02610878704700B571
:100450008FB0CDE901310021059105497944CDE9FD
:10046000031011466846FFF7E3FE0FB000BD000021
:10047000E5FFFFFF007B00F0800070477546FFF747
:10048000DDFFAE4605006946534620F0070085466D
:1004900018B020B5FFF7ACFEBDE820404FF00006D5
:1004A0004FF000074FF000084FF0000B21F007015C
:1004B000AC46ACE8C009ACE8C009ACE8C009ACE89F
:1004C000C0098D4670470446AFF300802046FFF711
:1004D0007BFE000010B500200A49086000F006F914
:1004E00000200949C1F8BC01022000F027FD0120CD
:1004F00004490860052000F021FD00200249C1F8F0
:10050000B80110BDB80122420000224210B50020FF
:100510000A49086000F0EAF801200949C1F8BC0165
:10052000022000F00BFD012004490860052000F0C6
:1005300005FD00200249C1F8B80110BDB8012242F2
:100540000000224270B50546002400F0BBF80026EA
:1005500017E000201149086000F0AEF801201049B2
:10056000C1F8B8016006040E0C487C38006808B178
:10057000601CC4B200F0A0F8002008490860701C9C
:10058000C6B20F2EE5DB00F0B1F815B9FFF7BEFFDC
:1005900001E0FFF79FFF204670BD0000B801224236
:1005A0000000224270B5044600F0A0F800200E4979
:1005B0000860002514E0E0090B49091D0860600689
:1005C000040E00F079F801200849C1F8B80100F0E4
:1005D00073F800200449086000F06EF8681CC5B28A
:1005E000082DE8DB70BD0000B80122420000224265
:1005F00010B500F07BF80120094908600949C1F8ED
:10060000B801022000F09AFC002005490860022091
:1006100000F094FC00200349C1F8B80110BD0000AF
:10062000BC0122420000224210B500F05FF8002019
:100630000A4908600A49C1F8BC01022000F07EFCAA
:10064000012006490860062000F078FC01200449DA
:10065000C1F8BC01062000F071FC10BDB8012242B7
:100660000000224210B5002400F02CF801200D49B2
:1006700008600D49C1F8B8010AE0601CC4B2FA2C48
:1006800003DDFFF7D1FF012010BD08A0FFF7C4FD77
:100690000448803800680028EFD10249091F08602B
:1006A00000BFF1E7BC012242000022426572726F76
:1006B000723030330D0A000010B5052000F03EFC0A
:1006C00010BD000008B50121102000F077F94FF4AB
:1006D0000040ADF8000048208DF80300694602484C
:1006E00000F04FF808BD00000010014008B50121DE
:1006F000102000F063F94FF40040ADF80000102026
:100700008DF8030003208DF802006946014800F0CF
:1007100038F808BD0010014008B50121102000F094
:100720004DF94FF44040ADF8000010208DF8030063
:1007300003208DF802006946064800F022F80120E7
:10074000054908600549C1F8BC0105A0FFF764FD33
:1007500008BD000000100140B80122420000224202
:10076000414453313031355F4750494F5F494E491D
:10077000545F4F4B21210D0A0000000000BFFEE72F
:1007800070472DE9F0410246002500260020002395
:100790000024002791F803C00CF00F0591F803C066
:1007A0000CF0100CBCF1000F03D091F802C04CEA21
:1007B000050591F800C0BCF1000F31D0146800208D
:1007C0002BE04FF0010C0CFA00F3B1F800C00CEA7A
:1007D00003069E4220D183004FF00F0C0CFA03F762
:1007E000BC4305FA03FC4CEA040491F803C0BCF1D5
:1007F000280F06D14FF0010C0CFA00FCC2F814C00F
:100800000AE091F803C0BCF1480F05D14FF0010C8C
:100810000CFA00FCC2F810C0401C0828D1D31460A8
:10082000B1F800C0BCF1FF0F34DD546800202EE0A9
:1008300000F1080C4FF0010808FA0CF3B1F800C001
:100840000CEA03069E4221D183004FF00F0C0CFAF4
:1008500003F7BC4305FA03FC4CEA040491F803C017
:10086000BCF1280F05D100F1080C08FA0CF8C2F809
:10087000148091F803C0BCF1480F07D100F1080CB7
:100880004FF0010808FA0CF8C2F81080401C082844
:10089000CED35460BDE8F081F0B50A4600230024B1
:1008A0000021002500F00046B6F1004F02D11D4E98
:1008B000F16901E01B4E7168C0F3034583B200F497
:1008C0004016B6F5401F08D121F07061154E7668CC
:1008D00026F07066134F7E6012E000F48016B6F5C5
:1008E000801F06D1032606FA05F4A14341F070618A
:1008F00006E0460D360103FA06F6B14341F0706199
:1009000022B1460D360103FA06F6314300F00046E7
:10091000B6F1004F02D1034EF16101E0014E71606A
:10092000F0BD00000000014000BFFEE700BFFEE791
:100930007047000070B5002100230F22C47804B373
:10094000154C246804F4E064C4F5E064210AC1F1A4
:100950000403CA40447804FA03F184781440214324
:1009600009010E4C0678A155047804F01F050124F6
:10097000AC4005786D11AD0005F1E025C5F80041EA
:1009800009E0047804F01F050124AC40044D06780A
:10099000761145F8264070BD0CED00E000E400E063
:1009A00080E100E002490143024A11607047000003
:1009B0000000FA050CED00E07047000029B1064A7E
:1009C00092690243044B9A6104E0034A92698243AC
:1009D000014B9A61704700000010024030B50021C1
:1009E0000022002400232D4D6D6805F00C0121B17B
:1009F000042905D0082923D105E0294D056022E00E
:100A0000274D05601FE0254D6D6805F47012234DDC
:100A10006D6805F48034022505EB92421CB9214D26
:100A2000554305600BE01D4D6D6805F400351DB1A3
:100A30001C4D5543056002E0194D5543056002E029
:100A4000174D056000BF00BF144D6D6805F0F00143
:100A50000909154D6B5C0568DD4045600F4D6D68FB
:100A600005F4E061090A104D6B5C4568DD40856066
:100A70000A4D6D6805F46051C90A0B4D6B5C456801
:100A8000DD40C560054D6D6805F44041890B074D9B
:100A90006B5CC568B5FBF3F5056130BD0010024025
:100AA00000127A0000093D001400002024000020FC
:100AB000704710B500F002F810BD00000CB5002022
:100AC000019000903348006840F48030314908605C
:100AD00000BF3048006800F4003000900198401CCE
:100AE0000190009818B90198B0F5A06FF1D129488C
:100AF000006800F4003010B10120009001E00020F7
:100B000000900098012843D12348006840F010006D
:100B1000214908600846006820F003000860084684
:100B2000006840F0020008601A48406819494860AF
:100B30000846406848600846406840F48060486065
:100B40000846406820F47C1048600846406840F43D
:100B5000E81048600846006840F08070086000BFF8
:100B60000C48006800F000700028F9D0094840687F
:100B700020F00300074948600846406840F0020042
:100B8000486000BF0348406800F00C000828F9D115
:100B90000CBD00000010024000200240042808D1D3
:100BA0004FF0E021096941F004014FF0E0221161AA
:100BB00007E04FF0E021096921F004014FF0E02245
:100BC000116170477047000010B504464FF4A060F3
:100BD000FFF7E8FE00F06AF9204600F085FA0121EF
:100BE0000846FFF7EBFE01210548FFF755FE0121FE
:100BF0000448FFF751FE04A0FFF70EFB10BD0000F4
:100C00000004300000023000D2D1BEADB9D8B1D559
:100C100053574AD2FDBDC5B8B4D3C30D0A00000076
:100C200010B51348006840F00100114908600846FB
:100C30004068104908400E494860084600680E495F
:100C400008400B4908600846006820F480200860CE
:100C50000846406820F4FE0048604FF41F0088609A
:100C6000FFF727FF4FF000600449086010BD000047
:100C7000001002400000FFF8FFFFF6FE08ED00E064
:100C800010B540F225511D4800F04AF810B31B483A
:100C900000F002F9C4B21A48008800F40040C8B954
:100CA0001748008800F4804060B10A2C03D000206F
:100CB0001349088020E01248008840F400401049A1
:100CC000088019E00D2C06D10D48008840F48040C2
:100CD0000B49088010E00A480088C0F30D0009495C
:100CE0000C5407480088401C0549088008460088C5
:100CF000C72801DD0020088010BD00000038014039
:100D0000300000203400002021B1828942F40052DA
:100D1000828104E082894DF6FF731A408281704718
:100D200070B50246002400230025002040F66A1614
:100D3000B14200D100BFC1F3421501F01F030126EB
:100D400006FA03F3012D02D19689334006E0022D05
:100D500002D1168A334001E0968A33400C120126F4
:100D600006FA04F41688344013B10CB1012000E0F7
:100D7000002070BDF0B503460024002600250020A9
:100D800040F66A17B94200D100BF1846C1F34214B9
:100D900001F01F06012707FA06F5012C01D10C30DE
:100DA00004E0022C01D1103000E014301AB10768C1
:100DB0002F43076002E00768AF430760F0BD000003
:100DC0002DE9F04786B005460E460024A24600BF36
:100DD000A1460027B08900B100BF2F462C8A4CF6EF
:100DE000FF700440F08804432C82AC894EF6F31067
:100DF0000440B08831890843718908430443AC81B9
:100E0000AC8A4FF6FF400440B0890443AC8201A88D
:100E1000FFF7E4FD1F48874202D1DDF810A001E092
:100E2000DDF80CA0A88900F4004040B10AEBCA002C
:100E300000EB0A1031684900B0FBF1F807E00AEB5B
:100E4000CA0000EB0A1031688900B0FBF1F8642099
:100E5000B8FBF0F004012009642101FB1089A88986
:100E600000F4004040B1322000EBC900B0FBF1F0CB
:100E700000F00700044308E0322000EB0910642171
:100E8000B0FBF1F000F00F0004432C8106B0BDE888
:100E9000F08700000038014001468888C0F3080050
:100EA000704700BFFEE7014600BF704710B56FF006
:100EB0000400FFF773FE0A4800680A49B0FBF1F02E
:100EC000094908700846007800EB4001C1EBC010EA
:100ED0004FF6FF7101EAC0000449088010BD000010
:100EE0000000002000127A00280000202A000020C4
:100EF0000146114A12884A434FF0E0235A6100220A
:100F00009A611A46126942F001021A6100BF4FF05D
:100F1000E022106900F001021AB100F48032002AC8
:100F2000F5D04FF0E022126922F001024FF0E023E9
:100F30001A6100229A6170472A0000200146114A76
:100F400012784A434FF0E0235A6100229A611A4610
:100F5000126942F001021A6100BF4FF0E0221069ED
:100F600000F001021AB100F48032002AF5D04FF0EF
:100F7000E022126922F001024FF0E0231A61002200
:100F80009A6170472800002000BF054A128802F0CD
:100F90004002002AF9D0C2B2014B1B1D1A807047D3
:100FA000003801408AB000BF00200890099000BFBF
:100FB00020216846FFF7ACF94FF4E130FFF704FE5B
:100FC00003A0FFF729F901E000F04AF8FCE7000070
:100FD00073746172742031303135207465737420FC
:100FE00066756E6374696F6E0D0A00002DE9F0413D
:100FF0000446002500260027FFF7FAFA9020FFF7A5
:10100000D1FA00BFFFF72EFB0028FBD1FFF754FBFE
:101010002046FFF7C7FAFFF74FFB00BFFFF722FBA1
:101020000028FBD1FFF7E4FA9120FFF7BBFAFFF7A6
:1010300043FB00BFFFF716FB0028FBD10120FFF7A1
:1010400081FA0646FFF738FB0020FFF77BFA0746D8
:10105000FFF7EAFA07EB062085B22846BDE8F081E3
:1010600070B50024FFF758FB4FF49670FFF740FF70
:101070000DA0FFF7D1F84CF28311012000F084F8A5
:101080000EA0FFF7C9F80020FFF7B0FF4FF6FF7181
:1010900001EA00142546E01704EB105001130BA0E1
:1010A000FFF7BAF870BD000073746172207772693F
:1010B000746520307830310D0A0000007772697451
:1010C0006520307830310D0A000000002D2D2D2DC7
:1010D0002D2D2D2D2D2D2D2D2D2D2D2D2D72656789
:1010E0003D25640D0A00000010B586B004460121BC
:1010F00044F20400FFF762FC4FF40070ADF81400F6
:1011000003208DF8160018208DF8170005A91C483B
:10111000FFF737FB4FF48060ADF8140004208DF822
:10112000170005A91648FFF72CFB25208DF80000B5
:1011300003208DF801008DF8020001208DF80300D6
:101140006846FFF7F7FB01940020ADF80800ADF802
:101150000A00ADF80C00ADF810000C20ADF80E0040
:1011600001A90848FFF72CFE012240F2255105484D
:10117000FFF700FE01210348FFF7C6FD06B010BDD2
:10118000000801400038014070B505460C46FFF7E5
:101190002FFA9020FFF706FA00BFFFF763FA002846
:1011A000FBD1FFF789FA2846FFF7FCF900BFFFF7EC
:1011B00059FA0028FBD1FFF77FFA2012FFF7F2F966
:1011C00000BFFFF74FFA0028FBD1E0B2FFF7EAF9C2
:1011D00000BFFFF747FA0028FBD1FFF725FA0020F0
:1011E00070BD000004120008000000203400000060
:1011F0006C01000838120008340000202C070000A1
:101200008801000800A24A0400000000000000005D
:10121000010203040607080900000000010203049C
:101220000102030406070809020406080000000082
:081230000000000000000000B6
:0400000508000131BD
:00000001FF
