:020000040800F2
:10000000C00D0024E10200086D400008E12700084F
:100010006B40000867080008AD4D000800000000B4
:100020000000000000000000000000006F45000814
:1000300069080008000000006F40000871450008D2
:10004000FB020008FB020008FB020008FB0200089C
:10005000FB020008FB020008FB020008FB0200088C
:10006000FB020008FB020008FB020008FB0200087C
:10007000FB020008FB020008FB020008FB0200086C
:10008000FB020008FB020008FB020008FB0200085C
:10009000FB020008FB020008FB020008FB0200084C
:1000A000FB020008FB020008FB020008FB0200083C
:1000B000FB020008FB020008FB020008FB0200082C
:1000C000FB020008FB020008FB020008FB0200081C
:1000D000FB020008FB020008FB020008FB0200080C
:1000E000FB020008FB02000800000000FB02000801
:1000F000FB020008FB020008FB020008FB020008EC
:10010000FB020008FB020008FB020008FB020008DB
:10011000FB020008FB020008FB020008FB020008CB
:10012000FB020008FB020008FB020008FB020008BB
:10013000FB020008FB020008FB020008FB020008AB
:1001400000000000000000000000000000000000AF
:10015000FB020008FB020008FB020008FB0200088B
:10016000FB020008FB020008FB020008FB0200087B
:10017000FB020008FB020008FB0200080000000070
:10018000FB020008FB020008FB020008FB0200085B
:10019000FB020008FB020008FB020008FB0200084B
:1001A000FB020008FB020008FB0200080000000040
:1001B000FB020008FB020008FB020008FB0200082B
:1001C000FB020008FB020008000000000000000025
:1001D0000000000000000000FB020008000000001A
:1001E000000000000000000000000000000000000F
:1001F0000000000000000000FB020008FB020008F5
:10020000FB020008FB02000800000000FB020008DF
:10021000FB020008FB020008FB020008FB020008CA
:10022000FB02000800000000FB02000800000000C4
:10023000FB020008FB02000800000000FB020008AF
:10024000FB020008FB020008FB020008FB0200089A
:10025000FB020008FB020008FB020008FB0200088A
:10026000FB020008FB020008FB020008FB0200087A
:10027000FB020008FB020008FB020008000000006F
:10028000FB020008FB020008FB020008FB0200085A
:1002900000000000FB020008FB0200080000000054
:1002A00000000000FB020008FB020008FB0200083F
:1002B000FB020008FB020008FB020008FB0200082A
:1002C000FB020008FB020008FB020008DFF80CD06C
:1002D00000F048FA00480047D5560008C00D002439
:1002E0000648804706480047FEE7FEE7FEE7FEE7D0
:1002F000FEE7FEE7FEE7FEE7FEE7FEE72D46000825
:10030000CD0200082DE9F05F0546002092469B468D
:1003100088460646814640241BE02846414647461B
:10032000224600F057F853465A46C01A914110D35E
:1003300011461846224600F03EF82D1A67EB0108D8
:100340004F4622460120002100F035F817EB000946
:100350004E41201EA4F10104DFDC484631462A4606
:100360004346BDE8F09FD2B201E000F8012B491EE0
:10037000FBD270470022F6E710B513460A46044642
:100380001946FFF7F0FF204610BD30B50B46014679
:1003900000202022012409E021FA02F59D4205D324
:1003A00003FA02F5491B04FA02F52844151EA2F1CE
:1003B0000102F1DC30BD202A04DB203A00FA02F110
:1003C000002070479140C2F1200320FA03F3194343
:1003D00090407047202A04DB203A21FA02F00021E5
:1003E000704721FA02F3D040C2F120029140084345
:1003F000194670472DE9FE4F804681EA0300C00F81
:100400000C46009021F0004123F00045B8EB0200BB
:10041000A94105D24046214690461C460B4602465D
:1004200023F00040104347D0270DC7F30A00C3F361
:100430000A510290401A019040286BDAC3F313006E
:1004400040F4801B0098924620B10023D2EB030AAF
:1004500063EB0B0B01985946C0F140025046FFF781
:10046000AAFF06460D4650465946019A00F08CF9FF
:1004700010EB08006141002487EA115284EAE77317
:100480001A4340D0009A62B3019A012A4FEA0752F8
:1004900015DC001B61EB02014FF0004202EA07523B
:1004A000CDE90042001C41F5801132462B4600F098
:1004B0008CF903B0BDE8F08F40462146F9E7001BF8
:1004C00061EB0201001C41F5801300185B4120180C
:1004D000A2F5001747EB030140EAD570B6196D414C
:1004E00011E06D084FEA360645EAC0754FEA07523B
:1004F000001B61EB0201001C41F5801149084FEA25
:1005000030000019514132462B4603B0BDE8F04F90
:1005100000F04CB90098012240000023D0EB020209
:1005200063EBE073009821464FEAE074B8EB0000FB
:1005300061EB0401E9E783F000435BE781F00041F0
:1005400058E72DE9FE4F81EA030404F0004421F04E
:10055000004100944FF0000B23F0004350EA0104E7
:100560005ED052EA03045BD0C3F30A54C1F30A55C8
:100570002C44A4F2F3340194A0FB0254C1F3130100
:1005800041F48011C3F3130343F4801301FB0244CD
:1005900000FB034E840A970A44EA815447EA8357D2
:1005A000A4FB076802958D0A05FB07854FEA932C8B
:1005B00004FB0C542705029D4FEA065847EA1637FC
:1005C000B5EB08056EEB070C870E920E47EA811714
:1005D00042EA8312A7FB0201B6EB0B0164EB0004B5
:1005E0002B0D43EA0C335E1844EB1C50DA4651469F
:1005F000E7FB0201C5F313044FEA0B3343EA14533C
:100600004FEA0432019C43EA0603A4F10C0402946D
:10061000009CCDE900B400F0D8F803B0BDE8F08F3D
:1006200000200146F9E72DE9F04D81EA030404F0CA
:10063000004B21F0004514464FF0000A23F0004122
:1006400050EA050220D054EA01021DD0C5F30A5732
:100650000246C5F31303C1F31300C1F30A5640F475
:10066000801543F48013A7EB0608101BD64608F24A
:10067000FD3873EB050002D308F1010801E0921880
:100680005B41B8F1000F03DA00200146BDE8F08DB0
:1006900000204FF48011064684460EE0171B73EBD2
:1006A000050705D3121B63EB050306434CEA010C57
:1006B00049084FEA300092185B4150EA0107EDD13A
:1006C00052EA030012D082EA040083EA05010843DB
:1006D00005D0101BAB4106D20122002306E0002208
:1006E0004FF0004302E06FF0010253101AEB0600D6
:1006F0004CEB085110EB0A0041EB0B01BDE8F04D4B
:1007000000F054B8C1F30A52C1F3130140F2FF33B1
:1007100041F480119A4202DA00200146704740F20B
:1007200033439A42A2F2334202DC5242FFF752BEF6
:10073000FFF741BE30B5041E71F1000404DB4FF039
:100740000044404264EB0101141E73F1000405DB18
:100750001C464FF00043524263EB0403994208BF2A
:10076000904230BD064C074D06E0E06840F00103C2
:1007700094E8070098471034AC42F6D3FFF7AAFD7F
:100780002CCE00084CCE0008202A06DBCB17203ADE
:1007900041FA02F043EAE07306E041FA02F3D04086
:1007A000C2F12002914008431946704710B5141E4B
:1007B00073F1000408DA401C41F1000192185B411A
:1007C0001A4301D120F0010010BD2DE9F04D9246F1
:1007D0009B4611B1B1FA81F202E0B0FA80F2203208
:1007E0009046FFF7E8FD04460F4640EA0A0041EA5A
:1007F0000B0153465A46084313D0114653EA0100F1
:1008000019D0C8F140025046FFF7E4FD05460E46F8
:10081000504659464246FFF7CEFD084305D0012019
:1008200004E020463946BDE8F08D0020054346EA45
:10083000E0762C4337430A986305E40AA0EB0800EE
:100840000022FD0A44EA47540A3002D5002001463E
:10085000E9E7010510196941DDE908450019694119
:10086000BDE8F04DA2E7FEE77047000070B5044612
:1008700000F022F90546601C02D0044800780444C8
:1008800000F01AF9401BA042FAD370BD800000248A
:100890002DE9F84F03247A4D00234FF001094FF062
:1008A000B04B4FF00F0AE4E009FA03F6324078D07B
:1008B0000F7907F00307012F01D0022F1AD18768A3
:1008C0004FEA430ED1F80CC004FA0EF827EA0807E5
:1008D0000CFA0EFC4CEA070CC0F808C0476891F807
:1008E00004C0B743CCF3001C0CFA03FC4CEA070C21
:1008F000C0F804C00E79F643B6070BD0C6684FEABD
:1009000043088F6804FA08FC26EA0C0607FA08F781
:100910003743C7600E7906F00306022E12D1DE08B7
:100920000F694FEA437C00EB8606B646366A4FEA0B
:10093000DC6C0AFA0CF807FA0CF726EA08063743CB
:10094000CEF820700F7906684FEA430807F00307D6
:1009500004FA08FC07FA08F726EA0C063743076092
:100960004E6816F4403F1CD0464E376847F00207E9
:10097000376036689F0706F00206009623F00306EC
:1009800006F1B046B6463F0FD6F80864DFF8F880A7
:100990000AFA07FC404526EA0C0603D14FF0000C8A
:1009A0003AE065E0DFF8E4C0604502D14FF0010CA9
:1009B00032E0DFF8DCC0604502D14FF0020C2BE0E2
:1009C000DFF8D0C0604502D14FF0030C24E0DFF81F
:1009D000C8C0604502D14FF0040C1DE0DFF8BCC078
:1009E000604502D14FF0050C16E0DFF8B4C0604559
:1009F00002D14FF0060C0FE0DFF8A8C0604502D12D
:100A00004FF0070C08E0DFF8A0C0604502D14FF0BE
:100A1000090C01E04FF00A0C0CFA07FC4CEA060C3A
:100A2000CEF808C44F68DBF80060FF0226EA020631
:100A300000D516435F46CBF80060D1F804C0DBF860
:100A400004605FEA8C2C26EA020600D516437E601D
:100A50006E684F6826EA0206BF0300D516436E6033
:100A60002E684F6826EA0206FF0300D516432E6063
:100A70005B1C0A6832FA03F67FF416AFBDE8F88F04
:100A800080000058F4440258000002580004025844
:100A900000080258000C02580010025800140258B6
:100AA00000180258001C0258002402580AB1816143
:100AB00070470904FBE700000148806870470000A8
:100AC00080000024024881680278114481607047E8
:100AD00080000024032010B500F078F801F01AF827
:100AE0000F4A104914681368C4F3032203F00F037C
:100AF0008A5CC95C02F01F0201F01F01D0400A4A63
:100B000020FA01F11160094908600F2000F010F887
:100B100008B1012010BD00F02BF8002010BD00002E
:100B2000184402581CCE0008900000248C000024B9
:100B300070B50D4D04462878A0B14FF47A71B1FB21
:100B4000F0F00A490968B1FBF0F001F052FD48B934
:100B5000102C07D200222146501E00F017F800206A
:100B60006C6070BD012070BD800000248C000024EA
:100B7000054808B5016841F002010160006800F015
:100B80000200009008BD0000F44402580E4BF0B47F
:100B90001B680D46C3F30223C3F10706042E00D9D8
:100BA0000426191D072901D2002300E0DB1E0124C1
:100BB00004FA06F19C40491E2940641E99401440E5
:100BC0002143F0BC04F008B90CED00E0064900F048
:100BD000070210B54FF6FF040868044B204040EAB6
:100BE00002201843086010BD0CED00E00000FA057B
:100BF000134970B50A68D243520705D5096801F058
:100C00000701814213D118E00A6822F0070202436B
:100C10000A60FFF751FF0A4D4FF47A760446083D0B
:100C200007E000BFFFF748FF001BB04201D90120D9
:100C300070BD2868C0438004F4D4002070BD00005B
:100C40000C48025810B500F01FFF05490968054A15
:100C5000C1F30211515C01F01F01C84010BD00003A
:100C6000204402581CCE0008494930B5484C0B1DA1
:100C70000A68143409681D68246802F00303C5F388
:100C80000012C1F30531C4F3CC04002914FB02F2B5
:100C900000EE102AF8EE400A75D03F4A9FED3D1A4B
:100CA000B7EE000A6BB1DFED3D1A012B01D0022B2C
:100CB00064D002EE101A1168F8EE422A81EEA22AE0
:100CC00021E0334C283C23689B0612D5344B246822
:100CD00001EE901A1168C4F3C104F8EE612AE340F2
:100CE00001EE903AC1F30801F8EE611A81EEA22AF2
:100CF0000BE001EE901ADFED2B2A00BFF8EE611A2F
:100D0000116882EEA12AC1F3080101EE901A116860
:100D1000F8EE611A40EE811A71EE800A62EE200A46
:100D2000C1F3462101EE101AB8EE411A31EE001A55
:100D3000C0EE811ABCEEE11A80ED001A1168C1F311
:100D4000064101EE101AB8EE411A31EE001AC0EE5B
:100D5000811ABCEEE11A80ED011A1168C1F3066137
:100D600001EE101AB8EE411A31EE000A80EE801A38
:100D7000BCEEC10A80ED020A30BD04E001EE901A1B
:100D8000DFED092ABAE70021016041608160F3E7E5
:100D90002844025800000039384402580024744A9C
:100DA0000090D0030024744C20BCBE4B494930B5A0
:100DB000484C0B1D0A681C3409681D68246802F041
:100DC0000303C5F30022C1F30551C4F3CC04002989
:100DD00014FB02F200EE102AF8EE400A75D03F4AEA
:100DE0009FED3D1AB7EE000A6BB1DFED3D1A012B06
:100DF00001D0022B64D002EE101A1168F8EE422ADC
:100E000081EEA22A21E0334C283C23689B0612D5B0
:100E1000344B246801EE901A1168C4F3C104F8EE53
:100E2000612AE34001EE903AC1F30801F8EE611A3D
:100E300081EEA22A0BE001EE901ADFED2B2A00BF13
:100E4000F8EE611A116882EEA12AC1F3080101EEE1
:100E5000901A1168F8EE611A40EE811A71EE800A5C
:100E600062EE200AC1F3462101EE101AB8EE411AD3
:100E700031EE001AC0EE811ABCEEE11A80ED001AC4
:100E80001168C1F3064101EE101AB8EE411A31EEB5
:100E9000001AC0EE811ABCEEE11A80ED011A116849
:100EA000C1F3066101EE101AB8EE411A31EE000AE4
:100EB00080EE801ABCEEC10A80ED020A30BD04E06B
:100EC00001EE901ADFED092ABAE7002101604160C6
:100ED0008160F3E72844025800000039404402587A
:100EE0000024744A0090D0030024744C20BCBE4BF4
:100EF0002DE9FE4F0546DFF800A450F8081B00243A
:100F0000FD4FC943019005F1280026460AF1240A45
:100F1000009008011DD4686E50B1B0F5801F0CD050
:100F2000B0F5001F0ED0B0F5401F1ED001240FE019
:100F3000386840F40030386017E00198022103F06F
:100F400097F803E00098022103F022F904000CD086
:100F500026462888C043C00523D4A86D05281ED284
:100F6000DFE800F00C11161B1B006A6EDAF80010A7
:100F700021F440111143CAF80010EAE7386840F440
:100F80000030386009E00198002103F071F803E0B7
:100F90000098002103F0FCF80446C4B100E00124ED
:100FA00026462888DFF85083C04308F12C08400506
:100FB0002FD4D5F8A400B0F5C00F28D010DCB8B1FC
:100FC000B0F5001F19D0B0F5800F0FD11AE0AA6D4F
:100FD000DAF8001021F007011143CAF80010E0E729
:100FE000B0F5000F13D0B0F5200F10D001240FE0A2
:100FF000386840F40030386009E00198002103F0BF
:1010000037F803E00098002103F0C2F8044694B1D9
:1010100026462888C043000530D4D5F8A800B0F192
:10102000407F29D011DCC0B1B0F1807F1AD0B0F17F
:10103000007F10D11BE0D5F8A420D8F8001021F4CF
:1010400060011143C8F80010E3E7B0F1806F13D0DE
:10105000B0F1A06F10D001240FE0386840F40030E8
:10106000386009E00198002103F002F803E00098DD
:10107000002103F08DF8044694B126462868DFF875
:1010800078B2C0430BF1200B80011FD4E86CD8B1BB
:1010900010280FD0202812D0302815D0012414E0B9
:1010A000D5F8A820D8F8001021F0E0611143C8F865
:1010B0000010E3E7386840F40030386004E001983D
:1010C000022102F0D5FF044674B126462888C043A9
:1010D000C0042BD4E86DB0F5005F20D00DDCA0B1CA
:1010E000B0F5805F0FD115E0EA6CDBF8001021F05D
:1010F00030011143CBF80010E8E7B0F5405F13D0A2
:10110000B0F5804F10D001240FE0386840F4003073
:10111000386009E00198002102F0AAFF03E000987E
:10112000002103F035F804468CB126462888C043D8
:10113000800429D4286EB0F5403F23D010DC08B3DA
:10114000B0F5803F14D0B0F5003F0FD115E0EA6D47
:10115000DAF8001021F4E0411143CAF80010E5E785
:10116000B0F5802F0ED0B0F5A02F0BD001240AE0EF
:101170000198012102F07CFF03E00098012103F0B7
:1011800007F8044694B126462888C04340042AD470
:10119000D5F8AC00B0F1405F23D010DC08B3B0F15B
:1011A000805F14D0B0F1005F0FD115E02A6EDAF83D
:1011B000001021F4E0211143CAF80010E4E7B0F177
:1011C000804F0ED0B0F1A04F0BD001240AE001985F
:1011D000012102F04DFF03E00098012102F0D8FF49
:1011E000044674B126462888C04300041FD4E86E24
:1011F000D8B1B0F1805F0ED0B0F1005F10D0012403
:1012000014E0D5F8AC20D8F8001021F0E0411143EB
:10121000C8F80010E7E7386840F40030386004E0B0
:101220000198012102F024FF044674B12646286883
:10123000C043C0011ED4A86CD0B101280ED0022832
:1012400011D0032814D0012413E0EA6EDAF800105C
:1012500021F040511143CAF80010E8E7386840F423
:101260000030386004E00198022102F001FF0446DA
:101270006CB126462868C043400255D41F48016817
:1012800041F480710160FFF717FC81460EE0AA6C03
:10129000DBF8001021F003011143CBF80010E9E75F
:1012A000FFF70AFCA0EB090064283BD8134800684C
:1012B000C005F5D5BCBBDFF84090B5F8B01009F11A
:1012C0004409D9F8000001F4407100F440708842EC
:1012D00011D0D9F80010D9F8002021F4407142F45F
:1012E0008032C9F80020D9F8002022F48032C9F8F1
:1012F0000020C9F8001003E02C44025800480258AE
:10130000D5F8B000B0F5807F19D1FFF7D5FB02907A
:1013100011E000BFFFF7D0FB0299411A41F288307B
:10132000814208D9032426462878DFF81494C04364
:10133000C00721D03CE0D9F800008007EAD5D5F8F5
:10134000B010C1F301200328FE480DD0016821F43C
:101350007C510160B5F8B020D9F80010C2F30B023F
:101360001143C9F80010DFE7F74A036802EA1112D7
:1013700023F47C511143ECE7A86F182816D005DC44
:10138000A0B1082808D0102804D10AE020280DD0E8
:1013900028280BD001240AE00198012102F068FE00
:1013A00003E00098012102F0F3FE044664B12646F2
:1013B0002878C04380071ED4686F062819D2DFE85A
:1013C00000F0160C11161616AA6FD9F8001021F0AD
:1013D00038011143C9F80010EAE70198012102F031
:1013E00047FE03E00098012102F0D2FE04467CB1E2
:1013F00000E0012426462878C04340071FD4D5F8D2
:101400009000062819D2DFE800F0160C1116161607
:101410006A6FD9F8001021F007011143C9F80010D4
:10142000E9E70198012102F023FE03E00098012181
:1014300002F0AEFE0446A4B100E00124264628785E
:10144000C04380062BD4D5F88C00B0F1405F24D087
:1014500011DC10B3B0F1805F15D0B0F1005F10D196
:1014600016E0D5F89020D8F8001021F007011143BC
:10147000C8F80010E3E7B0F1804F0ED0B0F1A04FF4
:101480000BD001240AE00198002102F0F1FD03E0F5
:101490000098022102F07CFE044694B1264628788A
:1014A000C04340062BD4D5F89800B0F5406F24D047
:1014B00011DC10B3B0F5806F15D0B0F5006F10D10E
:1014C00016E0D5F88C20D9F8001021F0E041114346
:1014D000C9F80010E3E7B0F5805F0ED0B0F5A05F6B
:1014E0000BD001240AE00198002102F0C1FD03E0C5
:1014F0000098022102F04CFE044694B1264628785A
:10150000C04300062BD4D5F89C00B0F5C04F24D0C2
:1015100011DC10B3B0F5005F15D0B0F5804F10D1DD
:1015200016E0D5F89820D8F8001021F4E0511143C6
:10153000C8F80010E3E7B0F5004F0ED0B0F5204F2B
:101540000BD001240AE00198002102F091FD03E094
:101550000098022102F01CFE044654B12646287869
:10156000C04300071ED4D5F88000B0F5805F0AD0D4
:101570000FE0D5F89C20D8F8001021F46041114309
:10158000C8F80010EBE70098022102F001FE00B15C
:101590000126D5F88020D9F8001021F440511143DC
:1015A000C9F800102878C043C00613D4D5F89400B9
:1015B000B0F5807F05D10098022102F0E9FD00B16D
:1015C0000126D5F89420D8F8001021F44071114379
:1015D000C8F800102868C043000316D4D5F8A0004E
:1015E00038B1B0F5803F09D0B0F5003F0BD00124F1
:1015F0000AE00198002102F03BFD03E0009802217F
:1016000002F0C6FD04468CB126462868C04340035C
:1016100022D4D5F88400B0F5801F11D0B0F5001F9A
:1016200013D0B0F5401F15D0012414E0D5F8A02048
:10163000D8F8001021F440311143C8F80010E4E755
:10164000386840F40030386004E00098012102F06E
:101650009FFD04465CB126462868C043C0031CD4E5
:10166000286D70B1B0F5803F10D0012414E0D5F89A
:101670008420D9F8001021F440111143C9F800105A
:10168000EAE7386840F40030386004E0019802214D
:1016900002F0EEFC0446DCB126462868C043800018
:1016A00005D40098022102F073FD00B101262868DC
:1016B000C04380031BD4E86FB8B1B0F5807F10D071
:1016C000B0F5007F11D0B0F5407F0ED001240DE0C1
:1016D0002A6DDBF8001021F480311143CBF80010A3
:1016E000DBE7386840F4003038607CB32646286871
:1016F000C043C00207D42A6FDAF8001021F000417D
:101700001143CAF800102868C043800207D4AA6EAB
:10171000DAF8001021F080711143CAF8001028682F
:10172000C043400009D40748016821F4004101602A
:101730000168D5F8B420114301602868C04306E071
:101740005444025810440258CFFFFF001DE007D454
:101750006A6DDBF8001021F040511143CBF8001006
:101760002868C043000208D4D5F88820D9F80010B2
:1017700021F440011143C9F8001028790024C04326
:1017800000F00100204309D00EE0EA6FD9F8001004
:1017900021F440711143C9F80010A8E70198002115
:1017A00002F066FC00B106462879C04300F0020052
:1017B000204305D10198012102F05AFC00B10646F0
:1017C0002879C04300F00400204305D1019802218C
:1017D00002F04EFC00B106462879C04300F0080034
:1017E000204305D10098002102F0D2FC00B106464A
:1017F0002879C04300F01000204305D10098012152
:1018000002F0C6FC00B106462879C04300F0200073
:10181000044304D10098022102F0BAFC00B916B1C9
:101820000120BDE8FE8F0020FBE700002DE9F05FFE
:1018300004000F467ED0DFF83882D8F8000000F0B0
:101840000F00B8420CD2D8F8001021F00F01394334
:10185000C8F80010D8F8000000F00F00B84269D1B5
:101860002078844D40070AD52069296801F070016D
:10187000884204D9296821F0700101432960207849
:101880007C4E361D00070AD56069316801F0700191
:10189000884204D9316821F0700101433160207819
:1018A000C0060AD5A069316801F4E061884204D914
:1018B000316821F4E061014331602078DFF8B4B190
:1018C00080060BF1080B0CD5E1695846DBF80020C7
:1018D00002F07002914204D9026822F070020A43B9
:1018E0000260207880070AD5E068296801F00F01BE
:1018F000884204D9296821F00F010143296020782A
:10190000C0073ED05B49A2682868183920F470608F
:10191000104328606068022818D0032819D009688D
:10192000012819D0490700294ADADFF848A1AAF1AD
:10193000080A00E044E0DAF8002022F0070202433F
:10194000CAF80020FFF7B8F8814612E00968890359
:10195000E9E709688901E6E7C905E4E7FFF7ACF8BC
:10196000A0EB090141F28830814202D90320BDE891
:10197000F09F6168DAF8000000F03800B0EBC10FAA
:10198000ECD1207880070AD5E068296801F00F01C2
:10199000884204D2296821F00F0101432960D8F858
:1019A0000010404601F00F01B9420BD9016821F047
:1019B0000F0139430160006800F00F00B84201D008
:1019C0000120D4E7207840070AD52069296801F072
:1019D0007001884204D2296821F070010143296016
:1019E000207800070AD56069316801F070018842EB
:1019F00004D2316821F07001014331602078C006C3
:101A00000AD5A069316801F4E061884204D23168E6
:101A100021F4E06101433160207880060CD5E16952
:101A20005846DBF8002002F07002914204D20268AE
:101A300022F070020A43026000F06CF80E492A6836
:101A40002B68C2F3032203F00F038A5CC95C02F027
:101A50001F0201F01F01D040084A20FA01F1116075
:101A60000749086007480068BDE8F05FFFF760B805
:101A700000200052184402581CCE00089000002498
:101A80008C0000248400002430B500F043F80B4A99
:101A90000B490C4B15681468C5F3032204F00F04BE
:101AA0008A5C095D02F01F0201F01F01D040064A66
:101AB00020FA01F119601060084630BD1844025840
:101AC0001CCE0008900000248C00002400B5FFF715
:101AD000DBFF05490968054AC1F30211515C01F0B9
:101AE0001F01C84000BD00001C4402581CCE000865
:101AF00000B5FFF7C9FF05490968054AC1F302218E
:101B0000515C01F01F01C84000BD00001C44025898
:101B10001CCE0008454970B545480968434B103B49
:101B200011F0380208D00111082A03D0102A0BD076
:101B3000182A0BD0084670BD19688906FBD51968AC
:101B4000C1F3C101C84070BD3A4870BD3749374D37
:101B500018310C1D24350A68096826682D6802F0C2
:101B6000030406F00102C1F30511C5F3CC0515FB12
:101B700002F200EE102AB8EE400AE9B32F4ADFED78
:101B80002E0AB7EE001A6CB1DFED2D1A012C01D030
:101B9000022C43D002EE101A1068F8EE422A81EEB1
:101BA000A22A1EE01C68A40611D51B6801EE901A3B
:101BB0001168C3F3C103F8EE612AD84001EE900A20
:101BC000C1F30800F8EE611A81EEA22A0BE001EEE3
:101BD000901ADFED1C2A00BFF8EE611A106882EE41
:101BE000A12AC0F3080001EE900AF8EE611A40EE57
:101BF000201A31EE810A00E015E022EE000A10689A
:101C0000C0F34620401C00EE900AF8EE600A80EE19
:101C1000201ABCEEC10A10EE100A70BD01EE901A37
:101C2000DFED092AD8E7002070BD000010440258FB
:101C30000090D00340787D01000000393044025804
:101C40000024744A0024744C20BCBE4B2DE9F05F84
:101C500004007DD0FF4F2078FE4D1837DFF8F48365
:101C6000103DC00748D0D8F80000396800F03800AF
:101C7000102815D0182803D101F0030002280FD036
:101C80006068B0F5803F12D010B1B0F5A02F18D029
:101C9000286820F480302860286820F4802009E03B
:101CA0002868800328D560680028D2D024E02868FE
:101CB00040F480302860606888B1FEF7FDFE06467B
:101CC00009E0286840F480202860F0E7FEF7F4FE81
:101CD000801B64287ED828688003F7D50CE0FEF7C7
:101CE000EBFE064605E000BFFEF7E6FE801B64281B
:101CF000F0D828688003F7D42078800756D5D8F824
:101D00000000DFF85093396810F03800A9F10C0991
:101D10000ED0182801D188070AD0E068A8B3296836
:101D200021F0190101432960FEF7C6FE064628E0AE
:101D30002868400702D5E06800288AD0E168286852
:101D400020F0190008432860FEF7B6FE064606E0BC
:101D5000D2E000BFFEF7B0FE801B0228BAD8286888
:101D60004007F7D5217CD9F8002022F0FE4242EA54
:101D70000161C9F8001019E0FEF79EFE801B0228E1
:101D8000A8D828684007F7D5ECE7FFE7286820F0D7
:101D900001002860FEF790FE064604E0FEF78CFE88
:101DA000801B022896D828684007F7D42078C00600
:101DB00046D5D8F80000DFF89C92396800F038006A
:101DC000A9F10409082812D0182805D101F0030050
:101DD000012800E0CEE00AD0E0690028286820D081
:101DE00040F080002860FEF767FE064615E0286890
:101DF000C00502D5E06980287ED194F82010D9F87A
:101E0000002022F07C5242EA0161C9F8001017E07C
:101E1000FEF752FE801B0228A0D82868C005F7D51F
:101E2000EBE720F080002860FEF746FE064604E05F
:101E3000FEF742FE801B022890D82868C005F7D420
:101E40002078000729D583486169643000298146DC
:101E5000016811D041F001010160FEF72DFE064638
:101E600005E000BFFEF728FE801B022888D8D9F8BD
:101E700000008007F6D510E021F001010160FEF7B7
:101E80001BFE064605E000BFFEF716FE801B02287B
:101E900070D8D9F800008007F6D42078800623D5C2
:101EA000A0690028286810D040F480502860FEF710
:101EB00003FE064605E000BFFEF7FEFD801B02287C
:101EC00058D828688004F7D50EE020F480502860A8
:101ED000FEF7F2FD064604E0FEF7EEFD801B022849
:101EE00048D828688004F7D42078400751D5DFF817
:101EF0006891D9F8001000E015E141F48071C9F84B
:101F00000010FEF7D9FD064605E000BFFEF7D4FD40
:101F1000801B64282ED8D9F80000C005F6D54D4E98
:101F2000A068603601280AD008B1052813D03068AF
:101F300020F001003060306820F0040002E03068DA
:101F400040F001003060A06841F2883A98B1FEF795
:101F5000B3FD81460AE0306840F004003060EEE7EF
:101F6000FEF7AAFDA0EB0901514503D830688007B0
:101F7000F6D50EE072E0FEF79FFD814606E000BF59
:101F8000FEF79AFDA0EB0901514567D8306880073C
:101F9000F6D4606A00287CD0DFF8B8A0D8F800102A
:101FA0000AF1200A4FF6F87B0AF10408C1F3C201D6
:101FB0000329AAF104096DD00228286820F0807056
:101FC000286003D0FEF778FD044681E0FEF774FD3B
:101FD000064604E0FEF770FD801B022875D82868CD
:101FE0008001F7D4E26A40F2F331386854F8283FB0
:101FF000884340EA021018433860217B4FF4FE0CFE
:1020000022894FF0FE47208A4902267D521E401E3B
:10201000A1F5007189B2C2F308021143761E0CEAE1
:1020200000400143484607EA06621143CAF800101F
:10203000D9F8001021F00101C9F80010D8F80030DB
:10204000266A23EA0B0343EAC601C8F80010D9F850
:10205000001004E0104402580048025835E0A2691C
:1020600021F00C011143C9F800100168E26921F068
:10207000020111430160016841F48031016001688F
:1020800041F400310160016841F480210160016880
:1020900001E06CE020E041F001010160286840F0BF
:1020A00080702860FEF708FD044604E0FEF704FD9A
:1020B000001B022809D828688001F7D557E000BF27
:1020C000FEF7FAFC001B022802D90320BDE8F09FAE
:1020D00028688001F4D44AE039680128DAF8000061
:1020E00021D0A26A01F0030393421CD1E26AC1F33A
:1020F00005118A4217D1216BC0F30802491E8A429A
:1021000011D1616BC0F34622491E91420BD1A16BE4
:10211000C0F30642491E914205D1E16BC0F306604F
:10212000491E814201D00120D0E7A16C4646D8F873
:102130000000C0F3CC00814219D0D9F800004D4610
:1021400020F00100C9F80000FEF7B6FC4FEA0007D6
:10215000FEF7B2FCB842FBD0A26C306820EA0B005C
:1021600040EAC2003060286840F00100286000208A
:10217000ACE700002DE9F047040029D0594A4FF0A0
:1021800000092068584B594D9042C4F8289006D059
:10219000984204D0A84202D0E1680F2918D8E1681B
:1021A0004FF0010AE76B0831C9080AEB5716714373
:1021B000904205D0984203D0A84201D0082907D800
:1021C000904203D0984201D0A84204D1102902D9EC
:1021D0000120BDE8F08794F8810020B9204684F8FA
:1021E000809000F085F8022084F881002068016862
:1021F00021F0010101602068A1698268B1F1806F5E
:1022000002F4F81110D16268B2F5800F01D01AB152
:102210000AE0A26B22B107E0A26BB2F1805F03D1AA
:10222000026842F4805202606068400209D5E068AA
:10223000072806D32068236D026822F480721A43AF
:1022400003E02068026822F480720260A66AE069F6
:10225000E26B25683043E3680A4310431843A860E3
:10226000D4E90D02D4E90581636A25691843D4F8DD
:1022700020C00A43266810432843A56DD4E90172A3
:10228000D4E9123140EA080040EA0C003843084320
:10229000104318432843F060606868B9206881687B
:1022A00021F4C05141F4006181602068816821F40B
:1022B000C06141F4806181602068016D21F00101FD
:1022C00001656068400206D52068626DC16821F032
:1022D00000411143C160C4F8849084F881A00020BB
:1022E00077E700000030014000380040003C00402B
:1022F000F0B587B0044614216846FEF73BF826493E
:102300002068884245D12548016841F020010160DC
:10231000006800F02000059020481438016841F062
:1023200040010160016801F040010591016841F040
:1023300040010160016801F040010591016841F030
:1023400040010160006805220225154F00F04000A1
:102350000590002402940321CDE903124FF4C240FA
:102360006946CDE900053846FEF792FA012669462E
:10237000E802CDE90254CDE900063846FEF788FAB6
:10238000A8030090CDE90164694638460394FEF73E
:102390007FFA07B0F0BD000000140058F444025862
:1023A000001802582DE9FC5F0446006817468A466B
:1023B0000021994694F8802000F1200B0191012A18
:1023C0000DD04FF0010884F88080FEF775FB0646BB
:1023D00094F881000025012804D0022034E0022076
:1023E000BDE8FC9FBAF1000F2DD067B3A1680320B0
:1023F000C4F85CA0A4F8607084F88100C4F884502C
:10240000A4F862706566A4F86850A4F86A50B1F543
:10241000C02F65672567206819D0C16821F4C021E5
:1024200041F40031C160206841686FF30F01394306
:1024300041602068016841F0010101606068B0F509
:10244000800F09D00DE0012084F88050C8E70168B2
:1024500041F400610160E6E72068016841F4007121
:102460000160E0680F281CD820E0206841698907D6
:102470000BD5E16D09680162E06D001DE065B4F8FF
:102480006200401EA4F862000BE0FEF715FB811B02
:10249000494503D3B9F1FF3F03D099E0B9F1000FEB
:1024A00030D0B4F862000028DFD177E007282DD8BB
:1024B00070E02068416989071CD5B4F862100129D1
:1024C0000BD9E16B49B1E16D09680162E06D001D56
:1024D000E065B4F86200801E09E0E06D0188ABF8A9
:1024E0000010E06D801CE065B4F86200401EA4F8A6
:1024F00062000BE0FEF7E0FA811B494503D3B9F116
:10250000FF3F03D064E0B9F1000F61D0B4F862007E
:102510000028CED142E02068416989072ED5B4F861
:10252000621003290CD9E16B402909D9E16D0968D2
:102530000162E06D001DE065B4F86200001F1AE062
:10254000B4F8621001290CD9E16B51B1E06D01883A
:10255000ABF80010E06D801CE065B4F86200801EEE
:1025600009E0E16D097880F82010E06D401CE0651D
:10257000B4F86200401EA4F862000BE0FEF79CFA7B
:10258000811B494503D3B9F1FF3F03D020E0B9F1E6
:10259000000F1DD0B4F862000028BCD100224B46C9
:1025A00008212046009601F0BFFF28B1D4F884002E
:1025B00040F02000C4F88400204601F079FE84F841
:1025C0008180D4F8840084F8805080B1012007E72E
:1025D000204601F06DFED4F8841084F8805041F458
:1025E0008071C4F8841084F881800320F8E6019893
:1025F000F6E6401EB0F1807F10B501D3012010BD7A
:102600004FF0E02460610F21601702F0E5FB00202D
:10261000A0610721216110BD30B590F88410012917
:1026200018D0012280F884202421C0F888100022CC
:10263000202401680B680D6823F0005325F0010584
:102640000D60426601680B60C0F8884080F8842005
:10265000104630BD022030BD70B5044690F88400AD
:1026600001281DD0012284F884202420C4F8880089
:1026700020680568026822F0010202602068826812
:1026800022F060620A438260204602F02FF822683E
:10269000202100201560C4F8881084F8840070BDE3
:1026A000022070BD70B5044690F8840001281DD04A
:1026B000012284F884202420C4F88800206805685A
:1026C000026822F0010202602068826822F0604203
:1026D0000A438260204602F009F822682021002087
:1026E0001560C4F8881084F8840070BD022070BDA5
:1026F00010B5040003D0D4F8880010B107E0012021
:1027000010BD002084F88400204600F027F8242023
:10271000C4F888002068016821F0010101602046AA
:1027200002F0EAF80128EBD0A06A10B1204601F0CF
:10273000FFFF2068416821F4904141602068816872
:1027400021F02A0181602068016841F001010160E7
:102750002046BDE8104002F04FB8000010B586B02A
:10276000044614216846FDF705FE1A492068884290
:102770002ED11948016841F010010160006800F095
:102780001000059014481038016841F00101016003
:10279000016801F001010591016841F0010101604A
:1027A00000680221012200F00100059003230724A4
:1027B0004FF400708DE81F00084C69462046FEF774
:1027C00067F84FF48060694600902046FEF760F895
:1027D00006B010BD00100140F0440258000002583D
:1027E000FEE7000070B5134C6189A089491E8AB2CA
:1027F000401E83B20021084600F00CFD01220E4865
:10280000D103FEF753F9A4F688050F20E8602846A7
:10281000FFF7B0FC6289A089A188424389B22846AB
:1028200000F050FC0720E8602846BDE87040FFF744
:10283000A1BC0000B0090024001802582DE9F05F87
:10284000DFF8A0E0203A0023274E02F0FF0A894675
:1028500083461A46DEF80000194626E0234DD0F8DC
:102860000080B5F800C0AF880AFB04851FFA8CFC15
:10287000BFB2002413F805505FEAC57802D026F8ED
:1028800012C001E026F81270B0F80480491C521CF6
:1028900089B26D0892B2884501D1002103E0641C21
:1028A000A4B2082CE8D35B1C9BB204899C42D5D807
:1028B000C288A9F101018388ABF10100114474467B
:1028C00018448BB2494682B2584600F0A3FC2068F7
:1028D0008188C088BDE8F05F4143034889B201F0B8
:1028E00099BA000078000024B0010024B009002447
:1028F0002DE9F05FDFF8D0808346177800238A4601
:102900001946D8F80400048906685D1C04FB05FC20
:1029100016F80CC0BC4508D105FB046592F801C04F
:102920006D78654501D1994604E045899B1C9BB2B1
:102930009D42EAD80022254E1346C64627E0DFF81E
:1029400090C0056809FB0455BCF800800024BCF861
:1029500004C01FFA88F75D5D1FFA8CFC5FEAC5783A
:1029600002D026F8127001E026F812C0B0F80480F8
:10297000491C521C89B26D0892B2884501D10021D0
:1029800003E0641CA4B2082CE8D35B1C9BB204894E
:102990009C42D4D8C288AAF101018388ABF101001E
:1029A0001144744618448BB2514682B2584600F026
:1029B00031FC60688188C088BDE8F05F414303480E
:1029C00089B201F027BA000078000024B001002489
:1029D000B009002430B50546094887B00C46007A96
:1029E0008DED000B50B107A102A802F0E1F902AA97
:1029F0002146284600F02CF807B030BD03A1F3E7CC
:102A0000B0090024252A2E2A6C66000025302A2EC3
:102A10002A6C66007FB51E46094B05460C46187A9F
:102A20001346324648B107A1684602F0C1F96A462A
:102A30002146284600F00CF87FBD03A1F4E7000012
:102A4000B0090024252A640025302E2A64000000E5
:102A50002DE9F0410B4F15460B4E8846044608E021
:102A600041462046FFF7EAFE38686D1C8088204406
:102A700084B27089A04202D92A78002AF0D1BDE838
:102A8000F081000078000024B00900242DE9F04115
:102A90000F4E14460F46054615E07F2A09D83946E1
:102AA0002846FFF7CBFE3068641C8088284485B236
:102AB00009E0224639462846FFF71AFF7068A41C31
:102AC0008088284485B22278002AE6D1BDE8F081CA
:102AD000780000242DE9F84F5542814602201F4F0F
:102AE0000026884600EB450408EB060A3A68A9EB85
:102AF00005001FFA8AF1009080B200F049FA09EB54
:102B0000050B3A681FFA8AF11FFA8BF000F040FAC1
:102B1000A8EB060A3A681FFA8BF01FFA8AF100F058
:102B200037FA00981FFA8AF13A6880B200F030FA5A
:102B3000B442204608DC761C00EB4604641CF542D7
:102B400002D1A84200DC0020A84203DD6D1C04EB8A
:102B50004504641C002DC7DDBDE8F88FB0090024D2
:102B60002DE9F05F00EE102A00EE903AC2F1000766
:102B7000804602200E46B8EEC00AF8EEE00A00EBEE
:102B800047046D489A424FF000052DED028B67DD3A
:102B900080EE208A4FEA000900EE105AA8EB070BDE
:102BA000D9F80020B8EEC00AC0EE080ABCEEE00A70
:102BB00010EE100A304481B21FFA8BF000F0E8F9F1
:102BC00000EE105A08EB070AD9F80020B8EEC00A48
:102BD000C0EE080ABCEEE00A10EE100A304481B2E2
:102BE0001FFA8AF000F0D4F900EE105AD9F800204C
:102BF000B8EEC00AC0EE080ABCEEE00A10EE100AF9
:102C0000301A81B21FFA8AF000F0C2F900EE105AB1
:102C1000D9F80020F8EEC00A80EE880ABCEEC00A9F
:102C200010EE100A301A81B21FFA8BF000F0B0F9E2
:102C3000AC42204608DC6D1C00EB4504641CEF42EE
:102C400002D1B84200DC0020B84203DD7F1C04EB57
:102C50004704641C002F9FDDBDEC028BBDE8F09F94
:102C600080EE808A5F424FEA0009002500EE105A8C
:102C700006EB070AD9F800201FFA8AF1B8EEC00A5D
:102C8000C0EE080ABCEEE00A10EE100AA8EB000045
:102C900080B200F07DF900EE105A1FFA8AF1D9F8DF
:102CA0000020B8EEC00AC0EE080ABCEEE00A10EE42
:102CB000100A404480B200F06BF900EE105AA6EB07
:102CC000070AD9F800201FFA8AF1B8EEC00AC0EE50
:102CD000080ABCEEE00A10EE100A404480B200F090
:102CE00057F900EE105A1FFA8AF1D9F80020B8EE11
:102CF000C00AC0EE080ABCEEE00A10EE100AA8EB0B
:102D0000000080B200F044F9AC4220460ADC6D1CA1
:102D100005EB45021418EF4204F1010402D1B84258
:102D200000DC0020B84204DD7F1C07EB47000444B0
:102D3000641C002F9ADD8FE7B00900242DE9FF4FB6
:102D40004FF480619B46B1FBFBF183B0144607460C
:102D50004FF0000A3E465546049800903819401E30
:102D6000DDF84090CDE901106EE00020B4EE001ACD
:102D700027E0384B002199F80020A3F5006EB3F846
:102D800000C09B881FFA8CFC1FFA83F35FEAC278AD
:102D900002D02EF815C001E02EF81530761CB6B220
:102DA0006D1C5208A6EB0708ADB2A04501D13E4606
:102DB00003E0491C89B20829E8D3401C80B209F11C
:102DC000010900EE104A00EE900AF8EE401AB8EE43
:102DD000600A61EE810AF4EEC00AF1EE10FAC8DC76
:102DE00001986043A84216D1DDE90001002500EBFF
:102DF00001080299A8F1010083B238468AB200990D
:102E000000F008FA0198604381B2134801F002F81B
:102E10001FFA88F000900AF10108D84512D10499F0
:102E200038468A4402991FFA8AF38AB2009900F060
:102E3000F1F90099AAEB0100401C604381B20648F9
:102E400000F0E8FF1FFA88FADA458ED307B0BDE834
:102E5000F08F0000B0090024B00100242DE9FC5FD0
:102E6000151A0027002D00DC851A5C1A0FFA85FC64
:102E7000002C00DCCC1A06B282424FF0FF320DB2B9
:102E800020B203D301240094A24601E092460092AE
:102E90008B4203D34FF0010BD94601E09346D9464C
:102EA0004FF00001844507DB894600910CEBDC7193
:102EB000E04601904C1025E08A464FF0000B00EBF5
:102EC000D0718046CDF804C04C101BE00F48A9B269
:102ED0000268B0B200F05CF80198204404B24445A6
:102EE00008DB0098A4EB08010CB2321805EB0B00CC
:102EF00016B205B27F1C06EB0A0105EB09000EB203
:102F000005B23FB24745E1DDBDE8FC9FB0090024B2
:102F10000B460D4970B514460A88A1F500650021DD
:102F200092B203E04E1C25F81120B1B2A142F9D3B0
:102F30000119491E8AB2194600F06CF9214603486E
:102F4000BDE8704000F066BFB0090024B001002465
:102F500070B514460C4AA2F50065138800229BB296
:102F600003E0561C25F81230B2B2A242F9D30A1976
:102F7000521E93B2024600F04DF921460348BDE8C7
:102F8000704000F047BF0000B0090024B0010024E9
:102F900010B514460B46024600F03CF9A0B2BDE85D
:102FA000104000F06BBF2DE9F0411C4616460D465F
:102FB0000746FFF7ADFF28193246401E81B238465A
:102FC000FFF7A6FF224629463846FFF7C1FFB8198A
:102FD00022462946BDE8F041401E80B2FFF7B8BF47
:102FE0002DE9F84F8B4690460321074600244FF603
:102FF000FF79A1EB4806154631E08DB13B1BABEBE9
:103000000501009109EA450298B2924689B2FFF79C
:103010009FFF0099381980B2524689B2FFF798FF96
:103020008CB17B1BABEB0401009109EA440298B21E
:10303000924689B2FFF78CFF0099781980B2524608
:1030400089B2FFF785FF002E03DA06EB8406B61D72
:1030500004E0601B6D1E06EB80060A36641CAC4261
:10306000CBD9424659463846BDE8F84FFFF732BD46
:1030700070B51D4614464B1902195B1E521E9BB2B9
:1030800092B200F0C7F801220C48D103FDF70EFD03
:103090000B4E0F20F0603046FFF76CF806F6880004
:1030A00004FB05F2008881B2304600F00BF80720DF
:1030B000F0603046BDE87040FFF75CB80018025879
:1030C000280100242DE9FC5F8A4690F88010044610
:1030D00015460020019001294FF47A7710D04FF067
:1030E000010884F88080FDF7E7FC814694F88100B0
:1030F0000026012806D0022084F88060BDE8FC9FED
:103100000220FBE7032084F88100C4F88460A4F85F
:103110006050A4F862506666A4F86860A4F86A601B
:103120004AEA0A4B666726672068016841F4006135
:103130000160206841686FF30F01416020680168F9
:1031400041F0010101606068B0F5800F29D120686D
:10315000016841F40071016023E02068416989073A
:103160000BD5012D05D9E16B19B1C0F820B0AD1E0A
:1031700017E0A0F820A06D1E13E0FDF79DFCA0EB6A
:103180000900B8420DD3204600F0F0FED4F88410B8
:1031900084F8806041F48071C4F8841084F88180E0
:1031A00033E0002DD9D100224B464FF48051204608
:1031B000009700F039FF28B1D4F8840040F02000D7
:1031C000C4F884002068016841F480610160002235
:1031D0004B464FF400612046009700F025FF28B1D0
:1031E000D4F8840040F02000C4F88400204600F0A9
:1031F000BDFE2068826942F40062826184F88060CA
:1032000084F88180D4F8840008B1012076E7019821
:1032100074E700002DE9F041984615460E46074632
:103220002A2000F017FE0F4CA07B384480B200F03B
:1032300025FEA07B284480B200F020FE2B2000F069
:1032400009FEE07B304480B200F018FEE17B01EB28
:10325000080080B200F012FEBDE8F0412C2000F022
:10326000F9BD0000B0090024014908607047000062
:10327000780000244FF478414FF4FC6301EA1021F8
:10328000C0F3C40203EA50100143024811434160F5
:1032900070470000B00900244FF478414FF4FC63FC
:1032A00001EA1021C0F3C40203EA501001430248AE
:1032B0001143016070470000B00900242DE9F0417E
:1032C000174C0026F025607280B1022813D0012827
:1032D0004FF050071BD0032817D1362000F0BAFD5D
:1032E000C02000F0E3FDA673E7730CE0362000F089
:1032F000B1FD702003E0362000F0ACFD002000F0AE
:10330000D5FDA673E6736581A581BDE8F081362001
:1033100000F0A0FDA02000F0C9FDA773F2E70000B7
:10332000B00900240C494860808814280FD005DCBF
:103330000C280AD0102807D1084804E0182808D023
:10334000202801D10648086070470648FBE7064878
:10335000F9E70648F7E70000780000246000002441
:103360003C0000246C000024540000244800002489
:103370000149087270470000B00900242DE9F05F90
:1033800025480024FFF7CEFF0020FFF785FFDFF878
:103390009090DFF888B0214D09F17F09204E0BF1A4
:1033A0007F0B204FDFF88080DFF880A0082C0AD246
:1033B000DFE804F004062426282A2C2E284600E004
:1033C0003046FFF757FFFFF70DFA46210D2018A2F0
:1033D000FFF75CFB6A210D201AA2FFF757FB8E2135
:1033E0000D201DA2FFF752FB4FF47A70FDF73EFA55
:1033F000641CE4B2082CD9D3BDE8F09F3846E0E75E
:103400004046DEE74846DCE75046DAE75846D8E76C
:103410006FF07F40D5E70000240000248080FF008B
:1034200080FF8000FF80800080FFFF00A3A3A30037
:1034300053544D3332483720CBA2C6C1B2E2CAD46E
:1034400000000000C6C1C4BBB7D6B1E6C2CA3A325A
:1034500034302A3234300000BFD8D6C6C6F73A53CB
:10346000543737383900000070B50020FFF702FFED
:10347000FFF7B8F95948FFF755FF6FF07F40FFF7A6
:103480000BFF002156A20846FFF700FB00244FF473
:103490007F0500BFA5EB0440FFF7FEFE0A22204691
:1034A0001421FFF755FD641CA4B2F02CF2D30024C4
:1034B0004FF47F45A5EB0420FFF7EEFE0A222046DD
:1034C0002321FFF745FD641CA4B2F02CF2D30024A5
:1034D000C4F1FF00FFF7E0FE0A2220463221FFF789
:1034E00037FD641CA4B2F02CF2D340484624FFF709
:1034F000D3FE4B210A235A229620FFF7B9FD002064
:1035000021463BA2FFF7A4FA3C48FFF7C5FE5F2126
:103510000A235A229620FFF7ABFD5A21002038A239
:10352000FFF796FA3A48FFF7B7FE73210A235A22AB
:103530009620FFF79DFD6E21002036A2FFF788FA46
:103540003848FFF7A9FE87210A235A229620FFF761
:103550008FFD8221002034A2FFF77AFA48F2800022
:10356000FFF79AFE9B210A235A229620FFF780FD3F
:10357000962100202FA2FFF76BFA4FF08010FFF783
:103580008BFEAF210A235A229620FFF771FDAA2154
:1035900000202BA2FFF75CFA2D48FFF77DFEC32128
:1035A0000A235A229620FFF763FDBE21002029A29C
:1035B000FFF74EFA2A48FFF76FFED7210A235A2257
:1035C0009620FFF755FDD221002026A2FFF740FAF2
:1035D000BDE870404FF4FA60FDF748B918000024C8
:1035E000524742C8FDBBF9C9AB3A0000FFFF80005B
:1035F0004C494748545F4359414E0000FF80FF004B
:103600004C494748545F4D4147454E5441000000E6
:1036100080FFFF004C494748545F59454C4C4F5779
:1036200000000000A3A3A3004C494748545F475241
:10363000455900004441524B5F4359414E00000040
:103640004441524B5F4D4147454E544100000000FC
:10365000008080004441524B5F59454C4C4F57000D
:10366000404040004441524B5F47524559000000E2
:103670002DE9F843DFF8A8800024DFF8A8904FF484
:103680007A77294D294E0020FFF7F4FDFFF7AAF8BD
:103690002748FFF747FE4046FFF7FEFD34B1012CF7
:1036A00009D0022C31D0032C0DD133E00220FFF7DA
:1036B00005FE20A203E00020FFF700FE20A2142157
:1036C0000846FFF7E3F94846FFF7E6FD5323009568
:1036D00050211A461320FFF731FB1C48FFF722FE4A
:1036E0003046FFF7D9FD5A21822019A2FFF7CEF903
:1036F000822119A20846FFF7C9F93846FDF7B6F846
:10370000641C042CBFDBBDE8F8830320FFF7D6FD63
:1037100013A2D4E70120FFF7D1FD16A2CFE70000E6
:10372000FBF9DFFF8DE5F6FFB0BF0008A8D39DFFD2
:1037300024000024446972656374696F6E5F5600EB
:10374000446972656374696F6E5F480030000024DD
:10375000C2B9D0A1B0E00000BFC6BCBC00000000F0
:10376000446972656374696F6E5F565F466C697019
:1037700000000000446972656374696F6E5F485FA2
:10378000466C697000000000002010B5FFF772FD64
:10379000FFF728F86FF07F40FFF77EFDF023002150
:1037A0001A460846FFF7FFFB4FF47F00FFF774FD52
:1037B0001E2232218C20FFF713FC4FF47F40FFF7CD
:1037C0006BFD1E223221AA20FFF70AFCFF20FFF723
:1037D00063FD1E223221C820FFF702FC2948FFF7B3
:1037E0005BFD1A21402308467122FFF737FB512366
:1037F0006A2216212320FFF731FB64235D22142166
:103800002D20FFF72BFB6C23452210213420FFF7DE
:1038100025FB6C232C2210213E20FFF71FFB1A48AA
:10382000FFF73AFD1E22AA217820FFF753F9142250
:10383000AA217820FFF74EF91448FFF72DFD282321
:103840005A22AA217820FFF78BF928234622AA21A1
:103850007820FFF785F90D487F30FFF71DFD3223F3
:103860006422AA217820FFF77BF93C236E22AA214B
:103870007820FFF775F9BDE810404FF4FA60FCF7C7
:10388000F5BF000000FFFF00FFFF80008080FF0009
:10389000002008B5FFF7EEFCFEF7A4FF1848FFF77D
:1038A000FBFC1848532315211A4600901320FFF7FC
:1038B00045FA1548FFF7F0FC1448532315211A4622
:1038C00000908D20FFF73AFA1148FFF7E5FC114808
:1038D00053238C211A4600901320FFF72FFA0E482D
:1038E000FFF7DAFC0D4853238C211A4600908D20F7
:1038F000FFF724FABDE808404FF4FA60FCF7B6BFC2
:103900008DE5F6FFB0BF0008FBF9DFFF41C30008FB
:10391000A8D39DFFD2C600085387FFFF63CA0008E3
:1039200070B50020FFF7A6FCFEF75CFF6FF07F4448
:103930002046FFF7B1FC5648FFF796FC002155A240
:103940000846FFF785F85748FFF78EFC2021002036
:1039500055A2FFF77DF85A48FFF786FC3821002072
:1039600058A2FFF775F85E48FFF77EFC4C21002057
:103970005CA2FFF76DF86348FFF776FC5C2100203E
:1039800061A2FFF765F82012FFF786FC5D48FFF79C
:103990006BFC6821002067A2FFF75AF85048FFF738
:1039A00063FC742100206EA2FFF752F84448FFF731
:1039B0005BFC8421002072A2FFF74AF83948FFF728
:1039C00053FC9821002075A2FFF742F83048FFF71A
:1039D0004BFCB021002077A2FFF73AF87948FFF7B7
:1039E000A1FC7948FFF758FCD821002077A2FFF707
:1039F0004DF84FF4FA652846FCF738FFFEF7F2FE63
:103A00007548FFF78FFC7548FFF746FC0A210E202A
:103A100073A2FFF73BF87648FFF784FC7548FFF781
:103A20003BFC1E210E2074A2FFF730F87648FFF70A
:103A300079FC7648FFF730FC3C210E2074A2FFF79A
:103A400025F86048FFF76EFC7548FFF725FC5A2102
:103A50000E2074A2FFF71AF87648FFF763FC764849
:103A6000FFF71AFC82210E2074A2FFF70FF85548C9
:103A7000FFF758FC2046FFF70FFCB4210E2073A27D
:103A8000FFF704F82846BDE87040FCF7EFBE0000E1
:103A90003C0000242123242728292A2B2C2D2E30DA
:103AA00031323300480000242123242728292A2BDF
:103AB0002C2D2E30313233343536373800000000AB
:103AC000540000242123242728292A2B2C2D2E3092
:103AD0003132333435363738393A3B3C0000000058
:103AE000600000242123242728292A2B2C2D2E3066
:103AF0003132333435363738393A3B3C3D3E3F403E
:103B0000414200006C0000242123242728292A2B6D
:103B10002C2D2E303132333435363738393A3B3C60
:103B20003D3E3F404142434445464748494A4B4C4D
:103B3000000000002123262728292A2B2C2D2E3097
:103B40003132333435363738393A3B3C3D3E3F40ED
:103B50004142434445464748494A4B4C0000000017
:103B60002123262728292A2B2C2D2E30313233349D
:103B700035363738393A3B3C3D3E3F404142000004
:103B80002123262728292A2B2C2D2E30313233347D
:103B900035363738393A3B3C0000000021232627D0
:103BA00028292A2B2C2D2E30313233343536373814
:103BB000000000002123262728292A2B2C2D2E3017
:103BC000313233002400002400FFFF0041534349F9
:103BD00049D7D6B7FBBCAF0000000024D1C68A008D
:103BE000313231323AC2B9D0A1B0E0BFC6BCBC005C
:103BF0000C000024A5E1C500313631363AC2B9D0F7
:103C0000A1B0E0BFC6BCBC001800002449B5FF004D
:103C1000323032303AC2B9D0A1B0E0BFC6BCBC002D
:103C20005D58FF00323432343AC2B9D0A1B0E0BF9F
:103C3000C6BCBC0030000024B9B6FF0033323332BA
:103C40003AC2B9D0A1B0E0BFC6BCBC00D6D0CEC489
:103C5000CFD4CABE000000002DE9F05F4FF000088D
:103C6000454647462DED088B9FED519B9FED528BAE
:103C70004046FFF7FFFAFEF7B5FD5148FFF752FB4C
:103C8000504E3046FFF708FB0A2100204EA2FEF7F7
:103C9000FDFE282100204EA2FEF7F8FE4E4C2046E5
:103CA000FFF7FAFA502100204CA2FEF7EFFE6E213A
:103CB00000204DA2FEF7EAFEDFF834914846FFF7F8
:103CC000EBFA962100204BA2FEF7E0FEB421002083
:103CD0004AA2FEF7DBFEB346A24600249FED49ABA5
:103CE0009FED4ABB5846FFF7D7FA0120FFF740FB8C
:103CF00004EB8400042305EB40020A215020FEF768
:103D000089FE6042042300EB8000282107EB40027B
:103D10005020FEF77FFE5046FFF7BEFA0120FFF766
:103D200027FBC4EB0410082300EB800650218220FF
:103D300008EB4602FEF76EFE0020FFF719FB082392
:103D40006E21822005EB4602FEF764FE4846FFF72F
:103D5000A3FA0120FFF70CFB00EE104A0323062212
:103D6000B8EE401BB0EE490B9621642001EE0A0B21
:103D7000FEF730FE00EE104A04230B22B8EE401B83
:103D8000B0EE480BB421642001EE0B0BFEF722FECF
:103D90000F20FCF76BFD641CA4B2642CA2D3BDEC15
:103DA000088B40F6C410BDE8F05FFCF75FBD000073
:103DB0004AD8124DFB2109404ED1915C7E4893C0F8
:103DC00024000024FFFF8000D5FDCAFD3A0000005A
:103DD000B8BACAFD3A00000080FFFF00CCEEB3E4A1
:103DE000BFD5B8F13A000000CCEEB3E4303A0000A1
:103DF0008080FF00D5FDD0A1CAFD3A00B8BAD0A19D
:103E0000CAFD3A009A9999999999B93F7B14AE479E
:103E1000E17A843F70B501220C4605460B48D10378
:103E2000FCF744FE0A4E0F20F0603046FEF7A2F980
:103E30004FF47A73224629463046FEF7B3FA07203C
:103E4000F0603046BDE87040FEF794B900180258A3
:103E50002801002401B5074800224FF40041FCF777
:103E600025FE054801224FF47A736946FEF79AFA57
:103E700008BD00000018025828010024012238B5AE
:103E8000D10304460748FCF711FE200A8DF8000014
:103E9000054802224FF47A7369468DF80140FEF717
:103EA00081FA38BD0018025828010024012201B50A
:103EB0000548D103FCF7FAFD044801224FF47A7358
:103EC0006946FEF76FFA08BD001802582801002461
:103ED00010B586B014216846FCF74CFA0D4801680D
:103EE00041F040010160006800220B4C802100F08D
:103EF000400005902046FCF7D9FD0021802000906D
:103F000001222046CDE9012103916946FCF7C0FC5E
:103F100006B010BDE044025800180258F0B4124830
:103F20004FF4800500210F4CEA010723C0E903315B
:103F3000C0E90512C161202201624FF4C02641622E
:103F40008162C1624163C0E90E120164416481640F
:103F5000C16401654165816580E87000F0BCFEF7D1
:103F600009B90000001400582801002410B50268A7
:103F700040F26F335169946944F008049461026817
:103F8000946944F0100494610268146824F00104F8
:103F90001460026814699C4314610268936823F4F6
:103FA0004043936090F88120042A0CD08A060AD5F9
:103FB000D0F8842042F08002C0F88420026893691F
:103FC00043F02003936190F88120032A0CD04A0625
:103FD0000AD5D0F8842042F00402C0F88420026898
:103FE000936943F0400393618A050AD5D0F8842091
:103FF00042F00102C0F884200268936943F4007320
:104000009361C9050AD5D0F8841041F00801C0F8C1
:10401000841001688A6942F480728A610021A0F8E4
:104020006210A0F86A1010BD2DE9F04198461646BE
:104030000D460746069C09E0FCF73EFDA0EB080094
:10404000A04202D3601C01D00BE054B13868406933
:1040500035EA000007D00020B042EDD00020BDE8D6
:10406000F0810320FBE70120F6E7FEE7FEE770475B
:104070002DE9F047454D044689464FF0000A28686F
:10408000C04380070AD0414E283E306820F080604F
:104090003060FCF711FD0746B04608E00120BDE89E
:1040A000F08700BFFCF708FDC01B022867D8D8F8CE
:1040B00000000001F6D4206829684FF4FE0721F4BF
:1040C0007C313E0241EA00302860207AA389B4F8AE
:1040D00004C040022D4D2D495B1E227CACF1010C29
:1040E0001035091DA0F5007080B2521ECCF3080CEB
:1040F00007EA034340EA0C00184306EA0262104351
:1041000028600868626920F0C000104308600A68EF
:10411000A06922F0200202430A60281D0A6822F0EA
:1041200010020A6002684FF6F873E4699A4342EAA3
:10413000C40202600868B9F1000F40F010020A6082
:1041400011D00868B9F1010F11D040F400100860D7
:10415000D8F80000444640F08060C8F80000FCF742
:10416000ABFC05460DE0086840F40020EFE740F4A2
:104170008010ECE7FCF7A0FC401B022801D90320CB
:104180008DE720680001F5D5504688E7284402589D
:104190002DE9F047454D044689464FF0000A28684E
:1041A000C04380070AD0414E283E306820F080503E
:1041B0003060FCF781FC0746B04608E00120BDE80E
:1041C000F08700BFFCF778FCC01B022867D8D8F83E
:1041D00000008000F6D4208829684FF4FE0721F003
:1041E0007C713E0241EA00502860207AA389B4F82D
:1041F00004C040022D4D2D495B1E227CACF1010C08
:104200001835091DA0F5007080B2521ECCF3080CC1
:1042100007EA034340EA0C00184306EA026210432F
:1042200028600868626920F44060104308600A68EA
:10423000A06922F4007202430A60281D0A6822F471
:1042400080720A6002684FF6F873E4699A4342EAA2
:10425000C40202600868B9F1000F40F480720A607D
:1042600011D00868B9F1010F11D040F080700860DA
:10427000D8F80000444640F08050C8F80000FCF731
:104280001BFC05460DE0086840F48000EFE740F4B1
:104290000000ECE7FCF710FC401B022801D90320CA
:1042A0008DE720688000F5D5504688E728440258FD
:1042B00010B5026840F26F335169946944F0080404
:1042C00094610268946944F010049461026814686F
:1042D00024F001041460026814699C4314610268AC
:1042E000936823F44043936090F88120042A0CD013
:1042F0008A060AD5D0F8842042F08002C0F88420D3
:104300000268936943F02003936190F88120032AA7
:104310000CD04A060AD5D0F8842042F00402C0F836
:1043200084200268936943F0400393618A050AD5AB
:10433000D0F8842042F00102C0F88420026893691A
:1043400043F400739361C9050AD5D0F8841041F095
:104350000801C0F8841001688A6942F480728A6199
:104360000021A0F86210A0F86A1010BD10B5FFF788
:10437000D5FD0A20FCF77AFA3620FFF76BFD002006
:10438000FFF794FD3A20FFF765FD0520FFF78EFD4E
:10439000B220FFF75FFD0C20FFF788FD0C20FFF730
:1043A00085FD0020FFF782FD3320FFF77FFD3320DE
:1043B000FFF77CFDB720FFF74DFD3520FFF776FDB9
:1043C000BB20FFF747FD1920FFF770FDC020FFF766
:1043D00041FD2C20FFF76AFDC220FFF73BFD0120C5
:1043E000FFF764FDC320FFF735FD1220FFF75EFDE8
:1043F000C420FFF72FFD2020FFF758FDC620FFF750
:1044000029FD0F20FFF752FDD020FFF723FDA42048
:10441000FFF74CFDA120FFF749FDE020FFF71AFD53
:10442000D020FFF743FD0420FFF740FD0D20FFF7EC
:104430003DFD1120FFF73AFD1320FFF737FD2B203C
:10444000FFF734FD3F20FFF731FD5420FFF72EFD2D
:104450004C20FFF72BFD1820FFF728FD0D20FFF75C
:1044600025FD0B20FFF722FD1F20FFF71FFD232056
:10447000FFF71CFDE120FFF7EDFCD020FFF716FD54
:104480000420FFF713FD0C20FFF710FD1120FFF7AC
:104490000DFD1320FFF70AFD2C20FFF707FD3F203D
:1044A000FFF704FD4420FFF701FD5120FFF7FEFC5C
:1044B0002F20FFF7FBFC1F20FFF7F8FC1F20FFF762
:1044C000F5FC2020FFF7F2FC2320FFF7EFFC212072
:1044D000FFF7C0FC1120FFF7BDFC7820FCF7C6F900
:1044E0002920FFF7B7FC0220FEF7E8FE0020FEF7C8
:1044F000C1FE6FF07F40FEF7CFFEFEF773F907496C
:104500000122054808600020054908721103BDE832
:1045100010400448FCF7CABA480000247800002480
:10452000B0090024001802582DE9F0411C46164637
:104530000D460746DDF818800AE000BFFCF7BCFA1C
:10454000A0EB0800A04202D3601C01D00BE054B1E4
:104550003868406935EA000007D00020B042EDD04D
:104560000020BDE8F0810320FBE70120F6E770475B
:10457000FCF7A8BA70B5CAB04C212EA8FBF7FAFE1A
:10458000202141A8FBF7F6FEB8216846FBF7F2FEB2
:104590000220FCF72DFB24480024016821F440414F
:1045A0000160016801F44041499101688904FCD52A
:1045B000022037900121C2030A23DC25CDE92E1207
:1045C00038AA042682E82900CDE93B10CDE93E64F3
:1045D0003D902EA84094FDF739FB08B172B6FEE776
:1045E0004020489008230501CDE9443041ABCDE996
:1045F00046053F21032283E8160041A81146FDF736
:1046000015F908B172B6FEE700202B944FF48041F3
:10461000CDE900106846FCF76BFC002801D072B6AB
:10462000FEE74AB070BD0000184802582748F0B5B0
:10463000274A016841F470010160106800F00F0022
:10464000072804D2106820F00F00C01D1060214917
:104650000020204C10340B681F4D43F001030B6009
:1046600020600B682B400B60136803F00F03072BCF
:1046700004D9136823F00F03DB1D1360154C174A90
:104680001834174B261D371D2060124C154D283449
:104690003060261D3860371D23603B1D35601C1DB2
:1046A0003A60251D2E1D1860331D2260286032607F
:1046B00018600A6843F2D204064B0B4D22F48022A4
:1046C00060330A6018602C60F0BD000088ED00E0E7
:1046D00000200052004402587FEDF6EA80020101FA
:1046E000000202020000FF010040005230B5416E9E
:1046F000B9B101680D4B03F108048A688968C2F3F7
:104700004262490F5D5C615C2D01B5FBF1F1A0F8DF
:104710006A10995CA25C0901B1FBF2F1A0F8681083
:1047200030BD0121A0F86A10F8E700000CCE0008A7
:1047300090F82810C90706D00168C36A4A6822F4B5
:1047400000321A434A6090F82810890706D501689C
:10475000036B4A6822F480321A434A6090F82810AA
:10476000490706D50168436B4A6822F480221A4340
:104770004A6090F82810090706D50168836B4A68DB
:1047800022F400421A434A6090F82810C90606D560
:104790000168C36B8A6822F480521A438A6090F8D9
:1047A0002810890606D50168036C8A6822F4005235
:1047B0001A438A6090F82810490611D50168436CA5
:1047C0004A6822F480121A434A60416CB1F5801F96
:1047D00006D10168836C4A6822F4C0021A434A6019
:1047E00090F82810090606D50168C26C486820F4C4
:1047F00000201043486070472DE9F8430025044627
:10480000C0F89050FCF758F98046206820266FF0D9
:104810007E470068000713D5002243463104204636
:10482000009700F057FA58B1216851E8000F20F0C6
:10483000800041E80002002AF6D1C4F8886021E037
:1048400020680068400722D5002243464FF48001CB
:104850002046009700F03EFAC8B1206850E8001FDB
:1048600021F4907140E80012002AF6D12068083047
:1048700050E8001F21F0010140E80012002AF5D1A4
:10488000C4F88C60032084F88450BDE8F883C4F831
:104890008860C4F88C60E5662567002084F8845041
:1048A000F3E7000010B5026852E8001F21F4907190
:1048B00042E80013002BF6D10E4B0268083252E892
:1048C000001F194042E80014002CF6D1C16E0129E6
:1048D00008D1026852E8001F21F0100142E80013DD
:1048E000002BF6D100212022C0F88C20C166416740
:1048F00010BD0000FEFFFFEF2DE9F0430446806885
:10490000E24E87B0E24B2168D4E90427D4F81CC0FA
:1049100010430A68002547EA0C0738433240024337
:104920000A602068E268416821F440511143416007
:104930002268A1699A4201D0206A01439668DFF893
:1049400054C3D54FD54806EA0C060E43966021683D
:10495000666ACA6A22F00F023243CA622268BA4209
:104960000ED1006800F0380018286FD07ADCB8B398
:1049700008286CD010286BD18BE0282868D18EE0F5
:10498000C7498A4209D1006800F0070006285FD2B3
:10499000DFE800F0507D7F818385C2498A4209D1DA
:1049A000006800F0070006287BD2DFE800F04370C3
:1049B00072747678BC498A4209D1006800F0070019
:1049C00006286ED2DFE800F036636567696BB74989
:1049D0008A420BD1006800F00700062861D200E08F
:1049E00043E0DFE800F0275456585A5CB0498A4249
:1049F00006D1006800F0380018284CD0B7DD31E04F
:104A0000AC498A4209D1006800F00700062848D264
:104A1000DFE800F0103D3F414345A7498A420BD1F2
:104A2000006800F0070006283BD2DFE800F0033002
:104A300032343638002035E0A0498A4209D1006876
:104A400000F03800182826D091DD0BE023E01EE0AE
:104A500027E09B498A420AD1006800F038001828F4
:104A600019D084DD202888D11CE001201AE09A4268
:104A700017D18A48001D006800F00700062810D2F0
:104A8000DFE800F0030507090B0D02200AE004200F
:104A900008E0082006E0102004E0202002E040208A
:104AA00000E080208749DFF820829A42874A4FF44D
:104AB00000434FEA21174FF000064ED110281AD0BC
:104AC00006DC022809D004280BD008287ED10DE08E
:104AD00020283ED0402879D13DE0FCF7B3F80146CC
:104AE00010E06846FCF7C0F801990BE003A8FCF75A
:104AF0005DF9049906E01068800605D51068C0F3DA
:104B0000C100C140002970D0606A676838F8102081
:104B100007EB4703B1FBF2F0834257D8B0EB073FF6
:104B200054D8002308461946FBF7ECFB02467808E8
:104B3000130E120243EA012110183A467141002374
:104B4000FBF7E0FB624AA0F5407191423ED8216834
:104B50008FE03946D8E71946D6E7D4F81CC04FF69F
:104B6000EF799C4546D1082819D005DC58B10128B9
:104B70000CD0042875D10DE0102815D0202835D090
:104B800040286ED134E0FCF7A1FF01E0FCF7B0FF54
:104B9000014610E06846FCF767F801990BE003A8AE
:104BA000FCF704F9049906E01068800604D5106843
:104BB000C0F3C100C140C1B1636A606838F8133006
:104BC000B1FBF3F1490001EB500100E049E0B1FB1A
:104BD000F0F0A0F11001494543D84FF6F073216879
:104BE000C0F342021840104343E043E03946E3E794
:104BF0001946E1E7082819D005DC58B101280CD086
:104C000004282ED10DE0102815D020282BD04028C4
:104C100027D12AE0FCF75AFF01E0FCF769FF0146C3
:104C200010E06846FCF720F801990BE003A8FCF7B8
:104C3000BDF8049906E01068800604D51068C0F33A
:104C4000C100C140B1B1636A606838F81330B1FB8C
:104C5000F3F101EB5001B1FBF0F0A0F11001494577
:104C600005D9012506E03946EDE71946EBE721684D
:104C700080B2C8600120A4F86A00A4F86800284641
:104C80006667A66707B0BDE8F0830000F369FFCF51
:104C9000000C0058FFF4FF1100100140544402586A
:104CA0000044004000480040004C004000500040DC
:104CB0000014014000780040007C004000180140D2
:104CC000001C01400090D003F4CD000800440258BD
:104CD000FFFC0F002DE9F047994617460E460446A3
:104CE000089D4FF000082FE0681C2DD0FBF7E4FE74
:104CF000A0EB0900A84214D89DB1206801684907BB
:104D000022D5C169C94309070DD40825056220468B
:104D1000FFF7C8FDC4F89050012084F88480BDE8F6
:104D2000F0870320FBE7C069C04300050CD421686D
:104D30004FF4006008622046FFF7B4FD2021C4F85C
:104D4000901084F88480ECE72068C06936EA00009F
:104D500004D00020B842C7D00020E0E70120F9E7E6
:104D60001148002110B50F4C0C224FF4E1330460C0
:104D7000C0E90131C160C0E904128161C161016211
:104D800041628162FDF7B4FC07480021FDF78AFC0F
:104D900005480021FDF760FCBDE810400248FDF722
:104DA0003BBC00000010014094000024FEE700001E
:104DB0000FB4084B10B504A902AA039800F0EEF84E
:104DC000044602A9002000F080FC204610BC5DF8DB
:104DD00014FB0000CB560008090700284FEA1161B8
:104DE00004DB00F1E02080F80014704700F00F00B1
:104DF00000F1E02080F8141D704702E008C8121F7F
:104E000008C1002AFAD170477047002001E001C1B3
:104E1000121F002AFBD170472DE9FF5F82B00021ED
:104E2000DDE90430020DDDF840B0034318D044F64C
:104E30001050A2F2FF3242431514119801281FD0DE
:104E4000A5EB0B00401C5FEA000A4FF000064E4F36
:104E5000DFF83891B046504615D5CAF1000413E08A
:104E6000119801244AA3012801D16FEA0B0102988D
:104E7000119AC0E90031C0E9024206B0BDE8F09FD6
:104E8000CBF10000DFE704460021404A491842EB1D
:104E90000450CDE9001012E0E00707D032463B464F
:104EA00040464946FBF74DFB8046894632463B4625
:104EB00010461946FBF745FB06460F466410002CCA
:104EC000EAD1DDE90401DDE90023BAF1000F06DAD9
:104ED000FBF737FB42464B46FBF733FB05E0FBF79E
:104EE000A2FB42464B46FBF79EFB04460E460022C1
:104EF000284BFBF71FFC03D84FF0FF30014607E0BB
:104F00000022254B20463146FBF774FAFBF7FAFBEB
:104F1000102409E0002C0ADB0A220023FBF7F2F937
:104F2000039B30321A55641E50EA0102F2D1641C10
:104F3000039AC4F111031444119A012A03D00122E7
:104F400008430DD10AE0084304D000204FF0110BB4
:104F5000119072E7A3EB0B056D1E0DE05B4504DDC0
:104F60004FF0000205F1010504E003DA4FF0000202
:104F7000A5F10105002AECD002981199C0E902318F
:104F8000C0E9004579E70000000014400000F03F50
:104F9000300000000000F0430000E03F2DE9FF4F2B
:104FA00095B09B468946064600250FE2252877D115
:104FB00000242746F84A0121059400E0044316F82E
:104FC000013F203B01FA03F01042F7D130782A2844
:104FD00011D06FF02F033078A0F13002092A16D8D3
:104FE000059A44F0020402EB820203EB42021044F1
:104FF000761C0590EFE759F8042B0592002A03DA96
:10500000504244F40054059044F00204761C307879
:105010002E2816D116F8010F44F004042A280DD0CA
:105020006FF02F023078A0F13003092B09D807EB7D
:10503000870302EB4303C718761CF3E759F8047B98
:10504000761C30786C280FD006DC4C2817D06828E6
:105050000DD06A2814D104E0742810D07A280FD11A
:105060000DE044F400140AE044F4801401E044F438
:1050700040147278824202D104F58014761C761CAA
:10508000307866280BD013DC582877D009DC00284C
:1050900075D04528F6D04628F4D047281AD19DE18E
:1050A00018E0632835D0642879D0652812D195E1BD
:1050B000702873D008DC6728F1D069286FD06E287B
:1050C0000DD06F2806D1B5E073282CD0752875D087
:1050D000782874D05A46179990476D1C75E1C4F32F
:1050E0000250022809D003280DD0D9F80010042856
:1050F0000DD00D6009F1040967E1D9F80010EA1735
:10510000C1E90052F6E7D9F800100D80F2E70D7002
:10511000F0E719F8041B8DF8001000208DF801004D
:10512000EA46012003E059F804AB4FF0FF30610775
:105130004FF0000102D40DE008F101018846B942A8
:105140000FDA8045F8DB1AF808100029F4D108E0DE
:1051500008F1010188468142FADB1AF8081000299B
:10516000F6D105985B46A0EB080721463846179A0A
:1051700000F094FA284400EB080507E04DE029E12F
:105180000DE01AF8010B5A4617999047B8F101083B
:10519000F7D25B4621463846179A13E142E00A22CD
:1051A0000092C4F302524FF0000A022A08D059F8C4
:1051B00004CB032A4FEAEC710AD00DE029E02AE083
:1051C00009F1070121F00702F2E802C1914609E066
:1051D0000FFA8CFC4FEAEC71042A03D14FFA8CFCD5
:1051E0004FEAEC71002907DA0A460021DCF1000CD5
:1051F00061EB02012D2202E0220504D52B228DF85D
:105200000420012203E0E20701D02022F7E79046C4
:1052100059E00A2102E010220DE010214FF0000AAF
:1052200000910BE010224FF0000A44F0040408271C
:10523000009203E008224FF0000A0092C4F30252E9
:10524000022A05D059F804CB0021032A08D009E02E
:1052500009F1070121F00702F2E802C1914605E0D9
:105260001FFA8CFC042A01D10CF0FF0C4FF000084F
:10527000220728D5702806D0009B83F0100353EA3C
:105280000A0305D00EE040228DF80420012208E038
:105290005CEA010206D030228DF804208DF805006A
:1052A00002229046009B83F0080353EA0A030AD1C6
:1052B0005CEA010201D1620705D530228DF8042095
:1052C0004FF001087F1E582804D034A003900EA888
:1052D00002900DE036A0F9E753466046009AFBF7CE
:1052E00011F884460398825C0298401E0290027076
:1052F0005CEA0100F0D1029806A9081A00F1200A20
:10530000600702D524F4803400E00127574502DD10
:10531000A7EB0A0000E0002000EB0A0100900598CE
:105320004144401A0590E00306D45B462146179A93
:10533000059800F0B3F90544002706E001A85A4695
:10534000C05D179990476D1C7F1C4745F6DBE00355
:105350000CD55B462146179A059800F09FF9054445
:1053600004E030205A46179990476D1C0099481E5A
:1053700000900029F5DC08E0029802995A4600786E
:10538000491C0291179990476D1CBAF10001AAF1CE
:10539000010AF1DC65E100000928010030313233F7
:1053A0003435363738396162636465660000000061
:1053B000303132333435363738394142434445464B
:1053C0000000000000F058F90544761C30780028F1
:1053D0007FF4ECAD19B02846BDE8F08F620700D429
:1053E000062709F1070222F0070CFCE80223E14638
:1053F00003F000485FEA080C02D00FF2702C0DE0B9
:105400005FEA045C02D50FF2682C07E05FEAC47C17
:1054100002D00FF2602C01E0AFF2700C4FF0FF38B9
:1054200023F00043CDF850C065280CD006DC452899
:1054300009D046281DD047283DD13DE0662818D028
:1054400067287ED138E00021112F01DB112000E018
:10545000781CCDE9000106A90EA8FFF7DDFCDDE907
:105460000F010E9A03910021009207F1010A0491A5
:105470004DE04FF000400097CDE9011006A90EA8BD
:10548000FFF7CAFCDDE90F0203920E9B119900227F
:10549000DDF80CA00093049211B9791C00EB010A0D
:1054A000B7EB0A0004D4C0F1FF3007F1010A049001
:1054B000AAEB0700019044E0012F00DA0127002148
:1054C000112F01DD112000E03846CDE9000106A9C9
:1054D0000EA8FFF7A1FCDDE90F010E9A0391002150
:1054E00004910092BA4621070CD40399514500DA81
:1054F0008A46BAF1010F05DD009AAAF10101515C5B
:10550000302908D0B84202DA10F1040F06DA01217E
:10551000CDE9011015E0AAF10101E9E7002805DC59
:10552000049901440491AAEB000102E0411C514599
:1055300000DD8A460499401A401C01904FF000405B
:105540000290200704D40198504501DBCDF8048077
:1055500000208DF84F0002980DF14F07B0F1004F79
:1055600025D02B200E9002984FF0020800280CDA6C
:10557000404202902D200E9007E00A210298FAF78F
:1055800004FF3031029007F8011DB8F10001A8F1C5
:105590000108F2DC02980028EFD1791E0E980870FD
:1055A000307800F0200040F0450007F8020D12A806
:1055B000C01B00F107081498007800B1012000EB2F
:1055C0000A01019801EBE07105984144401A401E20
:1055D0000590E00306D45B462146179A059800F033
:1055E0005DF805441498007818B15A461799904709
:1055F0006D1CE00324D55B462146179A059800F000
:105600004DF805441CE00498002807DBDDE90301A0
:10561000884203DD0098405C179901E0179930201B
:105620005A469047049805F10105401C04900198E2
:10563000401E019004D12E205A46179990476D1CA8
:10564000BAF10001AAF1010ADDDC05E017F8010B4F
:105650005A46179990476D1CB8F10001A8F101084E
:10566000F4DC5B462146179A0598ABE62D00000056
:105670002B000000200000002DE9F0410446002529
:105680001E461746880404D405E039462020B0475A
:105690006D1C641EF9D52846BDE8F0812DE9F04166
:1056A000044600251E469046C80301D5302700E079
:1056B0002027880404D505E041463846B0476D1CD4
:1056C000641EF9D52846BDE8F0810A68531C0B60BA
:1056D000107070472B4B00201968890311D4BFF359
:1056E0004F8FBFF36F8F28490860BFF34F8FBFF311
:1056F0006F8F196841F400311960BFF34F8FBFF30A
:105700006F8F1968C90322D41E4970310860BFF336
:105710004F8F081F43F6FF7400681B4D1035C0F310
:105720004E31C0F3C90204EA4116104646EA8077BA
:105730002F60401EFAD2491EF5D2BFF34F8F186872
:1057400040F480301860BFF34F8FBFF36F8FFBF7CB
:10575000C1F9FEF70FFFFEF7BBFBFFF701FBFEF7FA
:1057600005FE00BFFDF70AFEFEF7DAF8FEF774FA51
:10577000FDF77AFEFEF708F8FEF78AF8FDF778FFE6
:10578000F0E7000014ED00E050EF00E04000FE07FD
:105790009200FE079204FE0702008A04BA028A0100
:1057A000AA041907C2B92000000000000000000090
:1057B00000000000000000000000000020002000A9
:1057C00020002000240124022202220421042000BF
:1057D00020003800D0A120000000000000000000E0
:1057E0000000000000000000000000002000A707EB
:1057F00022012A012A012F01AA07260122011601EE
:105800001301C807B0E02000000000000000000005
:105810000000000000000000000000000801270157
:10582000440104013F0144010E011607E501040192
:1058300004010401BFC620000000000000000000B9
:105840000000000000000000000000008400840050
:10585000F4078F008400F4032C0227024401840023
:1058600044013606BCBC200000000000000000001F
:105870000000000000000000000000000000000028
:105880000000000000000000000000000000000018
:105890000000000000000000000000000000000008
:1058A00000000000000000000000000000000000F8
:1058B00000000000000000000000000000000000E8
:1058C00000000000000000000000000000000000D8
:1058D00000000000000000000000000000000000C8
:1058E00000000000000000000000000000000000B8
:1058F00000000000000000000000000000000000A8
:105900000000000000000000000000000000000097
:105910000000000000000000000000000000000087
:105920000000000000000000000000000000000077
:105930000000000000000000000000000000000067
:105940000000000000000000000000000000000057
:105950000000000000000000000000000000000047
:1059600000000000000000000000000080000001B6
:10597000FC7F44044404FC3F44244424FC3F1402C0
:105980001422F41A12061222D122303CC2B920008D
:105990000000000000000000000000000000000007
:1059A00000000000000000000000000080008000F7
:1059B000800080008000880888108820842084402F
:1059C0008240814080008000A0004000D0A12000E3
:1059D00000000000000000000000000000000000C7
:1059E00000000000000000000000000000010001B5
:1059F0001F7D44114411441144115F7D4411241151
:105A000004119C108710427C20001000B0E02000A0
:105A10000000000000000000000000000000000086
:105A20000000000000000000000000001008B8089E
:105A30000F0908090808BF0808091C092C080A787A
:105A4000CA0F09080808080808080808BFC6200087
:105A50000000000000000000000000000000000046
:105A6000000000000000000000000000080408041E
:105A70000804C87F3F0408040804A83F18210C113B
:105A80000B12080A0804080A8A116460BCBC2000D2
:105A90000000000000000000000000000000000006
:105AA00000000000000000000000000000000000F6
:105AB00000000000000000000000000000000000E6
:105AC00000000000000000000000000000000000D6
:105AD00000000000000000000000000000000000C6
