:020000040800F2
:10000000800B0020ED0100089D1C000885180008E9
:10001000991C0008B11600086F29000800000000B4
:10002000000000000000000000000000752400082F
:10003000291700080000000065220008F9260008C2
:10004000070200080702000807020008070200086C
:10005000070200080702000807020008070200085C
:10006000070200080702000807020008070200084C
:10007000070200080702000807020008070200083C
:10008000070200080702000807020008070200082C
:10009000070200080702000807020008070200081C
:1000A000070200080702000807020008070200080C
:1000B00007020008070200080702000807020008FC
:1000C00007020008070200080702000807020008EC
:1000D000070200085D270008070200080702000861
:1000E00007020008070200080702000807020008CC
:1000F00007020008070200080702000807020008BC
:1001000007020008070200080702000807020008AB
:10011000070200080702000807020008070200089B
:10012000070200080702000807020008070200088B
:1001300000F002F800F04AF80AA090E8000C8244AF
:100140008344AAF10107DA4501D100F03FF8AFF28C
:10015000090EBAE80F0013F0010F18BFFB1A43F0A5
:100160000103184788540000A8540000103A24BF27
:1001700078C878C1FAD8520724BF30C830C144BF0C
:1001800004680C607047000000230024002500264E
:10019000103A28BF78C1FBD8520728BF30C148BFEA
:1001A0000B607047662903F0EC85642900F05480E9
:1001B000002070471FB500F0D9FB0400002000218B
:1001C00002F0DAFFE0601FBD10B510BD00F0CEFCFC
:1001D0001146FFF7EFFF02F0ABFD00F0ECFC03B4BB
:1001E000FFF7F2FF03BC00F02FFD00000948804735
:1001F00009480047FEE7FEE7FEE7FEE7FEE7FEE709
:10020000FEE7FEE7FEE7FEE704480549054A064B20
:1002100070470000FD26000831010008800500201D
:10022000800B002080070020800700200FB41CB541
:10023000084B06AA7B4469460090059800F07DFBB8
:1002400004460020694600F08BFB20461CBC5DF88C
:1002500014FB0000290700002DE9F04106460024A8
:1002600010687529314616A510D0AFF3008000281C
:1002700002DA404213A507E031688A0701D512A5CA
:1002800002E0490704D511A5012401E0AFF3008085
:1002900000210A2206F1240709E0B0FBF2FCB0FBC2
:1002A000F2F302FB1C00303078541846491C002839
:1002B000F3D123462A463046BDE8F04100F0CFB8DE
:1002C000000000002D0000002B00000020000000B6
:1002D0002DE9F05F894604464FF0000ADFF874B15B
:1002E000FB44C0F820A02046E1688847002874D06D
:1002F000252806D0D4E901219047206A401C2062BD
:10030000F1E700265F462046E16888472028054639
:1003100007DB312D05D2781910F8200C08B10643FF
:10032000F1E7B00701D526F00406C4F81CA00027A9
:10033000C4F818A02A2D09D0284602F02EFB38B3A5
:1003400004EB8708303DC8F8185019E059F8041B31
:10035000204604EB87029161E1688847012F05463A
:1003600018D1E069002820DA26F020061DE0D8F830
:10037000180000EB800005EB40003038C8F818008A
:100380002046E1688847054602F007FB0028EED1C9
:10039000012F0AD02E2D08D12046E16888477F1C06
:1003A0000546022F46F02006C4DBA069002803DAC8
:1003B000404246F00106A061F00701D026F0100689
:1003C0006C2D0BD0682D09D04C2D39D06A2D35D02D
:1003D000742D35D07A2D33D016E038E0E1682F4601
:1003E00020468847B842054609D16C2F26D04FF4E5
:1003F0008060E168064320468847054604E06C2F8C
:100400001AD04FF4807006430DB3A5F141001928AE
:1004100002D8203546F400664A4629462046266022
:100420004E46FFF7BFFE80B101280BD0F61D26F027
:10043000070000F1080956E74020E4E78020D8E7EC
:100440000020D6E706F104094DE7284652E7206A66
:10045000BDE8F09F625200007047704770472DE979
:10046000F0470D4699469246044600F1240801687B
:10047000880604D5E06921F01001216000E0012028
:10048000A84201DD471B00E00027A1697A1902EBB1
:100490000900081AA0612078C00602D42046AFF3F4
:1004A0000080002608E0D4E901211AF806009047F0
:1004B000206A401C761C20624E45F4DB2078C00682
:1004C0000AD52046AFF3008006E0D4E901213020B0
:1004D0009047206A401C2062381EA7F10107F4DC17
:1004E00007E0D4E9012118F805009047206A401C74
:1004F0002062281EA5F10105F3DC2046AFF3008041
:100500002078000602D50220BDE8F0870120FBE735
:1005100070472DE9FF4F0C461E464FF0FF378BB05A
:10052000D2E90001DDF860800A908A46C1F30A55DD
:1005300005B93D46002108464FF00000BAF1000F12
:1005400000F4400005DA00EB80004FF4400101EABE
:1005500050004FEA9059B9F1010F00DDB9460A98F1
:1005600050EA4A000ED044F61050A5F2FF3545433C
:100570002F14B8F1000F1ED07542291E1EDDC9F1DF
:1005800000021CE0B8F1010F4FF0000001D0302153
:1005900003E0F24305E02154401CB042FBDB30464F
:1005A0000022002121540B99C1F80880C1E90020E4
:1005B0000FB0BDE8F08FBD1B6D1CDEE74A4600DAC8
:1005C000694206A800F05CFA06AB93E8070003ABAB
:1005D00083E8070050460A9900F03DFB8DE80700CC
:1005E000A0F500501F3800900398002D0ADD42F25C
:1005F0001F014A460844002303A90390684600F0FF
:10060000A6FD09E0A0F500504A461F38002303A9C3
:100610000390684600F0B0FD8DE807000004000C70
:1006200003D04FF0FF30410800E01046B8F1000F52
:1006300003D00022009215461EE0751E05D400F07E
:1006400099F9303262556D1EF9D5B346012208433F
:1006500002D000227F1C04E02078302801D1002243
:100660007F1E002A099784D01DE0112D07DA00F0C3
:1006700081F9303262556D1C50EA0102F5D1084310
:1006800002D00098C8B10EE00021681E05E0235C8E
:10069000625C63542254401E491C8142F7DBAB4626
:1006A000A81B401E0990002004F80B000B98099A23
:1006B000C0F80880C0E9002B7AE711264FF0000847
:1006C00057E72DE9F04F88460446D21D22F0070176
:1006D00091B0D1E90001CDE90A0102F04AF90246E0
:1006E0000B98C00F01D02D2007E02068810701D5AD
:1006F0002B2002E0202101EAC000032A099001D04A
:10070000072A05DB03464146204600F079F90BE154
:100710002078800601D5E06900E00620B8F1650F79
:10072000814606D0B8F1660F18D0B8F1670F70D1C6
:1007300031E00020B9F1110F009001DB112301E03D
:1007400009F101030AAA01A90CA8FFF7E2FEDDE9FD
:100750000C70002609F10105834647E001204B4655
:1007600000904FF000470AAA01A90CA8FFF7D1FE9C
:10077000DDE90DB00C995D46002610B909F10100C4
:100780000D18B9EB050003D4C0F1FF3609F10105DE
:10079000A5EB09002BE0B9F1010F01DA4FF00109D7
:1007A0000020B9F1110F0090484601DD112300E04F
:1007B00003460AAA01A90CA8FFF7ABFEDDE90C70FD
:1007C0004D4600268346207800070AD4AB4500DA60
:1007D0005D4601A8012D04DD411911F8011C3029E5
:1007E00007D04F4502DA17F1040F04DA01208246E0
:1007F0000FE06D1EEEE7002F02DCED1B3E4403E030
:10080000781CA84200DD7D1CB81B00F1010A4FF0E6
:1008100000472078000703D4AA4501DB4FF0FF3AD8
:100820000021B7F1004F0DF143088DF8431024D09B
:1008300002202B23002F01DA7F422D230A21021EE2
:10084000A0F1010000DC5FB197FBF1FC97FBF1F236
:1008500001FB1C7C17460CF1300C08F801CDEEE7CB
:10086000A8F1010003702188090501D5452100E0A8
:100870006521A0F1010800F8011C09980FA9A1EB5E
:100880000807FF1D00B10120411901EBEA70A169C1
:100890003844081A401EA0612078C00602D42046C1
:1008A000AFF30080099828B1D4E901219047206A6C
:1008B000401C20622078C00622D52046AFF300807D
:1008C0001EE0002E04DBB34502DD01A8805D00E0E0
:1008D0003020D4E901219047206A401C2062761C18
:1008E000AAF101005FEA000A0AD100F03FF8C068EF
:1008F0000168405CD4E901219047206A401C2062D5
:10090000281EA5F10105DCDC07E0D4E9012118F877
:10091000010B9047206A401C2062381EA7F1010796
:10092000F3DC2046AFF30080032011B041E6000065
:1009300001694A1C02610878704700B58FB0CDE9A3
:1009400001310021059105497944CDE90310114693
:100950006846FFF7BDFC0FB000BD0000E5FFFFFFDC
:100960000A6802F8010B0A607047000000487047EF
:100970003C05002030B5B0F10A024FEA900E71F14B
:1009800000034EEA817EB0EB0E0061EB91014FEA6D
:10099000101E4EEA017E10EB0E0041EB11114FEAE2
:1009A000102E4EEA016E10EB0E0041EB11214FEAC2
:1009B000104E4EEA014E10EB0E0041EB1141401873
:1009C00041F100014FEAD00040EA41704FEAD10105
:1009D00010EB80054FEA810444EA907444EB010473
:1009E0006D1944EB0404521BA3414FF0000348BFB0
:1009F0000A3200D530BD401C41F1000130BD00007D
:100A00002DE9F0411F46044603260168072A01F438
:100A1000006004DB08B116A505E016A503E008B1E7
:100A200015A500E015A521F010002060A069C01EEA
:100A3000A0610FB1401EA0612046AFF300804FB10E
:100A4000D4E9012138469047206A401C2062C01C2E
:100A5000206206E0206AFAE7D4E9012115F8010BCB
:100A60009047761EF8D22046AFF30080BDE8F081B3
:100A70004E414E006E616E00494E4600696E660042
:100A80002DE9F047814616468AB0354878440DC8AE
:100A90008DE80D0032487844801C03AC0DC884E812
:100AA0000D0041F69B300844372190FBF1F290FB9A
:100AB000F1F5A5F1800501FB12041B3C02D564424F
:100AC000012000E00020DFF898A080460027FA44CB
:100AD000AAF1BE0A0EE0E0070AD03246684607EBEC
:100AE000470101230AEB810100F046FB8DE8070076
:100AF00064107F1C002CEED1194F7F44AE3F19E0EB
:100B0000E80715D007EB04100DF1180A90E80E0065
:100B10008AE80E00C068F04201D198190890324668
:100B2000012306A903A800F027FB03AB83E8070015
:100B30006D10641C002DE3D14FF00103324669466D
:100B4000B8F1000F03A802D000F001FB01E000F0B3
:100B500013FBC9E90001C9F808200AB0BDE8F08715
:100B6000444B0000004870471C0500207546FFF705
:100B7000F9FFAE4605006946534620F0070085465A
:100B800018B020B5FFF740FBBDE820404FF000064D
:100B90004FF000074FF000084FF0000B21F0070165
:100BA000AC46ACE8C009ACE8C009ACE8C009ACE8A8
:100BB000C0098D46704710B50446AFF3008020464B
:100BC000BDE81040FFF70BBB4FF0013C50F8042B81
:100BD00051F8043B9A4221D1A2EB0C03934313EA50
:100BE000CC1317D150F8042B51F8043B9A4215D17D
:100BF000A2EB0C03934313EACC130BD150F8042B54
:100C000051F8043B9A4209D1A2EB0C03934313EA37
:100C1000CC13DBD04FF00000704700BFD01A01BAF0
:100C2000B1FA81F101F0180122FA01F0CB40C1F1D3
:100C30002001DBB2C0B2C01A2CFA01F3D11A9143E1
:100C400011EAC311E6D1704701491820ABBEFEE797
:100C50002600020070475FEA400C08BF91F0000FC9
:100C60004FEA8C234FEAC12243EA51514FEA1C500C
:100C700018BF00F5F0404FEA300018BF41F00041C6
:100C80005FEA6C5C00F02980BCF1FF3F08BF40F0D8
:100C900080407047130C06BF12044FF0100C4FF049
:100CA000000C130E04BF12020CF1080C130F04BF4A
:100CB00012010CF1040C930F04BF92000CF1020C12
:100CC000D30F04BF52000CF1010C11464FF000028B
:100CD000A0F11F00A0EB0C00704711F0004F08BFFF
:100CE000704731F000413FF4D5AF0B0C06BF09044B
:100CF0004FF0100C4FF0000C0B0E04BF09020CF16A
:100D0000080C0B0F04BF09010CF1040C8B0F04BF7E
:100D100089000CF1020CCB0F04BF49000CF1010C4F
:100D2000CCF12003A0EB0C0022FA03F302FA0CF240
:100D300041EA030100F10100704720F07F4C80EA96
:100D4000030023F07F47ACEB070303F57C5300F06F
:100D5000004003F1FF032DE980494FEA154B09B428
:100D60004FEA144325EA0B4E24EA03480FF2042607
:100D700006EB132749083E785FEA320203FB066759
:100D8000C7F5000707FB06F64FEA54374FEAD64689
:100D900006F1020607FB066CCCF1005C4FEA1C472B
:100DA0002CEA074C07FB06F40CFB06F504EB154692
:100DB0004FEA961634BF00204FF000404FEAD1377B
:100DC00006FB07FC4FEA1C4C0CFB0BF7D21B03FB8A
:100DD0000CF761EB07010CFB0EF7B0EB074072EB71
:100DE00017420CFB08F734BFA2EB0742B2EB0742F5
:100DF00061EB17414FEA0C444FEA910706FB07FCF1
:100E00004FEA1C4C0CFB0BF7B0EBC74072EB5732B0
:100E100003FB0CF734BFA2EBC742B2EBC74261EB56
:100E200057310CFB0EF7B0EBC70072EB57720CFB9F
:100E300008F734BFA2EBC702B2EBC70261EB5771F0
:100E4000039F4FEA816141EA921104EBCC044FEA1F
:100E5000D1374FEA826206FB07FC42EA90124FEA62
:100E600080604FEA1C4C0CFB0BF7D21B03FB0CF70A
:100E700061EB07010CFB0EF7B0EB074072EB17427A
:100E80000CFB08F734BFA2EB0742B2EB074261EB61
:100E900017414FEA8C554FEA910704EB9C2406FB5F
:100EA00007FC4FEA1C4C0CFB0BF7B0EBC74072EB96
:100EB000573203FB0CF734BFA2EBC742B2EBC74279
:100EC00061EB57310CFB0EF7B0EBC70072EB5772BA
:100ED0000CFB08F734BFA2EBC702B2EBC70261EB11
:100EE000577115EB4C254FEA816141EA92114FEAA7
:100EF00082624FEAD13742EA901206FB07FC44F1C6
:100F000000044FEA80604FEA1C4C0CFB0BF7D21B2D
:100F100003FB0CF761EB07010CFB0EF7B0EB07408E
:100F200072EB17420CFB08F734BFA2EB0742B2EB9F
:100F3000074261EB174115EB1C154FEA813141EA7D
:100F400092414FEA823242EA90424FEA80304FEAC1
:100F50000C7644F1000448EA03434EEA0B484FF094
:100F6000000EB2EB080C71EB030724BF6246394652
:100F70004EEB0E0E4FF0000B0018524149414BEB67
:100F80000B0BB2EB080C71EB03077BF1000B24BFDA
:100F9000624639464EEB0E0E4FF0000B00185241E0
:100FA00049414BEB0B0BB2EB080C71EB03077BF1E8
:100FB000000B24BF624639464EEB0E0E51EA020783
:100FC00018BF46F0010616EB0E7655F1000254F1FB
:100FD000000103D5BDE88901BDE80088BDE88901AD
:100FE000BDE80048B619524141EB0101A3F10103EC
:100FF000704780807F7E7D7C7B7A79787776767586
:101000007473727171706F6E6E6D6C6C6B6A6A69FD
:101010006868676666656464636362616160605F97
:101020005F5E5E5D5D5C5C5B5B5A5A595958585710
:101030005756565555555454535352525251515078
:1010400050504F4F4F4E4E4D4D4D4C4C4C4B4B4BCB
:101050004A4A4A4949494848484747474746464611
:10106000454545444444444343434342424242414C
:101070004141002B9C4630D477002BD01CB54FEA61
:10108000370703B44FF010004FF01001BAF1000F12
:1010900006D0BCF1000FDCBF40F0080040F00801B2
:1010A0004FF000000FBCBDE810400BF1010BBBF18D
:1010B000010F08BF5FEA170722BF12F1010211F109
:1010C00001014FF0004143F1000300F0004043EA0A
:1010D00000007047F9D35708D0E746EA064613F1F7
:1010E000400F4FEA16461FDD13F1200FDFBF1643F6
:1010F0000A46002120335B42BED0C3F1200746EAF6
:10110000064602FA07F74FEA164646EA0706C3F113
:10111000200722FA03F201FA07F721FA03F14FF050
:10112000000342EA0702A7E746EA020646EA064645
:101130004FEA164646EA0106BCBF46EA0646360CAA
:101140004FF000034FF000024FF0000194E72DE94B
:10115000804C9A46934670B491E8380007C831EA4B
:10116000400C48BF34EA430C03D5FFF7E6FDFFF718
:1011700080FFF0BCBDE8008C2DE9804C9A46934678
:1011800070B491E8380007C810F0804F08BF13F022
:10119000804F03D100F005F8FFF76BFFF0BCBDE80E
:1011A000008C20F07F4780EA030023F07F4C07EBA0
:1011B0000C03A3F57C5300F00040A3F1FE0392F072
:1011C000000F00F0B38095F0000F00F077802DE95C
:1011D00001494FEA11404FEA144621EA004800FB5A
:1011E00006FC24EA064708FB06F607FB08F800FBA6
:1011F00007F718EB06484CEB164C4FEA124B18EB6E
:1012000007484FEA15464CEB174022EA0B4E0BFB02
:1012100006FC25EA06470EFB06F607FB0EFE0BFB57
:1012200007F71EEB064E4CEB164C4FF000061EEB7C
:10123000074E4CEB174B18EB0B0840F1000018EB76
:101240000E0B58EB000840F100008F1A4FF0000120
:101250003CBFC943661B14BFB5EB040C00213CBF67
:10126000C943F61B4FEA17444EEA8E0E27EA04459F
:101270004FEA1C4704FB07622CEA074C05FB07F703
:101280000CFB05F604FB0CFC16EB074642EB174281
:1012900016EB0C4642EB1C421BEB060658EB020217
:1012A000414146EA9E0601D5BDE80189B619524181
:1012B00041EB0101A3F10103BDE801894FEA1445A7
:1012C0004FEA114724EA054621EA074C05FB07F4DB
:1012D00006FB07F70CFB06F105FB0CFC11EB0741C5
:1012E00044EB17444FEA124711EB0C4144EB1C440A
:1012F00022EA074C05FB07F206FB07F70CFB06F694
:1013000005FB0CFC16EB074642EB174216EB0C46AE
:1013100042EB1C456A1854F1000148BF7047B619EA
:10132000524141EB0101A3F10103704795F0000F19
:1013300037D04FEA11424FEA144721EA024624EA25
:10134000074C02FB07F106FB07F70CFB06F402FB58
:101350000CFC14EB074441EB17414FEA154714EB23
:101360000C4441EB1C4125EA074C02FB07F506FB48
:1013700007F70CFB06F602FB0CFC16EB074645EBE9
:10138000174516EB0C4645EB1C42121951F10001B2
:1013900048BF7047B619524141EB0101A3F1010367
:1013A00070474FEA14454FEA114724EA054621EAFF
:1013B000074C05FB07F106FB07F70CFB06F24FF0A5
:1013C000000605FB0CFC12EB074241EB174112EB48
:1013D0000C4251EB1C4148BF7047921841EB010190
:1013E000A3F10103704721B1826842F001028260DB
:1013F00003E0826822F0010282607047014600200B
:101400008A6802F004020AB1012000E0002070475F
:101410000146C86C80B270470246002013680B403A
:101420000BB1012000E000207047014600208A68CF
:1014300002F008020AB1012000E00020704700001D
:1014400070B504460D462B4601222146084800F09F
:1014500039F80121064800F096F800BF022104483F
:10146000FFF7DAFF0028F9D00148FFF7D1FF70BD80
:101470000024014030B502460020002350680F4C84
:1014800020400D790C6844EA0524204350609068A0
:101490000B4C2040D1E902542C434D7944EA4504D9
:1014A00020439060D06A20F470000C7C641EE4B28B
:1014B000234340EA0350D06230BD0000FFFEF0FF3E
:1014C000FDF7F1FFF0B504460D4600200021092D7F
:1014D00011DDE068A5F10A0606EB4607072606FAC5
:1014E00007F18843A5F10A0606EB460603FA06F162
:1014F0000843E0600CE0206905EB4507072606FA83
:1015000007F1884305EB450603FA06F1084320611D
:10151000072A0FDA606B561E06EB86071F2606FAAF
:1015200007F18843561E06EB860605FA06F10843C6
:10153000606322E00D2A0FDA206BD61F06EB8607C8
:101540001F2606FA07F18843D61F06EB860605FA22
:1015500006F10843206310E0E06AA2F10D0606EBF5
:1015600086071F2606FA07F18843A2F10D0606EB4F
:10157000860605FA06F10843E062F0BD816841F095
:1015800008018160704721B1826842F4A002826044
:1015900003E0826822F4A00282607047816841F013
:1015A000040181607047000000B585B00121480248
:1015B00000F066FE4FF4004000F056FE0020009060
:1015C00003904FF46020029000208DF805008DF804
:1015D000040001208DF8100069460D48FFF74AFF0E
:1015E00001210B48FFF7FFFE0948FFF7C7FF00BFC7
:1015F0000748FFF71AFF0128FAD00548FFF7CEFF8A
:1016000000BF0348FFF7FAFE0128FAD005B000BD7D
:101610000024014010B51D48006802F0DFF90446BF
:101620001B480168204602F005FB26D319480068D4
:1016300002F0D4F9044616480168204602F0FAF98F
:101640001BD31548006802F0C9F904461348016825
:10165000204602F0EFFA10D31148006802F0BEF9FC
:1016600004460E480168204602F0E4F905D30D480F
:1016700000680D490968884203DD00200B490860B5
:1016800002E001200949086010BD000010000020A0
:101690000400002014000020180000200800002092
:1016A0001C0000200C00002020000020AC81214202
:1016B00000BFFEE708B50121082000F0E1FD012090
:1016C000ADF8000010208DF8030003208DF8020013
:1016D0006946044800F029F80121024800F0BBF8EF
:1016E00008BD0000000C014008B50120ADF8000065
:1016F00048208DF803006946014800F016F808BD3F
:10170000000C014008B50120ADF8000010208DF854
:10171000030003208DF802006946024800F005F836
:1017200008BD0000000C014070472DE9F041024661
:1017300000250026002000230024002791F803C084
:101740000CF00F0591F803C00CF0100CBCF1000F69
:1017500003D091F802C04CEA050591F800C0BCF135
:10176000000F31D0146800202BE04FF0010C0CFA70
:1017700000F3B1F800C00CEA03069E4220D18300BA
:101780004FF00F0C0CFA03F7BC4305FA03FC4CEACC
:10179000040491F803C0BCF1280F06D14FF0010CEE
:1017A0000CFA00FCC2F814C00AE091F803C0BCF1C6
:1017B000480F05D14FF0010C0CFA00FCC2F810C024
:1017C000401C0828D1D31460B1F800C0BCF1FF0F51
:1017D00034DD546800202EE000F1080C4FF00108C1
:1017E00008FA0CF3B1F800C00CEA03069E4221D1BE
:1017F00083004FF00F0C0CFA03F7BC4305FA03FC0F
:101800004CEA040491F803C0BCF1280F05D100F1A3
:10181000080C08FA0CF8C2F8148091F803C0BCF167
:10182000480F07D100F1080C4FF0010808FA0CF836
:10183000C2F81080401C0828CED35460BDE8F08167
:101840000246002093680B400BB1012000E000200D
:101850007047416170470161704770B500240025F1
:1018600008E000F081FC204484B2052001F0BEF8BD
:10187000681CC5B20A2DF4DB0A2094FBF0F084B298
:10188000204670BD00BFFEE710B54FF480710948D7
:10189000FFF7E1FF4FF400710648FFF7DCFF4FF45C
:1018A00080710448FFF7D5FF4FF400710148FFF73E
:1018B000D0FF10BD000C014010B54FF40071074877
:1018C000FFF7C9FF4FF480710448FFF7C2FF4FF4E0
:1018D00080710248FFF7BFFF10BD0000000C0140FF
:1018E00010B54FF400710448FFF7B5FF4FF40071D5
:1018F0000148FFF7AEFF10BD000C014010B57A485B
:10190000006870B97948007808B9012000E000202B
:101910007649087000BF744800680028FBD000F0CA
:1019200001FA7148001D006890B971480078401CA8
:101930006F49087008460078062801DB002008700F
:1019400000BF6948001D00680028FAD000F0EAF9DD
:1019500065480830006800285FD165480078012894
:101960000DD164480068401C62490860084662A1C5
:1019700002686848FEF75AFC664800F027FE5C489B
:10198000007802280DD164480068401C6249086054
:10199000084662A102685F48FEF748FC5D4800F017
:1019A00015FE5348007803280DD163480068401C99
:1019B00061490860084661A102685648FEF736FC96
:1019C000544800F003FE4A48007804280DD16248CC
:1019D0000068401C60490860084660A102684D48E4
:1019E000FEF724FC4B4800F0F1FD41480078052843
:1019F0000DD161480068401D5F49086008465FA13D
:101A000002684448FEF712FC424800F0DFFD00BFC8
:101A10003548083000680028FAD033480C30006898
:101A200000285FD13248007801280DD13148006884
:101A3000401E30490860084656A102683548FEF746
:101A4000F5FB344800F0C2FD2948007802280DD18A
:101A500031480068401E30490860084654A10268B9
:101A60002C48FEF7E3FB2B4800F0B0FD204800783F
:101A700003280DD130480068401E2F4908600846F1
:101A800052A102682348FEF7D1FB224800F09EFDD8
:101A90001748007804280DD12F480068401E2E49B1
:101AA0000860084650A102681A48FEF7BFFB1948B3
:101AB00000F08CFD0E48007805280DD12E480068F6
:101AC000401F2D49086008464EA102681148FEF7E4
:101AD000ADFB104800F07AFD00BF03480C300068F1
:101AE0000028FAD010BD0000308121420000002003
:101AF0000100002010000020D2D1D4F6BCD3CEC209
:101B0000B6C8CFC2CFDEE3D0D6B5CEAAA3BA25647D
:101B100020A1E6005400002014000020D2D1D4F609
:101B2000BCD3CEC2B6C8C9CFCFDEE3D0D6B5CEAA1D
:101B3000A3BA256420A1E60018000020D2D1D4F673
:101B4000BCD3CAAAB6C8CFC2CFDEE3D0D6B5CEAA20
:101B5000A3BA2564205248001C000020D2D1D4F63C
:101B6000BCD3CAAAB6C8C9CFCFDEE3D0D6B5CEAAF9
:101B7000A3BA25642052480020000020D2D1D4F618
:101B8000BCD3504D322E35E3D0D6B5CEAAA3BA255C
:101B900064000000D2D1BCF5D0A1CEC2B6C8CFC27D
:101BA000CFDEE3D0D6B5CEAAA3BA2564A1E6000065
:101BB000D2D1BCF5D0A1CEC2B6C8C9CFCFDEE3D05A
:101BC000D6B5CEAAA3BA2564A1E60000D2D1BCF551
:101BD000D0A1CAAAB6C8CFC2CFDEE3D0D6B5CEAAAE
:101BE000A3BA256420524800D2D1BCF5D0A1CAAA1C
:101BF000B6C8C9CFCFDEE3D0D6B5CEAAA3BA256486
:101C000020524800D2D1BCF5D0A1504D322E35E340
:101C1000D0D6B5CEAAA3BA256400000008B501212C
:101C2000182000F02DFB4FF40050ADF800001020FC
:101C30008DF8030003208DF8020069461448FFF771
:101C400074FD4FF400511248FFF705FE4FF4006099
:101C5000ADF8000010208DF8030003208DF802007D
:101C600069460C48FFF761FD4FF400610948FFF732
:101C7000F2FD4FF47040ADF8000048208DF80300ED
:101C800003208DF8020069460248FFF74EFD08BDAB
:101C900000100140000C014000BFFEE7704700004B
:101CA00070B5002100230F22C47804B3154C2468BA
:101CB00004F4E064C4F5E064210AC1F10403CA40FD
:101CC000447804FA03F184781440214309010E4C4E
:101CD0000678A155047804F01F050124AC4005786E
:101CE0006D11AD0005F1E025C5F8004109E004786B
:101CF00004F01F050124AC40044D0678761145F828
:101D0000264070BD0CED00E000E400E080E100E062
:101D100002490143024A1160704700000000FA05C1
:101D20000CED00E070B500240CE0002506E000207A
:101D3000074901EBC5010855681CC5B2802DF6DBCB
:101D4000601CC4B2082CF0DB00F0ECF870BD0000A1
:101D50009C00002070B50B46CE1701EB5676C6F3FB
:101D6000C702CE1701EB5676F610A1EBC606F4B209
:101D70000123A340DDB20E4B03EBC0039B5CDB43AE
:101D80000B4E06EBC006B354094B03EBC0039B5C40
:101D90002B43074E06EBC006B354054B03EBC003C1
:101DA0009B5CDB43024E06EBC006B35470BD0000E3
:101DB0009C00002070B50A46CE1701EB5676C6F39C
:101DC000C703CE1701EB5676F610A1EBC606F4B2A8
:101DD0000122A240D5B2054A02EBC002D25C2A43DE
:101DE000024E06EBC006F25470BD00009C000020BD
:101DF00008B50121082000F043FA4FF44070ADF817
:101E0000000010208DF8030003208DF802006946C1
:101E10003D48FFF78AFC4FF440713B48FFF71BFD3C
:101E20000021AE2000F07DF90021084600F079F98C
:101E30000021102000F075F90021402000F071F918
:101E40000021812000F06DF90021CF2000F069F918
:101E50000021A12000F065F90021C82000F061F9FF
:101E60000021A62000F05DF90021A82000F059F91A
:101E700000213F2000F055F90021D32000F051F956
:101E80000021084600F04DF90021D52000F049F965
:101E90000021802000F045F90021D92000F041F90F
:101EA0000021F12000F03DF90021DA2000F039F99D
:101EB0000021122000F035F90021DB2000F031F97B
:101EC0000021402000F02DF90021202000F029F908
:101ED0000021022000F025F900218D2000F021F9D9
:101EE0000021142000F01DF90021A42000F019F9B0
:101EF0000021A62000F015F90021AF2000F011F913
:101F0000FFF710FF08BD0000000C014010B50246AD
:101F1000012000E050430B1EA1F10104E1B2F9D110
:101F200010BD000070B500241CE004F1B001C8B27F
:101F3000002100F0F6F80021084600F0F2F8002138
:101F4000102000F0EEF8002508E0084901EBC5017B
:101F5000085D012100F0E5F8681CC5B2802DF4DBB6
:101F6000601CC4B2082CE0DB70BD00009C000020A7
:101F70002DE9FF4F81B080460E461C460096204654
:101F8000E31704EB5373DB1021464FEAE47C04EBC8
:101F90005C7C4FEAEC0CA4EBCC0CBCF1000F02D043
:101FA0004FF0010C01E04FF0000C6344224604EBBB
:101FB000D27C4FEA6C0C03FB0CF303F0FF0B03988D
:101FC0002038C7B2002547E00C2C07D107EB4700AB
:101FD000234901EB800010F805A014E0102C05D176
:101FE000204800EB071010F805A00CE0182C07D1D2
:101FF00007EBC7001C4901EB800010F805A002E0C8
:1020000005B0BDE8F08F4FF000091FE00AF0800036
:1020100020B131464046FFF7CDFE03E03146404651
:10202000FFF798FE4FEA4A604FEA106A701CC6B28A
:102030000098301AA04205D1009E08F1010000F07E
:10204000FF0806E009F1010000F0FF09B9F1080FEF
:10205000DCDB00BF681CC5B25D45B5DB00BFCFE768
:10206000863D0008FA410008EA4700082DE9F04FD4
:1020700006468A4691461F46099C00252CE0781B9F
:10208000401EC1B20A20FFF741FFB9FBF0F00A2160
:10209000B0FBF1F201FB1208B8F1000F0CD1A3461E
:1020A00004EBDB71491001FB0561C8B22346302205
:1020B0005146FFF75DFF0DE0A34604EBDB714910CD
:1020C00001FB0561C8B208F13001CAB2234651468E
:1020D000FFF74EFF681CC5B2BD42D0DBBDE8F08FF4
:1020E000F0B506460F4614461D4613E022782B46EF
:1020F00039463046FFF73CFF284605EBD07106EB2A
:102100006101CEB2C5F18000B04202DA0026B81CEF
:10211000C7B2641C2078202802DB20787E28E5DD09
:10212000F0BD70B505460C46FFF7AEFB782000F019
:10213000A3F9FFF7D5FB1CB1402000F09DF902E0A8
:10214000002000F099F9FFF7CBFB284600F094F946
:10215000FFF7C6FBFFF7B0FB70BD10B507210120EC
:10216000FFF76EF910BD00002DE9FE4F4FF0000A99
:1021700001212648FFF76FFB4FF48C7000F05CFCE8
:10218000FFF7EBFF0290132000F056FC01211F48DF
:10219000FFF75FFB42F2D05000F04EFC029801F0D6
:1021A00035FC06461A4901F079FC05464FF08B4193
:1021B00001F052FB04464FF0804101F06FFC834672
:1021C000584601F0AFFA0646124A134B01F0C2F826
:1021D000124A134BCDE9000101F0BAF98046002202
:1021E000104B01F0B7F8044601F084F88246BAF1CA
:1021F000000F01DA4FF0000ABAF5FA7F01DD4FF463
:10220000FA7A1FFA8AF0BDE8FE8F0000000801404C
:1022100033335340C3F5285C8FC2C53F9A999999CF
:102220009999B93F00408F4008B50121042000F082
:1022300027F80120ADF8000010208DF80300694652
:102240000748FFF772FA00208DF803000220ADF86E
:10225000000069460248FFF768FAFFF7A5F908BDD4
:10226000000801407047000001460020034A506802
:1022700020F44040084350607047000000100240C6
:1022800029B1064A92690243044B9A6104E0034A69
:1022900092698243014B9A6170470000001002402E
:1022A00030B500210022002400232D4D6D6805F07B
:1022B0000C0121B1042905D0082923D105E0294DBD
:1022C000056022E0274D05601FE0254D6D6805F48F
:1022D0007012234D6D6805F48034022505EB92429F
:1022E0001CB9214D554305600BE01D4D6D6805F48B
:1022F00000351DB11C4D5543056002E0194D554395
:10230000056002E0174D056000BF00BF144D6D6809
:1023100005F0F0010909154D6B5C0568DD4045606D
:102320000F4D6D6805F4E061090A104D6B5C45685E
:10233000DD4085600A4D6D6805F46051C90A0B4D9A
:102340006B5C4568DD40C560054D6D6805F4404136
:10235000890B074D6B5CC568B5FBF3F5056130BDB6
:102360000010024000127A0000093D003E000020EB
:102370004E00002070B50025002424E000BF01219C
:102380001348FFF75DFA0028F9D0282000F054FB2D
:1023900001210F48FFF754FA01280DD100BF012198
:1023A0000B48FFF74DFA0128F9D0C4F107010120CD
:1023B0008840C0B2054304E0C4F107010120884011
:1023C0008543601CC4B2082CD8DB284670BD0000D1
:1023D000000C014010B50446FFF794F90121244890
:1023E000FFF737FA1E2000F001FB01212048FFF71C
:1023F00032FA1E2000F020FBFFF776F901211C487D
:10240000FFF71EFA80BB00BF01211948FFF718FA39
:102410000028F9D000BF01211548FFF711FA012863
:10242000F9D0FFF7A7FF2060FFF7A4FF6060FFF778
:10243000A1FFA060FFF79EFFE060FFF79BFF206118
:10244000FFF760F901210A48FFF705FAD4E9000116
:102450000844A1680844E16808442169884201D120
:10246000012010BD0020FCE7FFE70020F9E7000095
:10247000000C01407047000070B50446002520E0C4
:102480004FF400711048FFF7E4F904F0800028B120
:102490004FF480710C48FFF7DEF904E04FF48071CF
:1024A0000948FFF7D6F94FF400710748FFF7D3F951
:1024B0004FF400710448FFF7CCF96006040E681C65
:1024C000C5B2082DDCDB70BD000C0140014800786E
:1024D000704700003800002005480078012804D12A
:1024E000002003490870012070470020FCE700002D
:1024F0003900002000B587B001218803FFF7C0FE36
:1025000001210420FFF7BCFE18208DF81B004FF4BA
:102510000070ADF8180003208DF81A0006A92148B4
:10252000FFF703F948208DF81B004FF48060ADF8E9
:10253000180003208DF81A0006A91A48FFF7F5F8CD
:102540004FF4165002900020ADF814000C20ADF8A6
:1025500012000020ADF81000ADF80E00ADF80C0030
:1025600002A9114800F08EF9012240F225510E48CF
:1025700000F062F94FF4A060FFF7CAFB25208DF848
:10258000040001208DF807008DF805008DF8060085
:1025900001A8FFF785FB0121034800F00AF907B005
:1025A00000BD0000000801400038014010B504469D
:1025B0002146054800F0D7F900BF8021024800F00D
:1025C00004F90028F9D010BD0038014070B5044668
:1025D000002504E0605DFFF7E9FF681CC5B2605D9F
:1025E0000028F7D170BD10B500F002F810BD000052
:1025F0000CB50020019000903348006840F4803012
:102600003149086000BF3048006800F40030009095
:102610000198401C0190009818B90198B0F5A06F7E
:10262000F1D12948006800F4003010B10120009079
:1026300001E0002000900098012843D12348006861
:1026400040F01000214908600846006820F00300AF
:1026500008600846006840F0020008601A484068B8
:10266000194948600846406848600846406840F498
:10267000806048600846406820F47C104860084646
:10268000406840F4E81048600846006840F08070F8
:10269000086000BF0C48006800F000700028F9D006
:1026A0000948406820F00300074948600846406830
:1026B00040F00200486000BF0348406800F00C0092
:1026C0000828F9D10CBD0000001002400020024093
:1026D000042808D14FF0E021096941F004014FF0CE
:1026E000E022116107E04FF0E021096921F00401C7
:1026F0004FF0E022116170477047000010B5134899
:10270000006840F00100114908600846406810491F
:1027100008400E494860084600680E4908400B49C9
:1027200008600846006820F4802008600846406879
:1027300020F4FE0048604FF41F008860FFF753FF4D
:102740004FF000600449086010BD00000010024016
:102750000000FFF8FFFFF6FE08ED00E010B540F2C4
:102760002551094800F03EF801280CD1064800F038
:10277000F5F80649087001200549087040F2255116
:10278000014800F007F810BD003801403800002073
:102790003900002010B50022002340F66A14A1423F
:1027A00000D100BF0A1201249440A3B2DC4304808C
:1027B00010BD21B1828942F40052828104E08289F5
:1027C0004DF6FF731A408281704702460020B1F532
:1027D000007F00D100BF13880B400BB1012000E047
:1027E0000020704770B50246002400230025002019
:1027F00040F66A16B14200D100BFC1F3421501F0A4
:102800001F03012606FA03F3012D02D196893340F6
:1028100006E0022D02D1168A334001E0968A334049
:102820000C12012606FA04F41688344013B10CB1D8
:10283000012000E0002070BDF0B503460024002612
:102840000025002040F66A17B94200D100BF1846A3
:10285000C1F3421401F01F06012707FA06F5012C07
:1028600001D10C3004E0022C01D1103000E0143012
:102870001AB107682F43076002E00768AF4307609B
:10288000F0BD00002DE9F04786B005460E46002455
:10289000A24600BFA1460027B08900B100BF2F4665
:1028A0002C8A4CF6FF700440F08804432C82AC89DB
:1028B0004EF6F3100440B08831890843718908430B
:1028C0000443AC81AC8A4FF6FF400440B089044316
:1028D000AC8201A8FFF7E4FC1F48874202D1DDF873
:1028E00010A001E0DDF80CA0A88900F4004040B180
:1028F0000AEBCA0000EB0A1031684900B0FBF1F89E
:1029000007E00AEBCA0000EB0A1031688900B0FB4F
:10291000F1F86420B8FBF0F004012009642101FB08
:102920001089A88900F4004040B1322000EBC900B2
:10293000B0FBF1F000F00700044308E0322000EBA8
:1029400009106421B0FBF1F000F00F0004432C816A
:1029500006B0BDE8F08700000038014001468888D5
:10296000C0F308007047C1F308028280704700BFBF
:10297000FEE7490050EAC12018BF04204A0D18BFE5
:1029800040F0010040F2FF72B2EB515F08BF40F02F
:102990000200012808BF0520704730380A2801D2FC
:1029A000012070470020704710B56FF00400FFF75A
:1029B0008FFE0A4800680A49B0FBF1F00949087027
:1029C0000846007800EB4001C1EBC0104FF6FF71E4
:1029D00001EAC0000449088010BD00002400002066
:1029E00000127A003A0000203C0000200146114A03
:1029F00012884A434FF0E0235A6100229A611A4636
:102A0000126942F001021A6100BF4FF0E022106922
:102A100000F001021AB100F48032002AF5D04FF024
:102A2000E022126922F001024FF0E0231A61002235
:102A30009A6170473C0000200146114A12784A43CF
:102A40004FF0E0235A6100229A611A46126942F05F
:102A500001021A6100BF4FF0E022106900F001028C
:102A60001AB100F48032002AF5D04FF0E02212694A
:102A700022F001024FF0E0231A6100229A617047B0
:102A80003A00002010B5FFF727FD01287DD1FFF7A0
:102A90001DFD5C4908700846007830280DD15A4861
:102AA0000068401C58490860084658A102685E4802
:102AB000FDF7BCFB5C48FFF789FD524800783128E0
:102AC0000DD151480068401E4F490860084657A183
:102AD00002685548FDF7AAFB5348FFF777FD4948C0
:102AE000007832280DD158480068401C56490860CB
:102AF000084656A102684C48FDF798FB4A48FFF784
:102B000065FD4048007833280DD14F480068401ECD
:102B10004D490860084654A102684348FDF786FB0A
:102B20004148FFF753FD3748007834280DD1554808
:102B30000068401C53490860084653A102683A489F
:102B4000FDF774FB3848FFF741FD2E480078352823
:102B50000DD14C480068401E4A490860084651A102
:102B600002683148FDF762FB2F48FFF72FFD25482B
:102B7000007836280FD152480068401C5049086040
:102B8000084650A10268284800E03AE0FDF74EFBF5
:102B90002548FFF71BFD1B48007837280DD1484812
:102BA0000068401E4649086008464DA102681E485C
:102BB000FDF73CFB1C48FFF709FD12480078382858
:102BC0000DD14E480068401D4C49086008464CA194
:102BD00002681548FDF72AFB1348FFF7F7FC094880
:102BE000007839280DD145480068401F43490860E6
:102BF000084649A102680C48FDF718FB0A48FFF790
:102C0000E5FC10BD0200002010000020D2D1D4F657
:102C1000BCD3CEC2B6C8CFC2CFDEE3D0D6B5CEAA23
:102C2000A3BA256420A1E60054000020D2D1BCF54F
:102C3000D0A1CEC2B6C8CFC2CFDEE3D0D6B5CEAA21
:102C4000A3BA2564A1E6000014000020D2D1D4F676
:102C5000BCD3CEC2B6C8C9CFCFDEE3D0D6B5CEAADC
:102C6000A3BA256420A1E600D2D1BCF5D0A1CEC282
:102C7000B6C8C9CFCFDEE3D0D6B5CEAAA3BA2564F5
:102C8000A1E6000018000020D2D1D4F6BCD3CAAA15
:102C9000B6C8CFC2CFDEE3D0D6B5CEAAA3BA2564DC
:102CA00020524800D2D1BCF5D0A1CAAAB6C8CFC222
:102CB000CFDEE3D0D6B5CEAAA3BA25642052480011
:102CC0001C000020D2D1D4F6BCD3CAAAB6C8C9CF42
:102CD000CFDEE3D0D6B5CEAAA3BA256420524800F1
:102CE000D2D1BCF5D0A1CAAAB6C8C9CFCFDEE3D035
:102CF000D6B5CEAAA3BA25642052480020000020F1
:102D0000D2D1D4F6BCD3504D322E35E3D0D6B5CE89
:102D1000AAA3BA2564000000D2D1BCF5D0A1504DC1
:102D2000322E35E3D0D6B5CEAAA3BA256400000072
:102D30000024FFF739FEFEF771FFFFF759F8FFF7A0
:102D4000D9FBFEF7B7FCFFF76FFA39E0FEF7D6FDC7
:102D50001C480078012801D1FFF794FE641C1A4832
:102D6000FFF738FB01282BD11749C86800F036FE61
:102D70000746164900F070FD05461349886800F0C3
:102D80002DFE0646294600F0F9FC114908600E495F
:102D9000486800F023FE07460C4900F05DFD05463B
:102DA0000949086800F01AFE0646294600F0E6FCCC
:102DB00008490860FEF751FD0749086000F00EF869
:102DC000C4E700000000002088000020000020412F
:102DD00004000020080000200C00002038B58E48B8
:102DE000007800287ED18DA0FFF7F0FB91A0FFF7BF
:102DF000EDFB97A0FFF7EAFB9CA1A548FDF716FAAB
:102E0000A348FFF7E3FBA3A1A148FDF70FFAA048F1
:102E1000FFF7DCFBA8A19E48FDF708FA9C48FFF7E6
:102E2000D5FBAC48006800F07DFC044622460B460A
:102E3000A9A19748FDF7FAF99548FFF7C7FBAC48F9
:102E4000006800F06FFC044622460B46A9A190489A
:102E5000FDF7ECF98E48FFF7B9FB1023ABA2002178
:102E60000846FFF73DF910200090AA4802230021F0
:102E700082682820FFF7FAF81023A7A20021382043
:102E8000FFF72EF910200090A24801230021C2680C
:102E90004020FFF7EBF81023A0A200215620FFF7F7
:102EA0001FF910239EA214210020FFF719F910200A
:102EB000009098480223142102682820FFF7D6F8D2
:102EC000102395A214213820FFF70AF91020009052
:102ED00090480223142142684020FFF7C7F81023CE
:102EE00091A200E014E014215620FFF7F9F8102316
:102EF0008EA228210020FFF7F3F810200423009071
:102F00008B48282102681E20FFF7B0F8FEF782FBED
:102F10004148007801287CD1102386A20021084670
:102F2000FFF7DEF810200223009084480021026899
:102F30001E20FFF79BF8102381A200213C20FFF701
:102F4000CFF81020022300907F48002102685A2009
:102F5000FFF78CF810237DA214210020FFF7C0F8A2
:102F60001020022300907B48142102681E20FFF7E6
:102F70007DF8102378A214213C20FFF7B1F810202F
:102F8000022300907648142102685A20FFF76EF859
:102F9000102374A228210020FFF7A2F81020042398
:102FA00000907248282102680846FFF75FF87048D1
:102FB0000078012805D110236EA200213020FFF7F0
:102FC0008FF86B480078022805D1102369A20021F0
:102FD0006E20FFF785F866480078032805D1102396
:102FE00064A214213020FFF77BF8614800780428A0
:102FF00005D110235FA214216E20FFF771F85C4801
:103000000078052805D110235AA228215020FFF767
:1030100067F8FEF787FF38BD000000200D0A2D2D50
:103020002D2D2D2D2D2D2D2D2D2D2D2D2D2D2D2DD0
:103030000D0A00002DB5E7D7D3BFC6BCBCB4F3D191
:10304000A7D6D0C9BDD1A7D4BA2D0D0A0000000063
:103050002D2D2D2D2D2D2D2D2D2D2D2D2D2D2D2DA0
:103060002D2D2D2D2D2D0D0A00000000B5F7D5FBBF
:10307000CEC2B6C8C9CFCFC2CFDEA3BAC3FCC1EEA1
:1030800030A1A231A1A232A1A2330D0A000000009A
:1030900054000020B5F7D5FBCAAAB6C8C9CFCFC225
:1030A000CFDEA3BAC3FCC1EE34A1A235A1A236A1E2
:1030B000A2370D0A00000000B5F7D5FB504D322EA7
:1030C00035C9CFCFC2CFDEA3BAC3FCC1EE38A1A2AF
:1030D000390D0A00040000200D0AB5B1C7B0CEC2F8
:1030E000B6C8D6B53A252E316620A1E60D0A0000F5
:1030F00008000020B5B1C7B0CAAAB6C8D6B53A25EF
:103100002E32662052480D0A0000000054656D7092
:103110003A000000880000202E000000430000005C
:103120005468756D3A00000052480000504D3A0056
:103130000C000020545F4C3A0000000010000020FA
:10314000545F483A0000000014000020485F4C3AE9
:103150000000000018000020485F483A000000000E
:103160001C000020504D5F563A0000002000002057
:10317000010000203C00000010B500290AD00878AA
:10318000002807D005487844FDF71EFD002801D02F
:10319000002010BD0248784410BD000086240000C5
:1031A0007E24000010B591EA030F48BF83F000436E
:1031B00000F1D681841A71EB030C05D2121943EB8E
:1031C0000C03001B61EB0C01DFF824E14FEA115402
:1031D000A4EB135C1EEA430F18BF9EEA445F73D052
:1031E00023EA0E03DCF1200E21EA045143F480139C
:1031F00032D322FA0CFE10EB0E0023FA0CFE41EB48
:103200000E01CCF1200E03FA0EFE10EB0E0051F170
:103210000001B1F5801FCCF1200E32D201EB045138
:1032200012FA0EF2BDE8104058BF7047401C38BF7C
:103230005FEA420218BF7047002814BF20F0010067
:1032400041F100014FEA410313F5001F38BF7047F9
:10325000A1F1C04100F076B9012A43EB0302ACF1C1
:10326000200CDCF11F0E32BF4FF0000E23FA0CF3DE
:1032700010EB030041EB0451B4EB115FD0D0A1EB94
:10328000045101F5801149085FEA300001EB045157
:103290000ED350F1000038BF12FA0EFE08D1BDE87F
:1032A0001040C9E7401C38BF5FEA4202CAD1C3E7F9
:1032B000BDE810404FEA410313F5001F38BF7047C7
:1032C000A1F1C04100F03EB99EEA445F08D011EA86
:1032D0005E0FBDE8104004BF01F0004100207047C0
:1032E000BDE8104070B500F0DFF800BF64FBBE3EE3
:1032F0000000E0FF4FEA41034FEA5353A3F5806318
:10330000D3F11E03C8BFD3F1210C0CDD4FF00042F6
:1033100042EAC12242EA505232FA03FC8CEAE17CD2
:10332000ACEBE1707047102BC4BF0020704703F571
:10333000787CBCF1FF3F04D06FF0004282EA2100AC
:10334000704770B500F0B0F84992248000207047B3
:10335000F2E70000DFF848C170B51CEA111E1EBF7D
:103360001CEA13159EEA0C0F95EA0C0F00F06F8013
:1033700081EA030423EA4C134EEAD47E21EA4C117D
:1033800041F4801143F48013AE44A1FB024CA0FB36
:103390000365AEF17F7E361955EB0C05A1FB034C9E
:1033A0004CF10003A0FB021C16EB0C06654153F127
:1033B0000003094218BF46F0010613F4007F0BD149
:1033C0004FEA03314FEA0530340341EA155140EA30
:1033D00016506FF003020AE04FEAC3214FEAC520FE
:1033E000F40241EA555140EA56506FF0020202EBF6
:1033F0002E4201EB025585EACE710AD05FEA440CF9
:1034000018BF24F0004450F1000041F1000120EA0F
:10341000D47040F2FE7C624500D270BDA84214BF59
:103420004FF080444FF04044002E08BF0024BEF10E
:10343000806FA8BFA1F1C041BDE8704080F28280DA
:103440004FF0000001F1C04101F0004170479EEAD9
:103450000C0F0CEA131518BF95EA0C0F06D04FF0AD
:10346000000081EA030E0EF0004170BD00F01CF870
:103470008900013E00F007B800F009B84FEA430C9C
:103480005FEA5C5C08D081EA030100F05BB84FEAB8
:10349000410C5FEA5C5CF6D14FF0000001497047D7
:1034A0000000FF070000F87F0EF1020E2EF0030E61
:1034B0005EF8046B364205D4012A43EB030515F58B
:1034C000001F12D8012841EB010C1CF5001F0CD87D
:1034D0000ED14FEAD17C15F5001F0CEB4C0C0CF112
:1034E000020C08BF4CEBD37C04E04FF0080C01E069
:1034F0004FEAD37C0CEB4C0526FA05F606F00706DE
:10350000B6F1040C06D20EEB860CBDE870404CF010
:10351000010C6047DFE80CF0090B02024FF000419C
:103520004FF00000A1F5002170BD1946104601289A
:1035300051EB010418BFD4F5001484BF002001F042
:10354000004170BD0808A0F500114FEA3101704735
:1035500010B591EA030F48BF83F000433FF52AAE50
:10356000841A71EB030C07D212198CF0004C43EB58
:103570000C03001B61EB0C01DFF8A4E14FEA1154CE
:10358000A4EB135C1EEA430F18BF9EEA445F00F0F1
:10359000B08023EA6E03524221EA0451C3EB6E036A
:1035A00038BF5B1EDCF1200E25D322FA0CFE10EB97
:1035B0000E0043FA0CFE41EB0E01CCF1200E03FA93
:1035C0000EFE10EB0E0051F10001CCF1200E29D4BB
:1035D00012FA0EF201EB0451BDE8104058BF7047DB
:1035E000401C1CBFB2F1004F704700280CBF491CA3
:1035F00020F00100704712EB020E43EB030218BFEC
:103600004FF0010E4EEA4202ACF1200CDCF11E0E2E
:1036100054D943FA0CFE10EB0E0051F1FF31CCF1FE
:103620001E0ED5D50EF1010E12FA0EFE404141EBF1
:10363000010101EB445C5FEA5C5C10D910EBDE70C9
:1036400001EB045138BFBEF1004FBDE8104018BF78
:10365000704700280CBF491C20F00100704730D291
:103660004FEAD42C11F5001124F400641BD0B1FAF8
:1036700081F20B3AA41AA41ED2F12003914030FA31
:1036800003F31943904001EBCC71002C01EB045182
:10369000BDE81040A8BF704701F1C0414FF00000E5
:1036A00001F000417047B0FA80F310FA03F100D145
:1036B00010BDE41A173C4805C90AE4E701EB0451C0
:1036C00010BD491001EB0451BDE810404FEA300035
:1036D00002E04FF0000170474A0008BF0042F8D0F6
:1036E000B2F5001F28BF704701F000414FF0000005
:1036F00070479EEA445F07D011EA5E0FBDE81040B4
:1037000004BF002100207047BDE8104070B5FFF7EE
:10371000CBFE00BF40DFF63E83F00041104670470D
:103720000000E0FF43004FEAD30C4FEA3C0C43405B
:103730001FBF40070CF1605113F0FE4F70471CF0A3
:10374000006F03D100200CF0004170470CF00043E3
:1037500043EA507010B540EACC0000F020FA00BFF8
:10376000000000924FEA0001FFF7ECBE4FF000416D
:103770004FF00000A1F500217047000090EA010F12
:1037800048BF81F0004100F18E82421A3CBF801A8E
:1037900089184FEAD0524FF07F4C1CEA410FA2EB40
:1037A000D15318BF9CEA026F00F03B804FF0004CF1
:1037B0004CEA00204CEA012121FA03FC10EB0C0C2E
:1037C0001ED202F1FF325FEA1C2040EBC25038BF2C
:1037D00070471CF07F0F4FEA400C18BFBCF17F4FC1
:1037E00038BF7047C3F12003994008BF20F00100A3
:1037F000BCF17F4F38BF7047A0F1C04000F015BA50
:103800004FEA3C00000A40EBC25028BF1CF0FF0FFB
:103810004FEA400CE6D018BFBCF17F4F38BF70476D
:10382000EAE79CEA026F05D010EA5C0F08BF00F0DF
:103830000040704710B500F0B2F900BF64FBBE3E17
:10384000401058BFC0F14040491058BFC1F140413D
:103850008142EFF3008070474FF47F0C1CEAD012D6
:103860001EBF1CEAD11392EA0C0F93EA0C0F00F072
:10387000858090EA010F48BF42F4807240F4000C4A
:1038800041F400002CF07F4120F07F4000B58142E0
:10389000A2EB03020FF2081CACEB504EC0F100008B
:1038A0009EF800E04FEA4E0E00FB0EFC38BF4900C8
:1038B0004FEA2C1C02F5FA020CFB0EF34FEACE1E67
:1038C0004FEA112C4FEAC1210EEB635E42EB22421C
:1038D0000EFB0CFC4FEA1C5300FB03114FEA112CAA
:1038E0004FEA01310EFB0CFC4FEADC4C00FB0C11E3
:1038F000C14228BF09184CEB03335DF804EB10EB11
:10390000410143EBC250B2F57C0F38BF704729D557
:1039100012F0F00F1CBF00F1C04000F000407047F3
:10392000008182838485868788898B8C8D8E8F9198
:103930009293959697999A9C9D9FA0A2A3A5A7A8BC
:10394000AAACAEB0B2B3B5B7B9BCBEC0C2C5C7C9E8
:10395000CCCED1D4D7D9DCDFE2E6E9ECF0F3F7FA4C
:10396000FE0000004FEA400C0CF1807CBCF17E4F61
:1039700028BF7047B0F1C04000F057B990EA010F7E
:103980000CEAD11348BF42F48072624538BF6345E8
:1039900007D213F47F0F16D080EA010000F0004038
:1039A000704710B500F0FBF8097EFC3E00F005B84A
:1039B00080EA010000F00040704780EA010000F05A
:1039C000004000F032B912F47F0F04BF0248704784
:1039D00080EA010000F029B90000C07F10F000412A
:1039E00048BF4042B0FA80F310FA03F2C3F19D03DE
:1039F0000BD051EAC35101EB1220530638BF704778
:103A000000F1010008BF20F001007047B0FA80F318
:103A100010FA03F2C3F19D030AD0D90501EB12207D
:103A2000530638BF704700F1010008BF20F00100C5
:103A30007047000050EA010C00F113801CF5000FE4
:103A400058BFBCF5000F01D48842704707D710F566
:103A5000000F58BF11F5000F15D4884270478942F6
:103A600070471CF5000F04D5BCF5000FF7D5814257
:103A700070474FF0807C1CEB400F38BF1CEB410FB0
:103A800001D28142704710B500F089F892244900B4
:103A90004FF000504FF08051FFF7D2BE4FF47F0C33
:103AA0001CEAD0121EBF1CEAD11392EA0C0F93EA53
:103AB0000C0F00F0478090EA010F48BF42F480727B
:103AC0004FF0004C4CEA00204CEA012102EB0302CB
:103AD000A0FB0113A2F50002002918BF43F0010367
:103AE0005B0028BF4FEA330342EB22425FEA132C0C
:103AF0004CEBC2502EBFBCEB436FB2F57C0F70474E
:103B00004FEA036CBCF1004F08BF20F00100B2F592
:103B10007C0F38BF70470BD582F0FF0212F5803F53
:103B2000C8BF704700F1C040D8BF00F000407047E8
:103B300000F5000C5FEA4C0C48BF7047B0F1C04084
:103B400000F073B890EA010F0CEAD11348BF42F4B9
:103B50008072624538BF634504D280EA010000F0FC
:103B60000040704710B500F01AF800BF8900013E10
:103B700000F007B800F009B85FEA410C5FEA1C6C7E
:103B800008D080EA010000F050B85FEA400C5FEA1C
:103B90001C6CF6D14FF00040A0F5800070470EF18C
:103BA000020E2EF0030E5EF8044B244204D44FEABA
:103BB0004102B2F17F4F11D84FEA4003B3F17F4F7A
:103BC0000CD80ED14FEAD07CB2F17F4F0CEB4C0CED
:103BD0000CF1020C08BF4CEBD17C04E04FF0080C58
:103BE00001E04FEAD17C0CEB4C0324FA03F404F01F
:103BF0000704B4F1040C06D20EEB840CBDE81040AF
:103C00004CF0010C6047DFE80CF0070802024FF0AF
:103C10000040A0F5800010BD0846420018BFD2F158
:103C2000807288BF00F0004010BDFF2141EAD050F3
:103C3000C005704751EA000C00F113801CF5000F1D
:103C400058BFBCF5000F01D48142704707D711F56A
:103C5000000F58BF10F5000F15D4814270478942FC
:103C600070471CF5000F04D5BCF5000FF7D588424E
:103C700070474FF0807C1CEB410F38BF1CEB400FAE
:103C800001D28842704780EA010081EA000180EA9F
:103C90000100FFF7F8BE000090EA010F48BF81F075
:103CA00000413FF572AD421A04D882F00042A0EB09
:103CB000020011444FEAD0524FF07F4C1CEA410FF2
:103CC000A2EBD15318BF9CEA026F4AD04FF0004CD0
:103CD0004CEA00204CEA012121FA03FCB0EB0C0C69
:103CE0000FD412F0FE0F36D05FEA4C001DD5001243
:103CF00040EBC25038BF70471CF03F0F18BF7047F1
:103D00000BE0A2F101025FEA1C2040EBC25038BF79
:103D100070471CF07F0F18BF7047C3F12003994014
:103D200014BF401E20F00100704780084FEA1223A4
:103D300008BF7047B0FA80FCA2EB0C02CCF1280C53
:103D400060FA0CF093EA122F04BF00EBC2507047E8
:103D50004FEAC3707047130A5FEADC1008BF704770
:103D6000F6E79CEA026F04D010EA5C0F08BF00205F
:103D7000704710B5FFF713FF40DFF63E81F00040BB
:103D80007047FCF79EBC000000000000000000002F
:103D90000000000000003F400000000000000000A4
:103DA0003000400030004000000009000BC03D0022
:103DB0000BC03D00090018C024407FE02240318044
:103DC0000000180024C01B000D80324001800380D9
:103DD0001C4027401C80074000401000600000008D
:103DE0000000000000000000000000001F802040D4
:103DF00040200000402020401F80000000000900FB
:103E000006001F80060009000000040004003F8037
:103E1000040004000000001000600000000000002A
:103E2000000004000400040004000400000000007E
:103E300000400000000000000000002001C006005B
:103E40003800400000001F802040204020401F809C
:103E50000000000010403FC000400000000018C0FB
:103E6000214022402440184000001080204024407F
:103E700024401B80000002000D0011003FC00140E3
:103E800000003C80244024402440238000001F8008
:103E9000244024403440038000003000200027C02C
:103EA0003800200000001B802440244024401B8058
:103EB00000001C0022C0224022401F8000000000A1
:103EC0000000084000000000000000000000046046
:103ED000000000000000000004000A001100208023
:103EE0004040090009000900090009000000000025
:103EF0004040208011000A000400180020002340E8
:103F00002400180000001F802040274029401F4047
:103F10000000004007C039000F0001C000402040F1
:103F20003FC0244024401B8000001F8020402040D0
:103F300020403080000020403FC0204020401F80B3
:103F4000000020403FC024402E4030C000002040F0
:103F50003FC024402E00300000000F0010802040A1
:103F600022403380020020403FC0040004003FC0D4
:103F70002040204020403FC0204020400000006002
:103F8000202020203FC02000200020403FC02440AF
:103F90000B0030C0204020403FC020400040004087
:103FA00000C03FC03C0003C03C003FC000002040B8
:103FB0003FC00C4023003FC020001F802040204015
:103FC00020401F80000020403FC0244024001800F3
:103FD00000001F802140214020E01FA00000204061
:103FE0003FC02440260019C0004018C0244024408F
:103FF000224031800000300020403FC0204030008F
:10400000000020003F80004000403F802000200052
:104010003E0001C0070038002000380007C03C0007
:1040200007C038000000204039C0060039C02040D9
:1040300000002000384007C0384020000000304019
:1040400021C02640384020C00000000000007FE072
:10405000402040200000000070000C000380004061
:1040600000000000402040207FE000000000000031
:104070002000400020000000000000100010001090
:1040800000100010001000000000400000000000C0
:104090000000000002800540054003C000402000F1
:1040A0003FC004400440038000000000038004403F
:1040B00004400640000000000380044024403FC04C
:1040C0000040000003800540054003400000000060
:1040D00004401FC0244024402000000002E005509E
:1040E00005500650042020403FC00440040003C097
:1040F00000400000044027C0004000000000001005
:104100000010041027E00000000020403FC00140E4
:10411000070004C00440204020403FC00040004051
:10412000000007C0040007C0040003C000000440F2
:1041300007C00440040003C00040000003800440A6
:10414000044003800000041007F004500440038082
:104150000000000003800440045007F000100440F9
:1041600007C00240040004000000000006400540B3
:10417000054004C00000000004001F80044000400F
:104180000000040007800040044007C00040040015
:10419000070004C0018006000400060001C00700FB
:1041A00001C006000000044006C0010006C0044033
:1041B00000000410071004E0018006000400000065
:1041C000044005C006400440000000000000040058
:1041D0007BE040200000000000000000FFF0000035
:1041E0000000000040207BE00400000000004000D0
:1041F000800040002000200040000000000000007F
:1042000000000000000000000000000000000000AE
:104210001FCC000C0000000000000000080030006F
:1042200060000800300060000000022003FC1E2037
:10423000022003FC1E200220000000000E181104C2
:104240003FFF10840C78000000000F0010840F382E
:1042500000C0077818840078000000780F8410C42C
:1042600011240E9800E40084000808006800700023
:10427000000000000000000000000000000000003E
:1042800007E018182004400200000000400220044B
:10429000181807E000000000000002400240018002
:1042A0000FF001800240024000000080008000808A
:1042B0000FF800800080008000000001000D000E5B
:1042C00000000000000000000000000000800080EE
:1042D000008000800080008000800000000C000C46
:1042E00000000000000000000000000000060018B0
:1042F00000600180060018002000000007F0080898
:1043000010041004080807F0000000000804080466
:104310001FFC000400040000000000000E0C10143C
:104320001024104411840E0C000000000C1810041E
:104330001104110412880C700000000000E003203A
:10434000042408241FFC0024000000001F9810848F
:1043500011041104108810700000000007F0088894
:104360001104110418880070000000001C001000E7
:1043700010FC13001C001000000000000E38114457
:104380001084108411440E38000000000700088CCF
:1043900010441044088807F00000000000000000EE
:1043A000030C030C000000000000000000000001EE
:1043B0000106000000000000000000000080014035
:1043C000022004100808100400000220022002202D
:1043D0000220022002200220000000001004080831
:1043E0000410022001400080000000000E001200B6
:1043F000100C106C10800F00000003E00C1813E488
:10440000142417C4082807D000000004003C03C48B
:104410001C40074000E4001C000410041FFC1104B1
:10442000110411040E880070000003E00C18100441
:104430001004100410081C10000010041FFC1004CD
:1044400010041004080807F0000010041FFC1104F9
:10445000110417C410040818000010041FFC1104F4
:10446000110017C010000800000003E00C18100431
:10447000100410441C780040000010041FFC10843D
:104480000080008010841FFC100400001004100441
:104490001FFC1004100400000000000300011001C4
:1044A00010011FFE10001000000010041FFC11047A
:1044B00003801464181C1004000010041FFC100476
:1044C000000400040004000C000010041FFC1F0086
:1044D00000FC1F001FFC1004000010041FFC0C0453
:1044E000030000E010181FFC100007F0080810047B
:1044F00010041004080807F0000010041FFC1084CA
:104500001080108010800F00000007F008181024A1
:104510001024101C080A07F2000010041FFC1104EC
:10452000110011C011300E0C000400000E1C11040B
:104530001084108410441C3800001800100010046F
:104540001FFC100410001800000010001FF81004D9
:104550000004000410041FF8100010001E0011E0F9
:10456000001C007013801C0010001FC0103C00E0F5
:104570001F0000E0103C1FC000001004180C16348F
:1045800001C001C01634180C100410001C001304E4
:1045900000FC13041C00100000000804101C106430
:1045A000108413041C041018000000000000000018
:1045B0007FFE4002400240020000000030000C007C
:1045C00003800060001C0003000000004002400265
:1045D00040027FFE000000000000000000002000FC
:1045E00040004000400020000000000100010001E8
:1045F0000001000100010001000100004000400036
:1046000020000000000000000000000000980124CD
:1046100001440144014400FC000410001FFC008818
:104620000104010400880070000000000070008890
:1046300001040104010400880000000000700088EB
:104640000104010411081FFC0004000000F80144EB
:1046500001440144014400C80000000001040104B9
:104660000FFC1104110411001800000000D60129EC
:104670000129012901C90106000010041FFC008462
:1046800001000100010400FC000400000104190401
:1046900019FC0004000400000000000000030001F9
:1046A0000101190119FE0000000010041FFC002484
:1046B000004001B4010C01040000000010041004CB
:1046C0001FFC0004000400000000010401FC0104C0
:1046D000010001FC0104010000FC010401FC008454
:1046E00001000100010400FC0004000000F80104C6
:1046F00001040104010400F80000010101FF00852C
:1047000001040104008800700000000000700088AF
:1047100001040104010501FF00010104010401FC81
:1047200000840104010001800000000000CC01248D
:10473000012401240124019800000000010001006F
:1047400007F80104010400000000010001F8000462
:1047500000040004010801FC000401000180017054
:10476000000C001001600180010001F0010C00301C
:1047700001C00030010C01F0010000000104018CB7
:1047800000740170018C01040000010101810171BC
:10479000000E001801600180010000000184010C7E
:1047A000013401440184010C0000000000000000FD
:1047B000000001003EFC400240020000000000003A
:1047C0000000FFFF00000000000000004002400267
:1047D0003EFC0100000000000000000060008000BE
:1047E0008000400040002000200000000000000089
:1047F00000000000000000000000000000000000B9
:1048000000000000000000000000000000000000A8
:10481000000000000000000000000000000F8038D1
:104820000FFE380F8038000000000000000000007C
:1048300000000000000000000100000600000C0065
:10484000003800003100000600000C0000380000B5
:104850003000000000000000000061800067F807E1
:10486000F9800061800061800061800061800067E4
:10487000F807F980006180000000000000000000DF
:1048800001C0E003E0F00630080418081FFFFE0432
:104890000E080787F00381E000000000000001F02F
:1048A00000060C00040408060C7001F9C0000E009C
:1048B000003BE000EC18070808040C180003E000B7
:1048C00000000001E00007F003F818041C080417BA
:1048D0000807E1D003C0E00023B0003C0800200836
:1048E0000000100000000000000100003100003254
:1048F00000001C000000000000000000000000009C
:1049000000000000000000000000000000000000A7
:10491000000000000000000000007F0001FFC00751
:1049200080F00C00181000042000020000000000BD
:10493000002000021000040C00180780F001FFC0E6
:10494000007F0000000000000000000000000000E8
:104950000000000000004200006600006600003C0D
:104960000000180003FFC0001800003C00006600B3
:10497000006600004200000000000800000800007F
:10498000080000080000080001FFC000080000083F
:1049900000000800000800000800000000000001FE
:1049A00000003100003200001C0000000000000088
:1049B00000000000000000000000000000000000F7
:1049C00000000800000800000800000800000800BF
:1049D00000080000080000080000080000080000AF
:1049E0000000000000000000000038000038000057
:1049F000380000000000000000000000000000007F
:104A000000000000000000000000000600001C0084
:104A10000070000180000E0000380000C000070098
:104A2000001C0000300000000000000000007F803B
:104A300001FFE00380700600180400080400080667
:104A4000001803807001FFE0007F8000000000007C
:104A50000000000001000801000801000803FFF841
:104A600007FFF80000080000080000080000000030
:104A7000000000000001C03802C058040098040182
:104A800018040218040418061C1803F81801E0F8AA
:104A900000000000000000000001C0E003C0F004BE
:104AA000000804080804080806180803F41801E7B9
:104AB000F00001E000000000000000000000030022
:104AC000000D0000110000610000810803010807CB
:104AD000FFF80FFFF80001080001080000000000C7
:104AE000000000E007FCD0060808061008061008C1
:104AF000061008061838060FF00607C00000000070
:104B00000000000000003F8001FFE0038430020845
:104B100018041008041008041008071810030FF0F8
:104B20000007C000000000000000000003C00007F4
:104B300000000600000600F80607F806180006E068
:104B40000007000006000000000000000001E1E096
:104B500003F7F0063410041808041808040C0804BD
:104B60000C0806161803F3F001C1E0000000000075
:104B70000000F80003FC30030638040208040208B1
:104B80000402080404100308F001FFC0007F0000C5
:104B90000000000000000000000000000000000015
:104BA000000070380070380070380000000000000D
:104BB00000000000000000000000000000000000F5
:104BC000000000000000301A00301C00000000004F
:104BD00000000000000000000000000000000000D5
:104BE0000008000014000022000041000080800145
:104BF000004002002004001008000800000000002F
:104C000000002100002100002100002100002100FF
:104C100000210000210000210000210000210000EF
:104C2000000000000000000008000804001002005E
:104C3000200100400080800041000022000014009C
:104C400000080000000000000003C00004C00004D1
:104C50000000080038080F380808380810000C3029
:104C60000007E00003C000000000000000003F80DB
:104C700000FFE0038070020F1006708804C08804F3
:104C80008308047F8802C09003012000FE400000DA
:104C9000080000180001F8003E0801C200070200E9
:104CA00007E20000FE00001FC80001F80000380005
:104CB000000804000807FFF807FFF80408080408C4
:104CC0000804080804080806180803F41801E7F0A7
:104CD0000001E0000000000000003F8001FFE00351
:104CE0008070020018040008040008040008040092
:104CF000100600200780C000000004000807FFF82D
:104D000007FFF80400080400080400080400180263
:104D1000001003807001FFE0007F800000000400AD
:104D20000807FFF807FFF804080804080804080843
:104D3000040808043E08040008060018010060008A
:104D4000000004000807FFF807FFF804080804083B
:104D500000040800040800043E00060000060000ED
:104D6000018000000000000000003F8001FFE00320
:104D700080700600180400080402080402080203F8
:104D8000F00783F000020000020004000807FFF8AB
:104D900007FFF804080800080000080000080000E9
:104DA000080004080807FFF807FFF80400080000DF
:104DB0000000000004000804000804000807FFF8D1
:104DC00007FFF804000804000804000800000000C1
:104DD00000000000000000060000070000010400C1
:104DE0000104000104000307FFFE07FFFC040000AC
:104DF00004000004000004000807FFF807FFF8049F
:104E00000C08001800003E0004C7800503C8060017
:104E1000F804003804001800000804000807FFF830
:104E200007FFF80400080000080000080000080060
:104E300000080000080000180000600000000400E6
:104E40000807FFF807800807FC00007FC00003F890
:104E50000007C000780007800807FFF807FFF80484
:104E6000000804000807FFF807000803C00000E07E
:104E700000003800001E000007000001C00400F020
:104E800007FFF8040000000000007F8001FFE0033E
:104E900080700600180400080400080600180300CB
:104EA0003001FFE0007F8000000004000807FFF8E9
:104EB00007FFF804040804040004040004040004C8
:104EC0000400060C0003F80001F0000000000000E0
:104ED00000007F8001FFE0038070060088040088E6
:104EE0000400C806003C03003E01FFE6007F84008A
:104EF000000004000807FFF807FFF804080804088A
:104F000000040C00040F00040BC00610F003F0387E
:104F100001E00800000800000001E0F803F030069E
:104F20003010041808041808040C08040C080206C1
:104F3000180207F00781E000000001800006000071
:104F400004000004000004000807FFF807FFF8044D
:104F500000080400000400000600000180000400B6
:104F60000007FFE007FFF004001800000800000839
:104F700000000800000800000804001007FFE0041B
:104F8000000004000006000007E00007FE00041F08
:104F9000E00001F80000380001E0043E0007C00016
:104FA00006000004000004000007E00007FFC00442
:104FB0001FF80007C007F80007FF80043FF800074C
:104FC000C004F8000700000400000000000400080E
:104FD00006001807C07805F1C8003E00001F8004D5
:104FE00063E80780F80600180400080000000400C9
:104FF0000006000007800007E008047C08001FF896
:105000000007F800180804E0080700000600000484
:1050100000000000000100080600380400F8040346
:10502000E8040F08047C0805F00807C0080700180A
:10503000040060000000000000000000000000000C
:1050400000000000003FFFFE2000022000022000C0
:10505000022000022000020000000000000000000A
:1050600008000007000000C0000038000006000033
:1050700001C000003000000E000001000000000030
:105080000000000020000220000220000220000298
:105090002000023FFFFE00000000000000000000B2
:1050A00000000000000000000000000800001000E8
:1050B0000030000020000030000010000008000058
:1050C00000000000000000000100000100000100DD
:1050D00000010000010000010000010000010000CB
:1050E00001000001000001000001000000000000BC
:1050F0000000002000002000001000001000000050
:10510000000000000000000000000000000000009F
:10511000000000F00019F8001B1800220800260803
:10512000002408002410003FF8001FF800000800C9
:10513000001800000004000007FFF80FFFF000183F
:1051400018001008002008002008003018001FF088
:10515000000FC00000000000000007C0001FF000AA
:105160001830002008002008002008003C08001C1F
:10517000100000600000000000000000000007C0F8
:10518000001FF00038180020080020080020080444
:10519000101007FFF80FFFF00000100000000000E3
:1051A000000000000007C0001FF0001230002218AD
:1051B000002208002208003208001E10000E200005
:1051C000000000000000200000200800200801FF6F
:1051D000F803FFF806200804200804200807200030
:1051E00003000000000000000000000E000E6E0032
:1051F0001FF30031B10020B10020B1003191001F38
:1052000013002E1E00200E003000000000040008D5
:1052100007FFF80FFFF80010080020000020000032
:105220002008003FF8001FF8000008000000000000
:1052300000000000002008002008002008063FF8B9
:10524000063FF80000080000080000080000000009
:105250000000000000000000000003000003002028
:1052600001002001002003063FFE063FFC00000075
:1052700000000000000000000004000807FFF80F15
:10528000FFF8000188000300002FC00038F800205C
:1052900038002008000008000000000000000000A6
:1052A00004000804000804000807FFF80FFFF800D6
:1052B00000080000080000080000000000000020B6
:1052C00008003FF8003FF8001008002000003FF8F9
:1052D000003FF8001008002000003FF8003FF800F1
:1052E0000008000000002008003FF8003FF8001010
:1052F00008001000002000002008003FF8001FF800
:105300000000080000000000000007C0000FF000CF
:10531000183000300800200800200800300800186D
:1053200030000FF00007C000000000000000200166
:10533000003FFF003FFF001011002009002008007F
:105340002008003038001FF0000FC00000000000EF
:10535000000007C0001FF0003818002008002008D7
:10536000002009001011001FFF003FFF0000010096
:105370000000002008002008002008003FF8003F3F
:10538000F800080800100800200800200000300085
:10539000003000000000000000000000000C780059
:1053A0001E1800330800230800210800218800216E
:1053B000980030F00038600000000000000020007D
:1053C00000200000200000FFF003FFF8002008008C
:1053D000200800200800003000000000000000004D
:1053E00000002000003FF0007FF8000018000008D7
:1053F000000008002010003FF8007FF000001000BF
:105400000000000000002000003000003C00003FD1
:10541000800023F0000078000070002380003C0032
:10542000003000002000002000003C00003FE000B1
:1054300023F80000E0002700003E00003FE00021CC
:10544000F80001E0003E00002000000000002008FD
:10545000002008003838003E680027800003C8009C
:105460002CF8003838002018002008000000000048
:1054700000002000003003003C01003F830023ECCB
:10548000000070002380003C00002000002000008D
:105490000000000000000000003808002038002054
:1054A000F80023E8002F88003E0800380800201884
:1054B000000070000000000000000000000000007C
:1054C00000000000000008000014001FF7FC30007E
:1054D00006200002000000000000000000000000A4
:1054E000000000000000000000000000FFFFFF00BF
:1054F00000000000000000000000000000000000AC
:10550000000000002000023000061FF7FC0014001D
:105510000008000000000000000000000000000083
:105520000000000000180000600000400000400083
:10553000002000001000000800000400000400002B
:105540000C00001000000400000800000000000033
:10555000000200010000100002400000000000A056
:105560000000000005400000000000C8000000002E
:105570000C4000000000409C0000000019400000AA
:105580000020BCBE0000000034400000BFC91B8EDC
:1055900000000004B5400000504BCFD06607E2CFBA
:1055A000010000006C4100003E8251AADFEEA734EA
:1055B00001000000D9420000DCB5A0E23A301F979C
:1055C000FFFFFFFFB4450000FD25A0C8E9A3C14FC0
:1055D000FFFFFFFFFF3F0000000000800000000011
:1055E000FF3F000000000080000000002856000877
:1055F00000000020540000006C0100087C560008E8
:10560000540000202C0B0000880100081C00000042
:1056100043000000F8FFFFFF0C0000000E00000038
:105620000F0000002E00000000000000000000003D
:10563000000000000000000014000000280000002E
:10564000140000003C0000009001000000A24A0489
:105650000000000000000000010203040607080922
:10566000000000000000000000000102030401022D
:0C567000030406070809020406080000F5
:04000005080001ED01
:00000001FF
