:020000040800F2
:1000000068070020CD0100088D0400089D0300084A
:10001000890400087D02000857070008000000005E
:10002000000000000000000000000000B104000813
:1000300081020008000000008F0400080D0600087F
:10004000E7010008E7010008E7010008E7010008F0
:10005000E7010008E7010008E7010008E7010008E0
:10006000E7010008E7010008E7010008E7010008D0
:10007000E7010008E7010008E7010008E7010008C0
:10008000E7010008E7010008E7010008E7010008B0
:10009000E7010008E7010008E7010008E7010008A0
:1000A000E7010008E7010008E7010008E701000890
:1000B000E7010008E7010008E7010008E701000880
:1000C000E7010008E7010008E7010008E701000870
:1000D000E701000871060008E7010008E7010008D1
:1000E000E7010008E7010008E7010008E701000850
:1000F000E7010008E7010008E7010008E701000840
:10010000E7010008E7010008E7010008E70100082F
:10011000E7010008E7010008E7010008E70100081F
:10012000E7010008E7010008E7010008E70100080F
:1001300000F002F800F03AF80AA090E8000C8244BF
:100140008344AAF10107DA4501D100F02FF8AFF29C
:10015000090EBAE80F0013F0010F18BFFB1A43F0A5
:1001600001031847F007000010080000103A24BFF0
:1001700078C878C1FAD8520724BF30C830C144BF0C
:1001800004680C607047000000230024002500264E
:10019000103A28BF78C1FBD8520728BF30C148BFEA
:1001A0000B6070471FB51FBD10B510BD00F033F8D0
:1001B0001146FFF7F7FF00F095FB00F051F803B48C
:1001C000FFF7F2FF03BC00F0C8FA000009488047BF
:1001D00009480047FEE7FEE7FEE7FEE7FEE7FEE729
:1001E000FEE7FEE7FEE7FEE704480549054A064B41
:1001F0007047000011060008310100086801002066
:1002000068070020680300206803002070477047DB
:10021000704770477047754600F02CF8AE460500F1
:100220006946534620F00700854618B020B5FFF711
:10023000DBFFBDE820404FF000064FF000074FF015
:1002400000084FF0000B21F00701AC46ACE8C009F4
:10025000ACE8C009ACE8C009ACE8C0098D467047FD
:1002600010B50446AFF300802046BDE81040FFF70C
:10027000A6BF0000004870470801002000BFFEE74D
:1002800070472DE9F041024600250026002000239A
:100290000024002791F803C00CF00F0591F803C06B
:1002A0000CF0100CBCF1000F03D091F802C04CEA26
:1002B000050591F800C0BCF1000F31D01468002092
:1002C0002BE04FF0010C0CFA00F3B1F800C00CEA7F
:1002D00003069E4220D183004FF00F0C0CFA03F767
:1002E000BC4305FA03FC4CEA040491F803C0BCF1DA
:1002F000280F06D14FF0010C0CFA00FCC2F814C014
:100300000AE091F803C0BCF1480F05D14FF0010C91
:100310000CFA00FCC2F810C0401C0828D1D31460AD
:10032000B1F800C0BCF1FF0F34DD546800202EE0AE
:1003300000F1080C4FF0010808FA0CF3B1F800C006
:100340000CEA03069E4221D183004FF00F0C0CFAF9
:1003500003F7BC4305FA03FC4CEA040491F803C01C
:10036000BCF1280F05D100F1080C08FA0CF8C2F80E
:10037000148091F803C0BCF1480F07D100F1080CBC
:100380004FF0010808FA0CF8C2F81080401C082849
:10039000CED35460BDE8F0810161704700BFFEE735
:1003A00070B505460E461446074901EBC501885D48
:1003B00000F048F803E0207800F055F8641C20783D
:1003C0000028F8DC70BD00001400002008B50121F1
:1003D000102000F05DF84FF40050ADF80000102040
:1003E0008DF8030003208DF8020069460448FFF7EA
:1003F00048FF4FF400510248FFF7CEFF08BD000050
:100400000010014010B5322000F0CCF9302000F08F
:1004100019F8012000F0C6F9302000F013F801208F
:1004200000F0C0F90C2000F00DF8012000F0BAF93E
:10043000012000F007F81E2000F0B4F9062000F0BB
:1004400001F810BD10B50446012000F0ABF9F8200A
:1004500000F030F804F0F00000F02CF82107080E4E
:1004600000F028F810BD10B50446012000F09AF9FC
:10047000FA2000F01FF804F0F00000F01BF821074C
:10048000080E00F017F810BD00BFFEE77047704778
:1004900029B1064A92690243044B9A6104E0034A77
:1004A00092698243014B9A6170470000001002403C
:1004B0007047000070B50546002418E005FA04F006
:1004C00000F0800018B101200A49086002E0002015
:1004D0000849086000200749091D0860052000F050
:1004E00087F901200449C1F8BC01601CC4B2082C82
:1004F000E4DB70BDB80122420000224210B500F0DA
:1005000001F810BD0CB50020019000903348006840
:1005100040F480303149086000BF3048006800F482
:10052000003000900198401C0190009818B9019883
:10053000B0F5A06FF1D12948006800F4003010B187
:100540000120009001E0002000900098012843D194
:100550002348006840F01000214908600846006800
:1005600020F0030008600846006840F002000860C0
:100570001A4840681949486008464068486008467B
:10058000406840F4806048600846406820F47C1071
:1005900048600846406840F4E81048600846006833
:1005A00040F08070086000BF0C48006800F00070E8
:1005B0000028F9D00948406820F003000749486046
:1005C0000846406840F00200486000BF03484068A9
:1005D00000F00C000828F9D10CBD0000001002400A
:1005E00000200240042808D14FF0E021096941F0C1
:1005F00004014FF0E022116107E04FF0E0210969AA
:1006000021F004014FF0E0221161704770470000B3
:1006100010B51348006840F0010011490860084611
:100620004068104908400E494860084600680E4975
:1006300008400B4908600846006820F480200860E4
:100640000846406820F4FE0048604FF41F008860B0
:10065000FFF754FF4FF000600449086010BD000030
:10066000001002400000FFF8FFFFF6FE08ED00E07A
:1006700010B540F225511D4800F03EF810B31B485C
:1006800000F064F8C4B21A48008800F40040C8B909
:100690001748008800F4804060B10A2C03D0002085
:1006A0001349088020E01248008840F400401049B7
:1006B000088019E00D2C06D10D48008840F48040D8
:1006C0000B49088010E00A480088C0F30D00094972
:1006D0000C5407480088401C0549088008460088DB
:1006E000C72801DD0020088010BD0000003801404F
:1006F0003C0000204000002070B50246002400238A
:100700000025002040F66A16B14200D100BFC1F3B7
:10071000421501F01F03012606FA03F3012D02D151
:100720009689334006E0022D02D1168A334001E05B
:10073000968A33400C12012606FA04F416883440D7
:1007400013B10CB1012000E0002070BD0146888883
:10075000C0F30800704700BFFEE700BF704700000D
:1007600010B56FF00400FFF73DFF0A4800680A4922
:10077000B0FBF1F0094908700846007800EB400131
:10078000C1EBC0104FF6FF7101EAC00004490880B8
:1007900010BD00000000002000127A00340000208C
:1007A000360000200146114A12884A434FF0E023E8
:1007B0005A6100229A611A46126942F001021A61D6
:1007C00000BF4FF0E022106900F001021AB100F4FE
:1007D0008032002AF5D04FF0E022126922F00102A7
:1007E0004FF0E0231A6100229A6170473600002022
:1007F0000146114A12784A434FF0E0235A61002221
:100800009A611A46126942F001021A6100BF4FF064
:10081000E022106900F001021AB100F48032002ACF
:10082000F5D04FF0E022126922F001024FF0E023F0
:100830001A6100229A617047340000202DE9FE43BE
:100840000746884616461D4600200DF805002C4632
:100850000DE00A20B6FBF0F100FB11603030611EA4
:100860000DF801000A20B6FBF0F6601EC4B2002CA1
:10087000EFDC00240AE01DF80400302803D120201A
:100880000DF8040000E004E0601CC4B2681EA04241
:10089000F1DC00BF6A4641463846FFF781FDBDE8FE
:1008A000FE83000008B501211020FFF7F1FD4FF491
:1008B0004040ADF8000010208DF8030003208DF8B3
:1008C000020069460448FFF7DCFC01200349086088
:1008D0000349C1F8BC0108BD00100140B801224223
:1008E000000022420A24FFF73BFFFFF76FFDFFF7EE
:1008F000D9FFFFF787FD14E00223224600210846B6
:10090000FFF79CFF07A200210120FFF749FD09A284
:1009100000210220FFF744FD0AA200210320FFF777
:100920003FFDE9E7CDF2C0EFB3A4D5F7C8CBCEB415
:10093000BBB90000B5ABCAB9C1FAB3C7B7C9BDAB43
:10094000D4DA0000B2BBBDCCBAFAC2EDB6C8D2F55B
:10095000C9BD00007409000800000020400000002C
:100960006C010008B40900084000002028070000BE
:100970008801000800A24A040000000000000000F6
:100980000102030406070809808182838485868723
:10099000909192939495969788898A8B8C8D8E8F5F
:1009A00098999A9B9C9D9E9F00000000000000006B
:0409B0000000000043
:04000005080001CD21
:00000001FF
