:020000040800F2
:1000000090180020990100088715000817120008B1
:100010008515000829020008B51A00080000000034
:1000200000000000000000000000000001010008C6
:100030002B02000800000000450100081917000805
:10004000B3010008B3010008B3010008B3010008C0
:10005000B3010008B3010008B3010008B3010008B0
:10006000B3010008B3010008B3010008B3010008A0
:10007000B3010008B3010008B3010008B301000890
:10008000B3010008B3010008B3010008B301000880
:10009000B3010008B3010008B3010008B301000870
:1000A000B3010008A5170008B3010008B301000858
:1000B000B3010008B3010008B3010008B301000850
:1000C000B3010008B3010008B3010008B301000840
:1000D000B3010008A91A0008B3010008B301000821
:1000E000B3010008B3010008B3010008DFF80CD029
:1000F00000F088F800480047111C00089018002004
:10010000224B19680868B0E8F00F80F30988BFF344
:100110006F8F4FF0000080F311884EF00D0E704786
:100120000000000006480068006880F3088862B696
:1001300061B6BFF34F8FBFF36F8F00DF00BF00BF0B
:1001400008ED00E0EFF30980BFF36F8F0F4B1A68E3
:1001500020E9F00F106008B54FF0500080F31188CF
:10016000BFF34F8FBFF36F8F02F03AFB4FF00000E9
:1001700080F31188BDE8084019680868B0E8F00FFE
:1001800080F30988BFF36F8F704700BF50000020D5
:10019000EFF3058070470000064880470648004797
:1001A000FEE7FEE7FEE7FEE7FEE7FEE7FEE7FEE727
:1001B000FEE7FEE7A3170008ED00000840EA010390
:1001C0009B0703D009E008C9121F08C0042AFAD20D
:1001D00003E011F8013B00F8013B521EF9D27047D1
:1001E000D2B201E000F8012B491EFBD27047002279
:1001F000F6E710B513460A4604461946FFF7F0FF26
:10020000204610BD064C074D06E0E06840F00103B3
:1002100094E8070098471034AC42F6D3FFF76AFF22
:100220009C2D0008BC2D0008FEE7704772B6FEE763
:1002300010B590F821100022022905D00421816315
:1002400080F82020012010BD01680B6823F00E0308
:100250000B6001680B6823F001030B6090F84030DD
:10026000C46B012101FA03F3636080F8211080F868
:100270002020104610BD000010B590F82110002479
:10028000022903D00421816301243DE001680A684A
:1002900022F00E020A6001680A6822F001020A6078
:1002A0001A4A0168914201D1012121E0174A143212
:1002B000914201D110211BE0144A2832914201D110
:1002C000891515E0114A3C32914201D189140FE0A1
:1002D0000E4A5032914202D14FF4803108E00B4A6D
:1002E0006432914202D14FF4801101E04FF08071ED
:1002F000064A083A5160012180F82110002180F857
:100300002010416B01B18847204610BD0800024013
:100310002DE9F84FDFF8B8910024A9F1040B23462A
:100320000F2709F1040AABF1040EC9E00125A5402D
:100330002A40AA427DD1674ED1F804C0ACEB060832
:10034000B44532D014DCBCF1030F3AD009DCBCF167
:10035000000F2AD0BCF1010F1CD0BCF1020F31D12B
:100360001DE0BCF1110F17D0BCF1120F2AD119E01A
:10037000B8F5881F19D006DCB8F5803F15D0B8F560
:10038000801F1FD111E0B8F5001F0ED0B8F5041F73
:1003900018D10AE0CB6815E0CB681B1D12E0CB68D2
:1003A00008330FE0CB680C330CE08B682BB1012BCA
:1003B0004FF0080303D0456104E0042302E0056127
:1003C00000E00023FF2A01D8064601E000F1040600
:1003D0004FEA840501D9A5F12005D6F8008007FA77
:1003E00005FC28EA0C0803FA05F548EA0508C6F8F2
:1003F00000804D68ED0062D5374DAE6946F00106CC
:10040000AE61AD6924F0030605F001050095334D9A
:1004100006EB050CDCF80850A607360F07FA06F8BD
:1004200025EA0805DFF8B880404503D14FF0000801
:1004300017E044E0DFF8AC80404502D14FF00108FE
:100440000FE0DFF8A480404502D14FF0020808E039
:10045000DFF89880404502D14FF0030801E04FF0EB
:10046000040808FA06F848EA0508CCF808804D6840
:10047000D9F80060ED024D4601D5164300E09643E1
:100480002E604D68DAF80060AD02554601D516437E
:1004900000E096432E604D68DBF80060AD035D46DA
:1004A00001D5164300E096432E604D68DEF80060EB
:1004B000ED03754601D5164300E096432E60641C9B
:1004C0000D682A46E5407FF431AFBDE8F88F0000A3
:1004D000080401400000111000100240000001401B
:1004E00000080140000C01400010014000140140D0
:1004F0008068084000D001207047C26821EA0203EA
:100500000A4043EA0241016170470AB10161704744
:100510000904FBE7014880687047000040000020A4
:1005200002488168027811448160704740000020D1
:10053000074810B5016841F010010160032000F088
:10054000A1F80F2000F006F800F04AF8002010BDD6
:100550000020024030B505461C4887B0816941F44F
:1005600000618161806906A900F40060009001A823
:1005700000F030F900F05EF91549164AB0FBF1F1D0
:100580001548491E0260416040F2E7320021C0E98F
:1005900003218160816100F015FB040012D10E4837
:1005A00000F03EFB04000DD1192000F03DF8102DA5
:1005B00007D200222946192000F044F807480560B8
:1005C00000E0012407B0204630BD000000100240CA
:1005D00040420F00002C014054070020440000203E
:1005E0000F4808B5816941F001018161816901F01D
:1005F00001010091C16941F08051C161C0690022CF
:1006000000F0805000900F21901E00F01BF805486C
:10061000416821F0E06141F00071416008BD0000D7
:100620000010024000000140002809DB00F01F021A
:10063000012191404009800000F1E020C0F8001144
:1006400070470000F0B40E4B1B680C46C3F3022346
:10065000C3F10705042D00D90425191D072901D26E
:10066000002300E0DB1E012606FA05F1491E2140A9
:1006700099409E40761E16403143F0BC01F024BAEA
:100680000CED00E0064900F0070208684FF6FF0392
:10069000184040EA0220034A1043086070470000F7
:1006A0000CED00E00000FA052DE9F0470F460500CB
:1006B00061D0434E306800F00700B84209D230687C
:1006C00020F0070038433060306800F00700B8427F
:1006D00051D128683B4C810712D5400703D560688B
:1006E00040F4E06060602878000703D5606840F45B
:1006F000605060606068A96820F0F00008436060A6
:100700002878C00728D06868012810D021680228FE
:1007100010D0890700292EDA616821F00301014316
:100720006160FFF7F7FE804641F288390DE02168ED
:100730008903EFE78901EDE7FFF7ECFEA0EB080185
:10074000494502D90320BDE8F0876068696800F078
:100750000C00B0EB810FEFD1306800F00700B84219
:100760000BD9306820F0070038433060306800F063
:100770000700B84201D00120E5E72878400705D5F9
:100780006068E96820F4E06008436060287800074A
:1007900006D56068296920F4605040EAC1006060B5
:1007A00000F058F86168084AC1F30311515CC84071
:1007B0000649086006480068FFF7CCFE0020C2E743
:1007C00000200240001002405A2D00084C0000207A
:1007D000440000200F2202600C4A536803F0030318
:1007E0004360536803F0F0038360536803F4E063ED
:1007F000C36052684FF4E06303EAD2020261044826
:10080000006800F007000860704700000010024018
:10081000002002400448054900684968044AC1F3C1
:100820000221515CC84070474C000020001002407B
:100830006A2D00080448054900684968044AC1F364
:10084000C221515CC84070474C000020001002409B
:100850006A2D00080E4A51680E4801F00C03042B63
:1008600011D0082B0FD10C48C1F38343C903C05CDE
:100870000AD55168084AC1F34041921E515C054AAD
:100880005043B0FBF1F07047044948437047000003
:100890000010024000127A004A2D000800093D00B5
:1008A0002DE9F84F040070D02078C04DC00749D022
:1008B0006868C0F38100012807D06868C0F3810030
:1008C000022809D16868C00306D52868800339D595
:1008D00060680028E7D035E06068B0F5803F0BD055
:1008E00010B1B0F5A02F11D0286820F48030286016
:1008F000286820F4802002E0286840F480302860D6
:10090000606890B1FFF706FE06460AE0286840F4EA
:1009100080202860F0E700BFFFF7FCFD801B642803
:1009200073D828688003F7D50CE0FFF7F3FD06467F
:1009300005E000BFFFF7EEFD801B6428F0D82868B3
:100940008003F7D420789A4E80074FF001094FF0CA
:10095000000839D5686810F00C0F07D06868C0F33C
:100960008100022809D16868C00306D4286880077E
:1009700014D52069012808D110E02069B0B1C6F86B
:100980000090FFF7C7FD074605E00AE1FFF7C2FD4B
:10099000C01B0228C4D828688007F7D52868616979
:1009A00020F0F80040EAC10028600DE0C6F80080A1
:1009B000FFF7B0FD074604E0FFF7ACFDC01B0228BF
:1009C00023D828688007F7D4207800072CD57948E9
:1009D000A169D9B1C0F80090FFF79CFD074604E07B
:1009E000FFF798FDC01B02280FD8686A8007F7D56B
:1009F00071484FF4FA510068B0FBF1F0009000BF6D
:100A00000098411E0091FAD20EE080E0C0F800800C
:100A1000FFF780FD074604E0FFF77CFDC01B0228BE
:100A200075D8686A8007F7D42078400760D5E869F0
:100A30000027C00008D4E86940F08050E861E86908
:100A4000012700F0805000905C480168C90513D46C
:100A50000168834641F480710160FFF75BFD8246C7
:100A600006E000BFFFF756FDA0EB0A0064284ED851
:100A7000DBF80000C005F5D5E06801280AD008B110
:100A8000052813D0286A20F001002862286A20F087
:100A9000040002E0286A40F001002862E06841F2A8
:100AA000883B98B1FFF736FD82460BE0286A40F09C
:100AB00004002862EEE700BFFFF72CFDA0EB0A015F
:100AC00059455AD8286A8007F6D50CE0FFF722FD71
:100AD000824605E0FFF71EFDA0EB0A0159454CD800
:100AE000286A8007F6D41FB1E86920F08050E861D9
:100AF000E06988B36968C1F38101022944D0022802
:100B0000C6F8608004D0FFF705FD044638E034E005
:100B1000FFF700FD074604E0FFF7FCFCC01B0228BE
:100B20002BD828688001F7D4206AB0F5803F05D122
:100B30006868A16820F4003008436860D4E90801BF
:100B40000843696821F4741108436860C6F860902E
:100B5000FFF7E0FC044606E025E000BFFFF7DAFC03
:100B6000001B022809D828688001F7D51BE000BFC8
:100B7000FFF7D0FC001B022802D90320BDE8F88F44
:100B800028688001F4D40EE00128F7D06868226A52
:100B900000F48031914204D1616A00F470108842FF
:100BA00001D00120EAE70020E8E700000010024041
:100BB00000004242800442424C000020007000408D
:100BC0007047704710B5040003D094F83D0010B191
:100BD00007E0012010BD002084F83C00204600F012
:100BE0001EF8022084F83D00211D206800F0E0FD81
:100BF000012084F8460084F83E0084F83F0084F821
:100C0000400084F8410084F8420084F8430084F8EE
:100C1000440084F8450084F83D00002010BD704772
:100C200090F83D10012901D001207047022180F881
:100C30003D100168CA6842F00102CA6000680B49B1
:100C4000884208D0B0F1804F05D00949884202D0CF
:100C50000849884204D1816801F00701062903D0C0
:100C6000016841F00101016000207047002C014043
:100C7000000400400008004070472DE9F0410446A0
:100C80000068C66805694FF00007A90713D5B107CA
:100C900011D5F91E01610120207720688069800745
:100CA000204602D0FFF7E8FF04E000F07EF820467F
:100CB00000F07CF82777680716D5700714D52168EF
:100CC0006FF004000861022020772068806910F42A
:100CD000407F204602D0FFF7CFFF04E000F065F828
:100CE000204600F063F82777280715D5300713D57D
:100CF00021686FF008000861042020772068C0692F
:100D00008007204602D0FFF7B7FF04E000F04DF85F
:100D1000204600F04BF82777E80616D5F00614D5E4
:100D200021686FF010000861082020772068C069F2
:100D300010F4407F204602D0FFF79EFF04E000F051
:100D400034F8204600F032F82777E80708D0F0079B
:100D500006D021686FF001000861204600F028F8F5
:100D6000280608D5300606D521686FF08000086196
:100D70002046FFF725FF680608D5700606D52168CE
:100D80006FF040000861204600F01CF8A8060AD564
:100D9000B00608D521686FF0200008612046BDE844
:100DA000F041FFF70EBFBDE8F081704770470000CB
:100DB00000680349884201D1FFF7B2BB70470000C9
:100DC000002C01407047704770470000F8B501687B
:100DD00004460868CA684B6910F00F0F4FF0000511
:100DE00059D003F0010602F49077374365D0C1076C
:100DF00005D0D10503D5616C41F001016164410763
:100E000005D5D90703D0616C41F002016164810707
:100E100005D5D90703D0616C41F004016164010775
:100E200007D502F02001314303D0616C41F0080185
:100E30006164616C00293AD0800604D5900602D521
:100E4000204600F020FD20684069616CC0F38010EE
:100E5000090700D460B3204600F0EEFC206840692A
:100E6000400621D52068143050E8001F21F04001D1
:100E700040E80012002AF5D1E06BA8B16D4941634A
:100E8000E06BFFF7F9F9002811D0E06B416B01B07E
:100E9000BDE8F040084783060FD593060DD52046E0
:100EA000BDE8F84000F0EFBC2046FFF78DFFF8BD2D
:100EB0002046FFF789FF6564F8BD266B2023012ECD
:100EC0007CD1C6067AD5D60678D5086848680090E1
:100ED00048694FF00206400640D5E16B086840685B
:100EE0000004000CE8D0A28D8242E5D9E085886933
:100EF00020282DD020680C3050E8001F21F480718C
:100F000040E80012002AF5D12068143050E8001F94
:100F100021F0010140E80012002AF5D120681430C8
:100F200050E8001F21F0400140E80012002AF5D1EE
:100F300084F84230256320680C3050E8001F21F00F
:100F4000100140E80012002AF5D1E06BFFF770F9BC
:100F50006663A08DE18D401A81B22AE0A08DE18DFB
:100F6000401A81B2E08D0028A6D00029A4D02268C2
:100F70000C3252E8000F20F4907042E80007002F76
:100F8000F5D12068143050E8002F22F0010240E82B
:100F90000027002FF5D184F84230256320680C30FB
:100FA00050E8002F22F0100240E80023002BF5D17A
:100FB00066632046FFF707FFF8BDFFE705062BD560
:100FC000150629D594F841002128F5D1A068B0F57F
:100FD000805F01D12069B0B1206A411C2162216883
:100FE00000784860E08C401E0004000CE084E3D1EF
:100FF0002068C16821F08001C1602068C16841F0AB
:101000004001C160D8E7206A0088C0F3080048604A
:10101000206A801C2062E5E74006CDD55006CBD57E
:10102000CA68204622F04002CA6084F8413000F0CD
:10103000F1F8C1E72918000870B5040004D094F84D
:101040004100002510B106E0012070BD84F8405039
:10105000204600F023F8242084F841002068C1686D
:1010600021F40051C160204600F06EFC2068016947
:1010700021F4904101612068416921F02A01416118
:101080002068C16841F40051C1606564202084F883
:10109000410084F842006563002070BD30B585B022
:1010A0000024009401940294039400681849884233
:1010B0002CD11848816941F480418161816901F432
:1010C00080410491816941F0040181618069124D80
:1010D00000F0040004904FF4007000900220019092
:1010E0000320039069462846FFF712F92815CDE939
:1010F0000004694628460294FFF70AF900220521F8
:101100002520FFF79FFA2520FFF78EFA05B030BDA6
:1011100000380140001002400008014090F84230C1
:10112000202B01D00220704721B11AB100230363A4
:1011300000F066BC012070470A480188B1F5806F55
:101140000BD2094A1378094A5354491C89B20180C9
:101150000A2B02D100235354038001220249044880
:10116000FFF7DCBF22000020380000200C03002025
:101170000C0700202DE9F843044690F841009846FA
:1011800016460D46202802D00220BDE8F88385B11E
:101190007EB100206064212084F84100FFF7BAF995
:1011A000A6848146E684A0682027B0F5805F02D03F
:1011B00003E00120E9E7206910B12E4600250EE08A
:1011C00000260CE08021204600F035FCA8B9C6B10D
:1011D00016F8010B21684860E08C401EE084E08C2A
:1011E0004B464FF00002CDF800800028EAD14FF0C6
:1011F0004001204600F01FFC40B184F841700320FC
:10120000C3E735F8020BC0F30800E3E784F8417048
:101210000020BAE77047FEE72DE9F0413B4C00267D
:1012200001212046FFF764F9E51490B9142000F07D
:10123000CDFC04E029462046FFF75AF978B1012198
:101240002046FFF755F90028F4D0142000F0BEFC2A
:10125000412602212046FFF74BF968B119E0012130
:101260002046FFF745F90028F9D029462046FFF728
:101270003FF90028F9D047E0142000F0A7FC022134
:101280002046FFF735F90028F9D0142000F09EFC25
:1012900042264FF4806739462046FFF729F960B9A6
:1012A000142000F093FC39462046FFF721F900286E
:1012B000F9D0142000F08AFC432629462046FFF787
:1012C00017F990B9142000F081FC04E001212046B8
:1012D000FFF70EF960B129462046FFF709F900280B
:1012E000F4D0142000F072FC44263046BDE8F081B2
:1012F00029462046FFF7FCF80028F9D001212046B6
:10130000FFF7F6F80028F9D04520EFE7000C014080
:1013100010B5012000F04FF8BDE81040022000F0A9
:1013200055BC000010B51446074A02EBC000405CF3
:1013300000F041F803E000BF00F04FF8641C207893
:101340000028F9D110BD000000000020074D4FF427
:1013500000544FF4FA7621462846FFF7CEF804A051
:1013600000F0AAFB304600F01EFDF4E7001001403B
:101370006161610010B5322000F028FC302000F0DF
:101380001AF8012000F022FC302000F014F80120AF
:1013900000F01CFC0C2000F00EF8012000F016FC00
:1013A000012000F008F81E2000F010FCBDE81040FD
:1013B0000620AFF3008010B50446012000F006FCC3
:1013C000F82000F07BF904F0F00000F077F9200736
:1013D000BDE81040000E00F071B910B504460120C0
:1013E00000F0F4FBFA2000F069F904F0F00000F0DE
:1013F00065F92007BDE81040000E00F05FB900005D
:1014000010B51D4BA0B01CAC0FCB84E80F00002121
:101410001CA800F0D4FC194C17491C222061103183
:101420006846FEF7CBFE0021684600F0DBFC12495F
:1014300020601C222C3107A8FEF7C0FE002107A85F
:1014400000F0D0FC0C4960601C2248310EA8FEF769
:10145000B5FE00210EA800F0C5FC0749A0601C22C3
:10146000643115A8FEF7AAFE002115A800F0BAFC09
:10147000E06020B010BD0000C82C0008240000204F
:10148000F0B585B000242D48009401940294039493
:10149000816941F010018161816901F010010491BD
:1014A000816941F020018161816901F0200104918D
:1014B000816941F004018161816901F004010491B5
:1014C000816941F00801816180691D4E00F00800CA
:1014D000049001224FF460413046FFF716F8194F8F
:1014E0000022F3213846FFF710F870140125CDE9EA
:1014F00000050320CDE9024069463046FEF708FFAB
:101500004FF44040CDE9000569463046CDE902453B
:10151000FEF7FEFEF320CDE900050220CDE90240F2
:1015200069463846FEF7F4FE40F603408DE8310088
:1015300069460548FEF7ECFE05B0F0BD001002401C
:101540000010014000080140000C01400C4810B59B
:101550000A4901604FF4E1314160002181600C22B1
:10156000C160C0E904128161C161FFF765FD002817
:1015700003D0BDE81040FEF759BE10BD0038014051
:101580000C070020FEE7FEE700F00EFBFFF7F2FE7F
:1015900000210EA20846FFF7C5FE4FF4FA750AE0D7
:1015A000601DC1B20CA20020FFF7BCFE284600F06F
:1015B0000DFB641CE4B2032CF2D3FFF7A9FE00BFBD
:1015C00000F03AFB012000F001FBF9E7CFB5CDB305
:1015D000C6F4B6AFD6D000002E000000344F354E12
:1015E000354D0024307801281DD1012211462846AE
:1015F000FEF78BFF012202212846FEF786FF00221C
:1016000010212846FEF781FF002220212846FEF700
:101610007CFF002240212846FEF777FF0022802130
:101620002846FEF772FF307802281CD1641CA4B251
:10163000B4F5FA6F08D138780024401CC0B2387075
:10164000032801D100203870002201212846FEF72E
:101650005CFF002202212846FEF757FF00221021DE
:101660002846FEF752FF307803281DD100220121C1
:101670002846FEF74AFF002202212846FEF745FFD2
:10168000012210212846FEF740FF00222021284693
:10169000FEF73BFF002240212846FEF736FF0022DE
:1016A00080212846FEF731FF012000F07CFB99E7FE
:1016B0002100002020000020000801402DE9F04119
:1016C000124F054600244FF480484FF4004600BFF7
:1016D00005FA04F0000601D5012200E0002241468F
:1016E0003846FEF712FF002231463846FEF70DFF5E
:1016F000052000F06DFA012231463846FEF705FF5D
:10170000641CE4B2082CE3D3BDE8F0810010014072
:10171000012000F05BFAFBE710B5502080F3118840
:10172000BFF34F8FBFF36F8F01F0CCF918B10449AD
:101730004FF080500860002080F3118810BD000039
:1017400004ED00E030B58FB028216846FEF74FFD6C
:1017500014210AA8FEF74BFD01210804CDE9001071
:101760000024029402250491CDE907504FF4E010C3
:1017700009906846FFF794F808B172B6FEE70F20AB
:10178000CDE90A054FF48060CDE90C4002210AA89A
:101790000E94FEF789FF002801D072B6FEE70FB065
:1017A00030BD70470148FFF768BA000054070020B9
:1017B000F0B50268194B1A4C1A4D4FF08047984209
:1017C00005D0B84203D0A04201D0A84203D122F0F4
:1017D00070064A683243984205D0B84203D0A0420E
:1017E00001D0A84203D122F44074CA6822434C6954
:1017F00022F08002224302608A68C2620A68826222
:10180000984201D109690163012141610169C90758
:1018100003D0016921F001010161F0BD002C0140FC
:10182000000400400008004010B5406A0021C18556
:10183000C184FFF7C9FA10BD01680C3151E8002FCF
:1018400022F4907241E80023002BF5D10168143195
:1018500051E8002F22F0010241E80023002BF5D1CE
:10186000016B012909D101680C3151E8002F22F0E8
:10187000100241E80023002BF5D1202180F842100E
:1018800000210163704708B590F84210222901D069
:10189000022008BD82684FF480539A4201D1016949
:1018A00021B1816A9A421BD04AB10AE00268816A7A
:1018B0005268C2F308020A80816A891C08E0026942
:1018C00072B10268526802F07F020A70816A491C94
:1018D0008162C18D491E0904090CC18503D01BE03A
:1018E00002685268F1E70168CA6822F02002CA6003
:1018F0000168CA6822F48072CA6001684A6922F0ED
:1019000001024A61202180F8421000214163026BEC
:10191000012A03D0FFF710FC002008BD0163016815
:101920000C3151E8002F22F0100241E80023002B77
:10193000F5D101680A68D20602D50A6849680091A3
:10194000818DFFF740FAE7E770B50446006801694A
:10195000E26821F44051114301612169A068084304
:10196000616908432168CA6841F20C639A430243E3
:10197000CA6020684169A26921F440711143416144
:101980001E492068884202D1FEF754FF01E0FEF7AD
:1019900041FF00EBC00101EB001260686421800090
:1019A000B2FBF0F3B3FBF1F36FF018067343B2FB35
:1019B000F0F5B2FBF0F605EB8305322303EB0515DA
:1019C000B5FBF1F5B6FBF1F605F0F00505EB0615F4
:1019D000B2FBF0F6B2FBF0F0B0FBF1F06FF01802E2
:1019E000504306EB800003EB0010B0FBF1F02168E0
:1019F00000F00F002844886070BD000000380140EE
:101A000081628285C28500214164222180F84210D2
:101A1000016921B10168CA6842F48072CA60016834
:101A20004A6942F001024A610068C16841F0200140
:101A3000C160002070472DE9F843984617460D46CF
:101A40000446089E24E0701C22D0FEF763FDA0EB44
:101A50000800B0421AD8CEB12068C168490717D52E
:101A6000802D15D0402D13D00168C94309070FD42C
:101A700001680025406800902046FFF7DDFE082041
:101A8000606484F840500120BDE8F8830320FBE740
:101A90002068006835EA000004D00020B842D2D0A7
:101AA0000020F1E70120F9E70148FFF78FB90000B6
:101AB0000C070020FEE70000014A024900F023B8AD
:101AC000F91B00083C0000200907090E002804DB70
:101AD00000F1E02080F80014704700F00F0000F1E2
:101AE000E02080F8141D704702E008C8121F08C1EA
:101AF000002AFAD170477047002001E001C1121F8F
:101B0000002AFBD170472DE9F04116460F460446E6
:101B1000002503E03946B047641C6D1C207800287E
:101B2000F8D12846BDE8F08110B500210AA2084688
:101B3000FFF7F8FB0DA200210120FFF7F3FB10A235
:101B400000210220FFF7EEFB0021BDE8104011A2AA
:101B50000320FFF7E7BB0000CDACBCB6B1A8BEAF19
:101B6000202020202020202000000000D4CAD0ED1A
:101B7000CDACBCB62020202020202020000000007A
:101B8000CBF8B6A8B7BDCFF24E532020202020209E
:101B900000000000CBF8B6A8B7BDCFF2534E20200E
:101BA00020202020000000000648016841F08071DC
:101BB0000160054800214160016841F001010160B8
:101BC00070470000FCED00E0001000E000F0EBB812
:101BD000064A10B553680649064C0968B1FBF4F192
:101BE00041435068C01A8842FBD310BD001000E08A
:101BF0004C00002040420F0013B501231A466946ED
:101C00000248FFF7B7FA00981CBD00000C0700203F
:101C1000FEF78EFCFFF796FDFFF732FCFFF796FC10
:101C2000FFF7EEFB00F0C6F8FEE70146002084292E
:101C300000D0C81C70470000DFF8DC80002440465C
:101C400000F036FC354D364E364F00BFFFF7E4FA54
:101C5000422804D0432807D0452809D00BE0641C53
:101C6000022C08DD002406E0641E04D5022402E0F4
:101C7000E0B200F05BF824B1012C08D0022C42D075
:101C800045E001203870404600F012FC3FE00220A1
:101C90003870287870B9012220213046FEF735FCD3
:101CA000002240213046FEF730FC002280213046E1
:101CB000FEF72BFC287801280ED100222021304687
:101CC000FEF723FC012240213046FEF71EFC0022D5
:101CD00080213046FEF719FC287802280ED1002218
:101CE00020213046FEF711FC002240213046FEF74D
:101CF0000CFC012280213046FEF707FC53210A48E4
:101D000000F0CCFA03E00320387000F019FB01204A
:101D1000FFF75CFF9AE70000000040402100002030
:101D200000080140200000203333134010B5012487
:101D3000FFF772FA412806D0422806D0432809D07E
:101D400044280CD00EE0002010BD641C032C09DDDB
:101D5000002407E0641E012C04DA032402E0E0B250
:101D600000F008F8204600F02BFB0120FFF72EFFC3
:101D7000DEE7000010B501280CD00228FBD100BF1F
:101D8000FFF74AFA41280CD0FFF7CEFE0120FFF7FB
:101D90001DFFF5E7FFF740FA412802D000F0C8FB2D
:101DA000F8E7002010BD10B500B9012000F0B4FC28
:101DB000002010BD10B500F0D5FC002010BD38B5D6
:101DC000D0E9011204683AB1C3682BB10020009039
:101DD000204600F0A8FD38BD2046BDE8384000226E
:101DE00000F080BD7FB50D4604464169B0F908009A
:101DF00081B1A16971B1FFF718FFD4E905128DE82F
:101E00000700D4E900102B46226900F030FE039051
:101E100004B070BDFFF709FF03A9CDE90001208AD6
:101E20002B4682B2D4E9001000F0F4FD012801D065
:101E30000020EDE70398EBE72DE9F041184C0F4641
:101E40000546E6682068001D00F09EFB38B9206852
:101E500090F82C1001208840216981432161681C81
:101E600007D137B12168BDE8F0410E48091D00F0E7
:101E7000CFBB20683544B5424560216805D2A06BD0
:101E8000BDE8F041091D00F0ABBB606B091D00F01F
:101E9000A7FBA06A854200D2A562BDE8F0810000E0
:101EA00050000020780800202DE9F041054600F0A0
:101EB000BBFB2E4CA068401CA06020682C4F10B1CA
:101EC000606940B32DE02560A068012829D1002673
:101ED00006EB860007EB800000F074FB761C072EF3
:101EE000F6D323488C3000F06DFB2148A03000F081
:101EF00069FB1F48B43000F065FB1D48C83000F096
:101F000061FB1B48DC3000F05DFB19488C306063DE
:101F10001430A06305E02068E96AC06A884200D8EE
:101F20002560606A401C6062E96A0120226988407D
:101F30001043206101EB810007EB8000291D00F0B8
:101F400067FB00F091FB606900280CD02068E96A0B
:101F5000C06A884207D207494FF080500860BFF33B
:101F60004F8FBFF36F8FBDE8F0810000500000205D
:101F70009C07002004ED00E010B5044690F85100E5
:101F800058B101280CD002280FD0502080F31188BE
:101F9000BFF34F8FBFF36F8FFEE7206B00F078FB2E
:101FA0002046BDE8104000F073BB10BD10484FF450
:101FB0004061420706D0C01D0D4920F00700411ABC
:101FC000C1F540610B4A00230144C2E9000308390E
:101FD000183A21F0070111604B600B600B1AC0E941
:101FE000001393604FF00040536050617047000051
:101FF0008C080020A4000020144E154CA6F1C80740
:102000004FF08058DFF84C9012E000BF00F00CFB5E
:10201000F068C568281D00F0B7FAA068401EA060EF
:102020006068401E606000F01FFB2846FFF7A4FFB9
:1020300060680028EAD138680128F9D9C9F8008019
:10204000BFF34F8FBFF36F8FF2E7000064080020EB
:102050005000002004ED00E00346009829B1026022
:10206000C0E90F31012100F091BC0060F8E72DE9D3
:10207000F0479A46DDE9098481466FF00303206B3F
:1020800003EB82021044089E20F00707780707D070
:10209000502080F31188BFF34F8FBFF36F8FFEE79F
:1020A000002561B1002023180A5C83F834200A5C03
:1020B00012B1401C1028F6D384F8435001E084F894
:1020C0003450072E00D30626E662C4E91165201DB0
:1020D00000F083FA04F1180000F07FFA2461C6F1E1
:1020E00007006462A061E56484F850505246494696
:1020F000384600F0C1F82060B8F1000F01D0C8F8F0
:102100000040BDE8F087000030B5114900E01146FD
:102110000A688242FBD34B685C18844203D1406852
:1021200018444860084643681C18944209D1084C7A
:10213000183C2468A24209D052681A4442600A68D6
:1021400012680260814200D0086030BD0460F9E787
:10215000A40000200648416B096829B1416BC96899
:10216000C9684968816270474FF0FF31FAE70000A3
:102170005000002008484068401C4FF0500080F399
:10218000118804D0BFF34F8FBFF36F8FFEE7BFF30B
:102190004F8FBFF36F8FFEE7AC0000202DE9F041B9
:1021A0000546002700F014FB324E306808B9FFF7EF
:1021B000FDFE706905424ED1C5B3083568070ED0E3
:1021C00005F00700C0F108000544680707D050205B
:1021D00080F31188BFF34F8FBFF36F8FFEE72DB3EE
:1021E0007068854237D82348183001460C6801E0F2
:1021F00020460C466168A94202D221680029F7D125
:1022000031688C4227D00768216801606068083710
:10221000411B10290FD96019420708D0502080F3C4
:102220001188BFF34F8FBFF36F8FFEE713E041605C
:102230006560FFF769FF61687068401A7060B26896
:10224000904200D2B060706901430020C4E90001EF
:10225000F068401CF06000F0D5FC780707D05020F3
:1022600080F31188BFF34F8FBFF36F8FFEE73846BF
:10227000BDE8F0818C00002010B5031F4FF0807482
:102280001C601B1F21F001011960191F024B0B601C
:10229000143940380A6010BD7521000810B50C468D
:1022A00000210EA20846FFF73DF811A200210120EF
:1022B000FFF738F84E2C02D0532C02D006E011A2C2
:1022C00000E015A200210220FFF72CF80021BDE854
:1022D000104016A20320FFF725B80000B5B1C7B023
:1022E000C4A3CABDA3BAB4C5B3A120200000000096
:1022F000B8DFCBB9D6B5A3BA2020202020202020DB
:1023000000000000B4C5B3A1BCABD0D4A3BA4E202A
:102310002020202000000000B4C5B3A1BCABD0D465
:10232000A3BA5320202020200000000020202020DD
:10233000202020202020202020202020000000001D
:1023400010B500210AA20846FEF7ECFF0DA20021FD
:102350000120FEF7E7FF10A200210220FEF7E2FFB6
:102360000021BDE8104011A20320FEF7DBBF0000F2
:10237000B5B1C7B0C4A3CABDA3BABEF8D4B52020B6
:1023800000000000B2E2C1BFC4DAC8DDA3BAB5E7FD
:10239000BCABA1A200000000202020202020CFDF25
:1023A000C8A6A1A2BDD3B5D800000000B2E2C1BF4B
:1023B000CAB1BCE43A2020202020202000000000E8
:1023C00010B5012819D002281ED0032828D10021D9
:1023D00014A20846FEF7A6FF17A200210120FEF76F
:1023E000A1FF1AA200210220FEF79CFF0021BDE8F8
:1023F00010401BA20320FEF795BF00211DA2084636
:10240000FEF790FF0CA205E0002106A20846FEF7A9
:1024100089FF1DA200210120FEF784FF1FA2E1E732
:1024200010BD00002020CDA8B6CFB2E2CAD4C9E8C2
:10243000D6C32020000000002020B4C5B3A1B2E222
:10244000CAD4C9E8D6C32020000000002020BBD693
:10245000B8B4B3F6B3A7C9E8D6C33C200000000067
:10246000202020202020202020202020202020206C
:10247000000000002020CDA8B6CFB2E2CAD4C9E83F
:10248000D6C33C20000000002020B4C5B3A1B2E2B6
:10249000CAD4C9E8D6C33C20000000002020BBD627
:1024A000B8B4B3F6B3A7C9E8D6C320200000000033
:1024B00010B500210AA20846FEF734FF0DA2002144
:1024C0000120FEF72FFF10A200210220FEF72AFFB5
:1024D0000021BDE8104011A20320FEF723BF000039
:1024E000B5B1C7B0C4A3CABDA3BACDA8B6CF20208A
:1024F00000000000B5E7D7E8D6B5A3BA2020202019
:102500002020202000000000D7B4CCACA3BA2020AB
:10251000202020202020202000000000413A202000
:10252000423A2020BDD3B5D83A2020200000000038
:1025300010B500210AA20846FEF7F4FE08A2002109
:102540000120FEF7EFFE0BA200210220FEF7EAFEBB
:102550000021BDE8104007A20320FEF7E3BE000003
:10256000B1BBB2E2D7E8D6B5C9CFCFDEA3BA20203F
:1025700000000000202020202020202020202020DB
:102580002020202000000000D0E9013201699A607B
:10259000D0E901235A604A68824201D182684A60C8
:1025A000002202610868401E086008687047000049
:1025B000034B036003F154000860802010607047F3
:1025C000B800002000F108014FF0FF32C0E901120D
:1025D000C160016100210160704700210161704705
:1025E00030B50B685A1C02D000F1080202E0026903
:1025F00004E02246546825689D42FAD953684B602E
:1026000099608A60516008610168491C016030BDB1
:1026100042684A6093688B60936859609160086172
:102620000168491C01607047502080F31188BFF396
:102630004F8FBFF36F8F0A494868401C48600128DC
:102640000CD10848006810F0FF0F07D0502080F32D
:102650001188BFF34F8FBFF36F8FFEE77047000005
:10266000AC00002004ED00E00849486828B1401E95
:10267000486001D180F311887047502080F31188A1
:10268000BFF34F8FBFF36F8FFEE70000AC00002059
:1026900070B500282AD0164DA0F108046068696959
:1026A000084207D1502080F31188BFF34F8FBFF34A
:1026B0006F8FFEE722683AB1502080F31188BFF394
:1026C0004F8FBFF36F8FFEE78843606000F080F8A4
:1026D00060686968084468602046FFF715FD28694E
:1026E000401C2861BDE8704000F08CBA70BD00004D
:1026F0008C0000204FF0E02000210161816105493C
:102700004FF47A720968B1FBF2F1491E4161072169
:10271000016170474C00002010B5020014D00F4832
:10272000006B38B1502080F31188BFF34F8FBFF397
:102730006F8FFEE700F04CF800211046FFF77CFB9E
:1027400000F060FA002807D105494FF0805008607A
:10275000BFF34F8FBFF36F8F10BD000050000020FC
:1027600004ED00E010B586B00024039405AA04A986
:1027700003A80494FFF71CFFDDE903010094CDE9F1
:10278000011000230EA11048059A00F070F90F49BE
:102790000028C86211D0502080F31188BFF34F8FFA
:1027A000BFF36F8F4FF0FF30886201204861CC602B
:1027B00006B0BDE8104000F041B806B010BD000002
:1027C00049444C4500000000F91F0008500000205B
:1027D0000248016B491C0163704700005000002053
:1027E0001448016B11B10121C16170470021C16121
:1027F0000169B1FA81F1C1F11F0101EB81020E49BA
:1028000051F822306BB101EB820101F108034A68F3
:1028100052684A609A4201D152684A60D1680160A8
:102820007047502080F31188BFF34F8FBFF36F8F35
:10283000FEE70000500000209C0700201CB5264940
:1028400008780190FF20087008788DF800009DF846
:1028500000009DF8002000F0F000904207D05020CA
:1028600080F31188BFF34F8FBFF36F8FFEE79DF8A2
:1028700000001A4C00F0500020700720A06005E016
:102880009DF8002052008DF80020401E9DF8002089
:102890001206F5D4A060032807D0502080F31188D9
:1028A000BFF34F8FBFF36F8FFEE74FF44070A06010
:1028B000019808700A48016841F4700101600168DC
:1028C00041F070410160FFF715FF00206060FDF7E7
:1028D00029FC00201CBD000000E400E0AC0000204A
:1028E00020ED00E0F8B517460E46050013D005FBB5
:1028F00006F04830FFF752FC04000AD0002084F8AC
:10290000460004F148023B46314628460094FFF752
:10291000A3FB2046F8BD502080F31188BFF34F8FF2
:10292000BFF36F8FFEE738B5049D18B153B1CAB13C
:1029300081B120E0502080F31188BFF34F8FBFF3A7
:102940006F8FFEE7502080F31188BFF34F8FBFF3E6
:102950006F8FFEE7502080F31188BFF34F8FBFF3D6
:102960006F8FFEE739B1502080F31188BFF34F8F8E
:10297000BFF36F8FFEE748241C46012384F84630DE
:102980002B460094FFF768FB204638BD70B50D4616
:10299000040025D0FFF748FED4E90F20216802FB90
:1029A0000011A1600021A163216861600A46D4E999
:1029B0000F01401E00FB0121E16021464FF0FF3076
:1029C00001F8440F487004F110008DB1FFF7FAFDD3
:1029D00004F12400FFF7F6FDFFF746FE012070BD6D
:1029E000502080F31188BFF34F8FBFF36F8FFEE746
:1029F00021690029F0D000F0CBF80028ECD0044980
:102A00004FF080500860BFF34F8FBFF36F8FE3E745
:102A100004ED00E02DE9FF5F8346DDE90E8799466E
:102A200016468A469000FFF7B9FB05001CD05420DB
:102A3000FFF7B4FB040014D00020256384F8510094
:102A4000CDE90240CDE900874B4632465146584613
:102A5000FFF70DFB2046FFF727FA012004B0BDE881
:102A6000F09F2846FFF714FE4FF0FF30F6E7F0B571
:102A700085B0DDE90B640A9DA6B1DCB1542700974F
:102A80002663022684F85160002604AFCDE9024691
:102A9000CDE90057FFF7EBFA2046FFF705FA049857
:102AA00005B0F0BD502080F31188BFF34F8FBFF306
:102AB0006F8FFEE7502080F31188BFF34F8FBFF375
:102AC0006F8FFEE72DE9F0412F4C0026206B28B1D7
:102AD000A069401CA0613046BDE8F081E5686D1C2E
:102AE000E56013D1606B006838B1502080F3118825
:102AF000BFF34F8FBFF36F8FFEE7606BA16B616316
:102B0000A063206A401C2062FFF724FBA06ADFF864
:102B10007C80854209D3606B0068A0B1606BC0689F
:102B2000C7687868854211D2A0622068C06A00EB4D
:102B3000800158F82100012800D90126E069002809
:102B4000C9D00126C7E74FF0FF30EDE7381DFFF78A
:102B50001BFDB86A18B107F11800FFF715FDF96AF7
:102B60000120226988401043206101EB810108EBBC
:102B70008100391DFFF74CFDF86A2168C96A884257
:102B8000C9D30126C7E70000500000209C070020A1
:102B90002DE9F041C068C468ACB104F118000746E3
:102BA000FFF7F2FC154D286B0126A0B139461448F9
:102BB000FFF72EFDE06A2968C96A88421CD9012006
:102BC000EE61BDE8F081502080F31188BFF34F8F94
:102BD000BFF36F8FFEE7201DFFF7D6FCE16A2A697D
:102BE00006FA01F01043286101EB81000449B43971
:102BF00001EB8000211DDBE70020E2E75000002010
:102C0000500800202DE9F0472C4D00242746286B62
:102C100038B1FFF709FD286B401E2863286B40B1CF
:102C200046E0502080F31188BFF34F8FBFF36F8FC2
:102C3000FEE7A968224E0120D1B3A6F1B40980466F
:102C40003068E8B1F068C46804F11800FFF79CFC34
:102C5000201DFFF799FCE06A2A6908FA00F1114388
:102C6000296100EB800109EB8100211DFFF7D0FCF9
:102C7000E06A2968C96A8842E2D3C5F81C80DFE7A8
:102C80000CB1FFF767FAAC6944B14646FFF71AFF8B
:102C900000B1EE61641EF9D10020A861E86938B185
:102CA0000849012738070860BFF34F8FBFF36F8FC4
:102CB000FFF7DAFC3846BDE8F0870000500000203E
:102CC0005008002004ED00E01000000002000000A9
:102CD0000000000000000000842D0008111700080B
:102CE0000000000000000000800000000000000064
:102CF00000000000782D0008DD150008FDFF000031
:102D00000000000080000000000000000000000043
:102D1000902D000889150008FDFF0000000000004C
:102D2000800000000000000000000000742D00087A
:102D30004D130008FDFF00000000000080000000AF
:102D40000000000000000000010202030405060765
:102D500008090A0B0C0D0E0F1010000000000000F7
:102D60000000010203040607080900000000010238
:102D7000030400004C45440052656C61795F546166
:102D8000736B000064656661756C745461736B00ED
:102D900070757368427574746F6E0000BC2D000806
:102DA00000000020B8000000E81A0008742E000897
:102DB000B8000020D8170000F81A0008808182832C
:102DC00084858687909192939495969788898A8B2B
:102DD0008C8D8E8F98999A9B9C9D9E9F00000000E1
:102DE00000000000000000000000000000000000E3
:102DF00000000000000000000000000001000000D2
:102E0000100000000000000000127A000000000026
:102E100000000000000000000000000000000000B2
:102E200000000000000000000000000000000000A2
:102E30000000000000000000000000000000000092
:102E40000000000000000000000000000000000082
:102E50000000000000000000000000000000000072
:102E6000000000000000000000000000AAAAAAAABA
:042E7000000000005E
:04000005080000ED02
:00000001FF
