:020000040800F2
:10000000C0050020010100088D17000865160008D2
:10001000891700086D010008311B0008000000006E
:10002000000000000000000000000000B9170008F8
:10003000AD010008000000008F170008BB17000882
:100040001B0100081B0100081B0100081B01000820
:100050001B0100081B0100081B0100081B01000810
:100060001B0100081B0100081B0100081B01000800
:10007000710100081B0100081B0100081B0100089A
:100080001B0100081B0100081B0100081B010008E0
:100090001B0100081B0100081B0100081B010008D0
:1000A0001B0100081B0100081B0100081B010008C0
:1000B0001B0100081B0100081B0100081B010008B0
:1000C0001B0100081B0100081B0100081B010008A0
:1000D0001B0100081B0100081B0100081B01000890
:1000E0001B0100081B0100081B010008DFF80CD0F1
:1000F00000F02AF8004800478B1B0008C0050020CC
:100100000648804706480047FEE7FEE7FEE7FEE7B1
:10011000FEE7FEE7FEE7FEE7FEE7FEE72918000838
:10012000ED000008D2B201E000F8012B491EFBD21D
:1001300070470022F6E710B513460A4604461946F2
:10014000FFF7F0FF204610BD064C074D06E0E068C3
:1001500040F0010394E8070098471034AC42F6D30E
:10016000FFF7C8FFCC1C0008EC1C000800BFFEE72E
:1001700010B5024800F074F810BD00007C010020AA
:1001800030B590F840500124AC40C56B6C600468F9
:1001900063604468102C04D10468A2600468E160C4
:1001A00003E00468A1600468E26030BD70477047F6
:1001B00070B50446002594F82100022803D00420DD
:1001C000A063012548E02068006820F00E00216847
:1001D00008602068006820F00100216808601F495D
:1001E0002068884201D1012026E01C491431206892
:1001F000884201D110201FE0184928312068884228
:1002000001D1801518E015493C312068884201D1A0
:10021000801411E0114950312068884202D14FF416
:10022000803009E00D4964312068884202D14FF4E2
:10023000801001E04FF080700849083948600120C3
:1002400084F8210000BF002084F8200000BF606B0C
:1002500010B12046616B8847284670BD08000240F7
:1002600070B50446E06B05682068066894F8401095
:10027000042088402840002846D006F004000028CA
:1002800042D02068006800F0200028B9206800688B
:1002900020F004002168086057492068884201D195
:1002A000042027E0544914312068884201D14020BD
:1002B00020E0514928312068884201D1001519E019
:1002C0004D493C312068884202D14FF4804011E012
:1002D000494950312068884202D14FF4802009E01A
:1002E000454964312068884202D14FF4800001E022
:1002F0004FF08060404908394860E06A00287AD0B1
:100300002046E16A884776E094F840100220884051
:100310002840A0B306F0020088B32068006800F00F
:10032000200040B92068006820F00A0021680860B9
:10033000012084F8210030492068884201D1022040
:1003400028E02D4914312068884201D1202021E085
:10035000294928312068884201D140151AE02649F0
:100360003C312068884202D14FF4005012E022490B
:1003700050312068884203D14FF400300AE017E082
:100380001D4964312068884202D14FF4001001E019
:100390004FF0007018490839486000BF002084F809
:1003A000200000BFA06A30B32046A16A884722E03F
:1003B00094F84010082088402840E0B106F008007A
:1003C000C8B12068006820F00E002168086094F829
:1003D000401001208840E16B48600120A06384F850
:1003E000210000BF002084F8200000BF206B10B166
:1003F0002046216B884770BD08000240014600225C
:1004000009B901207047164B0868C01A1423B0FBC5
:10041000F3F08000086412480838C863022081F8AD
:1004200021000868026843F6F0708243D1E90103B5
:100430001843CB6818430B6918434B6918438B6901
:100440001843CB69184302430868026000208863A0
:10045000012081F82100002081F8200000BFD1E7B1
:10046000080002402DE9F04104460D4616461F469D
:100470004FF0000800BF94F82000012802D10220AC
:10048000BDE8F081012084F8200000BF94F821002D
:1004900001282CD1022084F821000020A0632068CC
:1004A000006820F00100216808603B46324629467A
:1004B0002046FFF765FEE06A30B12068006840F032
:1004C0000E00216808600BE02068006820F004003E
:1004D000216808602068006840F00A002168086010
:1004E0002068006840F001002168086006E000BF55
:1004F000002084F8200000BF4FF002084046BFE70C
:1005000070B5044600F0A0F906462546681C10B1F7
:1005100004480078054400BF00F096F9801BA8420B
:10052000FAD370BD100000202DE9F84703460022E1
:1005300094466EE14FF0010808FA02F4D1F8008009
:1005400008EA0400A0427DD1DFF8DCA2D1F80480E3
:10055000A8EB0A09D0453AD014DCB8F1030F50D00B
:1005600009DCB8F1000F31D0B8F1010F1CD0B8F19F
:10057000020F49D120E0B8F1110F18D0B8F1120FD5
:1005800042D11EE0B9F5881F25D006DCB9F5803FC1
:1005900020D0B9F5801F37D11AE0B9F5001F18D067
:1005A000B9F5041F30D117E0D1F80CC02DE0D1F817
:1005B0000C8008F1040C28E0D1F80C8008F1080C3C
:1005C00023E0D1F80C8008F10C0C1EE000BF00BF46
:1005D00000BF00BF00BF00BFD1F80880B8F1000F16
:1005E00002D14FF0040C0BE0D1F80880B8F1010FF4
:1005F00003D14FF0080C1C6102E04FF0080C5C6165
:1006000003E04FF0000C00E000BF00BFFF2801D85E
:10061000984601E003F104084646FF2802D84FEA55
:10062000820803E0A2F108084FEA88084746D6F896
:1006300000804FF00F0909FA07F928EA09080CFAB7
:1006400007F900E088E048EA0908C6F80080D1F818
:10065000048008F08058B8F1805F7DD100BFDFF8DA
:10066000CC81D8F8188048F00108DFF8C091C9F8AB
:100670001880C846D8F8188008F00108CDF8008026
:1006800000BF00BF4FEAB9384FEA920958F8295025
:100690004FEA82784FEA18794FF00F0808FA09F804
:1006A00025EA0805DFF88881434502D14FF00008AC
:1006B00016E0DFF88081434502D14FF001080FE0DA
:1006C000DFF87481434502D14FF0020808E0DFF8FB
:1006D0006C81434502D14FF0030801E04FF004085C
:1006E0004FEA82794FEA197908FA09F848EA0505CC
:1006F000DFF84C814FEA920948F82950D1F804807C
:1007000008F48038B8F5803F0AD1DFF83881D8F88E
:10071000008048EA0008DFF82C91C9F8008009E061
:10072000DFF82081D8F8008028EA0008DFF814916B
:10073000C9F80080D1F8048008F40038B8F5003F0B
:1007400010D1DFF8008108F10408D8F8008048EAE9
:100750000008DFF8F09000E05AE009F10409C9F858
:1007600000800DE0DFF8DC8008F10408D8F8008094
:1007700028EA0008DFF8CC9009F10409C9F80080E4
:10078000D1F8048008F48018B8F5801F0ED1DFF886
:10079000B48008F10808D8F8008048EA0008DFF8BB
:1007A000A49009F10809C9F800800DE0DFF89480F1
:1007B00008F10808D8F8008028EA0008DFF88490DB
:1007C00009F10809C9F80080D1F8048008F400187C
:1007D000B8F5001F0ED1DFF86C8008F10C08D8F8CE
:1007E000008048EA0008DFF85C9009F10C09C9F8BC
:1007F00000800DE0DFF84C8008F10C08D8F800808C
:1008000028EA0008DFF83C9009F10C09C9F80080DB
:10081000521CD1F8008028FA02F8B8F1000F7FF4DA
:1008200089AEBDE8F88700000000111000100240FA
:1008300000080140000C014000100140001401407C
:1008400008000140000401400148006870470000B2
:10085000080000200348006803490978084401495A
:1008600008607047080000201000002010B50848FC
:10087000006840F0100006490860032000F0A8F866
:10088000002000F007F800F02BF8002010BD000059
:100890000020024070B504460E4800784FF47A718B
:1008A000B1FBF0F00C490968B1FBF0F5284600F007
:1008B000E5FB08B1012070BD102C07D200222146B3
:1008C000501E00F047F80548046001E00120F2E7FF
:1008D0000020F0E710000020140000200C00002091
:1008E00008B500BF1148806940F001000F498861D8
:1008F0000846806900F00100009000BF00BF00BF03
:100900000846C06940F08050C8610846C06900F0E0
:100910008050009000BF00BF00BF0549486820F02C
:10092000E06040F00070486000BF08BD0010024069
:100930000000014001460846002809DB00F01F03C3
:1009400001229A4043099B0003F1E023C3F80021F0
:1009500000BF70472DE9F05F80460D461646002720
:1009600001F0E8F8074639462A46334601F0070009
:10097000C0F1070ABAF1040F02D94FF0040A01E0EE
:10098000C0F1070AD14600F1040ABAF1070F02D2FA
:100990004FF0000A01E0A0F1030AD4464FF0010A2B
:1009A0000AFA09FAAAF1010A0AEA020A0AFA0CFA90
:1009B0004FF0010B0BFA0CFBABF1010B0BEA030B35
:1009C0004AEA0B042146404601F0BCF8BDE8F09F1E
:1009D00000BF00F00702064B19684FF6FF031940ED
:1009E000044B0B4343EA0221014B196000BF7047DF
:1009F0000CED00E00000FA0570B504460D460CB998
:100A0000012070BD5A48006800F00700A8420ED2CD
:100A10005748006820F007002843554908600846F9
:100A2000006800F00700A84201D00120E9E7207823
:100A300000F0020002281DD1207800F004000428F4
:100A400005D14C48406840F4E0604A49486020784D
:100A500000F00800082805D14648406840F460507E
:100A6000444948604348406820F0F000A1680843CA
:100A700040494860207800F0010078B360680128A0
:100A800006D13C48006800F4003090B90120B8E776
:100A90006068022806D13748006800F0007040B94D
:100AA0000120AEE73348006800F0020008B90120D9
:100AB000A7E73048406820F00300616808432D49EB
:100AC0004860FFF7C1FE064609E0FFF7BDFE801B48
:100AD00041F28831884202D9032092E707E0254895
:100AE000406800F00C006168B0EB810FEDD1204848
:100AF000006800F00700A8420ED91D48006820F0E9
:100B0000070028431A4908600846006800F00700FB
:100B1000A84201D0012074E7207800F004000428E6
:100B200007D11448406820F4E060E16808431149A7
:100B30004860207800F00800082808D10D48406877
:100B400020F46050216940EAC1000A49486000F081
:100B500019F808494968C1F30311074A515CC840B4
:100B60000649086006480068FFF794FE002048E741
:100B70000020024000100240B41C000814000020B5
:100B80000C000020F0B585B00FF26C0C9CE8E01072
:100B900001A8A0E8E0101CA52D6800950021002206
:100BA000002300240020194D696801F00C05F5B1FF
:100BB000042D02D0082D19D101E0154819E001AD2E
:100BC000C1F38346AC5D01F4803555B10F4D6D68BE
:100BD000C5F340451DF805200D4D6543B5FBF2F307
:100BE00002E00C4D04FB05F3184602E000BF084884
:100BF00000BF00BF05B0F0BD0203040506070809E9
:100C00000A0B0C0D0E0F1010010200000010024024
:100C100000127A0000093D00F8B504460CB9012025
:100C2000F8BD207800F00100002878D0F84840682E
:100C300000F00C0004280CD0F548406800F00C00CF
:100C4000082811D1F248406800F48030B0F5803FA8
:100C50000AD1EF48006800F4003000285FD06068D7
:100C600000285CD10120DBE700BF6068B0F5803F61
:100C700006D1E748006840F48030E549086028E084
:100C8000606858B9E248006820F48030E0490860A4
:100C90000846006820F4802008601AE06068B0F51B
:100CA000A02F0BD1DA48006840F48020D8490860B2
:100CB0000846006840F4803008600AE0D4480068C4
:100CC00020F48030D24908600846006820F4802073
:100CD000086000BF606888B1FFF7B6FD054606E012
:100CE000FFF7B2FD401B642801D9032098E7C848EC
:100CF000006800F400300028F2D010E0FFF7A4FDF7
:100D0000054606E0FFF7A0FD401B642801D903203B
:100D100086E7BF48006800F400300028F2D1207850
:100D200000F00200022857D1B948406800F00C00DA
:100D300050B1B748406800F00C00082818D1B448FA
:100D4000406800F4803098B9B148006800F00200B3
:100D500020B12069012801D0012061E7AC4800687A
:100D600020F0F800616940EAC100A949086033E059
:100D70002069E8B10120A7490860FFF765FD054635
:100D800006E0FFF761FD401B022801D9032047E779
:100D90009F48006800F002000028F2D09C480068DC
:100DA00020F0F800616940EAC1009949086013E049
:100DB000002098490860FFF747FD054606E0FFF769
:100DC00043FD401B022801D9032029E79048006811
:100DD00000F002000028F2D1207800F00800082876
:100DE0002DD1A069B8B101208B490860FFF72CFD17
:100DF000054606E0FFF728FD401B022801D9032025
:100E00000EE78348406A00F002000028F2D001207B
:100E100000F0BEFC13E000207F490860FFF714FDDE
:100E2000054606E0FFF710FD401B022801D903200C
:100E3000F6E67748406A00F002000028F2D12078F8
:100E400000F00400042873D100277148C06900F045
:100E5000805070B900BF6E48C06940F080506C4946
:100E6000C8610846C06900F08050009000BF00BF14
:100E700001276A48006800F48070B0B967480068CC
:100E800040F4807065490860FFF7DEFC054606E027
:100E9000FFF7DAFC401B642801D90320C0E65F4855
:100EA000006800F480700028F2D000BFE0680128DC
:100EB00006D15748006A40F001005549086227E012
:100EC000E06858B95248006A20F0010050490862B1
:100ED0000846006A20F00400086219E0E06805286E
:100EE0000BD14B48006A40F00400494908620846AB
:100EF000006A40F0010008620AE04548006A20F0FC
:100F00000100434908620846006A20F004000862B4
:100F100000BFE068A0B1FFF797FC054609E0FFF7C6
:100F200093FC401B41F28831884202D9032077E6C6
:100F300022E03748006A00F002000028EFD012E0FB
:100F4000FFF782FC054608E0FFF77EFC401B41F2FC
:100F50008831884201D9032062E62D48006A00F0FA
:100F600002000028F0D1012F05D12948C06920F0E6
:100F700080502749C86100BFE069C8B32448406871
:100F800000F00C00082860D0E069022848D1002059
:100F900020490866FFF758FC054606E0FFF754FCB9
:100FA000401B022801D903203AE61948006800F0E6
:100FB00000700028F2D1206AB0F5803F07D11448B4
:100FC000406820F40030A168084311494860D4E922
:100FD000080108430E49496821F4741108430C497B
:100FE000486001200B490866FFF72EFC054607E024
:100FF0003DE0FFF729FC401B022801D903200FE642
:101000000348006800F000700028F2D02FE00000D4
:101010000010024000004242800442420070004042
:10102000002014490866FFF70FFC054606E0FFF7AD
:101030000BFC401B022801D90320F1E50E48006893
:1010400000F000700028F2D111E0E069012800D121
:10105000E6E50948466806F48031206A814204D1F9
:1010600006F47011606A814201D00120D8E50020A9
:10107000D6E50000000042420010024070B5044670
:101080002546681EB0F1807F01D301200FE0681E65
:101090004FF0E02148610F214FF0FF3000F052FD8A
:1010A00000204FF0E021886107200861002070BD1A
:1010B00010B50346002200BF93F83C00012801D17F
:1010C000022010BD012083F83C0000BF22F0FF0089
:1010D000CC6840EA040222F440708C6840EA0402C2
:1010E00022F480604C6840EA040222F400600C683C
:1010F00040EA040222F480500C6940EA040222F41F
:1011000000504C6940EA040222F48040CC6940EA75
:1011100004021868426400BF002083F83C0000BF4E
:1011200000BFCEE710B5024600BF92F83C00012890
:1011300001D1022010BD012082F83C0000BF022036
:1011400082F83D00106843681068846823F07003DB
:101150000868034324F0800448680443106843602F
:1011600010688460012082F83D0000BF002082F8F2
:101170003C0000BF00BFDDE77047000010B586B03F
:101180000446002002900390049005900E492068C8
:10119000884216D100BF0D48806940F004000B4919
:1011A00088610846806900F00400019000BF00BF1C
:1011B0008815029002200390059002A90448FFF7C9
:1011C000B3F906B010BD0000002C01400010024031
:1011D0000008014070B504460D46164600BF94F85D
:1011E0003C00012801D1022070BD012084F83C00A0
:1011F00000BF022084F83D0036B1042E1BD0082E1B
:1012000031D00C2E5ED145E02946206800F0D4FB99
:101210002068806940F00800216888612068806942
:1012200020F00400216888612068806929690843EA
:101230002168886147E02946206800F0EDFB2068BE
:10124000806940F40060216888612068806920F42A
:1012500080602168886120688069296940EA0120EE
:10126000216888612FE02946206800F009FC206889
:10127000C06940F008002168C8612068C06920F09A
:1012800004002168C8612068C06929690843216891
:10129000C86118E02946206800F026FC2068C06973
:1012A00040F400602168C8612068C06920F4806053
:1012B0002168C8612068C069296940EA0120216865
:1012C000C86100E000BF00BF012084F83D0000BFFE
:1012D000002084F83C0000BF00BF85E710B504463D
:1012E0000CB9012010BD94F83D0028B9002084F805
:1012F0003C00204600F00CF8022084F83D00211D3F
:10130000206800F0BDFA012084F83D000020E9E7E4
:1013100038B504461749206888422AD100BF1648CC
:10132000806940F40060144988610846806900F4CF
:101330000060009000BF00BF1048114908601020F5
:10134000486000210E4881608021C1604900016130
:1013500089004161202181610021C161FFF74EF8C0
:1013600008B1FEF724FF00BF0549616208464462E8
:1013700000BF38BD002C0140001002401C0002409C
:101380007C01002010B5044611480068401C10493B
:10139000086008460068412805DC0968491EC8B293
:1013A0000C4900F049FC0A480068422803D130216A
:1013B0000848FEF7BEFE06480068442806D1002013
:1013C000034908600021044800F0DCF810BD00006B
:1013D000000000200C0100203C01002010B5044654
:1013E0000B480068401C0A4908600846006841280C
:1013F00005DC0968491EC8B2064900F01DFC044816
:101400000068432803D130210248FEF792FE10BD48
:1014100000000020DC0000202DE9F04104460E46CB
:1014200015461F4694F83D00022801D1BDE8F08121
:1014300094F83D00012805D10DB907B1F6E7022067
:1014400084F83D0036B1042E1FD0082E38D00C2E63
:101450006CD150E04749606A81624749606AC16265
:101460004649606A0163216801F134023B4629461E
:10147000606AFEF7F7FF08B10120D7E72068C0686F
:1014800040F400702168C86051E03A49A06A816266
:101490003949A06AC1623949A06A0163216801F132
:1014A00038023B462946A06AFEF7DCFF08B101205E
:1014B000BCE72068C06840F480602168C86036E0FE
:1014C0002C49E06A81622C49E06AC1622B49E06ADA
:1014D0000163216801F13C023B462946E06AFEF7C0
:1014E000C1FF08B10120A1E72068C06840F4006096
:1014F0002168C8601BE01F49206B81621E49206B78
:10150000C1621E49206B0163216801F140023B4624
:101510002946206BFEF7A6FF08B1012086E7206868
:10152000C06840F480502168C86000E000BF00BF80
:1015300001223146206800F0DDF911492068884217
:1015400001D1012000E0002028B12068406C40F467
:101550000040216848642068806800F00708B8F1FE
:10156000060F05D02068006840F00100216808607F
:1015700000205BE7171900085D190008A31900088F
:10158000002C014070B504460D4635B1042D0ED037
:10159000082D16D00C2D28D11DE02068C06820F43D
:1015A00000702168C860606AFEF702FE1EE02068D5
:1015B000C06820F480602168C860A06AFEF7F8FD6A
:1015C00014E02068C06820F400602168C860E06A08
:1015D000FEF7EEFD0AE02068C06820F48050216824
:1015E000C860206BFEF7E4FD00E000BF00BF0022F2
:1015F0002946206800F07EF919492068884201D107
:10160000012000E0002090B100BF2068006A41F294
:101610001111084050B92068006A8910084028B9A3
:101620002068406C20F400402168486400BF00BF7F
:101630002068006A41F21111084050B92068006A20
:101640008910084028B92068006820F0010021684E
:10165000086000BF012084F83D00002070BD00003C
:10166000002C014000BFFEE708B500BF0A484069F2
:1016700040F00100084948610846406900F0010057
:10168000009000BF00BF002211460C20FFF762F956
:101690000C20FFF74FF908BD0010024008B500BF4D
:1016A0000D48806940F020000B4988610846806938
:1016B00000F02000009000BF00BF00BF0846806916
:1016C00040F0040088610846806900F00400009042
:1016D00000BF00BF08BD00000010024000B591B07F
:1016E00000200F9010901C2108A8FEF722FD202159
:1016F0006846FEF71EFD2248224908600020486027
:101700000021204881605921C160002101614161AF
:101710008161FFF7E3FD08B1FEF749FD00200F905E
:1017200010900FA91748FFF7FDFC08B1FEF73FFD29
:1017300060200890002009900A900B900C900D906A
:101740000E90002208A90F48FFF744FD08B1FEF7EC
:101750002EFD0020009001900290039004904FF421
:10176000005005900020079069460648FFF7A0FC4E
:1017700008B1FEF71CFD0348FFF700FD11B000BDE6
:10178000002C01403C01002000BFFEE7704770477D
:1017900008B508490968C9084FF47A72B1FBF2F13B
:1017A0004143009100BF00BF00994A1E00920029EA
:1017B000F9D108BD14000020704710B5FFF74AF8B2
:1017C00010BD00B58FB0282105A8FEF7B2FC14218A
:1017D0006846FEF7AEFC012005900004069000204C
:1017E00007900120099002200C90C1030D914FF445
:1017F000E0110E9105A8FFF70FFA08B1FEF7D7FC2C
:101800000F20009002200190002002904FF4806091
:1018100003900020049002216846FFF7EDF808B11C
:10182000FEF7C5FC0FB000BD1148006840F0010094
:101830000F490860084640680E4908400C49486056
:10184000084600680C4908400949086008460068D5
:1018500020F4802008600846406820F4FE004860BC
:101860004FF41F008860C8030449086070470000F7
:10187000001002400000FFF8FFFFF6FE08ED00E058
:1018800010B50268184B984208D0B0F1804F05D0CF
:10189000164B984202D0164B984203D122F07002A8
:1018A0004B681A43104B984208D0B0F1804F05D0D6
:1018B0000E4B984202D00E4B984203D122F4407254
:1018C000CB681A4322F080034C6943EA04020260A9
:1018D0008B68C3620B688362034B984201D10B692A
:1018E00003630123436110BD002C0140000400404C
:1018F0000008004030B501F01F05012404FA05F38B
:10190000046A9C430462046A01F01F0502FA05F5AB
:101910002C43046230BD70B505466C6A012084F822
:101920003D00606AA84202D10120207710E0A06A41
:10193000A84202D1022020770AE0E06AA84202D140
:101940000420207704E0206BA84201D108202077F2
:101950002046FFF717FD0020207770BD70B50546C3
:101960006C6A012084F83D00606AA84202D101201F
:10197000207710E0A06AA84202D1022020770AE076
:10198000E06AA84202D10420207704E0206BA8423C
:1019900001D1082020772046FFF720FD0020207786
:1019A00070BD70B50446656A012085F83D00284683
:1019B000FFF7E2FB70BD000030B5056A25F00105B8
:1019C0000562026A4368846924F0700424F0030409
:1019D0000D682C4322F002028D682A430D4DA84267
:1019E00006D100BF22F00802CD682A4322F004028B
:1019F000084DA84207D123F4807323F400734D6986
:101A00002B438D692B43436084614D6845630262BB
:101A100030BD0000002C014030B5056A25F01005EE
:101A20000562026A4368846924F4E04424F4407443
:101A30000D6844EA052422F020028D6842EA05126E
:101A40000E4DA84207D100BF22F08002CD6842EAC5
:101A5000051222F04002094DA84209D123F4806307
:101A600023F400634D6943EA85038D6943EA8503E6
:101A7000436084614D688563026230BD002C014083
:101A800030B5056A25F480750562026A4368C46949
:101A900024F0700424F003040D682C4322F4007237
:101AA0008D6842EA05220F4DA84207D100BF22F4FB
:101AB0000062CD6842EA052222F48062094DA84204
:101AC00009D123F4805323F400534D6943EA0513ED
:101AD0008D6943EA05134360C4614D68C5630262C2
:101AE00030BD0000002C014030B5056A25F480555A
:101AF0000562036A4468C26922F4E04222F440723B
:101B00000D6842EA052223F400538D6843EA053349
:101B1000064DA84204D124F480444D6944EA85145A
:101B20004460C2614D680564036230BD002C014011
:101B300000BFFEE702480068C0F3022070470000C3
:101B40000CED00E010B5002804DB0A07130E054A6F
:101B5000135406E00A07140E034A00F00F031B1F7C
:101B6000D45410BD00E400E018ED00E002E008C825
:101B7000121F08C1002AFAD170477047002001E007
:101B800001C1121F002AFBD17047FEF76FFEFFF75D
:101B900018FEFFF783FDFFF767FDFFF79FFD01E0EC
:101BA00000F016F8FCE7000030B5412B00DB30BD3B
:101BB00003EB4304054D285503EB43042C446170AB
:101BC00003EB43042C44A27000BFF0E71800002090
:101BD00010B500231548027801780078FFF7E4FF7C
:101BE00001230022114611480078FFF7DDFF022390
:101BF00000220E4801781046FFF7D6FF03230B485A
:101C0000027800210846FFF7CFFF04230748027837
:101C100001780020FFF7C8FF3023054A002105485E
:101C2000FFF7FAFB6420FEF76BFC10BD04000020F8
:101C3000DC0000203C01002010B50246412A01DBF7
:101C4000002010BD00202EE002EB4203184C23447C
:101C50005B78834003F080030BB13B2300E01D233E
:101C600021F8103002EB4203114CE35C834003F097
:101C700080030BB13B2400E01D2400F1080321F890
:101C8000134002EB42030A4C23449B78834003F049
:101C900080030BB13B2400E01D2400F1100321F868
:101CA0001340431CD8B20828CEDB0120C9E700004E
:101CB00018000020000000000000000001020304E2
:101CC000060708090000000001020304EC1C0008DC
:101CD00000000020180000006C1B0008041D000814
:101CE00018000020A80500007C1B00080000000070
:101CF000FF000000000000001000000001000000D4
:041D00000024F400C7
:04000005080000ED02
:00000001FF
